:020000040800F2
:1000000078B3002079020008310F00088708000843
:100010002D0F000835070008E71600080000000053
:100020000000000000000000000000002D1100088A
:100030003907000800000000C10F00084512000841
:10004000930200089302000893020008930200083C
:10005000930200089302000893020008930200082C
:10006000930200089302000893020008930200081C
:10007000930200089302000893020008930200080C
:1000800093020008930200089302000893020008FC
:1000900093020008930200089302000893020008EC
:1000A00093020008930200089302000893020008DC
:1000B00093020008930200089302000893020008CC
:1000C00093020008930200089302000893020008BC
:1000D00093020008C9140008930200089302000864
:1000E000930200089302000893020008930200089C
:1000F000930200089302000893020008930200088C
:100100009302000893020008B1120008930200084D
:10011000930200089302000893020008930200086B
:10012000930200089302000893020008930200085B
:10013000930200089302000893020008930200084B
:10014000930200089302000893020008930200083B
:10015000930200089302000893020008930200082B
:10016000930200089302000893020008930200081B
:10017000930200089302000893020008930200080B
:10018000930200089302000800F002F800F065F8FE
:100190000AA090E8000C82448344AAF10107DA45E2
:1001A00001D100F05AF8AFF2090EBAE80F0013F0CF
:1001B000010F18BFFB1A43F001031847FC1A000097
:1001C0001C1B000010F8013B0A4413F0030408BF95
:1001D00010F8014B1D1108BF10F8015B641E05D01B
:1001E00010F8016B641E01F8016BF9D1002D15D0D8
:1001F00010F8014B03F00C030C2BA1EB04040ABF15
:1002000010F8013BA4EB8314A4EB032405F10103D4
:1002100014F8016B5B1E01F8016BF9D5914238BFF0
:1002200010F8013BD1D3704700230024002500269D
:10023000103A28BF78C1FBD8520728BF30C148BF49
:100240000B607047642900F08180002070471FB563
:1002500001F02CFD1FBD10B510BD00F030F91146A6
:10026000FFF7F5FF01F0BEFA00F04EF903B4FFF717
:10027000F2FF03BC01F039FA0948804709480047FA
:10028000FEE7FEE7FEE7FEE7FEE7FEE7FEE7FEE746
:10029000FEE7FEE704480549054A064B70470000A3
:1002A000491200088901000878AD002078B30020C9
:1002B00078AF002078AF0020704700000FB41CB565
:1002C000074B06AA7B4469460090059800F0DFF8CA
:1002D0000020694600F0EEF81CBC5DF814FB00003D
:1002E000ED0100002DE9F0410E4604460020206299
:1002F0002046E168884730B3252805D0D4E901219C
:100300009047206A401CF2E7E168204600278847B2
:10031000050018D0A5F14100192802D820354FF466
:1003200000673246294620462760FFF78BFF40B121
:10033000012804D0F61D26F007060836D8E7361D3A
:10034000D6E72846DAE7206ABDE8F0812DE9F041DA
:100350000646002410687529314616A510D0AFF363
:100360000080002802DA404213A507E031688A07BE
:1003700001D512A502E0490704D511A5012401E029
:10038000AFF3008000210A2206F1240709E0B0FB48
:10039000F2FCB0FBF2F302FB1C003030785418463C
:1003A000491C0028F3D123462A463046BDE8F041D7
:1003B00000F00EB8000000002D0000002B0000002F
:1003C0002000000001F0F4B9704770477047704793
:1003D0002DE9F0470D4699469246044600F124085F
:1003E0000168880604D5E06921F01001216000E071
:1003F0000120A84201DD471B00E00027A1697A190E
:1004000002EB0900081AA0612078C00602D4204639
:10041000AFF30080002608E0D4E901211AF80600B5
:100420009047206A401C761C20624E45F4DB207801
:10043000C0060AD52046AFF3008006E0D4E90121CA
:1004400030209047206A401C2062381EA7F1010727
:10045000F4DC07E0D4E9012118F805009047206A90
:10046000401C2062281EA5F10105F3DC2046AFF3F5
:1004700000802078000602D50220BDE8F087012028
:10048000FBE7000001694A1C02610878704700B56B
:100490008FB0CDE901310021059105497944CDE9BD
:1004A000031011466846FFF71DFF0FB000BD0000A6
:1004B000E5FFFFFF0A6802F8010B0A607047754606
:1004C00000F028F8AE4605006946534620F00700C4
:1004D000854618B020B5FFF7DDFEBDE820404FF09F
:1004E00000064FF000074FF000084FF0000B21F01E
:1004F0000701AC46ACE8C009ACE8C009ACE8C009EB
:10050000ACE8C0098D4670470446AFF30080204632
:10051000FFF7ACFE0048704718AD002021B182689B
:1005200042F00102826003E0826822F001028260F0
:10053000704700000021084A1168084A1140D0E9BC
:1005400000231A4383681A43C3681A431143044AB9
:10055000C2F804137047000004230140E030FCFFA0
:10056000002001400146C86C80B27047024600205E
:1005700013680B400BB1012000E000207047000021
:1005800030B50246002000235068104C20400D7901
:100590000C6844EA05242043506090680C4C2040CD
:1005A000D1E903542C438D682C434D7944EA45042A
:1005B00020439060D06A20F470000C7D641EE4B289
:1005C000234340EA0350D06230BD0000FFFEFFFC31
:1005D000FDF7FFC0F0B504460D4600200021092DAF
:1005E00011DDE068A5F10A0606EB4607072606FAC4
:1005F00007F18843A5F10A0606EB460603FA06F161
:100600000843E0600CE0206905EB4507072606FA81
:1006100007F1884305EB450603FA06F1084320611C
:10062000072A0FDA606B561E06EB86071F2606FAAE
:1006300007F18843561E06EB860605FA06F10843C5
:10064000606322E00D2A0FDA206BD61F06EB8607C7
:100650001F2606FA07F18843D61F06EB860605FA21
:1006600006F10843206310E0E06AA2F10D0606EBF4
:1006700086071F2606FA07F18843A2F10D0606EB4E
:10068000860605FA06F10843E062F0BD816841F094
:10069000804181607047000000B58DB001210420C9
:1006A00000F090FC0121084600F08CFC01210802BA
:1006B00000F0A8FC0C20059003208DF81800002005
:1006C0008DF81B0005A9184800F037F83020059078
:1006D00005A9164800F031F80121080200F0A2FC3B
:1006E00000214FF4807000F09DFC002001900490E8
:1006F00003904FF48030029001A8FFF71BFF002009
:1007000007908DF820008DF8210009900B900120B2
:100710008DF8300007A90648FFF732FF0121044891
:10072000FFF7FCFE0DB000BD0008024000000240D3
:100730000020014000BFFEE77047F0B50A460021E7
:100740000023002400BF3DE0012505FA01F31568F0
:1007500005EA03049C4234D105684F000326BE40DD
:10076000B543056015794E00B54006683543056010
:100770001579012D02D01579022D16D185684F000B
:100780000326BE40B543856055794E00B540866866
:1007900035438560456801268E40B5434560456810
:1007A00096798E40B6B235434560C5684F00032642
:1007B000BE40B543C560D5794E00B540C6683543E7
:1007C000C560491C1029BFD3F0BDF0B5002300243B
:1007D0004D07ED0E02FA05F3CE1000F1200555F895
:1007E00026504E07F70E0F26BE40B543CF1000F13E
:1007F000200646F82750CE1000F1200555F8265067
:1008000045EA0304CE1000F1200545F82640F0BD6E
:100810000246002013690B400BB1012000E00020CC
:10082000704741837047000010B50446072301223A
:1008300021460848FFF7CEFE0648FFF727FF00BF16
:1008400002210448FFF792FE0028F9D00148FFF783
:1008500089FE10BD002001402DE9F04107460C46FD
:100860000025002608E03846FFF7DEFF0544052096
:1008700000F05CFF701CC6B2A642F4DBB5FBF4F0DE
:1008800080B2BDE8F08100BFFEE700001CB5012189
:10089000052000F097FB0920009000208DF804004F
:1008A00003208DF8050002208DF8070069461548E1
:1008B000FFF743FF0120009002208DF807006946F2
:1008C0001148FFF73AFF41F20200009001208DF835
:1008D000070069460C48FFF730FF4FF400500090C6
:1008E00001208DF8070069460848FFF726FF4020E1
:1008F000009001208DF8070069460248FFF71DFFB0
:100900001CBD00000000024000080240000402403C
:1009100000B5002000F008F900BD00002DE9F84FF7
:1009200004460E4617469B460025A8464FF0010A8E
:10093000C4F10700C4B2C6F10400C6B261E00025EC
:100940004FF0010A12E03248405D17F80810884263
:100950000AD12F49681C095C08F10100385C81420A
:1009600002D14FEA051A05E0A81CC5B22848405D2F
:100970008328E8DC00BFBAF1010F3CD006F1010C7E
:100980004FF0010ECEEB0C1C0CF0FF0304F1010C38
:10099000CEEB0C1C0CF0FF024FEA067C4FEA1C6108
:1009A0004FEA047C4FEA1C6000F097F800200090AA
:1009B0001EE04FF0000912E0164810F80A008021EE
:1009C00041FA09F1084018B1584600F005FA02E072
:1009D0000A9800F001FA09F1010000F0FF09B9F1ED
:1009E000080FE9DB0AF1010A0098401CC0B2009030
:1009F00000982028DDDB601EC4B208F1020000F080
:100A0000FF0817F80800002899D1BDE8F88F00000A
:100A1000F3A5002052A600202DE9F04F04460D4614
:100A200090469946DDF824A005F1010C4FF0010B2A
:100A3000CBEB0C1C0CF0FF0304F1010CCBEBCC0C4A
:100A40000CF0FF024FEA057C4FEA1C614FEAC46CD0
:100A50004FEA1C6000F041F8002718E0002612E081
:100A6000A8F120000C4901EB0010C05D802131414C
:100A7000084018B1484600F0AFF902E0504600F0D7
:100A8000ABF9701CC6B2082EEADB781CC7B2102F77
:100A9000E4DBBDE8F08F000003A000202DE9F84161
:100AA00005460E4614461F46DDF81C80C5F10F00B2
:100AB000C5B2C6F10400C6B20AE0CDF8008014F851
:100AC000012B28466B1EDDB23B463146FFF7A4FFE3
:100AD00020780028F1D1BDE8F881F0B507460C4632
:100AE00015461E462A2000F04BF9002000F0CCF9F4
:100AF000384600F0C9F9002000F0C6F9284600F099
:100B0000C3F92B2000F03CF9002000F0BDF920468D
:100B100000F0BAF9002000F0B7F9304600F0B4F95F
:100B20002C2000F02DF9F0BD70B50646422384223A
:100B300000210846FFF7D1FF002408E0002503E06C
:100B4000304600F049F96D1C422DF9D3641C842C09
:100B5000F4D370BD1CB50121022000F033FA49F234
:100B60000340009001208DF8040000208DF806005D
:100B700003208DF8050001208DF8070069467D48A7
:100B8000FFF7DBFD01207C4908607C49C1F8BC020D
:100B900079492431086078492C3108600020764971
:100BA000091F0860C82000F0C1FD01207349C1F889
:100BB0008002322000F0BAFD112000F0E1F864203C
:100BC00000F0B4FDB12000F0DBF8052000F05CF986
:100BD0003A2000F059F9362000F0D2F8082000F051
:100BE00053F9B22000F0CCF8052000F04DF93A207E
:100BF00000F04AF9B32000F0C3F8052000F044F9F2
:100C00003A2000F041F9052000F03EF93A2000F0CA
:100C10003BF9B42000F0B4F8002000F035F9C02012
:100C200000F0AEF8AA2000F02FF90A2000F02CF90D
:100C3000842000F029F9C12000F0A2F8C02000F0C3
:100C400023F9C22000F09CF80D2000F01DF90020CF
:100C500000F01AF9C32000F093F88D2000F014F989
:100C60002A2000F011F9C42000F08AF88D2000F04D
:100C70000BF9EE2000F008F9C52000F081F80620FD
:100C800000F002F9E02000F07BF8062000F0FCF80C
:100C90001C2000F0F9F8102000F0F6F8142000F005
:100CA000F3F8302000F0F0F82B2000F0EDF82420CD
:100CB00000F0EAF8292000F0E7F8282000F0E4F836
:100CC000262000F0E1F82E2000F0DEF8392000F0B8
:100CD000DBF8002000F0D8F8022000F0D5F8012061
:100CE00000F0D2F8102000F0CFF8E12000F048F832
:100CF000062000F0C9F81C2000F0C6F8102000F013
:100D0000C3F8142000F0C0F8302000F0BDF82B200C
:100D100000F0BAF8242000F0B7F8292000F0B4F869
:100D2000282000F0B1F8262000F0AEF82E2000F0C8
:100D3000ABF8392000F0A8F8002000F0A5F8022058
:100D400000F0A2F8012000F09FF8102000F09CF8BD
:100D50003A2000F015F8052000F096F8292000F060
:100D60000FF80A2000F0E2FC4FF47840FFF7DCFEB9
:100D70001CBD0000000402408482404200804042CA
:100D80000022134B1A60134BC3F8B022002118E065
:100D900000220F4B24331A6000F08002802A04D115
:100DA00001220B4B38331A6003E00022084B383322
:100DB0001A600122064B24331A604206100E4A1CA8
:100DC000D1B20829E4DB0122014B2C331A607047B1
:100DD000848240420080404210B502460123284CE4
:100DE00023600023274CC4F8B032C2F3072100204F
:100DF00018E00023224C2434236001F08003802B70
:100E000004D101231E4C3834236003E000231C4C22
:100E10003834236001231A4C243423604B06190E06
:100E2000431CD8B20828E4DB0123154C2C34236082
:100E3000D1B20023134CC4F8B032002018E00023D4
:100E40000F4C2434236001F08003802B04D1012354
:100E50000B4C3834236003E00023094C3834236002
:100E60000123074C243423604B06190E431CD8B2CF
:100E70000828E4DB0123024C2C34236010BD000061
:100E800084824042008040420122144B1A600022BA
:100E9000134BC3F8B022002118E000220F4B24337B
:100EA0001A6000F08002802A04D101220B4B3833F3
:100EB0001A6003E00022094B38331A600122074B05
:100EC00024331A604206100E4A1CD1B20829E4DB12
:100ED0000122024B2C331A6070470000848240428A
:100EE000008040421CB50121022000F06BF8782000
:100EF000009001208DF8040000208DF806000320EA
:100F00008DF8050001208DF8070069460548FFF7B8
:100F100014FC78210348FFF784FC01200249086093
:100F20001CBD0000000402408C82404200BFFEE76E
:100F30007047000070B5002100230F22C4781CB355
:100F4000174C246804F4E064C4F5E064C4F307219A
:100F5000C1F10404E3B20A4144789C40E1B28478D0
:100F6000144021430C07210E0E4C0578615504787E
:100F700004F01F050124AC4005786D11AD0005F1AA
:100F8000E025C5F8004109E0047804F01F050124BC
:100F9000AC40054D0678761145F8264070BD00003E
:100FA0000CED00E000E400E080E100E002490143D4
:100FB000024A1160704700000000FA050CED00E0E5
:100FC0007047000029B1064A12680243044B1A60B8
:100FD00004E0034A12688243014B1A607047000024
:100FE0003038024029B1064A12680243044B1A60A5
:100FF00004E0034A12688243014B1A607047000004
:101000004038024029B1064A12680243044B1A6074
:1010100004E0034A12688243014B1A6070470000E3
:101020004438024029B1064A12680243044B1A6050
:1010300004E0034A12688243014B1A6070470000C3
:1010400024380240F0B500210022002402250026A9
:101050000223324F3F6807F00C0121B1042905D06B
:10106000082937D105E02E4F076036E02D4F076085
:1010700033E02A4F3F1F3F68C7F38056274F3F1F7B
:101080003F6807F03F036EB1264FB7FBF3F7DFF879
:101090008CC0ACF1040CDCF800C0CCF3881C07FB5E
:1010A0000CF40CE01E4FB7FBF3F7DFF870C0ACF1A7
:1010B000040CDCF800C0CCF3881C07FB0CF4174FC1
:1010C0003F1F3F68C7F301477F1C7D00B4FBF5F766
:1010D000076002E0124F076000BF00BF0F4F3F687C
:1010E00007F0F0010909104F7A5C0768D7404760A4
:1010F0000A4F3F6807F4E051890A0B4F7A5C476852
:10110000D7408760054F3F6807F46041490B064FA1
:101110007A5C4768D740C760F0BD000008380240DD
:101120000024F40000127A003EAC0020704700005A
:101130000CB50020019000903448006840F48030E5
:101140003249086000BF3148006800F40030009068
:101150000198401C0190009818B90198B0F5A04F73
:10116000F1D12A48006800F4003010B1012000904D
:1011700001E0002000900098012846D1234840302B
:10118000006840F0805021494031086020480068E4
:1011900040F440401E4908601C48083000681B4964
:1011A000083108600846006840F4004008600846BE
:1011B000006840F4A05008601648091F0860081F26
:1011C000006840F08070091F086000BF0F48006889
:1011D00000F000700028F9D040F205700E49086058
:1011E0000A480830006820F0030008490831086008
:1011F0000846006840F00200086000BF034808305D
:10120000006800F00C000828F8D10CBD003802403E
:101210000070004008544007003C0240042808D1F8
:101220004FF0E021096941F004014FF0E022116123
:1012300007E04FF0E021096921F004014FF0E022BE
:10124000116170477047000010B51548006840F400
:101250007000134908601348006840F0010011490C
:10126000086000200F49083108600E4800680E49E8
:1012700008400C4908600D48091D0860081F0068F7
:1012800020F48020091F0860002006490C31086006
:10129000FFF74EFF4FF0006001498039086010BD34
:1012A00088ED00E000380240FFFFF6FE1030002419
:1012B00010B50121314800F0AAF800285DD00121C5
:1012C0002E4800F095F805210D20FFF7C5FAC0F56E
:1012D0000060C82190FBF1F46421204600F076FA0A
:1012E0002749087005210846FFF7B6FAA0F5006007
:1012F000C82190FBF1F46421204600F067FA2149EF
:101300000870214801780078401C1F4A10700A2993
:1013100033DD0020114608701C480068012807D101
:101320001A49091D086000201949C1F88C0224E0FF
:101330001648001D0068012807D1144908310860CB
:1013400000201349C1F8900217E0104808300068E7
:10135000012807D10D490C31086000200C49C1F863
:1013600094020AE009480C300068012805D10749B9
:10137000086000200649C1F8980210BD000C00402A
:101380000000002001000020020000208C8240426A
:10139000008040427FB505460C4601210820FFF73A
:1013A00021FE0295ADF804400020ADF80600ADF82E
:1013B0000C0001A90D4800F045F8012211460B4828
:1013C00000F036F80121094800F015F832208DF8B8
:1013D000000001208DF8010003208DF8020001209B
:1013E0008DF803006846FFF7A5FD7FBD000C0040A7
:1013F000CA430282704721B1028842F00102028092
:1014000004E002884FF6FE731A400280704730B540
:101410000246002000230024158A05EA010395896D
:1014200005EA010413B10CB1012000E0002030BD39
:101430001AB183890B43838102E083898B438381C3
:101440007047000000220288184B98420ED0184BBB
:1014500098420BD0B0F1804F08D0164B984205D07F
:10146000154B984202D0154B984204D14FF68F731A
:101470001A404B881A43124B984207D0114B98429E
:1014800004D04FF6FF431A400B891A4302804B6881
:10149000C3620B880385054B984202D0044B9842E7
:1014A00001D18B7A038601238382704700000140BB
:1014B000000401400004004000080040000C00400F
:1014C000001000400014004010B540F225511D48A6
:1014D00000F04AF810B31B4800F000F9C4B21A48F3
:1014E000008800F40040C8B91748008800F4804024
:1014F00060B10A2C03D000201349088020E0124874
:10150000008840F400401049088019E00D2C06D1F5
:101510000D48008840F480400B49088010E00A48DC
:101520000088C0F30D0009490C5407480088401C8E
:101530000549088008460088C72801DD002008808A
:1015400010BD0000001001403CAC002050AC002059
:1015500021B1828942F40052828104E082894DF6F1
:10156000FF731A408281704770B502460024002341
:101570000025002040F66A16B14200D100BFC1F339
:10158000421501F01F03012606FA03F3012D02D1D3
:101590009689334006E0022D02D1168A334001E0DD
:1015A000968A33400C12012606FA04F41688344059
:1015B00013B10CB1012000E0002070BDF0B503466E
:1015C000002400260025002040F66A17B94200D109
:1015D00000BF1846C1F3421401F01F06012707FAA5
:1015E00006F5012C01D10C3004E0022C01D11030A1
:1015F00000E014301AB107682F43076002E0076863
:10160000AF430760F0BD00002DE9FF4705460E46D9
:101610000024A14600BFA046B08900B100BF2C8ABB
:1016200024F44054F08804432C82AC8941F20C60CD
:101630008443B08831890843718908430443AC81ED
:10164000AC8A24F44074B0890443AC826846FFF746
:10165000F9FC2048854202D01F48854202D1DDF8BE
:101660000C9001E0DDF80890A88900F4004040B13A
:1016700009EBC90000EB091031684900B0FBF1F734
:1016800007E009EBC90000EB091031688900B0FBE5
:10169000F1F76420B7FBF0F004012009642101FB9D
:1016A0001078A88900F4004040B1322000EBC80057
:1016B000B0FBF1F000F00700044308E0322000EB3B
:1016C00008106421B0FBF1F000F00F0004432C81FE
:1016D000BDE8FF87001001400014014001468888E2
:1016E000C0F30800704700BFFEE700BF704700006E
:1016F00010B504466FF00400FFF790FDE11704EB0E
:101700005171C1F3C701074A11701046007800EB10
:101710004001C1EBC0104FF6FF7101EAC000024961
:10172000088010BD32AC002034AC002070B50446F7
:101730004FF4077094FBF0F0C6B24FF4077094FBBF
:10174000F0F100FB114085B205E04FF4077000F0A6
:1017500009F8701EC6B2002EF7D115B1284600F068
:1017600001F870BD0146114A12884A434FF0E02348
:101770005A6100229A611A46126942F001021A6106
:1017800000BF4FF0E022106900F001021AB100F42E
:101790008032002AF5D04FF0E022126922F00102D7
:1017A0004FF0E0231A6100229A61704734AC0020A8
:1017B00000BF054A128802F04002002AF9D0C2B2E6
:1017C000014B9A80704700000010014002468A4297
:1017D00001DB084670474842824201DC4842F9E793
:1017E0001046F7E78CB0F2A103C9CDE90A01002742
:1017F000A820FFF77DFFFFF775FBFEF74DFFFFF712
:1018000045F84FF4A060FFF7D1FB4FF4E13000F052
:10181000F7F942F2CF0140F2E730FFF7BBFDFFF7E7
:1018200099F9FFF775F8C1E16420FFF77FFFE248FF
:101830000578E24806780121E148FEF7E9FF012832
:1018400007D105F16400C5B206F16400C6B20127F4
:1018500022E00121DB48FEF7DBFF012809D16420EB
:1018600000EB4500C5B2642000EB4600C6B202277B
:1018700012E00821D348FEF7CBFF012809D105EB80
:1018800045006430C5B206EB46006430C6B203279B
:1018900002E0642564260027A5F16408A6F1640926
:1018A000B8F1000F0ADD4246C7A102A8FEF706FD07
:1018B0000022C5A104A8FEF701FD0AE0C8F100025C
:1018C000C1A104A8FEF7FAFC0022BFA102A8FEF7FE
:1018D000F5FCB9F1000F0ADD4A46BBA108A8FEF7E6
:1018E000EDFC0022B8A106A8FEF7E8FC0AE0C9F169
:1018F0000002B5A106A8FEF7E1FC0022B2A108A8EB
:10190000FEF7DCFC00204FF6E073B0A2012100904E
:101910000846FFF703F800204FF6FF73ACA2012141
:1019200000900420FFF7BAF800204FF6FF7308AAD2
:10193000012100900520FFF7B1F800204FF6E07379
:10194000A4A2012100900420FEF7E8FF00204FF63A
:10195000FF739FA2012100900A20FFF79FF800204B
:101960004FF6FF7306AA012100900B20FFF796F8AF
:1019700000204FF6E07398A2032100900120FEF7AB
:10198000CDFF00204FF6FF7391A2032100900420A9
:10199000FFF784F800204FF6FF7304AA032100909C
:1019A0000520FFF77BF800204FF6E0738BA20321A0
:1019B00000900420FEF7B2FF00204FF6FF7384A2D0
:1019C000032100900A20FFF769F800204FF6FF730B
:1019D00002AA032100900B20FFF760F800204FF6C9
:1019E000E0737FA2042100900220FEF797FF002001
:1019F0004FF6FF7376A2042100900820FFF74EF8FF
:101A00004FB900204FF6FF7377A204210090052004
:101A1000FEF784FF22E0012F09D100204FF6E0738A
:101A200072A2042100900520FEF778FF16E0022F35
:101A300009D100204FF608436DA204210090052033
:101A4000FEF76CFF0AE0032F08D100204FF4784323
:101A500068A2042100900520FEF760FF4FF480513A
:101A60005748FEF7D5FE08BB0520FFF75FFE4FF491
:101A700080515348FEF7CCFE002816D13220FFF7E4
:101A800055FE01208DF82900002406E00AA9085D12
:101A90005949FEF797FC601CC4B2082CF6DB3220D3
:101AA000FFF744FEFF208DF8290070E04FF400514D
:101AB0005248FEF7ADFE08BB0520FFF737FE4FF496
:101AC00000514E48FEF7A4FE002860D13220FFF7F7
:101AD0002DFE13208DF82900002406E00AA9085DD8
:101AE0004549FEF76FFC601CC4B2082CF6DB3220BF
:101AF000FFF71CFEFF208DF8290048E00221304846
:101B0000FEF786FEF8B90520FFF710FE02212C48EB
:101B1000FEF77EFED8BB25208DF829003220FFF786
:101B200005FE002406E00AA9085D3349FEF74AFCD9
:101B3000601CC4B2082CF6DB3220FFF7F7FDFF2053
:101B40008DF8290023E040211E48FEF761FEF0B920
:101B50000520FFF7EBFD40211A48FEF759FEB0B90A
:101B60003220FFF7E3FD37208DF82900002406E03E
:101B70000AA9085D2049FEF725FC601CC4B2082CA8
:101B8000F6DB3220FFF7D2FDFF208DF829008DF81B
:101B90002B508DF82C60002406E00AA9085D164938
:101BA000FEF710FC601CC4B2082CF6DB3CE600001B
:101BB000FFFF020A0AFE0D0A0000002001000020BB
:101BC000000802400000024025642000C7B0000069
:101BD0003A000000BAF30000D7F30000D3D20000AF
:101BE000B5B5CEBB00000000CEDE0000B5CD0000D4
:101BF000D6D00000B8DF000038AC0020000402405E
:101C000010B588B0044601210846FFF7DBF9012131
:101C10001020FFF7F7F9072209212248FEF7D5FD2A
:101C200007220A211F48FEF7D0FD4FF4C06006903E
:101C300002208DF81C008DF81D0000208DF81E007C
:101C400001208DF81F0006A91648FEF776FD0294C4
:101C50000020ADF80C00ADF80E00ADF81000ADF8A6
:101C600014000C20ADF8120002A90F48FFF7CCFCBD
:101C700001210D48FFF76CFC012240F225510A4872
:101C8000FFF79CFC25208DF8040003208DF805004B
:101C90008DF8060001208DF8070001A8FFF74AF92A
:101CA00008B010BD00000240001001404FF040702D
:101CB000E1EE100A70470000D81C00080000002068
:101CC00050AC0000C4010008C4B3000850AC0020B0
:101CD0002807000028020008301A000000331833DB
:101CE000383B593B793B7A3B9A43BA43DB43FB434E
:101CF000FB4C1B0210751A4BF943D943B843973B71
:101D000056331432D332B1326E324C2A0A29E929C1
:101D1000C729A62985298531A531C529C531C531F0
:101D2000A631A529C629E6320542475AE952485A42
:101D3000497B6E734D62EB526A6B2D630D524A52B2
:101D40006B4A0941E82925312520A329055A8B63CF
:101D50000D6B8E73B0632D632D4A6A39E839C8293B
:101D60006639A84A2A4A2941E8310A102539A84289
:101D70000941E941E9316718C420E5188320A41816
:101D800083186220C428E42083188220C329041009
:101D9000411012C30C1006A2290420C30A10366198
:101DA00028C33125314531043104418629032923D3
:101DB0005AC87C4A85496D675D6654A54C244342E8
:101DC0003261196008E010C018C110A0108010A086
:101DD00018E019000210062119413339FE437A43F5
:101DE000FC43DB4BFC10083B543C545C543B02244A
:101DF000051A4BFA4B0444117743563B143AB1325F
:101E000090326D322C320A310416C60016A5061522
:101E100008241B31E6322631E552A862EA52687383
:101E20000C7B4D7B8E5ACB62EC62EC5AAC021405F3
:101E300041C8398700126608100EA762CC73AF52F2
:101E40008B4A8B634E5ACC0840066A420939C8F661
:101E5000400B4A4A39C821253187316714140529B6
:101E60004620E50210166320A320E418A320A33126
:101E70002528E4104120C331451021F4510C1502EE
:101E80001409A3184128E339652900141D39664156
:101E90008528E342066BCA854B7DCA656854A53B1D
:101EA000C32AC121E011601100001004A018A10292
:101EB0001406C118C010C0001404411941FA327947
:101EC000FE36DAF830061C4C3C4C3CFE237C5C02AF
:101ED00024067B5C5B543B0414194BB94B774336A7
:101EE00042F43AF23AB03A8E3A6D322B320931E787
:101EF00031E7041420E639E63A063A263A264267E4
:101F00005AC94A276B2B7B6D7B6D62AA62EB5ACB59
:101F1000526A62CCFC11F6180B3146290531466332
:101F20000C841114100D2D7BF04A8B52CC52AC4214
:101F30002A4A01201539C831872966294641E84ACD
:101F40004A41E929463167294614191A1646F818F4
:101F500004E520C4062AC402180F3125290418827A
:101F600018823124102110410A180761188239663D
:101F7000310619129425A23965314528E341853986
:101F800085294452C874AC85CD654954E63BE42BA1
:101F90000122802A2029E02160180219042741210A
:101FA0000021FE650021FA11FC11FE140D9C5C9DC0
:101FB0005C9C64BC64BC5C9C5404401C541B4BDAA9
:101FC0004BB84B9743554334431242F03ACE3A8DC7
:101FD0003A6B3A493A2731FE1804463A46FC1688CD
:101FE000FE140C4C6AEB5A8A52695A8A5AAB021890
:101FF000084A41E841E839A7DC18148720E439C7CA
:102000006B4E8C52738F52CC6B4E6B4E528B0014B6
:10201000064A4209422900140A46210518C431A77C
:1020200041E92C16672E1646001287181004262048
:10203000C41A200683188328E404590419FA1C05DD
:102040000800186252034AC318111E1516142241C3
:1020500086310429034A0839A63A0763CB750C6D0B
:102060004A550644643BE33BA243813B0132602175
:10207000F6180710C010E01922FC120102500421CA
:102080004399FE1BFA44F815FE21FE20049C5CBD1A
:1020900002200564BD64DD02165C04190C14265B85
:1020A000543A54194BD84B974B754B7443524330A9
:1020B000430E42ED42AA3A6842684267428752E8BC
:1020C0005B095288FE14068D6B2C62CBFE368A02A9
:1020D000180A8B62CC524941C73165FE1410E842A0
:1020E000084A4A6B6E6B4D5ACB39C84A6AFC1E6B64
:1020F0001C04162A0224040939A8F6140518C42958
:1021000025F62C040531662E031D0A0312660A28E3
:102110000426108308331862E41DE80319042E61B5
:10212000F8032C07080010213124140415001808A6
:10213000E3312420C23945FE1014C331444A084219
:102140000752E8644A752A5D0554A44C83021018AE
:10215000614C2043A13B212A601A0019E12A232A5D
:102160000321C219611941FA11FC35FC30043B4CC2
:102170005CFE427CFE525CFE3364FD021ADD0A10F6
:102180002A9B5C7A5C5A5419541853F74BD54BB3BD
:102190004B924B71534F4B2D4B0B4AEA530A6B6BCF
:1021A000528862C96AEA62CA5249FC2008696AEB2D
:1021B00062CB5A8B0215FE1C0AC741C739864208FA
:1021C00083CF12041C08AB736E62EC4A29F6031A23
:1021D000C80011FE19EA2AA8F0180531A721250424
:1021E000180646316620E40225022246021C072119
:1021F00004210520E40404240A8220C4104128E4B8
:102200003986EE240728E320C31020121D1A041E6D
:10221000045A051DFE031F28C304031644086C2C32
:10222000854A28422663A974C964E454A34CA24495
:10223000C14CC04CA04C6044203BC13B8133423375
:10224000433B243B043284222243FAF40441FC55EC
:10225000FE22DD023364DE022004FE6D1E02176CD6
:10226000FE062428DC64DC5CBB5C9A5C7A5459541E
:1022700037541653F55BD25BD1538F5B6E636D5A47
:10228000EA41E65A895A48526862EBFE1F5229FA1F
:10229000052C046A4A09B4032016398641A641E791
:1022A0004A07736D94317B8E6B0C83AE62EB41F207
:1022B000240687422941E9FE250E1DF6032EA8E6D5
:1022C000033D2E04132529F43900150821FE1F298A
:1022D0000504051DEE051F1041E60316E4EE1D0A78
:1022E000062F18620C0335FE1245082AE3061F4923
:1022F000C600041D0403196C1410E86C2964A5546D
:102300006344613C603C804480027012A04CA14C4C
:10231000824C6344444424440543E53B85FE49FA2A
:1023200019FC3354BCFC2004FD64FE0231FC123E57
:1023300002123F02161F0874041D64FC06181C7864
:1023400064375C355C145BF26C1173F04A494A07E0
:102350005A6962685A695AAA41E7FE21FC1DF604CF
:102360001320E4FC1404C739A5941C12075AAA8B45
:10237000EF9C7183AE732C734D6B2D4A29F6043E8E
:1023800026FE051EE800031DFC062C0520E539A7E6
:10239000EC0525F825001D34061FA7210E031C059A
:1023A0002104292520041804A318C30819F81DECDA
:1023B000062E240A051F28E406041DFE062D00042F
:1023C0002D0C072D0407141341A652273124396719
:1023D0005A8C298463C96CC65C8400100A4034207E
:1023E000448054E15D4202580E225D245D2555056E
:1023F00054C654C754C8FA10045B4C5BFC38047DC7
:10240000549DFA49F611FE1005651E651FF611FC74
:10241000227502125F04125E02181A3D6D1C74FCD4
:102420006CDB64BA5CB964B96477641474346B6E41
:102430004A085A6A001032285208524852694A28FB
:10244000318629243145418652294A0831243144B4
:1024500041A562A9732B8C0FA4B19C508BCE838DA8
:10246000732C6AEC5A8B3187E01DF2062DEA034586
:10247000F61F3166EA0756C40212C4FC4A05022B55
:102480002925061DF0071D08052DFA044DFC071C23
:10249000052082080008081E241C061DFC051B30B0
:1024A000E36E1C0A245AA952483966628C72032CC6
:1024B000222484CA6CE65D244CE355035D236D84BD
:1024C0006DA575C675C66DC665A55D665D676569F2
:1024D0006569F00655FA129DFE5E9DF80342DEFE28
:1024E00041FC15FC10043E753EFA10085F755F7DD7
:1024F0007F7D7E021C147D7D5D7D5C753B6D3B6444
:10250000DA6CD874977C74632DF20511021B522883
:10251000001C068A39C72945A8041C07243986529D
:102520000841A0061C1D39445A2872EA8BCE9C4FE4
:10253000B513C5B5B5339C918BEE7B4D732C6B0CED
:10254000526AEE031EE5F4032E6720072D260717B7
:1025500029050019F04C073146396620C40C0521C5
:1025600002210C1D0C061A041E1E25000917A33992
:10257000281DF2072C042510200A0729121F3945AF
:102580000809110A14234A285A8A49E85A6B4A282A
:1025900029617C6885A975E76DE66DE676067E079C
:1025A0007E277E287E287607025C088665A76DC98F
:1025B0006DCAF4041E9CF4057E9CF4041DF20448CC
:1025C00004651D65F8225E0235F621F810049E852B
:1025D000BE0212DE061016BD859D7D7C757C753CA5
:1025E00074F97CD973D2528952685228FE10364849
:1025F00062AA396520E3292518A21041418649863F
:1026000038E33903624893ADA470BD54C5D6CE17E4
:10261000D637CDF6CDB5ACD28BAD7B2C72EB730C2F
:102620005A6A3987E81E26F6061626BE190219ECE4
:1026300011E62D040531EE20046629450C1D020823
:1026400019181D0C09111A2DFC081DF8072E450E2E
:10265000061D10032F2020F804196C2F31441E058D
:10266000102941E762EB4A0949E962CA31835B24D8
:1026700095CA86487E687E68866886698E8A866A7C
:1026800086697E4976286DE76DE8021004C9547B9F
:102690000221FE1C04BC5CBCDE043004FC6D1D0287
:1026A000523D02325DFC565FFA439E7DFE1404DE0D
:1026B00085DD001006BD7D9D757C142C121B84B930
:1026C0005B0F4A484A26522849E75A8939869006BC
:1026D0001F1861A603142A04416530E349656A891D
:1026E0009BCEBCF2C574D637DE78DE99DE78D6375D
:1026F000D616CDB5B4F293EE72A96269628A628A87
:10270000021DEA0911E65625FE1DEE08300420A33D
:1027100028F611062E66380B2D3E0B5500111A1D9A
:10272000F40928048241A7001C0739861861186142
:1027300064051E6568042286102F41C77806140BB5
:1027400041C862CA4A054242854900140C887E8805
:1027500086A98EAA8EAB8E8B0414088A7E697E4869
:1027600076270456C7FA1500600B64DC6CFC6D3CE0
:10277000753C755D0251FE69F8229FFE10078DBD04
:102780008DDD8DFD04250216BE12150018097C375B
:10279000528D524849E5002C040841A69A0B1F08A7
:1027A0000096032011824165498551A57AEAA40E5D
:1027B000C512D5D5DEFE33B9E6021C10DE57CDD5E5
:1027C000C553B4D19C0E6A685A285A3007273987F6
:1027D000F22DE6052DD40B410C1DE20549F82DEC38
:1027E000031EA3EA0A3DFE0335061DF40A2D080662
:1027F00021023F3986120C2C0882314549E741A657
:102800000803141349E849E8630D39864A074A0664
:102810004203744685E8FC10088986AA8EAA868A37
:10282000FE1A890E3C0A67764676266E056DE5E847
:10283000093DEA08136D1DFC1A5CD23A7CD8327D42
:102840000219F623757F0225FE19FA32DDFE12FC0D
:10285000023EFD06031C13BF855D84FA6B72524B6A
:1028600049E649E65A49520828A0061F10209A084E
:1028700010142030C351C651A6832AA44FBD12D5CF
:10288000B5E657E698FC1404DAF71A001C1298E62D
:1028900098DE37CD94C533BCF2A42F72A949853A8E
:1028A000031E49EE0311DA240529042904DE65EC30
:1028B0002110471883FC4DEE0921FE1D0C0A19005A
:1028C0001D04043645F02EA7140B142128E441C73B
:1028D0005208398639454A084A096B0D4A28398514
:1028E0005A4841C4532385888E49866902210232A1
:1028F00088FC3004467645022E25D207100764FD79
:102900006CFD6D1CFC30067B7D9B7DBA02129B0A20
:102910001E9CE60434047D7D9DE4110215F0100632
:10292000DD8DFC8E1C021C063C8E1C8DFC04031CE1
:102930000EBE7D9F853C84B75ACE5A2949C5F80DF5
:1029400024066939651881001DA009101681390314
:102950006A68830AA42EC511D594DE16E678EEB90E
:10296000EEDA0221062C1AFAE699DE37D5D5D574AF
:10297000CD33BCB1AC70830B51A649A6522831456A
:10298000E80A15F63E05F20B2DDE0525021DFE0AAE
:102990002D0C072DFC092DF8084D06085D080C1EAE
:1029A00004F40A16A6761C04E42082FC081C0666C1
:1029B0005A4A49E708031C048649E95C0B18048954
:1029C000398590140AA54A638507964A968A0212A9
:1029D00088FE15F8137625021004657E6602180637
:1029E0006564FB6D1BF611FC13759AFC3004D97DF0
:1029F000D8023404B87D990616BB001C059D7DBD28
:102A00007DEE033385FDFE121B021C063B8E1B85EB
:102A1000FC020419FE1C0C7CFB7434524B52084916
:102A2000C55A00051C05104018619005100C0010D7
:102A3000002881620782EAAC2FFE100E93DDF6EECD
:102A400078EE79F6DAF71BEEFA021C1CDAEEBAE63B
:102A500099E657DE16DDB5D595C4F2C4F2AC5093B5
:102A6000AD5A07498649C7DA053DE20E41FA25E22B
:102A70003DD8094225F0290E1D060A4F62180204AE
:102A800012E3662EE4F60319F81C0886184130E4B8
:102A90003946F6051C044949C700031EE95E0B1EB2
:102AA000689008180E2951E842237466960A968B9E
:102AB0008E89F619F4140965C465A365C36E040410
:102AC000100A457E456D396D5A755AFC200DB97D49
:102AD000D885F77DF685D585D57D02140ED67DD7B0
:102AE0007DD985DB7DDB85DB85DCEC12DCF22C1C03
:102AF000FB861B8DFB85FA85FA8DDA85DC759C7566
:102B00007D7D1C74B9637152075205FE03280629A6
:102B100003106008FC201D00204041447ACA9BCD70
:102B2000BCD1CD72DDF5E658E679EE9AEEBAF6D96B
:102B3000F6D9EE021906280BE678DE17DDD6D5B5F4
:102B4000CD53042C0DB470A40E6248392449C73902
:102B500066E80B35081DEE0929D82DE20D1D120877
:102B60002DE60E2662001DFA043E831C043D0A0E6B
:102B70001DF20B20068649A651E8161DFC0E1EC745
:102B800082071C060849A75209000C142AA95A6991
:102B900051C75A0941C45B8595C98E488647762539
:102BA0005DA2558055605D8065A165C26DE46E05CE
:102BB00075E575597579EC21FE1418F67DF57DF4EF
:102BC0007DF175D175B06DB075D27DD47DD685F8A7
:102BD00085DA0016FC0216DC081C10DA85D98DF99E
:102BE00085F985D87D987D9A6D5BFC061006DB64BF
:102BF0001652CE801406E5520641A6FC4E60FC0338
:102C0000180D28A259E7938DAC50CD33D5B4FC25CF
:102C1000001699003005B9F6B9EE021900240678BD
:102C2000E637DDF6021C0ED574C512BCD1B4B19CDA
:102C30000F6A893932082D08042DD00D231042F275
:102C400049082DF40C1DF80D2E2108062DEC0E2D33
:102C500024044D04062DF40D1C054165626A04042C
:102C60002E620C05190218282851E752094A2852E9
:102C7000895A69418651C8398352C37CE78E097EDF
:102C8000076DC4554144E04D005D41658365C3084F
:102C90001006C565C57558CC16B8EE1004F57DF361
:102CA000FC1014F06E0D6DEC65AC65AC6DAD75D0BF
:102CB0007DD285D485D8F412FAFC180ABA85B98574
:102CC000B885B785B6181817B77D98757A6D3A6CC0
:102CD000FA645863924A4B418549C551E630902FBA
:102CE0001040FA051411184039246A89A42FBCD168
:102CF000D574DDD5E637001E780004500499EE98AF
:102D0000023699005657023695021C05B1B4909BC5
:102D100010072C0541854165281235021DE8111F59
:102D20001842F61139121E31EE0B11FA1D20073F21
:102D30001062EE0A1D0C07211A2D02032D40053DDD
:102D40003A0C1DFC031D50061C042851E8860A1D80
:102D50008A091F41668208101A8449E16BC585689B
:102D6000758665855D434CE24CC254E265436D84D3
:102D700065A5101014647575759575B475D375F1E6
:102D800075EF75EE6DED65EB02280ECA65AA65ABB1
:102D90006DCD75CF75D17DD3081D10042C29987D7C
:102DA000977D967D957DB57DB67D9775586D196437
:102DB000D96CD96C56634F41C8498549A5418520D6
:102DC000821041082000FA062E81F6061FAC4FF64D
:102DD00006140494DDF6001E57FE051E78040476E2
:102DE00078022698001D12071C0416DDF604031451
:102DF0000474CD5302180AB0AC4FA40E7AEA4964A9
:102E0000062F4528FE051DD6102B18420445023C0E
:102E10000528C418411E052DEE102D220821201D65
:102E200018072D02042F526978081D0E0724076524
:102E300051E76269590024370762AA51E8312451E9
:102E4000C54981630374A76D4665655D445D455C56
:102E5000E45CE465256D866DC765A65D666D716D84
:102E6000916DB06DCF6E0E6E0D6E0C6E0B6D001011
:102E700004EA65C9021012CA6DCC6DCD6DCF6DD05C
:102E80006DB26DB3759475740223737D08140E765C
:102E900075376CD85C976C766C135AAC641E65748D
:102EA000111E4486082641FE1DFA06540CE36227D3
:102EB0008B6CB4B0CD53D5D5003277FC6104110AC8
:102EC000191435003502141495CD73D573C512B499
:102ED0006FAC0E9BCD830A49854145021FE428DA79
:102EE000131DEE04238220024C04833945FA132D6E
:102EF000F4092D0A033D100A2004A31042F41F4ACE
:102F000008720C2E293C071DFA0C14086562495AF8
:102F1000295A08082C1289626A3144496451A35A1B
:102F200042742675476545FA0C11FE1014056D664E
:102F300075A875E96DE96DC85D4E656E65AD6DECA2
:102F4000FC122B02100C2A6DEA6E0A6DE965E86529
:102F5000E7041C06E9660A6DEB10031406CE65AFA4
:102F60006591281006716D71755202180C747536D2
:102F70006CD664746C536B8F642C0865412439449F
:102F80003123F8053B0821FE1C062372899BEDF4D2
:102F9000081C04B4DDF5FE0311FE3500910249FE64
:102FA00035001A1702140AD5CD74C533CD32C4F1D9
:102FB000021C0B0D936B82EA51A6390341CA071913
:102FC000542A21F63DEA031DE2091D100529F24CA1
:102FD0000466104220071D02132C044220C45E0F19
:102FE0002D74101F396506111C060431035A27562B
:102FF0000A1C06285A066248180418146530C26272
:103000000549E2638475075D045D44550454E3009B
:103010001006666DC8762A02200E0A552C5D4C6596
:10302000AB65EB6E0A6E2A0224056DEA760918106C
:103030000965C765C766086E091810100B65EC6551
:10304000CD65AE6D8E6D8F6D8F7590021C11726C9B
:10305000F26CB36C9274516B6D5A47416539E00C58
:103060001328E2FE2E00FE05141120614984830A14
:10307000AC2EC552D5D5D616DE3600400458E658DB
:10308000F6750066580021FE11014D04031C123232
:10309000BCD0B42EA3CD934B724849443903394573
:1030A0000E0619561B20A2002EA2E40B2DF20F1DB6
:1030B0000A0A1646F825141D10071A18021F398629
:1030C000F40C1C04085A69680E1E036C0D102A24A7
:1030D00049A662696A68626862286A8A51A7308272
:1030E00059C5520352C26C655CC35D434D034CC26B
:1030F0004CA2550465866DE8EA1409C94CEB554BA2
:10310000658B65F611EC110211FC1404EA75EA00F6
:1031100011021D220C22E9121D10041EAB1205140F
:103120000A8D6DAD6DAE758D758E021C0F1074D24B
:103130007CD27C506B0A49E5392339E80B1F20A16A
:10314000880D2E40FE031DFC052806E6938CB48FE7
:10315000FE15FE2636FC71FA46980425FE1500265B
:10316000170045021405CDB4CD9300240DF1BC8F9A
:10317000ABEDA38C8AEA59A538CC3C046539454EA1
:10318000092DEE112EA2DE112D10032D260C2D027D
:10319000033D260B1AC4021C04C341A702041D48A8
:1031A0000B15881C26C3392431235A0762686AA884
:1031B000624872AB59E830A3410362654A4163C378
:1031C0005C824CA044C144814481100F300E45659F
:1031D000A665A765874CCA550A5D89EC410212C8ED
:1031E000023004C76DA70252C710100CA96D8A6582
:1031F0006B656B6D8B6DAB043C188B75AC6D4C7D4A
:103200002D84EE8C6E5247518330C13943314318BF
:103210006000031DFA08580B38E372A9A3EDBCB097
:10322000CD73FE9DF6049D02032900461702390264
:1032300015021805C553BD1202264F021C0B8289C8
:10324000412328C231443985EC151E41F0131DDE9F
:10325000112E20EC154E45FE0615F83E621A181583
:10326000062D10061F41A67A1210040752073214C9
:103270003665310449C662886A885A266AA972ABE3
:10328000496528A051C2628263625C6244403C810D
:10329000346034613C8244C34D05552554E544A84F
:1032A0004CE95D6865870E12C6F061FA32A6022508
:1032B00002240BA865A8658865696D6A6D00100613
:1032C000AA75EC75CB04140C8B7D8C850D7C0C528F
:1032D000264963002DFE033E4000031C04001841F4
:1032E000FA084C08C9A40DBCD0CD94FC031DF0060F
:1032F00016B8F8B5021D12042DFE04150029005D54
:1033000004031C04B4CD73120C2C0EF1BC90AC0E53
:10331000ABEE82C962273903D2121DE40B25021DD0
:10332000E2172DE40A1D600D1D000B3D120912C4A9
:10333000FC1E830A041E62360B1D080819021E07B4
:10334000440B32443214080362885A476AA90010B9
:1033500014CB51C630C1412162635B025C4344819E
:103360003C613420021C1621346244833C6333E107
:1033700044A74D0755475D865D855D8512071EA6EE
:1033800018101D28071F6D8520063504151A300CEE
:103390006765676D686D6A758B75AA021ECA380508
:1033A0004412A97DAB8D2C7BA95A25414230C239EC
:1033B0002430E2FE3DFE032EA5FE035FC4F1FC06B1
:1033C00025FE2DF2089EB8FA06350049007FDDF68D
:1033D00004033C05B4CD94CD0A08280DBC6FABEDB9
:1033E0009BAC6A4751C62881F825021C052082182B
:1033F0006102081DEA102DE8122D26133DFE061D60
:103400001A1A1D700C2D0614151A340849E65207B5
:1034100041A630001F49E602031416EA730B72CA74
:103420006248496438E1624552E454043C424482B3
:10343000021006412C012BE1021C12A01B404CC6BD
:103440004CE65546554555645544554420072224BD
:1034500002136544022101140766652565466D0067
:103460001006758975AA7D022C0475A975140424AB
:103470000CA87569954C736859E439220024092811
:10348000C2182010010801003C0959C68B4BB46FCB
:10349000CD32FA091DF8071DF80D1EB8F40E1A9961
:1034A0000655043EE6FE077D02036D040326B500C3
:1034B0001C15CD13C4F2B46FB44EA40D7AC96207C3
:1034C00040E328A230E3DE1A1D4A131DE6131C0652
:1034D000E328C21020F4041DF0123D0A0C1D7208EE
:1034E0002D080F2D0C191DFE182E8508081D420BE6
:1034F00014042428C3041C1A245A486AAA730C6AA8
:10350000AA72CA51C6410341425AE54BC43C6344C6
:10351000820E162404833C4202140523A02380005B
:10352000100AE54D054D244D044CE3021006C3542A
:10353000A354A2021C06C254C35CE330061C16044A
:103540005CE45D0565476D486D48756975897D89E1
:103550007DA975A91604140AA875488CEB73075148
:10356000830016E20016A1002600001C0528A262B6
:1035700027FE041E90FC071C04B5E637FA044EB87B
:10358000F20F4EE6FA0A52B8FE3900B7E6170045C8
:10359000022E330A09180ABCAFAC0D9BCC6A4761F6
:1035A000021DD6162DFC041EE3DC0F1D12063F186B
:1035B000400A0436C3022D200C1D1E071D02132DC8
:1035C00002111C0B2441C649E751C74986282A0528
:1035D000100528C35A28FC1C04EB6AAA06071C0B1A
:1035E0004838E241224A6353E444020338094482E2
:1035F00044A244A33C82064004E04CE402200B4475
:10360000E344A344633C6244420214094C624C62AA
:10361000548254830E2007A45CC55D0765023627DB
:1036200004124808340A8875A985298C8A6AA6007C
:103630003C07E34144288118FA0A2E08FE042E882C
:10364000F80C4DF40E1DF6033DF20D55007DFA0900
:1036500045FEA50079021C1753CD32C511BCAFBC85
:103660008FAC0D82E96A0749652061310328E814AF
:103670001F20A212081DDE171F1040FC151E031884
:10368000104E03FC1C1D6E111D021449022C045225
:10369000085104101D0A151C0528A349C75C121CFB
:1036A000088962695A075A074E062C08E14A2253D4
:1036B000834C63FE061500340BC3450344C33461D9
:1036C0002C4055FA1744C312100762342234023CCE
:1036D0000210094402442244224C422E1C06635428
:1036E0008454A52A161406C65CC65CE604180408B1
:1036F00075490C1812687D6A8D2B8C2A6265498386
:10370000390238E34945001DFA0B1C09100110204D
:1037100041037AA9FC071C0412CD94F2111C065730
:10372000DE58DE78EC0B2DF4113E99000C6DFC0791
:103730001DFE0479FE5D060755021E7308073C0F47
:1037400011C4F0BC8FB44EA3AC72676A483804034E
:103750002F312450131C05394549C60A0826A200FA
:103760002F312414072D260F1D701139021DEC096D
:103770002C08E759E751E75A480A181C0730E45269
:103780000751E608091106280C59E64122398053F1
:10379000635C4454E61411E345034D24450334C2ED
:1037A00034A1552355034D0C191010082233E13371
:1037B000E23BC2022404E243E20414054C434C43BE
:1037C00000140685548654A6023416E65CE75CE7CE
:1037D00064E76D286D28750994EB83EA6245498496
:1037E000001665002660001DFC081C0644830AB410
:1037F0004FCA097C12D1ACD1BD54BD74BD94CDD695
:10380000D638DE79E679F8043DFC073DFE097500FF
:103810003D06073EF504041D06072407CD52CD11D1
:10382000C4B0021F8B2AC6063A27D01D06041D0409
:10383000062EC36C0B2D0A052DEA0925003218024D
:103840002F000024072D0C113DF80A1F6939061BB3
:10385000212C180549A551C6001C04066206AA04BD
:10386000140A405B435C0444814D03F41C1044453E
:10387000243D033CE23CE2552455034CC30C062492
:103880000E4333E22BC233C233833BA33BC3043426
:103890000544234C44FE2285FE140454C64C041CEB
:1038A0001564E75CA664E774E884EA94CB83A95ABC
:1038B00005494338E25C031B4420002DF8101C0B23
:1038C000184161C5936BA40DA40DF015100850AC00
:1038D000B19C6FA470022C0771A471C534D50A0E77
:1038E0001DF6101DF80C5E17FE088237FE2D080627
:1038F0003D08081ED418131C1332C512C4F1BCB005
:10390000B46FA40D72687268494420E21F19F01E5A
:10391000A2EC181D06031DEE1A1E8214031DEC19DD
:103920001D18032D08203EC376102E20FE1A2DFEF2
:103930000E1F626908081E0382121E239A0D1EA61E
:10394000FE041C0C6451C56226414052A25C04FC7A
:10395000191810E345234D0345443D2345433D02DB
:103960005523FE240FA33C6334222BC22BA22BA28F
:10397000338333002009E3440344244C644CFC3576
:10398000FE4D0403141B64E664E764C774C884EA4C
:103990008C6B7B4862055143390338E2392328A2F6
:1039A00000140E00182128826A279B8CAC2EBCD1F3
:1039B000C6100C95C554B4F19C2F93EE8BAD022C20
:1039C000066D93ADAC7016035D140D4904DD000562
:1039D0002D00031C06D594D573D516111D08061CA1
:1039E0000E90AC4F830A6227620730C230E3F21FA9
:1039F0001EE30C0B1E8270042D200D19FE2D1E09D6
:103A00001E2066171D1C0B1EE37E0A11021DFC12F0
:103A10001C088552075A085A280C0C6416E220A18B
:103A20004144414451A54984416351A451C34A4191
:103A300064050019021643001404235504FE3418CB
:103A4000633C43340333E333C333E43BC43BC43C00
:103A500004440444454C65FA22A7041C075CC7547F
:103A6000E654E60203341AE664C7648774A88CCA75
:103A70008C2A7B0861E55144412339023903310323
:103A800000100D2030C27268B46FC4F1CD53DDE672
:103A90001C04D5D6DDEA171DE61520100F8B6C8BA4
:103AA0002C7AEA832B8B6DB4B1CD74E81DF807191D
:103AB000FE6D040A4D020A2D020811FE1D04061DAA
:103AC0001011100A70A40F9BCE8B6D72A8C0280431
:103AD0008530E3022E200E111C0461204104031ED8
:103AE00045760C2E24F2184F31041E0A2D0A051DAE
:103AF00012201A03F41EA652161C064849C62903B2
:103B0000400A1C04033903000E3C0EA549644943D6
:103B100062044A216BE65CA5EE061404234D6400A2
:103B20001006233D034CA4FE1DF80421FE2C0E3B81
:103B3000E43BE54405442544254C464CF4031AC7B0
:103B4000F82C04A754C7F80331021406C75CC764F5
:103B5000A800240A898C8A8BEA7AC761C5001D00F7
:103B60000814060239241841001DFC0A3C058B2A62
:103B7000B46FF80F3806B4D5B4E636D61DE00F1191
:103B8000D010044FA3EED02C0C6C8B4BAC70C51234
:103B9000C533D5B5FC0D95004FB5D5000B11FA1CFA
:103BA0000B9BAD830B7AAA72696A48CE041C08C6C7
:103BB000414438E330C204052FE4200C0D16820A7C
:103BC0002C08C24986392451E75E181D7A0D25FC60
:103BD00025021EA20E072E610E121C055A28628AAB
:103BE0000A0A15003F28C2A00314144351A541023C
:103BF00051A349E163645CC6554545444D440016F4
:103C000023001408224C64442333E2FA1004C33323
:103C1000C4FE100B06442644464C664C674CF831F3
:103C20000266C600150A1C18A754875C886CA87425
:103C300089844A8BA97AA761A551444944308102FD
:103C400003150016180014055185A3CDFE1C06327D
:103C5000D573DDD4F8131A36EC31023FE5F5EC15D7
:103C600037D1ACD61FAC4F20032E1320086D020BAA
:103C70004DFA061C15B4B0A42E938C8B2B72686A77
:103C8000276A076207620859E7D0042807A641049B
:103C900038C3380211EA4D0E102C0949A64145518E
:103CA000A6620808031DF81F2C04A210207E113DF7
:103CB00020041C07A338E4418662801F4741A60008
:103CC0001C0530A138C20412280D23494249C15BAA
:103CD000245CA6554645FC3A63001B2343F21F3380
:103CE000A3F40321FE3205FE1404674C87F6540446
:103CF000A854C80037C654FC13546702141B8864C8
:103D0000886CA97C69840A8369728761C55984417A
:103D100043286038C2390420001C0920206A48ACBE
:103D20006FBCF10003281073D5B3C531B4D1BCF218
:103D3000B4D1B4B0BCF11239DA2C0452D574EA1201
:103D40004FB49022085C05DDF7DE37FC0A1D001138
:103D5000200DAC6F9BED938C936B830A8B2B021819
:103D60000F936C938D8B6D830B726859A649640415
:103D70001D060F2DEA181E201007100459E73804FD
:103D80001A59042DF40D2D2A112D1E051E2028046C
:103D90001C0730C339255208FA172E859609140BD3
:103DA00038E338C238C24102494300340AA16304EF
:103DB00064865D674D65023410233D023D223B84DD
:103DC0003B6433843BA43BC5FE21FE10068854C8E7
:103DD0005CE90222E8025906140AC7548754465483
:103DE000675CA8001C0E69846A8C0A83287246618D
:103DF000C561A5A60D15001C064124288218F416DD
:103E00002C078B4BBCD0C532D0121C15AC8FA44EE6
:103E10008B8C6A88522762A97B4B838DA44FB4D1C7
:103E2000D8062C0673D554D573EE124D1C122D02F4
:103E3000033D00112694001DF205168F1C40048FCF
:103E4000AC4F021D080B3E900E0E1C08CD82A972CD
:103E5000475185FC0315E629E61D660C1E85761183
:103E60001E04EC071E077C124D0A08211C1D2405A8
:103E70002D041D1F39451E032D36041404402881CE
:103E8000001404A130A102380C2249A15AC364666F
:103E900065675586FE5810023CE23D024386438525
:103EA00043A543C643E6FC100C8754C85D09652A48
:103EB000652A5D09021608021EA70C0316A7FE1448
:103EC00009465C8764E974A974004411942B830843
:103ED0006A0561A559644102286030A2002F412380
:103EE000F4131FCD74D2172C109093AC6267390273
:103EF00049A67B6C5AA92903FE1E1C098BACA44F52
:103F0000C532D574DE051E93E6083E73200C763765
:103F1000001DFE102FC51104121DFE081EF1060E15
:103F20001ED0060B1C0F8FB46FABECABCC9B2A9250
:103F3000E972066114121F202112121D5E163D0443
:103F4000042C04C63924EE041D2E131D7E13190201
:103F500015182D08031B3945041EE406181EC63625
:103F6000061C08A2204030A1308104031C10E2414D
:103F70000152025282644665885DA65564020510AE
:103F8000080244C13CE14BC7023808E754275447B4
:103F90005488F415FC10055D2A654A022804295D41
:103FA00009001F4CA70C053687FC1016C95C897CDC
:103FB000CB848B946B8B897AC76A2661C659853905
:103FC0000260100CA241033082200051C6BCD2DE38
:103FD0001C12B5BD138BAD51E6392472ECCDB7DEA2
:103FE0009A7B8FEA211E46A21918068172A9AC4E4F
:103FF0001E2DE2061E931A155EF504072DFE041C05
:104000000694CD32CD12F8071252022A110C1D145B
:10401000171FF1B41215280FB40DABAC9B2A8AA858
:10402000722759854964021D0A0E1D06052F184185
:10403000FA191F39442C153C042449652C132D0210
:10404000061D04071D2C0A1C080430C34144498680
:10405000980814066130812860A2201AC138C1492D
:104060000151816283642575685D8655444D234402
:10407000E23CC24CE2FA10075C685CA85CC9F8300C
:1040800004096529FA41023629FE3EA60E05241CC4
:10409000675C8864C964A96489748A8C8B940A9368
:1040A0008982A7722669E6514439236015001C06EF
:1040B0008120007AA9D8061DF4112C0FDE37C574B3
:1040C00093EE836DAC92D5D7C5B7D41D1DBC1D1C16
:1040D0000A8218204123938BBCB1F2182C0452DDC4
:1040E000B420072D1A131D0A11340437DDF50026FC
:1040F00011022D00081D08122D3A041C13B1AC90BA
:10410000A42F8B4B8B2A8AE98AC97A2761C640CCB7
:10411000031E2800071102176118EA2D78151805EB
:10412000414430A2801D36181D1C0C1E247A1B1120
:104130001C19041404044145001E243C0E1D0003F8
:10414000150414108038E1490149405A426405754C
:10415000485D66001E24F20C1004C24CE3FA3BC812
:1041600065F01F654AE4101C058A75AB75E41117EC
:10417000656AFE16280026E7001D04081412885CF4
:10418000A964CA64896CCA848B8C6B93EA9B8A008D
:104190001C050669E65986032F30E20003119A1CBC
:1041A00005209BEEE6F0123DE20F1C0C58D5F6A45C
:1041B000709C0FBD54D638E01F1C04455208BC0348
:1041C0001C0861834B7AE99BEE06051E530E0552CF
:1041D000D52A2D081B1ED514042F12CC38062E53B9
:1041E00008162D3605180793CE72CA5A28DE100A13
:1041F000C651C661E661A569E6022C08C640C23018
:1042000082286200031D08031D641B1C0551C6396A
:1042100004200C1E61F4042E65F6231D0A063D8061
:10422000161D360F1C06C33904498542111A60A0B9
:104230002AA1001C0F40E14920522263C46D07559A
:10424000255504F8081FE3440C0C45F41DDE1151FC
:10425000FC110216CB021F6A6537121F5D07F606B6
:104260001C1CE654A65CE8650A650A6CEA6CCA7D0B
:104270002C84AB8C4B9BEB9B497A6671E600051E48
:10428000C6000A11801DA2063C08A23060B490E668
:1042900016EE101ED9E01C1C0C57DE57D5F6BD12C9
:1042A000C554ACB28C051DAE081F6248EC1D1C0441
:1042B00088728800091D1C083EDE1A151D140E1E8A
:1042C0007826082C05D4CD52C436061E3220062C82
:1042D0000873BCF29C0F72CBF8132DE81F1D580712
:1042E000140E6130A238E351455965598551440097
:1042F0001E6108062E8110112B1000E61C0638E303
:10430000410428081B133144021D28111D7E1B2C5B
:104310001061206228822882494541032880284074
:10432000A20715001010C0494151E15B8464A654F6
:10433000C54CC44CC3041C05C454E45D9F20300428
:104340006D8A6DFA1C137DCB7DEB7DCA75CA75AA8B
:104350006D896D8965495D0704092C1BE654E76585
:10436000296D4B6D4B754C7D4C850C844B946BA427
:104370002C8B0872266A560C3C06C5390330E2665F
:10438000062C0BA238A1C512EE57EE78F6F20E2DD0
:10439000E01B2E36FC142DEC091ED5E81B5FC5531F
:1043A000E4191C04CDBCF20A0C1D080C17DE3728DA
:1043B0002D10102C0436DDB4F80439001C0852C549
:1043C000328B8C62691C231C060D314641A7DA1121
:1043D0003C132120625A0838E43061410351655989
:1043E000A6514438FE041E10081028051840182055
:1043F000E61D20091DF0102D00031DF60A2D0604F0
:104400001D841515001E61F8071C084430C1286082
:10441000202006061AE2002C072149A15B43641400
:104420002C1EA4F8091104100554C56549FE52AAB2
:10443000FC1C08EB860B7E0A7DEAE2102806896DDB
:10444000696528FE1C0754E65D286D4AFC131C14A0
:104450006C7D8D854D7C8B948CA4AD9BEB82E8723A
:10446000466A069807250011881D060C1C06A24006
:10447000C2CD74E21B1C04D9F71AF20F1ED9E21C3C
:104480008C0657DE36D616DA132DD4041D101C3ECA
:10449000B5F8063D1C101D141316F9004C0616DD68
:1044A00094CD1236092FD553FE181C097B2CCDD77D
:1044B000A4B349E8D41A1C0AC320413904832C4907
:1044C00085C60310084140E3518561E6D42C04A25F
:1044D00028A10A1215021D66201B4165022404440E
:1044E00028A2021D08061EA21E0D1E62260C1C0418
:1044F000C32882980414042438E2001E40060330C6
:10450000108140C1518251C25B035C2654644C84CB
:10451000022C07A554C56D696DDA1211FE13860BC6
:1045200002300A0A7E0975C975896D68FE3DFC086E
:104530001665001016756B7DAC858D84EC848BAC94
:10454000EEA48D938A82C87A6772021F5184940602
:104550001C04602081A20A15A027D5B50011022CE9
:1045600006FAF71BF6DAE6191DE61F5EB5D6101D32
:10457000E0061D160C3EB514172D16131E781212E8
:10458000152C1BF6B80015001DF60519FC2FCD5291
:10459000F6081C09A40FAC92B4F46AAADE05240C38
:1045A0004341247289726840E238A1622F59640441
:1045B000031C0749232861390302051D0A0B3D0A24
:1045C0000815022D080B1D04044E452817272062EC
:1045D000002E28F8062DFE0421021C0E603880599A
:1045E000A35A035B2464264C45DA0D1DDC0D15002F
:1045F0005EA6DA133C12CA85EB862B862A860A7DD4
:10460000E975A865476527FC031D020C24055CE7D6
:10461000650800340D85CD856C84AB9D0EACCEA4B1
:104620004D001C0A8782E9620640E2412364081EAD
:10463000C29C091C0A415165E658F6D9FEF90003EF
:104640001DE8201DEC1E2DE81D1DF2173DE41A1E6D
:10465000F5100D1EF51E0521021D101B1D021E1D4D
:104660001A121BF71A2C2C04B8E616FE042DF606B7
:104670002D18083D00051C14D2B4B2BD13B4B1A46A
:104680006F93AC8B4B72687A886A066C091C08853C
:10469000618461845964760812A5D615F01DEA0379
:1046A0001E81EC121EC2E40C1E85EC042DFA162E9F
:1046B0000320081D082A1BA318F419261F6030FECA
:1046C0000931FE140CA1386049015A236B866447F6
:1046D000001D0129174444022C1B8675A87DA97D65
:1046E000C97DEA85EA860A8609860975C76D8665E9
:1046F000465D065CF20E1423A65CA665076D49753F
:104700006A858B8DCD8D4B952DA52EB4EEA42C9363
:104710004A82C88B097288496341A01D64071D9AAB
:104720000A1407288159C6F699FC12F90212DA0216
:104730001C04BAEEBAF0133DF4117DF0135D0A1DAE
:104740001D0C1515FC39261C04FAEE98001C3E734E
:10475000FA043E93240B3E74200A1E320C051D12EF
:10476000071C14CCD0C4AFBC2EABCCA38B930A8255
:10477000887A677A47690C061F618406042EC21680
:104780000D1D06071681042404E23944021D160E8D
:104790001DFC082D1C071D921616E3021A61023E2D
:1047A000C200071C066130613861020910082263EB
:1047B000855C065466FA2DE315300C6444447DC8CC
:1047C0007DE986097DE9024404E87DC8005005655D
:1047D000275CE6FE1DF8141F7D6AF0121C146C8D18
:1047E0006C9D6EA54FACAE9BEB934A932A82A86258
:1047F00006560D1E23700B16C2862C0681204162C0
:1048000028E01F3D000311FE750036990041023D6E
:10481000081F3EE622061EEE0E221BF73B00250077
:104820001674001E5314091D18061D22031EB422FF
:10483000071D200A1D0A14140612C4D1CCF0021759
:104840006EB4041C049B6B930A081F826878073CB3
:1048500007C5596448E2417A062D58071D100C1F00
:10486000E24106091D080922440424051820180005
:10487000022D74073F28A1020D1C0EA23041388181
:1048800039005A8363C55C46D60F1407A64C86448C
:1048900085440614057E0886080021FA11FC2102D1
:1048A0002F6D87000315001C20855CC56527756882
:1048B0007D6975288D8B7D2A9D8D9D2DAD4FAC8D8D
:1048C00093AB9B8B8B2A7267FE101EA5FE091D7A87
:1048D00005172060005004406227FE22D9FE3502F1
:1048E00042990242E6022DFA151DFC1F4D022419C1
:1048F000FE1C083BF73BF6FBEE7802201DFC1B324A
:10490000CDFE3D300E3FF5DD0A133D08111D161D8D
:104910001D0C131C04F1C4D01215140A6FB40DA39E
:10492000AB9B2A8267021C07A4512348E349760502
:1049300019E62D0E0715E81D0C071F855128051CCB
:10494000064964412418881A2D96172D76083D02D1
:104950000E1406E230603080001C04E46C26020D68
:104960001E07DA061008E64CC654C554A5FE140608
:104970002886297E08021C04E875E82A2926A70053
:10498000112016C6001C1FA564E66D4775278569B2
:104990007D09854A8D4C9D2DA50EA44D9BCC9B8BEE
:1049A0007AA8724762FC191F3902FC1D1E24941656
:1049B000240B6128615185EE99F6F9FE0056B90085
:1049C0001E9AF6224DEE217102191611FE1C09F6EF
:1049D000FBF71BFF5CF73B2A0725003E94140B2CCA
:1049E00006D4CDD5D5F6180A2D12133D16194AD680
:1049F0000E250A35081AB008240CAC92E9826771BA
:104A0000C561645103001F30C3EA052D12071C0A5B
:104A10006138C3496551A659C5EC0C199619041D96
:104A200010132D2A0C1D02041DFE081D060C1C0867
:104A300080394063446C87CA161268021C04275DE3
:104A400027E60322E5FE150013097E0415001D006C
:104A50001B180565675D26FE1404C654A5001404E2
:104A6000C56D25001C124874A785498D2B9D0CA48B
:104A7000EDA44DA40D8B098A031C048859C5FE03BF
:104A80002E23640A1D94171D62033C0A3903E6575E
:104A9000F6FAFEDAFEFE0355005E99F02225042D9B
:104AA000FC222EDAF6033102163C001E1B1A1726D2
:104AB000580011FE1C04B4D5D41B133D081413DE9A
:104AC00036022D1C0C3C0417E5F62623151615049A
:104AD000380432CCD104180A6B92E97A2769A559B7
:104AE00044002E821C091D1A0F19801F28418A16A6
:104AF0007C0644622751A5900F1D260C4D0204151B
:104B0000021C0AA130A0398063C56CC7C01612A868
:104B1000021E88080D2004475D05FE350211022E95
:104B200075EE1C2406875D2655051A1C195CA55CCC
:104B3000C464E56D0575067CC6850885298D4B9492
:104B4000CBACEEAC8EFE051AC9001C07885164413F
:104B5000234982111F30C3900825683C08A2D5D58F
:104B6000FF1AFEFA02035BB9F6FC65023DF4033658
:104B7000D90019F87405F73BFF5C003AF6FA3500E6
:104B800035FA4237024D22187D261E3C0894D53353
:104B9000CCD1C4900E051C0E4A8AA87A06698551AC
:104BA0002438822841000C2D80061E81E6081184DD
:104BB0001C0451855976281D921F1603021D0E0CE8
:104BC0002D06092E4006111C0A8030C039C06C2702
:104BD0006CE7CC1B2DD41D2DD81C15EA19FE2D0019
:104BE00003290214040975C8FE1004465D05FC3152
:104BF0000211FE1408066D066CA57CA600180C496F
:104C000084E99CEBA4CDAC4D83090017886A682E1B
:104C100049FE1119801D7C271D88035C072040BDBB
:104C200033FF3B02042DFA052DF02265024EB8FE3B
:104C30001A2D042911FE58065BF75CFF7C001E57F5
:104C40001C071004D4D5B3FE3EF510102D14141D0E
:104C50003C0B3D2A063E58220E11141FE5F62C2768
:104C60001D10051ECC1C1C1C0BB3EDAB6B9AE98A06
:104C70004771E606051FC2301E0B2F3082EA0E1F59
:104C80002840F0051E4008041E240E071D700B2945
:104C9000042D18031DFA081DFE0A25002741E10016
:104CA0002DFA211DEC042DE4203404876587002EA5
:104CB00028000431FE2004675D05023D24232305FE
:104CC00065FE2C1FE574A57C8684C77CA78D09A58D
:104CD0002CA48B9BEC8B298AE97A6761E659C6592B
:104CE000C6387E032D9C19150234051000A49000CF
:104CF00036F9009DEC1E9DF223140616D657EEF9E8
:104D000000267C001DFE041EBA280C3715D5002D88
:104D10002C223D1A172D26061D32223D2A2055022F
:104D200015241E941C0D1E1210071C0C8FBC0DABFD
:104D30008BA32A9288822608071C042340A2100B0A
:104D400021FA2D180C1D06032720410C4D960C3D11
:104D500004092C046130603E09180740C138E04264
:104D600022002C05C675A976EA032DE4213C06A88D
:104D70006DE87E08FC042DFA052DFA0430096665FD
:104D8000265CE554C45C02240764A464A46CA400FB
:104D90001404748674003C0B94AA9C4A9BCB936ABF
:104DA00082E992081EC6960A16E3662E82860925B7
:104DB000003C058BADFF1A04062DEC1D1299BC2199
:104DC000CA1E57140C200456E615E61DE4211C04E7
:104DD00094DE78FA053B5BFF002EF6082A1E36FEAD
:104DE000151EF4FC0311021FD6152E225D2E264D32
:104DF000300731443D08042404DD94DD0016D10061
:104E000018082DB3CBAB6A9AE8021D08071D120ED5
:104E100015E41D06082D0A071D0C031DF2072510B9
:104E20001281982D2E1519001D1A0535001C0941F7
:104E3000214A626C276D07FA233C04E86E08EA21D8
:104E400015F415FA22E7FC21021F6D66FA072725E3
:104E500065FE2502140C845C6364646C847CA67C0F
:104E600086021C0E667CA8948A9C099BCA8B297AB0
:104E7000A800042C046859C6720719002D7C121D65
:104E8000720B1C0510006AEAFE0312B8FE2F97EEA3
:104E9000F42129BE1A57BE1C0416E5F5E20C1E7259
:104EA000DE101C0453DE37F4093E3A00031DFE05F4
:104EB0001D240B3E99042616F5003DFE063D1212F8
:104EC000153646DE044C0458E63802031D00031470
:104ED0001AB4DD73DD32D4F1CCB0C44EBBECB36A8E
:104EE000A309928779E5618448E200258215FC1DBB
:104EF000120B1D140B45F61DFA0525141D00042D7B
:104F0000FC0C3500240A4152A36C066D077DC900D4
:104F10004F7629E8233DF4071DF0201809758675A2
:104F2000866D666D45F6270564001C05A45C645C0F
:104F3000210911FC1C16A774456C6564257C479CEF
:104F40008A9BC99BCA83088B298B0AFC0F1EA56EFE
:104F5000071D62061D96181D700E2D88311F5227E1
:104F6000E02911FC2806E656EE56EEB81DF00A1DA3
:104F700000161C04D4D573D2122ED012211407F6B9
:104F8000FAFF7BFF5B0019021D240C3C04BAEE798A
:104F9000001215001DFC1E1E931C13340474DDD674
:104FA00002393C111E35FE154227F6E5001C14524D
:104FB000D511D4D0C46EBC0CB3ABAB2992A8820679
:104FC0006984221F3F202010122D0E0E1D84162DE5
:104FD0008C062D90044A82141DFE111E80FE1116AF
:104FE000C2002E61FE071B6D27001DDA231D04037E
:104FF00011FE1DC81F1C04A775A6EC2021FE100C75
:10500000866D456D2565046D0564E5FE1284FE3CE4
:105010001C246C66848774466C256C656C8684A839
:10502000A4AA9BE98B2893699B6A82A800031E248B
:105030008E101EA3821D1D8E0F1E207C133F4184E7
:10504000EC25100836E615E615E5F5B421FC2E939F
:10505000DC0F640BBC8FC4B0C511DDF5FF5B003DF8
:10506000FC082EB9E0033D00152D00033C0CB4CD27
:1050700053C4F2CD33DDB5EE373C03410245004663
:10508000D50026DD004D02031C08499AA882266936
:1050900084FE031D702B1DF8111D84082D8418112A
:1050A0000A1D140B39101D940A1D16041E602C0EC7
:1050B0001E8004061C06E249825B24FE081EE6CE22
:1050C000201E87DC232DE82343C865FE3004856D50
:1050D00065023225021626003C24845C6564456C1A
:1050E000457C67846774256C456C8674A68CA8948F
:1050F0004993A893489B8A8AE87226724790121DAA
:10510000681E1DF42C2D8E101DF62D1F28C1E82EB3
:105110001E56C0091EF4FE1712B4B21F93DDD20D45
:105120001DD2232C046FC4D0FC151500123AFE2E9C
:105130003AFA093D082D140499E638FE2D00243E64
:10514000F506034C0B53C4D1C4D1D553E5D5EEFEBF
:10515000063E37000325FE6404D5E594002C07CCF9
:10516000AFBC4DBBEC02041C068246616428E60617
:105170002D702D1D14142681002D7E2B2D160D2D26
:1051800094084D00031730E2002D00161C08C3637D
:105190004564055CA4D8051A46EA1E87EE041D0086
:1051A000061DF6041006866D6565450241FE1DF27A
:1051B000061C2164C664656C6674677C878CA88451
:1051C000266C056C45644574458447940893C9A3CF
:1051D0008A8286FA131C04E561A490141D9A192D85
:1051E00098222F188174102D02243C05B4F2E65643
:1051F000CE051E9302192C0673D552D531CA1E3C1A
:1052000005BCAFCD31DE0B4EF50C232DFC0C3D1C47
:105210000D3E78FA1A2D24282D2C112E1528031D49
:10522000F20B1EF13E191ED54A133D0C0751FE47E5
:10523000B4DD001E3102044D020318086AA308827F
:10524000675143F241F61D061B5E187A302D0C059E
:105250002D940A29021F2020A2101C0EA138C14142
:105260002252446BA65C055443D60B1E25E8051D4F
:10527000D6231D0008250A11FA2DF6034DF0061D50
:10528000E21C1406E66CA66C67FA13888C021C08F4
:105290007BE673E56C066CFE031C048C289CF814FA
:1052A0001C077A6569C469C4820D1C046359A5662C
:1052B000071E03941A35002182140508008B6D0027
:1052C00012B4FE1272FC1DC61E52CCFE2FCD720C03
:1052D0002911023DE61E3FDE16DA061E571E041D8A
:1052E000F8042D1E1A3D32035C06D4D552C4D008F2
:1052F000121A73403D300F1D440343B5DDFE2500F7
:105300002C1232D511CCF1C48FC42CB3AAA3297AA4
:105310004730C2761D4D762A2D2A1321842D881CF4
:1053200031961D2A221D02051D941C1C1138E141D5
:1053300022414162847427644554245C85D2221E34
:1053400046E40F1C064765685D47EE047EE5F008FD
:1053500021FC1406E76CC76C87FC1C1D478448843D
:105360002783E67BC57C066C0674278C698BE883F3
:10537000476203594161627178051D8A102EC594F8
:10538000192DF8033DF43015821C0710005A28E649
:1053900037C80E15001DCC121E31BC0D3804CFC409
:1053A000AFFC2FB3CDDE061DEC2A1DE4252D081120
:1053B0002ED51C041D241C112C11DC1D2C031C09D2
:1053C000E5D4E593CD31C4B006162E31FC0E13D5CD
:1053D00053181126110285002653001D080C1C0BC2
:1053E000AFC44DBBCAA3496A26206C3125F45500D1
:1053F0001DFC133D0C033A21021D1C0F1D301F1C08
:10540000066130A13901FC1B1C0E8162C47C6764FB
:105410006554045C655CE6FC0B20042765480210BB
:105420000564A65C8502140EA55CA66D076CC775A5
:105430000775286CE8001404887C4800181B078452
:10544000277C0673A56B647365734572E47284727E
:105450004372857AC6726561021F61C57C162EC2D1
:10546000660A19FA1E4082221D8E132F3903F62771
:105470002DF4041902340472CD10001ACF002E52FC
:10548000F2142DF81E1EDDEC181C06C573BD32C5C6
:10549000E8213DF6141806D0C4B0C4D0F41632D8B2
:1054A0003004D0CD11382651061904140494DD744B
:1054B0001E41FC69002C0E32CCF0CCAFC46EB3CBD5
:1054C000A38B59A5F0044D78237708200A1C04000B
:1054D0001801FA0A1C048020A0FE051C04412821A2
:1054E000001D1C0E415A245AA452E274866CA65424
:1054F00044DA043C04C66528040D15001F5C6610E0
:105500000F1C06665CA65CA7DA1E16A7FC16A70091
:105510001C18A874687C697C28846973C673E67358
:10552000C57B857B457B468B87FE041C0E688B47BD
:105530008B076A446A0569C561E6FC1E2D00034EAF
:10554000407C1F1D82061C062020609C0ED0112D61
:10555000E018240672D551D5510215D61EF0161941
:105560002E94F21D2DCE044EDDEA272DE623280DC4
:10557000D0BCCFAC6EAC4DAC4DB46EBC282DF6108B
:105580001A513C15301940180612D532D53308117E
:105590000213D552FC2500125216940C11CCAFCC3C
:1055A0008EB3EB9B4A30C10071021D0E2619021505
:1055B000003F8028F810140F412149E26B066B452B
:1055C0005B6374C764A5FE1E65D6111C04086D8854
:1055D000020C15021DFA191226021C06465C675CB5
:1055E00067DC1E1C04A76487E01D141AC96C28849C
:1055F000AA7C49740763A663C5740784287BE77B8C
:10560000C78BE893E8041C09888B67726472667222
:10561000FE191F40E3F81A1D761C2D680C2D9240D0
:105620002D88361F51C6D6311AB4DC1C0493DD9286
:1056300002042C0452C510CC241C05CD32E5F6D64C
:10564000062F57EED0082DF22C1294FE12F00220F5
:1056500008CFBCAFB48EC4F0021D1E1C210211FE87
:105660001D081B1D3A041ECCEC0821EE1506310264
:1056700011FC22520C1118F009D0C48EB40D7A8797
:1056800018FC4D0A043D0E061E6196102EA2FE0A5D
:105690001011416152627C0773E563C37D2764C5C5
:1056A0006486023EA6040E1EE8EE291C0A875407F3
:1056B00054074BE64BE6001B1646001C12A8646715
:1056C0006C686C4864087CCA6C285BA563E6FC04C3
:1056D0001C184774886C676C26742784088BC78BEA
:1056E000868B677AC572657A8800031D5E203E2826
:1056F00002032D7C061D8A262DA2211C0461AC917B
:10570000AE0D180693DDB3DDB3CA1C0E52C531CD04
:1057100011BC8F61A582CAD574C60C4D0E303E17E0
:1057200008041DEC16111E2DF61B11F2110A21FEA4
:105730001D3007210E1D08051ED0EC0811EA2508B2
:105740001504640411D531083C0CCCD0D4D0BC4D28
:10575000B42D494308702EF5002D80332D061A3ADA
:1057600061001810A041C1634384C874455C23756F
:10577000466D26E22EC7040E2C0475E876083A2200
:10578000E7FC28054BE54BE50629041C135C266461
:105790004753A66C696C685BC65BE664466C87120F
:1057A000031D1A031C166486746784688C288BA6F4
:1057B0008B877AE57A8682C861E54900033D8C19BA
:1057C0001D96231D700A1D86291D8E211C04005A5A
:1057D00027F42015002405D592DDD3CE1D06061C26
:1057E00018D1930A280040C2AC50BD33C513CD5424
:1057F000D575E5F7E5D6DD950C1E1E55F4091DF0AF
:10580000231D22052DFC142D38072D080436D1E464
:105810001AAF0436D0021EF01C1B15021D1A051DFE
:10582000261A1D02061D02071C059B8B2060BF4423
:105830000511001D822F2E21241B1DFA0B1DF616AB
:10584000140D3942528374468D696CA55C43001C6B
:10585000066675086D07C0251C168876087647769B
:10586000276E064BE54C054C0544054C254C25E2BE
:105870001E1018265C065C065BE6748953A553C5AA
:105880006426646664A674C774E8041C06A77CA832
:105890008488120615001C0783268B0882C8001115
:1058A0001E23F81C2D7C0F11FE2D060E1D90411E8F
:1058B00004FC361C0460ACB0D20B19001C05DDD30F
:1058C000D592CC041C2831D512C4B082C9200072F4
:1058D000A9DE17BC70C4D2BC71CCD3DD35ED76E542
:1058E00035E515D4D3DD13DD13D513D533E6031E0B
:1058F00032EA031C0853CCF2CCF2B44F44261EF01B
:105900001005840410CCCF02210255002C04B06194
:10591000E6702C071300000021FE1E6294141DF88F
:105920001C240B49E463857D4885C96D06002F75ED
:1059300087CE131D040B25002C07486E2665E64C08
:10594000EC2311021743E402130554FE140D53A572
:105950006C486C284B6454055C26FE15001C067CC4
:10596000E774A674000B1C128CA98C4883868BA745
:10597000938893697AC751834900122D60223502BA
:105980002D84441DB01A2DFC382C045A27CDCA147E
:1059900016F4D025001DCE051DDA091C0C908AEAEC
:1059A00038C2DDD5EE16EE16E016100C50BC30BC39
:1059B00030B3AEB38EBBCF062C17ADBC2FBC2FB40B
:1059C0000EC44FC470AC0FA3CE7A6848E261C5BC68
:1059D000360A2D080439002DF806210621FE2C0771
:1059E000CCD09B8C2881EA040512001DFE034640A2
:1059F000001C092880392252A47487003A10092912
:105A000075675C4485887D021C0775476D476D8707
:105A100000031C0A276E076DE6440343E30C40268F
:105A20002400100443C54B02140953A564275BC628
:105A300053A500480A46646674A774E77508001CFD
:105A4000108C89946983C78BA79BC98B287AA74937
:105A500054252F492302181C0530E23103FE342E51
:105A60000192352D04292C051820A450CE241D06A2
:105A7000031EB2F80D3DCA062C0DCCF2D55482CAD5
:105A80009B8DE676EE98FC1C2C09DDF5CCF2BC4F24
:105A9000D4B1D6112FA3CCFA181C0CAC2ED553B40C
:105AA0007072286A28202C033F8AEA0C0841F612FB
:105AB000310231FC1D14041D14035C06C4B059C529
:105AC00018702DCDF8033D0A0B2E4090142D161E94
:105AD000441730E141835B448D698E6986697DA8F6
