:020000040800F2
:1000000008F700204D360008590200085B0200087E
:100010005F02000863020008670200080000000099
:100020000000000000000000000000006B0200085B
:100030006D020008000000006F0200087102000855
:10004000673600086736000867360008673600081C
:100050006736000867360008F3170008673600089F
:1000600067360008673600086736000867360008FC
:1000700067360008673600086736000867360008EC
:1000800067360008673600086736000867360008DC
:10009000E30E000867360008673600086736000878
:1000A00067360008673600086736000867360008BC
:1000B00067360008890A00086736000867360008B6
:1000C000673600086736000867360008673600089C
:1000D00067360008C3350008673600086736000831
:1000E000673600086736000867360008673600087C
:1000F000673600086736000867360008673600086C
:1001000067360008673600082B0B000867360008C2
:10011000673600086736000867360008F90C0008E3
:10012000673600086736000867360008673600083B
:10013000673600086736000867360008673600082B
:100140009112000867360008673600086736000815
:10015000673600086736000867360008673600080B
:1001600067360008673600086736000867360008FB
:1001700067360008673600086736000867360008EB
:100180006736000867360008DFF80CD006F0D0FCB0
:10019000004800479D01000808F7002008B54FF40B
:1001A000A06003F065FAA82003F02AF94FF4E130CB
:1001B00003F0B5F90020032306220521009000F08A
:1001C000F1FD0020032306220521009000F073FFBB
:1001D000A7214FF6FF7000F000FD41F2DF516320D0
:1001E00000F05FFD40F2473140F2CF7000F012FDA9
:1001F00045F207210F2000F01BFC00F061F900F030
:1002000041F901F09FFC01F01FFC01F0DCFA00F065
:1002100077F90EA006F09EFC42F2CF0140F2CF70BB
:1002200000F057FCC821052001F0F4FC0CE001F0BF
:1002300003FD01F0ABF807480078012804D101F074
:100240001DFE002003490870F1E70000737461721D
:10025000740D0A005C000020704700BFFEE700BF7D
:10026000FEE700BFFEE700BFFEE77047704770473C
:10027000704700000CB5002001900090764800689F
:1002800040F480307449086000BF7348006800F48F
:10029000003000900198401C0190009818B9019816
:1002A000B0F5A04FF1D16C48006800F4003010B1F7
:1002B0000120009001E0002000900098012846D124
:1002C00065484030006840F0805063494031086024
:1002D0006248006840F44040604908605E48083069
:1002E00000685D49083108600846006840F4004035
:1002F00008600846006840F4A05008605848091F8C
:100300000860081F006840F08070091F086000BF87
:100310005148006800F000700028F9D040F20570E4
:10032000504908604C480830006820F003004A49F2
:10033000083108600846006840F00200086000BF0D
:1003400045480830006800F00C000828F8D10CBDC2
:1003500010B54548006840F47000434908603E48C5
:10036000006840F001003C49086000203A4908312B
:100370000860394800683D490840374908603C48F2
:10038000091D0860081F006820F48020091F08600C
:10039000002031490C310860FFF76CFF4FF000601E
:1003A00031498039086010BD70B500200022022359
:1003B00000240221284D08352D6805F00C0020B1DD
:1003C000042806D0082834D107E02A4D2A4E35608B
:1003D00033E02A4D284E35602FE01F4D2D1D2D682E
:1003E000C5F380541C4D2D1D2D6805F03F0154B1FF
:1003F000224DB5FBF1F5184E361D3668C6F388164A
:1004000005FB06F209E01B4DB5FBF1F5124E361D5A
:100410003668C6F3881605FB06F20F4D2D1D2D68B4
:10042000C5F301456D1C6B00B2FBF3F5124E356050
:1004300003E0104D104E356000BF00BF064D08357B
:100440002D68C5F303150E4E705D0B4D2D68C5402C
:10045000094E356070BD0000003802400070004059
:1004600008544007003C024088ED00E0FFFFF6FE24
:10047000103000240024F4000000002000127A0054
:10048000040000201CB50121042004F04BFD4FF4B2
:100490000050009001208DF8040000208DF8060027
:1004A00003208DF8050002208DF8070069461248E8
:1004B00003F0D4F94FF400510F4803F04DFA1CBD7E
:1004C0001CB50121022004F02DFD302000900120F8
:1004D0008DF8040000208DF8060003208DF805003B
:1004E00002208DF807006946044803F0B7F930216F
:1004F000024803F031FA1CBD00080240000402402B
:10050000002057E0002100EB4002FE4B03EB4212BB
:10051000116000EB400203EB4212916000EB4002DD
:1005200003EB4212516000EB400203EB4212918256
:1005300043F6982100EB400203EB4212D1829FED7B
:10054000F20A00EB40011A4602EB411181ED060A66
:100550009FEDEE0B00EB400102EB411181ED080B2A
:100560009FEDEC0B00EB400102EB411181ED0A0B1A
:100570009FEDEA0B00EB400102EB411181ED0C0B0A
:100580009FEDE80B00EB400102EB411181ED0E0BFA
:10059000002200EB400103EB4111A1F858209FED30
:1005A000E10B00EB40011A4602EB411181ED140B07
:1005B000411CC8B20428A5DB43F69821DB4A116030
:1005C000704700EB4001CF4A02EB4111497B00EB41
:1005D0004002CC4B03EB4212127B01EB022109B229
:1005E00000EB400203EB4212116000EB40011A469F
:1005F00002EB4111CA7B00EB400103EB4111897B07
:1006000002EB012109B200EB400203EB4212516000
:1006100000EB40011A4602EB41114A7C00EB40011D
:1006200003EB4111097C02EB012109B200EB40020E
:1006300003EB42129160704710B5B248808A000AFD
:10064000BB490870AF48007D4870AE48B0F87400F0
:10065000000A8870AB4890F87400C870A948B0F8D8
:10066000D400000A0871A74890F8D4004871A54842
:10067000B0F83401000A8871A24890F83401C871BA
:100680004FF400720821AA4800F092FD10BD70B529
:100690002DED0C8B05460C469FEDA20BB0EE409A5B
:1006A000F0EE609A04EB4401964A02EB411149686E
:1006B000681A06F0C8F841EC180B9FED9E0B53EC3E
:1006C000102B51EC180B06F007F91CD2B0EE480ABB
:1006D000F0EE680A06F058FAB0EE40BAF0EE60BAF2
:1006E0009FED940B53EC102B51EC1B0B06F039F8DB
:1006F00041EC1A0B9FED910B53EC102B06F02BF8ED
:1007000041EC180B2EE09FED8F0B53EC102B51ECAE
:10071000180B06F0C9F825D251EC180B81F00041F6
:1007200041EC1D0BB0EE4D0AF0EE6D0A06F02CFA0E
:10073000B0EE40CAF0EE60CA9FED7E0B53EC102B7A
:1007400051EC1C0B06F00DF841EC1B0B9FED7B0BE5
:1007500053EC102B05F0FFFF41EC1A0B81F0004128
:1007600041EC180B04EB4400664901EB401090ED9E
:10077000141BB0EE410AF0EE610A53EC182B51EC59
:10078000100B05F047FF04EB44025E4B03EB4212F3
:10079000C2E914016548006806F055F841EC1A0BEF
:1007A00004EB4400574901EB401090ED141BB0EEF0
:1007B000410AF0EE610A06F0DDF9B0EE40BAF0EE63
:1007C00060BA53EC1A2B51EC1B0B06F085F82BD2B8
:1007D00004EB44004B4901EB401090ED141BB0EECC
:1007E000410AF0EE610A9FED4F1B53EC112B51ECC7
:1007F000100B06F071F80BD24C48006806F023F895
:1008000004EB44023F4B03EB4212C2E914010BE03C
:1008100046490968484206F016F804EB4402394B91
:1008200003EB4212C2E9140104EB4400354901EB29
:10083000401090ED0E1BB0EE410AF0EE610A53EC51
:10084000102B51EC180B05F086FF41EC1B0B04EB51
:1008500044002C4901EB401090ED0C1BB0EE410A16
:10086000F0EE610A53EC102B51EC1B0B05F079FFF5
:1008700041EC1C0B04EB4400224901EB401090EDCD
:10088000142BB0EE420AF0EE620A04EB440001EBD6
:10089000401090ED0A2BB0EE421AF0EE621A53ECC3
:1008A000102B51EC110B05F05CFF41EC1B0B04EB22
:1008B0004400144901EB401090ED081BB0EE410AD2
:1008C000F0EE610A53EC182B51EC100B05F049FFC8
:1008D00041EC1D0B53EC1B2B05F09CFE41EC1A0B5D
:1008E00053EC1C2B05F096FE41EC190B04EB440075
:1008F000044901EB401080ED0E8BB0EE490AF0EE9A
:10090000690A23E0A80000200000000033333333DD
:1009100033332E40F6285C8FC2F5E83FA4703D0AC1
:10092000D7A30E40000000000000000014000020CB
:1009300018000020000000000000694000000000D6
:1009400000E08A4000000000000069C006F012F9D3
:10095000B0EE40AAF0EE60AA9FED320B53EC102BE4
:1009600051EC1A0B05F0A0FF06D21FED120BB0EEF2
:10097000409AF0EE609A47E004EB44012B4A02EB08
:100980004111B1F9160005F05EFF41EC1A0BB0EE13
:10099000490AF0EE690A06F0EDF8B0EE40BAF0EE62
:1009A00060BA53EC1A2B51EC1B0B05F095FF21D2CA
:1009B0001FED240B53EC102B51EC190B05F08CFFA1
:1009C0000BD204EB4401194A02EB4111B1F91600B4
:1009D00005F039FF41EC190B16E004EB4401134A12
:1009E00002EB4111B1F91610484205F02CFF41EC21
:1009F000190B09E051EC190B05F036FF06B2304631
:100A000005F021FF41EC190B51EC190B05F02CFFFF
:100A100000B204EB4401054A02EB41118882BDECAF
:100A20000C8B70BD000000000000F03FA80000200B
:100A30007FB505460C460121022004F0BCFA029560
:100A4000ADF804400020ADF80C00ADF8060001A997
:100A5000C24803F09EFA01221146C04803F03AFF53
:100A60001D208DF8000001208DF8010003208DF875
:100A7000020001208DF80300684602F0FEFD01210E
:100A8000B64803F00FFB7FBD10B50121B34803F05A
:100A900038FFE8B10121B14803F044FFB049B1F992
:100AA00058000021FFF7F3FDAD49B1F9B80001216D
:100AB000FFF7EDFDAA49B1F918010221FFF7E7FDA3
:100AC000A749B1F978010321FFF7E1FDFFF7B4FD74
:100AD00010BD7FB505460C460121082004F06BFAD5
:100AE0000295ADF804400020ADF80C00ADF806000A
:100AF00001A99C4803F04DFA01221146994803F0E0
:100B0000E9FE32208DF8000001208DF8010002205E
:100B10008DF8020001208DF80300684602F0ADFD5B
:100B20000121904803F0BEFA7FBD10B501218D4828
:100B300003F0E7FE00284FD001218A4803F0F2FEBF
:100B40008948006808B9012000E000208649086053
:100B500000F043FE00F0A2FE00F0C8FE00F0EEFE42
:100B600000F0FDFE00F023FF804801680068401C93
:100B70007E4A106014292FDB0020114608607C4853
:100B80000068322803DB7B480068462804DA01202D
:100B90007549091D086003E000207349091D0860BC
:100BA00075480068322803DD01207449086002E0BE
:100BB0000020724908609FED720A724880ED000AB9
:100BC00064206B4908606B49086000206E4908602A
:100BD0006E4908606849086010BD3EB505460C4680
:100BE0000121042004F0E7F90195ADF80040002050
:100BF000ADF80800ADF802006946654803F0C9F990
:100C000000220121624803F065FE0121604803F0E3
:100C100075FE3EBD30B58BB005460C460121084639
:100C200004F0C9F90121022004F07CF9012203211A
:100C3000584802F09EFE0820099002208DF82800F6
:100C40008DF8290000208DF82A0001208DF82B0056
:100C500009A9504802F002FE0795ADF8184000209F
:100C6000ADF82000ADF81A0006A94FF0804003F05F
:100C700090F97020ADF804000120ADF806000020C6
:100C8000ADF8100001A94FF0804003F050FA0821A0
:100C9000C80603F0A9FB0121880703F003FA0BB093
:100CA00030BD7FB505460C460121202004F083F9B4
:100CB0000295ADF804400020ADF80C00ADF8060038
:100CC00001A9354803F065F901221146324803F0C5
:100CD00001FE37208DF8000000208DF801008DF80E
:100CE000020001208DF80300684602F0C6FC0121D5
:100CF000294803F0D7F97FBD10B50121264803F03C
:100D000000FE50B30121244803F00CFE2348007874
:100D100028B923480068401C2149086004E02048A5
:100D20000068401E1E4908601D48006840F26C7152
:100D3000884203DB01201949087008E01848006860
:100D400040F2D661884202DC002014490870144841
:100D500001684FF0804003F00CFB10BD0004004020
:100D6000A8000020000C0040B402414220000020F6
:100D7000340000203800002044000020A4824042BB
:100D80000000FA43300000203C000020400000201A
:100D90000008004000040240001400404C00002005
:100DA000480000202DE9F0418AB004460D46164661
:100DB0001F46DDF840800121084604F0B3F8012108
:100DC000480604F0F8F84FF4C050089002208DF85F
:100DD000240000208DF8260003208DF82500012036
:100DE0008DF8270008A9FC4802F038FD09220B21E4
:100DF000F94802F0BEFD09220C21F74802F0B9FDC6
:100E000000208DF81A008DF81B008DF81C000120C1
:100E10008DF81D0000208DF81E008DF81F008DF844
:100E200016808DF817408DF818608DF81950ADF8C0
:100E3000147005A9E94804F014FC00208DF80E0098
:100E400001208DF80F0000208DF810004FF4F07095
:100E5000ADF804004FF43E60ADF806004FF4387072
:100E6000ADF808000020ADF80A00ADF80C00012034
:100E70008DF8110001A804F07EFC01208DF80E0011
:100E80008DF80F008DF810004FF47870ADF8040065
:100E90000020ADF806004FF49C60ADF8080000207B
:100EA000ADF80A00ADF80C0001208DF8110001A882
:100EB00004F061FC01220221C84804F05BFF142009
:100EC0008DF8000001208DF8010000208DF802004F
:100ED00001208DF80300684602F0CFFB0AB0BDE8A0
:100EE000F08100B585B06A460021BC4804F027FEB9
:100EF00000980F2802D017287AD13DE0B848DDF8D5
:100F00000B10016090ED000ADFEDB60A20EE200A1A
:100F100080ED000A90ED000AB5EEC00AF1EE10FA7D
:100F200007D1B148006808B9012000E00020AE49AF
:100F30000860AB4890ED000ABDEEC00A10EE100A42
:100F400001B2AA48A0F87811A549DDF80F000860A1
:100F5000084690ED000ADFEDA30A20EE200A80ED9E
:100F6000000A90ED000ABDEEC00A10EE100A01B2B0
:100F70009E48A0F858103BE09948DDF80B1001603E
:100F800090ED000ADFED970A20EE200A80ED000ABE
:100F900090ED000ABDEEC00A10EE100A01B29348AF
:100FA000A0F81811B0F81801404201B28F48A0F81B
:100FB00018118B49DDF80F000860084690ED000A13
:100FC000DFED880A20EE200A80ED000A90ED000A8D
:100FD000BDEEC00A10EE100A01B28448A0F8B810A5
:100FE000B0F8B800404201B28048A0F8B81000BF85
:100FF00000BF05B000BD2DE9F04186B007460D46A3
:1010000090460024CDF80480002002908DF80C005A
:101010008DF80D0008208DF80E0000BF05E0395D49
:101020000DF10F000155601C84B2AC42F7DB2C4679
:1010300005E000210DF10F000155601C84B2082C61
:10104000F7DB01A9654804F085FC0646002401E0B1
:10105000601C84B23146614804F014FD18B940F6B2
:10106000FF708442F4DB40F6FF70844203DB012012
:1010700006B0BDE8F0810020FAE730B585B005463E
:101080000021564804F0DEFD10B9002005B030BD47
:101090006A460021514804F052FD002404E00DF19D
:1010A0000B00005D2855641C9DF80A00A042F6D88C
:1010B0009DF80A00EAE72DE9F0418AB004460D46A2
:1010C00016461F46DDF840800121022003F02AFF6A
:1010D0000121880603F06FFF4FF440500890022072
:1010E0008DF8240000208DF8260003208DF82500BF
:1010F00001208DF8270008A93D4802F0AFFB092226
:101100000C213B4802F035FC09220D21384802F041
:1011100030FC00208DF81A008DF81B008DF81C00A3
:1011200001208DF81D0000208DF81E008DF81F0095
:101130008DF816808DF817408DF818608DF81950CD
:10114000ADF8147005A92B4804F08BFA0E2004F0BA
:10115000A3FB0E208DF80E0000208DF80F0001205B
:101160008DF810000020ADF80400ADF80600ADF8D1
:101170000800ADF80A00ADF80C0001208DF8110050
:1011800001A804F0F8FA012202211A4804F0F2FD45
:1011900040208DF8000001208DF801008DF802003C
:1011A0008DF80300684602F068FA0AB0BDE8F081E5
:1011B0002DE9F04186B007460D4690460024CDF853
:1011C0000480002002908DF80C008DF80D0008209E
:1011D0008DF80E0000BF15E00000024000640040E2
:1011E0002400002000803B44B4024142A8000020BB
:1011F0000004024000680040395D0DF10F00015508
:10120000601C84B2AC42F7DB2C4605E000210DF1F6
:101210000F000155601C84B2082CF7DB01A9464879
:1012200004F098FB0646002401E0601C84B23146BD
:10123000414804F027FC18B940F6FF708442F4DB03
:1012400040F6FF70844203DB012006B0BDE8F08168
:101250000020FAE730B585B005460021364804F095
:10126000F1FC10B9002005B030BD6A4600213248BB
:1012700004F065FC002404E00DF10B00005D28552E
:10128000641C9DF80A00A042F6D89DF80A00EAE71F
:1012900010B586B001AA0021274804F050FC01983F
:1012A000A0F2012030B1012813D0022821D0032858
:1012B0003ED12EE0002406E00DF10F00015D1F4835
:1012C0000155601CC4B2082CF6DB0020FFF779F949
:1012D0002EE0002407E00DF10F00015D174860309B
:1012E0000155601CC4B2082CF5DB0120FFF769F939
:1012F0001EE0002407E00DF10F00015D0F48C03033
:101300000155601CC4B2082CF5DB0220FFF759F927
:101310000EE0002406E00DF10F00015D08480155C4
:10132000601CC4B2082CF6DB0320FFF74AF900BFAB
:1013300000BF06B010BD000000680040B4000020EF
:10134000D401002010B500205649087011E055481E
:10135000007800EB4000544901EB401042685148CE
:10136000017852A005F0F6FB4E480078401C4D492C
:1013700008705049087800EBD0714A4A1278B2EBF5
:10138000610FE4DB4CA005F0E5FB10BD00B585B0B6
:1013900000F09CF8494908700846007800287FD082
:1013A000474A69464548007800F0A2F8414908706C
:1013B00008460078002870D041480078252856D08B
:1013C00004DC01284ED0132866D14FE0372858D0CE
:1013D000FF2861D10020334908703EE03148007891
:1013E00018B130480078032819D19DF801006438FD
:1013F000962110FB01F19DF800006438C0EB00104D
:1014000000EB800001EB400001B22648007800EBC1
:101410004000254A02EB4010A0F8581018E09DF853
:1014200000006438962110FB01F19DF8010064383A
:10143000C0EB001000EB8000A1EB400001B21948A6
:10144000007800EB4000184A02EB4010A0F858105A
:1014500014480078401C134908701248007804288A
:10146000BCDB19E001201749087015E014E01648AC
:10147000006808B9012000E00020134908600BE073
:101480000EE01148001F006808B9012000E00020AC
:101490000D49091F086000BF00BF00200749087000
:1014A00005B000BD28000020A800002025643A25D2
:1014B000642000002A0000200D0A000029000020FE
:1014C0002B0000205C000020BC02414210B54F48B8
:1014D000008800F4004048B14C48047800204B4993
:1014E00008804BA005F036FB204610BD0020FCE72D
:1014F0002DE9F047804689469246002500204C4958
:1015000008707EE02846691C8DB24A490C5C484848
:10151000007806286DD2DFE800F0030F2D3C4F5D08
:10152000FF2C03D101204249087004E0681E85B2F7
:1015300005203F49087060E0FF2C0FD0FB2C0DD038
:10154000252C0BD0372C09D0012C07D0132C05D01B
:10155000FA2C03D0FC2C01D0F02C05D10220344908
:1015600008708AF8004004E0681E85B20520304902
:10157000087042E03CB10A2C05D2E6B203202C49A7
:101580000870002704E0681E85B20520284908700D
:1015900033E05CB1FF2C09D209F80740781CC7B2D0
:1015A000B74208DB04202249087004E0681E85B2B7
:1015B00005201F49087020E0FE2C05D100201C49A1
:1015C00008703046BDE8F087681E85B205201849CE
:1015D000087012E000211848A0F85810A0F8B810C0
:1015E000A0F81811A0F8781114A005F0B3FA0020A3
:1015F000E8E705200E49087000BF00BF454500D14F
:1016000000E07FE700BF0020DCE70000840000204E
:1016100055736172742072656365697665207375B0
:101620006363657366756C6C79210D0A00000000B8
:101630002C00002040020020A800002077726F6E6E
:10164000670D0A001CB50121052003F06BFC40204A
:10165000009001208DF8040000208DF80600022083
:101660008DF805006946E64802F0F8F83020009051
:1016700001208DF8040000208DF8060002208DF86E
:1016800005006946DF4802F0E9F82021DD4802F054
:1016900061F94021DA4802F05DF910200090002045
:1016A0008DF804008DF807006946D54802F0D6F899
:1016B0001CBD00B585B00121084603F033FC0120B4
:1016C0008DF8040000208DF8060002208DF805003A
:1016D00000906946CA4802F0C1F800208DF8040065
:1016E00002208DF80700012000906946C44802F0EE
:1016F000B5F80020C44908600121880303F06CFCA0
:101700000021084603F0FBF90120029000208DF82B
:101710000C0010208DF80D0001208DF80E0002A89D
:1017200004F08CFC06208DF8100000208DF81100CC
:101730008DF8120001208DF8130004A801F09DFF20
:101740009FEDB20AB24880ED000A05B000BD1CB59D
:101750000121042003F0E6FB0820009000208DF812
:10176000040002208DF807006946A64802F076F8CA
:101770001CBD1CB50121062003F0D4FB4FF44040F2
:10178000009001208DF8040000208DF80600032051
:101790008DF8050001208DF807006946994802F090
:1017A0005DF84FF40070009069469A4802F056F8D0
:1017B0004FF44041934802F0CFF84FF40071954840
:1017C00002F0CAF81CBD10B5FFF7D3FFFFF7BFFF4B
:1017D000FFF76FFFFFF736FF10BD10B501208A49F4
:1017E0000860642001F026FE00208B49C1F88402C5
:1017F00010BD10B52DED048B012004F085FC0028F0
:1018000049D0012004F08BFC01217D4802F088F8CA
:1018100001280BD10021814802F004FC01208049FD
:10182000087001217D4802F03DFC34E000217B4836
:1018300002F038FC7A48007850B3784802F0F6FBA2
:101840000446204604F0FFFF41EC190B9FED750B99
:1018500053EC102B04F085FF41EC180B05F004F855
:101860000446B4F5E17F01DD4FF4E17400EE104A67
:10187000B8EEC00A6648D0ED000AB4EEE00AF1EE18
:1018800010FA05D200EE104AB8EEC00A80ED000A48
:10189000002063490870BDEC048B10BD10B52DED20
:1018A000028B05210A2000F02FF900EE100AB8EE95
:1018B000400AB0EE408A9FED5D0A28EE000ADFED97
:1018C0005C0A80EE201AB0EE418A5A4890ED000A78
:1018D000B8EEC00AB4EEC08AF1EE10FA03D2BDEE43
:1018E000C80A80ED000ABDEC028B10BD10B52DEDCD
:1018F000028B05210B2000F007F900EE100AB8EE6C
:10190000400AB0EE408A9FED490A28EE000ADFED5A
:10191000480A80EE201AB0EE418A474890ED000A4E
:10192000B8EEC00AB4EEC08AF1EE10FA03D2BDEEF2
:10193000C80A80ED000ABDEC028B10BD10B508216D
:10194000304801F0EDFF642110FB01F404B90124DB
:101950003A480068844201DD3848046010BD10B583
:101960002DED028B05210C2000F0CEF800EE100AC0
:10197000B8EE400AB0EE408A9FED2C0A28EE000A2D
:10198000DFED2B0A80EE201AB0EE418A2C4890ED54
:10199000000AB8EEC00AB4EEC08AF1EE10FA03DD18
:1019A000BDEEC80A80ED000ABDEC028B10BD10B57B
:1019B0002DED028B0521022000F0A6F800EE100AA2
:1019C000B8EE400AB0EE408A9FED180A28EE000AF1
:1019D000DFED170A80EE201AB0EE418A194890ED2B
:1019E000000AB8EEC00AB4EEC08AF1EE10FA03DDC8
:1019F000BDEEC80A80ED000ABDEC028B10BD0000F0
:101A00000000024000080240840240420000FA4305
:101A10003000002000040240000040420008004066
:101A20005D0000209CC420B07268A13F0000C84245
:101A30000000804534000020380000203C000020D9
:101A4000400000204400002000B58DB00121052099
:101A500003F068FA0121080203F0BEFA07200B9098
:101A600003208DF8300000208DF833000BA9324898
:101A700001F0F4FE04200B9003208DF830000020CC
:101A80008DF833000BA92D4801F0E8FE0121080272
:101A900003F0F7FA00214FF4807003F0F2FA00200F
:101AA00007900A9009904FF48030089007A803F03F
:101AB000C7FB002001908DF808008DF80900039005
:101AC000059001208DF8180001A91D4803F089FB3D
:101AD00001211B4803F0CBFB0DB000BD10B504463F
:101AE000002301222146164803F001FC144803F0AC
:101AF0005AFC00BF0221124803F076FD0028F9D0FD
:101B00000F4803F08CFC10BD2DE9F04107460C4650
:101B10000025002608E03846FFF7E0FF05440520D1
:101B200001F0D0FC701CC6B2A642F4DBB5FBF4F0A9
:101B300080B2BDE8F08100000008024000000240D1
:101B40000020014000B587B00121084603F0EAF902
:101B50000121080303F040FAA020059002208DF82F
:101B6000180000208DF81A0002208DF819000120BD
:101B70008DF81B0005A9254801F070FE05221146CD
:101B8000224801F0F6FE05220721204801F0F1FE6F
:101B900020211E4801F0DEFE80211C4801F0DAFE03
:101BA0000020ADF800004FF48270ADF80200002074
:101BB000ADF80400ADF80600ADF808004FF4007071
:101BC000ADF80A002820ADF80C000020ADF80E009A
:101BD0000A20ADF8100069460D4804F0F5FA01211D
:101BE0000B4804F0EBFB07B000BD10B5044600BF86
:101BF0000221074804F0ACFC0028F9D02146044833
:101C000004F05DFC322001F015FC10BD0000024024
:101C10000030014070B505460C4645F2555004F0C1
:101C2000C7FC284604F0C7FC204604F0C7FC04F0BB
:101C3000C8FC04F0CBFC70BD10B504F0C2FC10BDB4
:101C400010B504462046FFF7D0FF10BD002009491B
:101C500008600949C1F894020120084908607047EA
:101C60000020044908600449C1F89402034908604F
:101C700070470000900241420000414298024042F9
:101C800010B5012072490860C82001F01BFC00203B
:101C90007049C1F89802052001F014FC01206C493C
:101CA0000860C82001F00EFC10BD10B504460020ED
:101CB000694908606949C1F894022046FFF7C0FFEE
:101CC00001206549091D086010BD10B504460120BA
:101CD0006149086000206149C1F894022046FFF77D
:101CE000AFFF01205C49091D086010BD10B502E07E
:101CF000642001F0E7FB1021594801F011FE002893
:101D0000F6D010BD10B51220FFF7CFFF642001F010
:101D1000D9FBFFF7EBFF10BD10B5FFF7B1FF0620B1
:101D2000FFF7C3FF1720FFF7D0FF1720FFF7CDFF06
:101D30001720FFF7CAFF0420FFF7B7FFFFF7D6FF12
:101D40000020FFF7B2FF0F20FFF7BFFF45A004F010
:101D500001FF10BD2DE9F04132244FF4967510209B
:101D6000FFF7A3FF00260AE0002704E0FF20FFF7AB
:101D7000ACFF781C87B2A742F8DB701C86B2AE427B
:101D8000F2DB39A004F0E6FE1320FFF78EFF0026F9
:101D90000AE0002704E0FF20FFF797FF781C87B2D6
:101DA000A742F8DB701C86B2AE42F2DBFFF7AAFF57
:101DB0002EA004F0CFFEBDE8F0812DE9F04780466B
:101DC000894632244FF496751020FFF76EFF0026E7
:101DD0000DE0002707E006FB047118F80100FFF78B
:101DE00074FF781C87B2A742F5DB701C86B2AE4246
:101DF000EFDB21461FA004F0ADFE1320FFF755FFD7
:101E000000260DE0002707E006FB047119F8010029
:101E1000FFF75BFF781C87B2A742F5DB701C86B228
:101E2000AE42EFDB294613A004F094FEFFF76AFFF1
:101E3000BDE8F08710B50220FFF737FFFFF756FF28
:101E40000720FFF732FFA520FFF73FFF10BD00007E
:101E5000980240420000404290024142000041424C
:101E600000000240696E69740D0A000065786974AB
:101E70000D0A000025640D0A000000001CB598A0A2
:101E800004F068FE9B48006800F00FFAFF2000F0A5
:101E9000B5FBFF200021984B98A2CDE900100A2144
:101EA000084600F0F7FFFF200021934B96A2CDE9F2
:101EB000001032210A2000F0EDFFFF2000218E4BA0
:101EC00094A2CDE900105A210A2000F0E3FFFF2080
:101ED0000021894B92A2CDE9001082210A2000F056
:101EE000D9FFFF200021844B90A2CDE90010AA2148
:101EF0000A2000F0CFFFFF2000217F4B8EA2CDE90A
:101F00000010D2210A2000F0C5FFFF2000217A4BEB
:101F10008BA2CDE90010FA210A2000F0BBFFFF20C0
:101F20000021754B89A2CDE900104FF491710A2070
:101F300000F0B0FFFF2000216F4B87A2CDE9001019
:101F40004FF4A5710A2000F0A5FFFF200021854B6A
:101F5000CDE9001084480E210268642001F0A3F846
:101F6000FF2000217F4BCDE9001080483621026818
:101F7000642001F098F8FF2000217A4BCDE9001091
:101F80007B485E210268642001F08DF8FF2000216B
:101F9000744BCDE90010774886210268642001F077
:101FA00082F8FF2000216F4BCDE900107248AE216E
:101FB0000268642001F077F8FF200021694BCDE929
:101FC00000106E4890ED000ABDEEC00A10EE102A17
:101FD000D621642001F067F8FF200021614B0A46FA
:101FE000CDE90010FE21642001F05DF8FF20002102
:101FF0005C4B0A46CDE900104FF49371642001F068
:1020000052F8FF200021574B1422CDE900104FF465
:10201000A771642001F047F859A004F09BFD5C48CB
:10202000016834480068FFF7C8FE1CBD38B5FFF7EB
:102030000DFE58A004F08EFDFFF76EFE4FF4FA700F
:1020400001F040FAFFF786FE43F69824214658A097
:1020500004F080FD204605F01DF92649086028B9E6
:1020600055A004F077FD4FF0FF3038BD204605F055
:1020700011F94749086028B959A004F06BFD4FF0E9
:10208000FF30F2E75FA004F065FDFF204FF4877397
:102090004FF496724FF4C87100901648006800F033
:1020A000C3F8FF204FF487734FF496724FF4C87152
:1020B00000903748006800F0B7F80E48006800F05C
:1020C000F4F8FF2000F09AFA3148006800F0EDF8CB
:1020D000FF2000F093FAFFF7D1FE0020C5E70000D3
:1020E0004472617720626C61636B20696D61676522
:1020F0000D0A00006000002068000020B9E2CFDF78
:10210000C7BFB6C8A3BA0000D1CCCEEDC7BFB6C812
:10211000A3BA0000BAECCDE2C7BFB6C8A3BA0000AC
:10212000D3EACBAEC7BFB6C8A3BA0000BBF0D1E6B6
:10213000C7BFB6C8A3BA0000BEE0C0EBA3BA000098
:10214000B8A9D1F6BDC7A3BA00000000BAE1B9F63C
:10215000BDC7A3BA00000000BABDCFF2BDC7A3BA85
:102160000000000074000020440000204000002017
:102170003C00002038000020340000203000002007
:102180004550445F446973706C61790D0A0000002A
:1021900064000020652D506170657220496E69747D
:1021A00020616E6420436C6561722E2E2E0D0A0034
:1021B00025640D0A000000004661696C65642074A6
:1021C0006F206170706C7920666F7220626C616341
:1021D0006B206D656D6F72792E2E2E0D0A0000003A
:1021E0004661696C656420746F206170706C792041
:1021F000666F7220726564206D656D6F72792E2E28
:102200002E0D0A004E6577496D6167653A426C6133
:10221000636B496D61676520616E64205259496D39
:102220006167650D0A0000002DE9F0410646069F32
:102230000020F84C206020460660018142818781A1
:102240000220E0820C464FEAE17C01EB5C7C4FEA25
:10225000EC0CA1EBCC0CBCF1000F07D10D464FEA02
:10226000E57C05EB5C7C4FEAEC0C08E008464FEAA5
:10227000E17C01EB5C7C4FEAEC0C0CF1010CDFF82B
:102280009483A8F812C040468282C381002044464D
:1022900020820BB1B42B03D1DE488180C28002E0E2
:1022A000DC488280C180BDE8F081DA49086070476F
:1022B00010B5044634B15A2C04D0B42C02D0B4F575
:1022C000877F06D12146D4A004F044FCD148C481C4
:1022D00002E0D7A004F03EFC10BD70B50446022C0D
:1022E0001BD1CC48C48203461A89D31702EB53731F
:1022F000DB10A2EBC30333B903461989CB1701EBFB
:102300005373DB1006E0C34B1889C31700EB5373FC
:10231000DB105B1CBF4D6B823EE0042C1BD1BD4823
:10232000C48203461A89D31702EB93739B10A2EB66
:10233000830333B903461989CB1701EB93739B10C1
:1023400006E0B44B1889C31700EB93739B105B1C1A
:10235000B04D6B8220E0072C18D1AE48C4820346F2
:102360001A8902EBD2735B10A2EB43032BB903462D
:10237000198901EBD1735B1005E0A64B188900EBBE
:10238000D0735B105B1CA34D6B8205E0AFA004F023
:10239000E1FBB7A004F0DEFB70BD10B504462CB124
:1023A000012C03D0022C01D0032C13D1C4F3400024
:1023B00008B1B6A000E0B7A0024604F0010008B1E1
:1023C000B2A000E0B3A00146B4A004F0C3FB914862
:1023D000048202E0B84804F0BDFB10BD2DE9F041D5
:1023E0000746884616468B488088B84203DB8948F2
:1023F000C088404504DAB1A004F0ACFBBDE8F08130
:102400008448C08938B15A2808D0B4280ED0B0F515
:10241000877F1ED116E03C4645461BE07D4800897B
:10242000A0EB0800401E84B23D4613E079480089C5
:10243000C01B401E84B277484089A0EB0800401EB4
:1024400085B207E0444673484089C01B401E85B2F0
:1024500000E0D3E700BF6F48008A30B1012805D003
:10246000022809D0032818D10CE017E06948008938
:10247000001B401E84B211E066484089401B401E8C
:1024800085B20BE063480089001B401E84B261489E
:102490004089401B401E85B200E0AFE700BF5D48A9
:1024A0000089A04203DB5B484089A84203DA83A08D
:1024B00004F050FBA2E75748C08A022833D12146D6
:1024C000E31704EB5373DB10DFF848C1BCF812C00C
:1024D00005FB0C304F4909680A5C96B92146E317A1
:1024E00004EB5373DB10A4EBC30C802343FA0CF30F
:1024F00022EA0303DFF81CC1DCF800C00CF800304E
:1025000010E02146E31704EB5373DB10A4EBC30C7C
:10251000802343FA0CF31343DFF8F8C0DCF800C063
:102520000CF8003068E03B48C08A042835D12046CA
:10253000E31704EB93739B10DFF8D8C0BCF812C00C
:1025400005FB0C313046F31706EB93739B10A6EB9B
:1025500083039EB22F480068425C2046E31704EBD9
:1025600093739B10A4EB83034FEA430CC02343FAFD
:102570000CF39A43E31704EB93739B10A4EB8303D0
:102580004FEA430CB30143FA0CF31343DFF884C062
:10259000DCF800C00CF801302EE01E48C08A072885
:1025A0002AD1224604EBD2735B10DFF868C0BCF876
:1025B00012C005FB0C30174A1268115C224604EB6E
:1025C000D2735B10A4EB43034FEA830CF02343FA6E
:1025D0000CF3994304EBD2735B10A4EB43034FEA73
:1025E000830C330143FA0CF30B43DFF828C0DCF80B
:1025F00000C00CF8003000BF00BFFFE670B5044615
:102600000448C08A022803D00248C08A04287BD12B
:10261000002074E02802002053657420696D616712
:102620006520526F746174652025640D0A000000F6
:10263000726F74617465203D20302C2039302C205D
:102640003138302C203237300D0A000053657420A9
:102650005363616C6520496E70757420706172619E
:102660006D65746572206572726F720D0A000000EC
:102670005363616C65204F6E6C7920737570706F59
:1026800072743A2032203420370D0A006D6972725C
:102690006F7200006E6F6E65000000006D697272EF
:1026A0006F7220696D61676520783A25732C2079F7
:1026B0003A25730D0A000000B0A400084578636550
:1026C0006564696E6720646973706C617920626FFC
:1026D000756E6461726965730D0A0000002108E07F
:1026E000FE4B5B8A00FB0312FC4D2D68AC544A1C68
:1026F00091B2FA4A528A8A42F2DC411C88B2F74906
:10270000898A8142EADC00E003E0F5A004F022FAC5
:102710001CE0F248C08A072818D1002012E00021EE
:102720000AE0EE4B5B8A00FB031244EA0413EB4D14
:102730002D68AB544A1C91B2E84A528A8A42F0DCB6
:10274000411C88B2E549898A8142E8DC70BD2DE9E7
:10275000F04706460F4690469946DDF820A03D46D4
:102760000CE0344606E0524629462046FFF736FE86
:10277000601C84B24445F6DB681C85B24D45F0DB35
:10278000BDE8F0872DE9F0470746884691461C468C
:10279000DDF820A0D1488088B84203DBCF48C0884C
:1027A000404510DAD0A004F0D5F9CC4882883946EB
:1027B000DCA004F0CFF9C948C2884146E2A004F089
:1027C000C9F9BDE8F087BAF1010F23D100251CE05B
:1027D000002613E07819001B03D408EB0600001B49
:1027E00000D50FE008EB0602121B91B27A19121BFA
:1027F00090B24A46FFF7F2FD701C06B26000401E20
:10280000B042E7DC00BF681C05B26000401EA84271
:10281000DEDC15E0002511E000260BE008EB0602E7
:10282000521E91B27A19521E90B24A46FFF7D6FD57
:10283000701C06B2A642F1DB681C05B2A542EBDBB8
:1028400000BFBEE72DE9F04F85B004460D461646A1
:102850001F46A2488088A0420BDBA048C088A8423F
:1028600007DB9E488088B04203DB9C48C088B842A2
:1028700005DABFA004F06EF905B0BDE8F08FA04600
:10288000AA46301B01D4301B00E0A01B8346781BF6
:10289000002801DC781B00E0E81B0490B44201DA58
:1028A000012001E04FF0FF300390BD4201DA01202A
:1028B00001E04FF0FF30029004980BEB000900207C
:1028C000019000BF0198401CC0B2019010980128EF
:1028D00011D10321019890FBF1F201FB120050B9D4
:1028E00001200090FF22514640460F9BFFF74AFF10
:1028F0000020019007E00120009051464046DDE9AC
:102900000E23FFF73FFF4FEA49010498814208DB9D
:10291000B04500D112E004988144039840441FFA66
:1029200080F84FEA49005845CCDCBA4500D105E0B3
:10293000D944029850441FFA80FAC3E700BF00BF91
:102940009AE72DE9FE4F81460E4692461F46DDE985
:102950000D5B0C9C6148808848450BDB5F48C08854
:10296000B04207DB5D488088504503DB5B48C08888
:10297000B84204DA60A004F0EDF8BDE8FE8FBBF1C8
:10298000000F12D0B0460DE00020434652464146AB
:10299000CDE9004502904846FFF754FF08F10100D9
:1029A0001FFA80F8B845EFDB27E000203346524697
:1029B0003146CDE9004502904846FFF743FF00202D
:1029C0003B464A463146CDE9004502904846FFF76E
:1029D00039FF0020334652463946CDE90045029082
:1029E0005046FFF72FFF00203B464A463946CDE9C7
:1029F000004502905046FFF725FF00BFBDE72DE9D7
:102A0000F84F05460E4692469B4634488088A842B9
:102A100003DB3248C088B04204DC63A004F09AF8BB
:102A2000BDE8F88F00240FFA8AF70320A0EB4A00D4
:102A30000FFA80F90B9801284ED1FAE0A046E2E0A7
:102A4000012006EB080291B22A19009090B20123EE
:102A50005A46FFF797FE012006EB080291B22A1BA7
:102A6000009090B201235A46FFF78CFE01203219E4
:102A700091B2A5EB0802009090B201235A46FFF7ED
:102A800081FE0120321B91B2A5EB0802009090B2AA
:102A900001235A46FFF776FE0120A6EB080291B209
:102AA0002A1B009090B201235A46FFF76BFE0120CB
:102AB000A6EB080291B22A19009090B201235A465F
:102AC000FFF760FE0120321B91B205EB0802009077
:102AD00090B201235A4685E0AFE0000028020020B2
:102AE000636C6561720D0A005061696E745F4472B7
:102AF0006177506F696E7420496E707574206578C7
:102B0000636565647320746865206E6F726D616CB7
:102B100020646973706C61792072616E67650D0A5B
:102B20000000000058706F696E74203D20256420FD
:102B30002C205061696E742E5769647468203D20A2
:102B4000256420200D0A200059706F696E74203DA5
:102B5000202564202C205061696E742E48656967B9
:102B60006874203D20256420200D0A20000000000C
:102B70005061696E745F447261774C696E6520497B
:102B80006E7075742065786365656473207468651C
:102B9000206E6F726D616C20646973706C61792056
:102BA00072616E67650D0A005061696E745F4472F0
:102BB0006177436972636C6520496E707574206536
:102BC00078636565647320746865206E6F726D61EB
:102BD0006C20646973706C61792072616E67650D39
:102BE0000A000000FFF7CEFD0120321991B205EB7B
:102BF0000802009090B201235A46FFF7C3FD08F186
:102C000001000FFA80F8B8457FF71AAFB9F1000F4D
:102C100005DAA000801D48440FFA80F907E0E01BA8
:102C200080000A3048440FFA80F9781E07B2601C11
:102C300004B2BC427FF702AF65E062E00120F21906
:102C400091B22A19009090B25A460A9BFFF79AFD5A
:102C50000120F21991B22A1B009090B25A460A9BA9
:102C6000FFF790FD0120321991B2EA1B009090B25B
:102C70005A460A9BFFF786FD0120321B91B2EA1BE0
:102C8000009090B25A460A9BFFF77CFD0120F21B90
:102C900091B22A1B009090B25A460A9BFFF772FD30
:102CA0000120F21B91B22A19009090B25A460A9B59
:102CB000FFF768FD0120321B91B2EA19009090B233
:102CC0005A460A9BFFF75EFD0120321991B2EA19BC
:102CD000009090B25A460A9BFFF754FDB9F1000FDD
:102CE00005DAA000801D48440FFA80F907E0E01BD8
:102CF00080000A3048440FFA80F9781E07B2601C41
:102D000004B2BC429ADD00BF8AE62DE9F05F0746B7
:102D1000884692461D46F8488088B84203DBF6484C
:102D2000C088404504DAF5A003F014FFBDE8F09F29
:102D3000A988CA1701EB5272D2100846CB1701EBD3
:102D40005373DB10A1EBC3030BB1012300E000239D
:102D50001344AAF12002B5F806C002FB0CF203FBF3
:102D600002FB286800EB0B09002651E0002440E03C
:102D70000B98FF2814D1E11704EB5171C910A4EB93
:102D8000C1028021114199F80020114029B308EBBC
:102D9000060291B23A1990B20A9AFFF71FFB1CE0A3
:102DA000E11704EB5171C910A4EBC102802111415C
:102DB00099F80020114041B108EB060291B23A198E
:102DC00090B20A9AFFF70AFB07E008EB060291B2FD
:102DD0003A1990B20B9AFFF701FBE11704EB51711E
:102DE000C910A4EBC101072901D109F10109601C37
:102DF00084B2A888A042BBDCA888C11700EB51713F
:102E0000C910A0EBC10109B109F10109701C86B21A
:102E1000E888B042AADC00BF88E72DE9FC5F0446E1
:102E20000E4617461D46DDE90CABA046B146B2483A
:102E30008088A04203DBB048C088B04204DABDA05D
:102E400003F088FEBDE8FC9F1FE0A8884044AA4923
:102E50008988884204DDA046E88848441FFA80F942
:102E6000E8884844A449C988884201DDA046B146A3
:102E7000CDE900BA3A782B4649464046FFF745FF70
:102E80007F1CA88840441FFA80F838780028DCD1DD
:102E900000BFD7E72DE9FF5F1D46DDF80890DDF89C
:102EA0000080DDF804A0F7E099F800007F2875DCC9
:102EB000002769E053207843296811F8100099F839
:102EC000001088425FD153207843296801EB40000D
:102ED00000F1020B002652E0002442E00F98FF2888
:102EE00015D1E11704EB5171C910A4EBC102802187
:102EF00011419BF80020114041B30AEB060291B248
:102F000008EB040290B20E9AFFF768FA1EE0E11790
:102F100004EB5171C910A4EBC102802111419BF84F
:102F20000020114049B10AEB060291B208EB0402FD
:102F300090B20E9AFFF752FA08E00AEB060291B23D
:102F400008EB040290B20F9AFFF748FAE11704EB7E
:102F50005171C910A4EBC101072901D10BF1010B7B
:102F6000641C2889A042B9DC2889C11700EB517183
:102F7000C910A0EBC10109B10BF1010B761C6889E6
:102F8000B042A9DC03E07F1CA888B84292DC00BFF5
:102F900009F10109E88880447EE0FFE7002773E03B
:102FA00053207843296811F8100099F800108842DE
:102FB00069D153207843296801EB4000407899F8A3
:102FC000011088425FD153207843296801EB40000B
:102FD00000F1020B002652E0002442E00F98FF2887
:102FE00015D1E11704EB5171C910A4EBC102802186
:102FF00011419BF80020114041B30AEB060291B247
:1030000008EB040290B20E9AFFF7E8F91EE0E11710
:1030100004EB5171C910A4EBC102802111419BF84E
:103020000020114049B10AEB060291B208EB0402FC
:1030300090B20E9AFFF7D2F908E00AEB060291B2BD
:1030400008EB040290B20F9AFFF7C8F9E11704EBFE
:103050005171C910A4EBC101072901D10BF1010B7A
:10306000641C2889A042B9DC2889C11700EB517182
:10307000C910A0EBC10109B10BF1010B761C6889E5
:10308000B042A9DC03E07F1CA888B84288DC00BFFE
:1030900009F102092889804499F8000000287FF48A
:1030A00003AFBDE8FF9F2DE9F04FADF5037D064668
:1030B0000F4615469946DDF834B2DDF830A20024FB
:1030C000A0464FF4807143A803F099FA4FF4807141
:1030D00003A803F094FA43A8029007488088B042FE
:1030E00003DB0548C088B84260DA22A003F032FD55
:1030F0000DF5037DBDE8F08F280200205061696E58
:10310000745F447261774368617220496E707574B0
:10311000206578636565647320746865206E6F72DE
:103120006D616C20646973706C61792072616E6787
:10313000650D0A005061696E745F44726177537463
:1031400072696E675F454E20496E707574206578B0
:10315000636565647320746865206E6F726D616C61
:1031600020646973706C61792072616E67650D0A05
:10317000000000005061696E745F4469734E756DA4
:1031800020496E707574206578636565647320747A
:103190006865206E6F726D616C20646973706C611C
:1031A000792072616E67650D0A0000000CE00A204C
:1031B00095FBF0F100FB1150303003A90855601C5D
:1031C00004B20A2095FBF0F5002DF0D10BE0601E53
:1031D00003A9085C43A901F8080008F101000FFAEF
:1031E00080F8601E04B2002CF1DC4B46CDE900BA39
:1031F00039463046029AFFF710FE00BF0DF5037DF9
:10320000BDE8F08F2DE9FF4F85B0054690469A4600
:10321000DDE9126776A207CA02AB07C3BAF8044019
:1032200098F804000A2190FBF1F002A911F800902F
:1032300053464A46CDE9007628460699FFF765FDD4
:1032400098F804000A2190FBF1F201FB120002A998
:1032500011F80090291988B253464A46CDE9007604
:103260000699FFF752FDA146E11704EB91712A1967
:1032700002EBA101A34604EBDB7201EB620188B211
:1032800053463A22CDE900760699FFF73EFD98F8BD
:1032900005000A2190FBF1F002A911F800B004EB3F
:1032A000D97105EB440202EB610188B253465A46DC
:1032B000CDE900760699FFF728FD98F805000A2168
:1032C00090FBF1F201FB120002A911F800B004EB2F
:1032D000D97104EB44022A4402EB610188B25346DF
:1032E0005A46CDE900760699FFF70FFD04EBD97138
:1032F00005EB840202EB6101A346E21704EB927234
:10330000A1EBA20188B253463A22CDE90076069994
:10331000FFF7FBFC98F806000A2190FBF1F002A9E8
:1033200011F8009004EB8401294488B253464A46C0
:10333000CDE900760699FFF7E8FC98F806000A2127
:1033400090FBF1F201FB120002A911F8009004EBCE
:10335000440105EB410188B253464A46CDE9007667
:103360000699FFF7D2FC09B0BDE8F08F30B50246F0
:103370000023002111E0002009E0204C648A01FBB9
:103380000403D45C1D4D2D68EC54441CA0B21B4CAE
:10339000648A8442F1DC4C1CA1B2184CA48A8C4291
:1033A000E9DC30BD70B502460B460024002119E06F
:1033B000002011E0114D6D8A01FB05040F4DAD8A0F
:1033C0000E4E768A75435E1E05FB0645555D0B4E17
:1033D00036683555451CA8B2084D6D8A8542E9DC32
:1033E0004D1CA9B2054DAD8A8D42E1DC70BD0000D7
:1033F0003031323334353637383900002802002076
:1034000010B504466FF0040000F084F9E11704EBF6
:103410005171C1F3C701394A11701046007800EBB1
:103420004001C1EBC0104FF6FF7101EAC000344902
:10343000088010BD0146314A12784A434FF0E0231C
:103440005A6100229A611A46126942F001021A6119
:1034500000BF4FF0E022106900F001021AB100F441
:103460008032002AF5D04FF0E022126922F00102EA
:103470004FF0E0231A6100229A6170470146204A0A
:1034800012884A434FF0E0235A6100229A611A469B
:10349000126942F001021A6100BF4FF0E022106988
:1034A00000F001021AB100F48032002AF5D04FF08A
:1034B000E022126922F001024FF0E0231A6100229B
:1034C0009A61704770B504464FF4077094FBF0F0B2
:1034D000C6B24FF4077094FBF0F100FB114085B2C7
:1034E00005E04FF40770FFF7C9FF701EC6B2002E4B
:1034F000F7D115B12846FFF7C1FF70BD7C00002051
:103500007E00002000BF704700BF4C4A128802F0C6
:103510004002002AF9D0C2B2484B9A80704710B5D9
:1035200088B004460121084601F0FCFC012110206E
:1035300001F052FD07220921414800F01AFA072242
:103540000A213F4800F015FA4FF4C06006900220AF
:103550008DF81C008DF81D0000208DF81E00012044
:103560008DF81F0006A9364800F078F90294002073
:10357000ADF80C00ADF80E00ADF81000ADF8140079
:103580000C20ADF8120002A92C4800F092FA01219B
:103590002A4800F016FB012240F22551274800F08E
:1035A000C6FB25208DF8040003208DF805008DF85A
:1035B000060001208DF8070001A800F05EF808B0B1
:1035C00010BD10B540F225511C4800F0EBFB10B3C4
:1035D0001A4800F025FBC4B21A48008800F40040E5
:1035E000C8B91848008800F4804060B10A2C03D0A4
:1035F00000201449088020E01248008840F4004070
:103600001049088019E00D2C06D10E48008840F4BE
:1036100080400C49088010E00A480088C0F30D0083
:1036200009490C5407480088401C06490880084690
:103630000088C72801DD0020088010BD001001406F
:10364000000002408400002040020020064880471D
:1036500006480047FEE7FEE7FEE7FEE7FEE7FEE777
:10366000FEE7FEE7FEE7FEE75103000889010008D8
:1036700032490143324A1160704770B5002100237E
:103680000F22C4781CB32E4C246804F4E064C4F503
:10369000E064C4F30721C1F10404E3B20A414478B1
:1036A0009C40E1B28478144021430C07210E254C44
:1036B00005786155047804F01F050124AC400578B5
:1036C0006D11AD0005F1E025C5F8004109E0047871
:1036D00004F01F050124AC401B4D0678761145F817
:1036E000264070BD194A0A400243154B1B1F1A6041
:1036F000704739B1124A121D12680243104B1B1D4C
:103700001A6006E00E4A121D126882430C4B1B1D04
:103710001A607047042808D14FF0E021096941F090
:1037200004014FF0E022116107E04FF0E021096948
:1037300021F004014FF0E022116170470000FA050A
:103740000CED00E000E400E080E100E080FFFF1FFE
:1037500010B504469848844208D10121084601F07A
:103760004CFC0021012001F048FC76E093488442A3
:1037700008D10121022001F040FC0021022001F0CB
:103780003CFC6AE08E48844208D10121042001F00B
:1037900034FC0021042001F030FC5EE089488442C2
:1037A00008D10121082001F028FC0021082001F0A7
:1037B00024FC52E08448844208D10121102001F009
:1037C0001CFC0021102001F018FC46E07F488442D8
:1037D00008D10121202001F010FC0021202001F05F
:1037E0000CFC3AE07A48844208D10121402001F0E3
:1037F00004FC0021402001F000FC2EE075488442CA
:1038000008D10121802001F0F8FB0021802001F087
:10381000F4FB22E07048844208D10121801501F0B8
:10382000ECFB0021A01501F0E8FB16E06B48844298
:1038300008D10121401501F0E0FB0021601501F0E5
:10384000DCFB0AE06648844207D10121001501F043
:10385000D4FB0021201501F0D0FB10BDF0B50A46C5
:1038600000210023002400BF3DE0012505FA01F3FB
:10387000156805EA03049C4234D105684F0003260D
:10388000BE40B543056015794E00B5400668354326
:1038900005601579012D02D01579022D16D18568A4
:1038A0004F000326BE40B543856055794E00B540B4
:1038B000866835438560456801268E40B54345607E
:1038C000456896798E40B6B235434560C5684F006D
:1038D0000326BE40B543C560D5794E00B540C668E5
:1038E0003543C560491C1029BFD3F0BD4FF6FF71A9
:1038F00001600021017141718171C171704708B58A
:103900004FF480320092009A0A430092009AC261FA
:10391000C161009AC261C2690092C269009208BD89
:103920000246002013690B400BB1012000E000208B
:1039300070470146086980B270470246002053690B
:103940000B400BB1012000E00020704701464869A0
:1039500080B2704701837047418370470AB1018389
:1039600000E0418370474161704742694A404261CB
:103970007047F0B5002300244D07ED0E02FA05F361
:10398000CE1000F1200555F826504E07F70E0F26F1
:10399000BE40B543CF1000F1200646F82750CE10A8
:1039A00000F1200555F8265045EA0304CE1000F139
:1039B000200545F82640F0BD00000240000402400A
:1039C00000080240000C02400010024000140240B7
:1039D00000180240001C0240002002400024024067
:1039E0000028024010B50446FA48844208D101215B
:1039F000102001F046FB0021102001F042FB57E0AF
:103A0000F548844209D10121480401F029FB002135
:103A10004FF4003001F024FB4AE0F048844209D121
:103A20000121880401F01CFB00214FF4802001F0EB
:103A300017FB3DE0EA48844209D10121C80401F0A6
:103A40000FFB00214FF4002001F00AFB30E0E548B5
:103A5000844209D10121080501F002FB00214FF445
:103A6000801001F0FDFA23E0DF48844208D10121F3
:103A7000202001F006FB0021202001F002FB17E0CE
:103A8000DA48844209D10121880701F0E9FA0021CE
:103A90004FF0804001F0E4FA0AE0D548844207D1B3
:103AA0000121400501F0DCFA0021600501F0D8FA9F
:103AB00010BD2DE9FF4705460E460024A14600BF74
:103AC000A046B08900B100BF2C8A24F44054F0888D
:103AD00004432C82AC8941F20C608443B088318964
:103AE0000843718908430443AC81AC8A24F44074D0
:103AF000B0890443AC82684601F043F9B548854279
:103B000002D0B948854202D1DDF80C9001E0DDF821
:103B10000890A88900F4004040B109EBC90000EB0F
:103B2000091031684900B0FBF1F707E009EBC90063
:103B300000EB091031688900B0FBF1F76420B7FB96
:103B4000F0F004012009642101FB1078A88900F439
:103B5000004040B1322000EBC800B0FBF1F000F0B3
:103B60000700044308E0322000EB08106421B0FB9A
:103B7000F1F000F00F0004432C81BDE8FF874FF403
:103B80001651016000218180C18001810C21418199
:103B900000218181704710B502460020108A20F470
:103BA00070600B884C8823438C882343CC88234344
:103BB0001843108210BD0021018041808180C180A6
:103BC000704721B1828942F40052828104E08289E7
:103BD0004DF6FF731A4082817047028B02F47F42D8
:103BE0000283028B0A430283704721B1828942F427
:103BF0000042828103E08289C2F30E028281704713
:103C000021B1828A42F40062828204E0828A4FF209
:103C1000FF731A4082827047C1F3080282807047A6
:103C200001468888C0F308007047028A4FF6F07397
:103C30001A400282028A0A430282704721B18289B5
:103C400042F00202828104E082894FF6FD731A403D
:103C50008281704782894FF2FF731A408281828984
:103C60000A4382817047028A4FF6DF731A4002824C
:103C7000028A0A430282704721B1028A42F48042DA
:103C8000028204E0028A4BF6FF731A4002827047F8
:103C9000818941F001018181704721B1828A42F01E
:103CA0000802828204E0828A4FF6F7731A40828209
:103CB0007047028BD2B20283028B42EA0122028356
:103CC000704721B1828A42F02002828204E0828A17
:103CD0004FF6DF731A408282704721B1828A42F028
:103CE0001002828204E0828A4FF6EF731A408282C9
:103CF0007047828A4FF6FB731A408282828A0A4397
:103D00008282704721B1828A42F00202828204E0FC
:103D1000828A4FF6FD731A40828270471AB1838AF5
:103D20000B43838202E0838A8B4383827047F0B522
:103D30000346002400260025002040F66A17B942F9
:103D400000D100BF1846C1F3421401F01F0601273D
:103D500007FA06F5012C01D10C3004E0022C01D148
:103D6000103000E014301AB107682F43076002E0FA
:103D70000768AF430760F0BD02460020B1F5007F41
:103D800000D100BF13880B400BB1012000E00020E0
:103D9000704701F40072B2F5007F00D100BFCA4342
:103DA0000280704770B502460024002300250020E1
:103DB00040F66A16B14200D100BFC1F3421501F0CE
:103DC0001F03012606FA03F3012D13D19689334010
:103DD00017E000000010014000440040004800408F
:103DE000004C0040005000400014014000780040AA
:103DF000007C0040022D02D1168A334001E0968AF1
:103E000033400C12012606FA04F41688344013B12C
:103E10000CB1012000E0002070BD10B5002200238D
:103E200040F66A14A14200D100BF0A120124944056
:103E3000A3B2DC43048010BD10B50446FE488442A2
:103E400008D10121084601F01CF90021012001F0F0
:103E500018F99DE0B4F1804F08D10121084601F026
:103E6000FFF80021012001F0FBF891E0F3488442C3
:103E700008D10121022001F0F3F80021022001F015
:103E8000EFF885E0EE48844208D10121042001F0DA
:103E9000E7F80021042001F0E3F879E0E9488442E2
:103EA00008D10121082001F0DBF80021082001F0F1
:103EB000D7F86DE0E448844208D10121102001F0D8
:103EC000CFF80021102001F0CBF861E0DF488442F8
:103ED00008D10121202001F0C3F80021202001F0A9
:103EE000BFF855E0DA48844208D10121022001F0F0
:103EF000C8F80021022001F0C4F849E0D548844206
:103F000009D10121080401F0BCF800214FF48030F0
:103F100001F0B7F83CE0D048844209D101214804BF
:103F200001F0AFF800214FF4003001F0AAF82FE0C3
:103F3000CA48844209D10121880401F0A2F8002175
:103F40004FF4802001F09DF822E0C548844208D15A
:103F50000121402001F084F80021402001F080F888
:103F600016E0C048844208D10121802001F078F891
:103F70000021802001F074F80AE0BB48844207D198
:103F80000121801501F06CF80021A01501F068F8FE
:103F900010BD00220288A84B98420ED0AC4B98422C
:103FA0000BD0B0F1804F08D0A44B984205D0A44B61
:103FB000984202D0A34B984204D14FF68F731A4017
:103FC0004B881A43A04B984207D0A04B984204D08C
:103FD0004FF6FF431A400B891A4302804B68C362B5
:103FE0000B880385944B984202D0994B984201D19B
:103FF0008B7A03860123838270474FF0FF31416043
:104000000021018001814180817270470185828297
:1040100070470A46002101884FF68F7319401143FB
:104020000180704741627047C16270470146486A2B
:1040300070470146088D704721B1028842F00202A4
:10404000028004E002884FF6FD731A400280704738
:1040500021B1028842F00402028004E002884FF697
:10406000FB731A400280704721B1028842F080023F
:10407000028004E002884FF67F731A400280704786
:1040800002884FF6F7731A40028002880A430280C2
:10409000704702884FF6FF431A40028002880A43A5
:1040A0000280704721B1028842F00102028004E0E0
:1040B00002884FF6FE731A400280704770B50024E4
:1040C00000220023058C4FF6FE7635400584028CD5
:1040D0008388048B4FF68F752C40B51E2C400D88BD
:1040E0002C43751E2A408D892A434D882A43524D00
:1040F000A84202D0564DA84213D14FF6F7752A4078
:10410000CD892A434FF6FB752A408D882A434FF606
:10411000FF652B404FF6FF552B400D8A2B434D8AF0
:104120002B43838004838D684563028470BD70B522
:10413000002400220023058C4FF6EF7635400584DD
:10414000028C8388048B48F6FF752C404FF6FF45A0
:104150002C400D884FF6FF7606EA05252C434FF6D6
:10416000DF752A408D8906EA05152A434D8806EA3F
:1041700005152A43304DA84202D0354DA8421DD125
:104180004FF67F752A40CD894FF6FF7606EA051572
:104190002A434FF6BF752A408D8806EA05152A4343
:1041A0004FF6FF352B404FF2FF752B400D8A06EA84
:1041B00085052B434D8A06EA85052B4383800483BE
:1041C0008D688563028470BD70B5002400220023D1
:1041D000058C4FF6FF6635400584028C8388848BFE
:1041E0004FF68F752C404FF6FC752C400D882C43F4
:1041F0004FF6FF552A408D894FF6FF7606EA0525D2
:104200002A434D8806EA05252A430B4DA84202D0D1
:104210000F4DA84238D14FF2FF752A40CD894FF695
:10422000FF7606EA05252A434FF6FF352A408D889A
:1042300006EA05252A4319E0000001400004004079
:1042400000080040000C0040001000400014004036
:10425000000401400040014000440140004801408A
:1042600000180040001C0040002000404EF6FF7582
:104270002B404DF6FF752B400D8A06EA05152B43A2
:104280004D8A06EA05152B43838084838D68C563B8
:10429000028470BD70B5002200230024058C4EF608
:1042A000FF7635400584038C8488828B48F6FF7541
:1042B0002A404FF6FF452A400D884FF6FF7606EA62
:1042C00005252A434DF6FF752B408D8906EA0535F5
:1042D0002B434D8806EA05352B43FE4DA84202D0FC
:1042E000FD4DA84208D14BF6FF752C400D8A4FF6C4
:1042F000FF7606EA85152C43848082838D680564E9
:10430000038470BD002101804180818081608181B2
:10431000C18101824182704770B5034600200024AC
:104320001846183001258D40ACB21D8CA5431D8464
:1043300009B108290AD100EB610005684FF68F76B4
:10434000354005600568154305600FE00D1FC5F396
:104350004E052844056848F6FF7635400560056837
:104360004FF6FF7606EA02263543056070BD4163CD
:10437000704781637047C1637047016470470A46A4
:104380000021018B4FF68F73194011430183704751
:104390000A460021018B48F6FF7319404FF6FF7360
:1043A00003EA02231943018370470A460021818BE7
:1043B0004FF68F7319401143818370470A460021DD
:1043C000818B48F6FF7319404FF6FF7303EA02230F
:1043D0001943818370470A460021018B4FF6F7731A
:1043E00019401143018370470A460021018B4FF2A7
:1043F000FF7319404FF6FF7303EA02231943018349
:1044000070470A460021818B4FF6F773194011431C
:10441000818370470A460021818B4FF2FF73194058
:104420004FF6FF7303EA02231943818370470A465C
:104430000021018B4FF6FB73194011430183704734
:104440000A460021018B4FF6FF3319404FF6FF73E8
:1044500003EA02231943018370470A460021818B36
:104460004FF6FB7319401143818370470A460021C0
:10447000818B4FF6FF3319404FF6FF7303EA022397
:104480001943818370470A460021018B4FF67F73E1
:1044900019401143018370470A460021018BC1F383
:1044A0000E014FF6FF7303EA02231943018370479D
:1044B0000A460021818B4FF67F7319401143818397
:1044C00070470A460021818BC1F30E014FF6FF733E
:1044D00003EA02231943818370470A460021018CB5
:1044E0004FF6FD7319401143018470470A460021BD
:1044F000018C4FF6F77319401143018470470A4647
:104500000021018C4FF6DF7319404FF6FF7303EA69
:1045100002131943018470470A460021018C4FF6AB
:104520007F7319404FF6FF7303EA021319430184A6
:1045300070470A460021018C4FF6FF5319404FF691
:10454000FF7303EA02231943018470470A460021DE
:10455000018C4FF2FF7319404FF6FF7303EA0223F9
:104560001943018470470A460021018C4DF6FF7300
:1045700019404FF6FF7303EA023319430184704771
:1045800030B5002301248C40A3B2048C9C430484E6
:10459000048C02FA01F5ADB22C43048430BD30B571
:1045A000002304248C40A3B2048C9C430484048C18
:1045B00002FA01F5ADB22C43048430BD828B4FF278
:1045C000FF331A408283828B4FF6FF7303EA012385
:1045D0001A4382837047F0B50C461546002100222D
:1045E0000026078C4EF6FF7C07EA0C070784818BB8
:1045F000028C4FF6FF7707EA043640F6FF47394052
:104600004FF6FF7707EA052739434FF6FF7707EAAA
:104610000337394345F6FF773A4046F480573A432B
:1046200081830284F0BD828B4FF6F3731A4082833C
:10463000828B0A4382837047F0B50C4615460021F1
:1046400000220026078C4FF6FF6C07EA0C07078450
:10465000818B028C4FF6FF7707EA04264FF60C7722
:1046600039404FF6FF7707EA03172F4339434FF2DC
:10467000FF573A4046F480773A4381830284F0BD85
:10468000028B4FF2FF331A400283028B4FF6FF7307
:1046900003EA01231A4302837047F0B50C4615461E
:1046A000002100220026078C4FF6EF7C07EA0C075A
:1046B0000784018B028C4FF6FF7707EA041640F659
:1046C000FF4739404FF6FF7707EA033739434FF684
:1046D000FF7703E0000001400004014007EA0527DE
:1046E00039434FF65F773A4046F010073A4301836B
:1046F0000284F0BD028B4FF6F3731A400283028BE3
:104700000A4302837047F0B50C461546002100228B
:10471000068C4FF6FE773E400684018B028C4FF6E6
:104720000C7631407E1C06EA03162E4331434FF6C9
:10473000F576324044F00106324301830284F0BD35
:1047400070B505460C46208850B92389A288618837
:104750002846FFF7D8FFE1882846FFF7CBFF25E082
:10476000208804280AD12389A28861882846FFF777
:1047700094FFE1882846FFF783FF17E02088082888
:104780000AD12389A28861882846FFF755FFE1886E
:104790002846FFF748FF09E02389A2886188284658
:1047A000FFF719FFE1882846FFF708FF70BD0021D9
:1047B00001804180012181800021C18001817047F9
:1047C0002DE9F04105460C4600260127608808B90E
:1047D000022600E00026A088012801D1022700E07F
:1047E00001272088A0B92389A28861882846FFF77D
:1047F0008AFFE1882846FFF77DFF23893A46314644
:104800002846FFF74AFFE1882846FFF739FF13E003
:104810002389A28861882846FFF73FFFE188284660
:10482000FFF72EFF23893A4631462846FFF76BFFF4
:10483000E1882846FFF75EFFBDE8F0810146486B3E
:1048400070470146886B70470146C86B7047014648
:10485000086C70470A884B881A438B881A43CB88A8
:104860001A430B891A434B891A438B891A43A0F8C0
:10487000442070470021018041808180C1800181F6
:1048800041818181704731B1B0F8442042F4004247
:10489000A0F8442005E0B0F84420C2F30E02A0F8CE
:1048A0004420704721B1828842F00402828004E0F3
:1048B00082884FF6FB731A408280704721B182884C
:1048C00042F00102828004E082884FF6FE731A40B3
:1048D000828070471AB183890B43838102E0838908
:1048E0008B43838170478182704702460020138A80
:1048F0000B400BB1012000E000207047CA43028248
:10490000704730B50246002000230024158A05EACE
:104910000103958905EA010413B10CB1012000E0FF
:10492000002030BDCA430282704741EA0203A0F86A
:10493000483070471AB183890B43838102E0838931
:104940008B438381704721B1828842F008028280C4
:1049500004E082884FF6F7731A408280704701891D
:104960004FF6F8721140018170470A460021018913
:104970004FF68F73194011430181704730B50446DB
:104980000D4629462046FFF7F0FF208940F007003A
:10499000208130BD2DE9F04104460D4616461F46E4
:1049A000602D06D13B46012231462046FFF775FEB9
:1049B00005E03B46012231462046FFF7A4FE29468A
:1049C0002046FFF7D2FF208940F007002081BDE894
:1049D000F08130B50C4600210189C9B24FF6FF7550
:1049E00005EA0325154325432943018130BD2DE9FF
:1049F000F04105460E4617469846002443463A467F
:104A000031462846FFF7E5FF2C894FF6F870044041
:104A100044F007044FF68F70044044F070042C817A
:104A2000BDE8F081F0B504460D4616461F463B46EC
:104A3000324629462046FFF7CCFF208940F48040CB
:104A40002081F0BD82884FF68F731A408280828861
:104A50000A438280704702894FF6F8731A40028138
:104A600002890A430281704702894FF67F731A4018
:104A7000028102890A4302817047F0B50C4615464F
:104A80001E460021002200230189028B038C4FF671
:104A9000F877394021434FF6FC473A4040F201177E
:104AA0003A434FF6DD773B404FF6FF7707EA0617AC
:104AB0002F433B43018102830384F0BD21B18288EF
:104AC00042F08002828004E082884FF67F731A40B1
:104AD00082807047A0F850107047000010B5012187
:104AE000880300F0CEFA00214FF4804000F0C9FAAC
:104AF00010BD1C49086070471B490862704730B5FB
:104B000000228B071C0F0F2303FA04F2154B083306
:104B10008C1053F824309343124C08348D1044F811
:104B2000253023468C1053F824308C07240F00FACC
:104B300004F423430B4C08348D1044F8253030BD69
:104B40000949DC3108607047084908607047002057
:104B500004492031096801F4807109B1012000E0A5
:104B6000002070470038014000002742000427421F
:104B7000F948006840F00100F74908600020F64954
:104B800008310860F4480068F4490840F2490860B8
:104B9000F348091D0860F348EF4984310860F04884
:104BA0001038091D0860EC48006820F48020EA49AC
:104BB00008600020E8490C310860E7498C31086042
:104BC00070470021E44A921C11701146087070472A
:104BD00010B501460022002300204A11012A02D10B
:104BE000DD4C236808E0022A03D1DB4C70342368D3
:104BF00002E0D94C7434236801F01F020124944070
:104C00001C400CB1012000E0002010BD38B5002090
:104C100000900024002500BF3120FFF7D9FF054692
:104C20000098401C00900098B0F5A04F01D0002DD6
:104C3000F2D03120FFF7CCFF08B1012400E00024BE
:104C4000204638BD01460020C34A106820F0F80015
:104C500040EAC10010607047C349086070470021F6
:104C6000BD4A703211701170012802D004280AD197
:104C700004E00121B84A7032117005E00521B64AFE
:104C80007032117000E000BF00BF7047B749086084
:104C9000704770B5049C41EA82150126C6EB5306A5
:104CA00045EA0645054345EA0465AB4E361D3560C9
:104CB00070BDAD4908667047820142EA0172A64B99
:104CC00084331A607047A8498866704710B583011D
:104CD00043EA016343EA02739F4C8834236010BDAA
:104CE000A14908677047A049C86470470246002080
:104CF000994B0833186820F0EC6042EA010318432E
:104D0000954B08331860704702460020924B0833D9
:104D1000186820F0784042EA010318438E4B0833AC
:104D200018607047014600208B4A0832106820F056
:104D3000030008431060704787480830006800F09F
:104D40000C00704701460020834A0832106820F0AA
:104D5000F000084310607047014600207E4A083288
:104D6000106820F4E05008431060704701460020AE
:104D7000794A0832106820F4604040EAC1001060AF
:104D80007047F0B5002100220024022500260223EE
:104D9000714F08373F6807F00C0121B1042905D095
:104DA000082937D105E0724F076036E0714F076080
:104DB00033E0694F3F1D3F68C7F38056664F3F1D84
:104DC0003F6807F03F036EB16A4FB7FBF3F7DFF8B8
:104DD00088C10CF1040CDCF800C0CCF3881C07FB84
:104DE0000CF40CE0624FB7FBF3F7DFF86CC10CF189
:104DF000040CDCF800C0CCF3881C07FB0CF4564F05
:104E00003F1D3F68C7F301477F1C7D00B4FBF5F7EA
:104E1000076002E0564F076000BF00BF4E4F0837E3
:104E20003F6807F0F0010909534F7A5C0768D740E3
:104E30004760494F08373F6807F4E051890A4E4FF1
:104E40007A5C4768D7408760434F08373F6807F46C
:104E50006041490B484F7A5C4768D740C760F0BD56
:104E6000002100F44072B2F5407F0AD13A4A08327C
:104E7000116821F4F811414A02401143364A0832C0
:104E80001160354A70321268C0F30B031A43324B7B
:104E900070331A60704735494439086070473349A8
:104EA0004039086070473649086070470146002065
:104EB000294A8C32106820F01F004A1E1043264AEF
:104EC0008C321060704701460020234A8C321068F3
:104ED00020F4F8504A1E40EA02201F4A8C3210602B
:104EE0007047014600201C4A8C32106820F44010A4
:104EF00008431060704701460020174A8C32106842
:104F000020F4400008431060704701460020124A18
:104F10008C32106820F44030084310607047194903
:104F20000860704739B10C4A3032126802430A4BAC
:104F300030331A6006E0084A303212688243064B6A
:104F400030331A607047F9B1034A343212680243B1
:104F5000014B34331A601CE000380240FFFFF6EAD0
:104F6000103000240030002000004742800E4742ED
:104F70000024F40000127A0086000020FFFCFF0FDE
:104F80005C014742E01147428F4A126882438E4BD0
:104F90001A60704739B18C4A121D126802438A4B5D
:104FA0001B1D1A6006E0884A121D12688243864B58
:104FB0001B1D1A60704739B1834A0C3212680243D4
:104FC000814B0C331A6006E07F4A0C321268824330
:104FD0007D4B0C331A60704739B17B4A103212682E
:104FE0000243794B10331A6006E0774A1032126898
:104FF0008243754B10331A60704739B1724A243AB4
:1050000012680243704B243B1A6006E06E4A243A51
:10501000126882436C4B243B1A60704739B16A4A6C
:10502000203A12680243684B203B1A6006E0664A49
:10503000203A12688243644B203B1A60704739B1B2
:10504000614A1C3A126802435F4B1C3B1A6006E03F
:105050005D4A1C3A126882435B4B1C3B1A607047E6
:1050600039B1594A143A12680243574B143B1A603B
:1050700006E0554A143A12688243534B143B1A60B7
:10508000704739B1504A103A126802434E4B103BF8
:105090001A6006E04C4A103A126882434A4B103BB1
:1050A0001A60704739B1484A1C3212680243464BB5
:1050B0001C331A6006E0444A1C3212688243424B99
:1050C0001C331A60704739B13F4A203212680243DC
:1050D0003D4B20331A6006E03B4A2032126882437F
:1050E000394B20331A60704739B1374A243212687D
:1050F0000243354B24331A6006E0334A24321268E7
:105100008243314B24331A60704739B12E4A2C3216
:10511000126802432C4B2C331A6006E02A4A2C32C8
:1051200012688243284B2C331A60704739B1264AE3
:10513000303212680243244B30331A6006E0224AB0
:10514000303212688243204B30331A607047012896
:1051500008D11D493C31096841F008011A4A3C3226
:10516000116007E018493C31096821F00801164A2E
:105170003C321160704739B1134A273A1278024322
:10518000114B273B1A7006E00F4A273A12788243E8
:105190000D4B273B1A7070470B484030006840F0B9
:1051A0008070094940310860704701460020064A76
:1051B000283A12680A400AB1012000E00020704736
:1051C00001492639087070473438024010B5012172
:1051D0000802FFF756FF00214FF48070FFF751FFE0
:1051E00010BD30B50246002000235068F84C204026
:1051F0000D790C6844EA0524204350609068F54C12
:105200002040D1E903542C438D682C434D7944EA66
:10521000450420439060D06A20F470000C7D641E29
:10522000E4B2234340EA0350D06230BD0021016064
:10523000017141718160C160016101210175704797
:105240000021E54A1168E54A1140D0E900231A43DC
:1052500083681A43C3681A431143E14AC2F804132E
:1052600070470021016041608160C160704721B1D9
:10527000826842F00102826003E0826822F001024B
:10528000826070470A4600214168D64B194011439D
:10529000416070474162826270470A46002141685E
:1052A00021F01F0111434160704738B1CA490968B4
:1052B00041F40001CA4AC2F8041306E0C64909686D
:1052C00021F40001C64AC2F80413704738B1C2493C
:1052D000096841F48001C24AC2F8041306E0BE49DD
:1052E000096821F48001BE4AC2F804137047F0B582
:1052F00004460D4600200021092D11DDE068A5F1CE
:105300000A0606EB4607072606FA07F18843A5F1C9
:105310000A0606EB460603FA06F10843E0600CE0D5
:10532000206905EB4507072606FA07F1884305EBD8
:10533000450603FA06F108432061072A0FDA606B7D
:10534000561E06EB86071F2606FA07F18843561EEF
:1053500006EB860605FA06F10843606322E00D2A93
:105360000FDA206BD61F06EB86071F2606FA07F119
:105370008843D61F06EB860605FA06F1084320632C
:1053800010E0E06AA2F10D0606EB86071F2606FA7A
:1053900007F18843A2F10D0606EB860605FA06F131
:1053A0000843E062F0BD816841F080418160704750
:1053B000014600208A6802F080420AB1012000E024
:1053C0000020704721B1826842F48062826003E06D
:1053D000826822F480628260704721B1826842F064
:1053E0000202826003E0826822F00202826070475B
:1053F00010B50A4600210023416821F46041531E84
:1054000041EA4331416010BD21B1426842F400627B
:10541000426003E0426822F4006242607047014645
:10542000C86C80B270476C48001D0068704721B19D
:10543000826842F48072826003E0826822F48072A3
:105440008260704721B1826842F40072826003E09A
:10545000826822F400728260704738B15E49096840
:1054600041F400515E4AC2F8041306E05A49096843
:1054700021F400515A4AC2F804137047F0B50446AB
:105480001546002000220026092911DDE068A1F15F
:105490000A0707EB470C072707FA0CF29043A1F124
:1054A0000A0707EB470703FA07F21043E0600CE036
:1054B000206901EB410C072707FA0CF2904301EB3E
:1054C000410703FA07F210432061A06BC0F30156B5
:1054D000EF1C06F1010CA7EB0C0707EB870C1F274D
:1054E00007FA0CF29043EF1C06F1010CA7EB0C0736
:1054F00007EB870701FA07F21043A063F0BD10B570
:105500000A4600210023816B21F44011531E41EA19
:105510000351816310BD08B5002300930090009BE8
:105520000B440093009B1A6008BD0A460021816865
:1055300021F470211143816070470A46002181687F
:1055400021F44011114381607047816841F480016A
:1055500081607047014600208A6802F480020AB127
:10556000012000E00020704721B1426842F48062CF
:10557000426003E0426822F480624260704721B1D9
:10558000426842F48052426003E0426822F4805252
:105590004260704708B5024600200090009201F179
:1055A0002800009B184400900098006880B208BD55
:1055B00010B50B460021D9B2012404FA01F11AB149
:1055C00044680C43446002E044688C43446010BD6E
:1055D000FFFEFFFCFDF7FFC004230140E030FCFFAD
:1055E00000200140FFFD3FFF0246002013680B40F2
:1055F0000BB1012000E000207047CA4302607047F1
:1056000070B502460020002300240B1255680126C5
:105610008E4005EA060415681D4015B10CB1012045
:1056200000E0002070BD00220A12D34303607047DF
:1056300010B50446FE48844209D101214806FFF70F
:105640000FFD00214FF00070FFF70AFD08E0012177
:105650008806FFF705FD00214FF08060FFF700FD91
:1056600010BD30B5024600200023146824F0020467
:105670001460146844F00104146000E05B1C54687A
:1056800004F001041CB94FF6FF74A342F6D154682C
:1056900004F001040CB900206CE08C79012C04D1D9
:1056A000146844F08004146003E0146824F080045B
:1056B0001460CC79012C04D1146844F040041460C7
:1056C00003E0146824F0400414600C7A012C04D127
:1056D000146844F02004146003E0146824F02004EB
:1056E00014604C7A012C04D1146844F01004146046
:1056F00003E0146824F0100414608C7A012C04D1A7
:10570000146844F00804146003E0146824F00804EA
:105710001460CC7A012C04D1146844F004041460A1
:1057200003E0146824F0040414608C78A407CD7896
:1057300044EA05640D7944EA05444D7944EA055488
:105740000D886D1E2C43D461146824F0010414608C
:10575000002300E05B1C546804F001041CB14FF608
:10576000FF74A342F6D1546804F001040CB1002088
:1057700000E0012030BD10B50021837A012202FA39
:1057800003F1AC4A126842F00102AA4B1A60A94A1E
:105790001C3212688A43A74B1C331A60027BCAB9B9
:1057A000A44A0C3212688A43A24B0C331A60428816
:1057B000C38842EA03439F4A4032847A42F8343035
:1057C0000288838842EA03439A4A4032847A02EB91
:1057D000C4025360027B012A19D1964A0C32126826
:1057E0000A43944B0C331A604288038842EA03430D
:1057F000904A4032847A42F83430C288838842EA40
:1058000003438C4A4032847A02EBC4025360C27A6A
:105810003AB9884A121D12688A43864B1B1D1A60CA
:1058200006E0844A121D12680A43824B1B1D1A604F
:10583000028932B97F4A143212688A437D4B14338D
:105840001A600289012A06D17A4A143212680A4380
:10585000784B14331A60427B012A06D1754A1C32F8
:1058600012680A43734B1C331A60724A126822F0A2
:105870000102704B1A6010BD00218171C17101726B
:1058800041728172C1728170C17003210171022164
:1058900041710121018070476649096841F00101A9
:1058A000644A11601146096843F60E729143614AD9
:1058B00011601146096841EA00211160114609682A
:1058C00021F001011160704721B1026842F4803279
:1058D000026003E0026822F4803202607047E1B1A6
:1058E000026842F0800202604FF4C272125842F421
:1058F00080734FF4C27213504FF4CA72125842F4BC
:1059000080734FF4CA7213504FF4D272125842F49B
:1059100080734FF4D27213501BE0026822F08002B1
:1059200002604FF4C272125822F480734FF4C272B4
:1059300013504FF4CA72125822F480734FF4CA7293
:1059400013504FF4D272125822F480734FF4D27273
:105950001350704710B502460020936803F080632F
:10596000B3F1806F00D110E0936803F00063B3F1EE
:10597000006F01D1012008E0936803F08053B3F178
:10598000805F01D1022000E00420042879D002F5D4
:10599000C07303EB00131B6803F0010402F5C0732E
:1059A00003EB00131C600B7A7BB94B7A0C8843EA3B
:1059B000445302F5C07404EB00142468234302F539
:1059C000C07404EB0014236010E00B7A4C6843EAC7
:1059D000C4034C7A234302F5C07404EB001424681A
:1059E000234302F5C07404EB001423608B7A03F0A8
:1059F0000F038B7202F5C07303EB00135B6823F097
:105A00000F0402F5C07303EB00135C6002F5C07372
:105A100003EB00135B688C7A234302F5C07404EB3C
:105A2000001463608B7B1C064B7B44EA034403E059
:105A300000640040006600400B7B44EA0323CC7AFC
:105A4000234302F5C07404EB0014A3608B7C1C0696
:105A50004B7C44EA03440B7C44EA0323CC7B234382
:105A600002F5C07404EB0014E36002F5C07303EBAD
:105A700000131B6843F0010402F5C07303EB00132D
:105A80001C6010BD10B50246002321B1012907D0CA
:105A900002290FD109E09068F94C00EA04030BE0F9
:105AA0009068F84C00EA040306E09068F64C00EABF
:105AB000040301E0002300BF00BFF44C181BA34205
:105AC00016D007DC83B16FF08060184470B10228F3
:105AD00018D111E0B0F5007F10D0ED4C204448B152
