:020000040800F2
:100000004011002071020008ED1200087309000879
:100010007D100008210800083B21000800000000B6
:10002000000000000000000000000000E9140008CB
:1000300025080008000000007D130008191B0008B7
:100040008B0200088B0200088B0200088B0200085C
:100050008B0200088B0200088B0200088B0200084C
:100060008B0200088B0200088B0200088B0200083C
:100070008B0200088B0200088B0200088B0200082C
:100080008B0200088B0200088B0200088B0200081C
:100090008B0200088B0200088B0200088B0200080C
:1000A0008B0200088B0200088B0200088B020008FC
:1000B0008B0200088B0200088B0200088B020008EC
:1000C0008B0200088B0200088B0200088B020008DC
:1000D0008B0200081D1F00088B0200088B0200081D
:1000E0008B0200088B0200088B0200088B020008BC
:1000F0008B0200088B0200088B0200088B020008AC
:100100008B0200088B020008851B00088B02000888
:100110008B0200088B0200088B0200088B0200088B
:100120008B0200088B0200088B0200088B0200087B
:100130008B0200088B0200088B0200088B0200086B
:100140008B0200088B0200088B0200088B0200085B
:100150008B0200088B0200088B0200088B0200084B
:100160008B0200088B0200088B0200088B0200083B
:100170008B0200088B0200088B0200088B0200082B
:100180008B0200088B02000800F002F800F061F812
:100190000AA090E8000C82448344AAF10107DA45E2
:1001A00001D100F056F8AFF2090EBAE80F0013F0D3
:1001B000010F18BFFB1A43F001031847A0210000EC
:1001C000C02100000A444FF0000C10F8013B13F06E
:1001D000070408BF10F8014B1D1108BF10F8015BA0
:1001E000641E05D010F8016B641E01F8016BF9D193
:1001F00013F0080F1EBF10F8014BAD1C0C1B09D1EA
:100200006D1E58BF01F801CBFAD505E014F8016B5B
:1002100001F8016B6D1EF9D59142D6D370470000ED
:100220000023002400250026103A28BF78C1FBD8FF
:10023000520728BF30C148BF0B607047642900F0E7
:100240007580002070471FB502F082F81FBD10B501
:1002500010BD00F0AAF91146FFF7F5FF01F0FEFF0F
:1002600000F0C8F903B4FFF7F2FF03BC01F06EFF22
:100270000948804709480047FEE7FEE7FEE7FEE73A
:10028000FEE7FEE7FEE7FEE7FEE7FEE70448054976
:10029000054A064B704700001D1B00088901000835
:1002A000400B002040110020400D0020400D002098
:1002B000704700000FB41CB5074B06AA7B44694683
:1002C0000090059800F059F90020694600F068F99F
:1002D0001CBC5DF814FB0000E102000070B5044690
:1002E00085690068C10601D5302600E02026C007D8
:1002F00007D070BDD4E9012130469047206A401CE8
:1003000020626D1EF6D570BD70B504468569007813
:10031000C00707D170BDD4E9012120209047206A91
:10032000401C20626D1EF6D570BD00002DE9F04125
:100330000646002410687529314616A510D0AFF383
:100340000080002802DA404213A507E031688A07DE
:1003500001D512A502E0490704D511A5012401E049
:10036000AFF3008000210A2206F1240709E0B0FB68
:10037000F2FCB0FBF2F302FB1C003030785418465C
:10038000491C0028F3D123462A463046BDE8F041F7
:1003900000F095B8000000002D0000002B000000C8
:1003A000200000002DE9F0474FF0000A894604467E
:1003B000C0F820A02046E1688847002876D025288C
:1003C00006D0D4E901219047206A401C2062F1E761
:1003D000E168204600258847C4F81CA0064600278F
:1003E000C4F818A02A2E09D0304601F0A8FE38B370
:1003F00004EB8708303EC8F8186019E059F8041B70
:10040000204604EB87029161E1688847012F064688
:1004100018D1E069002820DA25F020051DE0D8F881
:10042000180000EB800006EB40003038C8F81800D8
:100430002046E1688847064601F081FE0028EED19B
:10044000012F0AD02E2E08D12046E16888477F1C54
:100450000646022F45F02005C4DBA069002803DA18
:10046000404245F00105A061E80701D025F01005E4
:10047000B6B1A6F14100192802D8203645F400652E
:100480004A463146204625604D46FFF7D7FE58B113
:10049000012806D0ED1D25F0070000F1080989E7C5
:1004A00004E005F1040985E730468AE7206ABDE8E3
:1004B000F08701F0ADBE70477047704770472DE977
:1004C000F0470D4699469246044600F1240801681B
:1004D000880604D5E06921F01001216000E00120C8
:1004E000A84201DD471B00E00027A1697A1902EB51
:1004F0000900081AA0612078C00602D42046FFF740
:10050000EDFE002608E0D4E901211AF80600904724
:10051000206A401C761C20624E45F4DB2078C00621
:100520000AD52046FFF7DAFE06E0D4E901213020A3
:100530009047206A401C2062381EA7F10107F4DCB6
:1005400007E0D4E9012118F805009047206A401C13
:100550002062281EA5F10105F3DC2046FFF7D4FE3A
:100560002078000602D50220BDE8F0870120FBE7D5
:1005700001694A1C02610878704700B58FB0CDE967
:1005800001310021059105497944CDE90310114657
:100590006846FFF707FF0FB000BD0000E5FFFFFF53
:1005A0000A6802F8010B0A607047754600F028F8E7
:1005B000AE4605006946534620F00700854618B050
:1005C00020B5FFF763FEBDE820404FF000064FF076
:1005D00000074FF000084FF0000B21F00701AC4678
:1005E000ACE8C009ACE8C009ACE8C009ACE8C00997
:1005F0008D4670470446AFF300802046FFF732FE79
:1006000000487047E00A002021B1826842F00102F0
:10061000826003E0826822F001028260704700007D
:100620000021084A1168084A1140D0E900231A4302
:1006300083681A43C3681A431143044AC2F8041377
:100640007047000004230140E030FCFF002001401F
:100650000146C86C80B270470246002013680B4008
:100660000BB1012000E000207047000030B50246C9
:10067000002000235068104C20400D790C6844EA9B
:1006800005242043506090680C4C2040D1E903546D
:100690002C438D682C434D7944EA450420439060F7
:1006A000D06A20F470000C7D641EE4B2234340EA5B
:1006B0000350D06230BD0000FFFEFFFCFDF7FFC01D
:1006C000F0B504460D4600200021092D11DDE0683B
:1006D000A5F10A0606EB4607072606FA07F1884346
:1006E000A5F10A0606EB460603FA06F10843E060A8
:1006F0000CE0206905EB4507072606FA07F1884359
:1007000005EB450603FA06F108432061072A0FDAD4
:10071000606B561E06EB86071F2606FA07F1884314
:10072000561E06EB860605FA06F10843606322E0D2
:100730000D2A0FDA206BD61F06EB86071F2606FA56
:1007400007F18843D61F06EB860605FA06F1084333
:10075000206310E0E06AA2F10D0606EB86071F2673
:1007600006FA07F18843A2F10D0606EB860605FAA4
:1007700006F10843E062F0BD816841F0804181608C
:100780007047000000B58DB00121042000F0F8FD95
:100790000121084600F0F4FD0121080200F010FEDE
:1007A0000C20059003208DF8180000208DF81B0008
:1007B00005A9184800F037F83020059005A916481B
:1007C00000F031F80121080200F00AFE00214FF488
:1007D000807000F005FE00200190049003904FF41B
:1007E0008030029001A8FFF71BFF002007908DF8D2
:1007F00020008DF8210009900B9001208DF8300029
:1008000007A90648FFF732FF01210448FFF7FCFE65
:100810000DB000BD00080240000002400020014071
:1008200000BFFEE77047F0B50A4600210023002410
:1008300000BF3DE0012505FA01F3156805EA030450
:100840009C4234D105684F000326BE40B543056085
:1008500015794E00B5400668354305601579012DC0
:1008600002D01579022D16D185684F000326BE40AF
:10087000B543856055794E00B5408668354385603F
:10088000456801268E40B5434560456896798E409F
:10089000B6B235434560C5684F000326BE40B54338
:1008A000C560D5794E00B540C6683543C560491C62
:1008B0001029BFD3F0BDF0B5002300244D07ED0E85
:1008C00002FA05F3CE1000F1200555F826504E0728
:1008D000F70E0F26BE40B543CF1000F1200646F8B4
:1008E0002750CE1000F1200555F8265045EA0304A4
:1008F000CE1000F1200545F82640F0BD024600204C
:1009000013690B400BB1012000E0002070474183C8
:100910007047000010B5044607230122214608480D
:10092000FFF7CEFE0648FFF727FF00BF022104486D
:10093000FFF792FE0028F9D00148FFF789FE10BDAD
:10094000002001402DE9F04107460C460025002615
:1009500008E03846FFF7DEFF0544052001F016FCED
:10096000701CC6B2A642F4DBB5FBF4F080B2BDE861
:10097000F08100BFFEE700004CF6CC400149086062
:10098000704700000030004010B500F013F810BDB3
:1009900070B505460C4645F2555000F01FF8284644
:1009A00000F010F8204600F013F800F003F8FFF70D
:1009B000E3FF70BD4AF6AA200149086070470000B5
:1009C000003000400149486070470000003000409E
:1009D000014988607047000000300040014908600C
:1009E00070470000003000401CB50121072000F0D6
:1009F000C7FC0920009000208DF8040003208DF82A
:100A0000050002208DF8070069461548FFF70BFF27
:100A10000120009002208DF8070069461148FFF779
:100A200002FF41F20200009001208DF807006946A4
:100A30000C48FFF7F8FE4FF40050009001208DF8AD
:100A4000070069460848FFF7EEFE402000900120AD
:100A50008DF8070069460248FFF7E5FE1CBD00005F
:100A600000000240000802400004024000B50020DF
:100A700000F008F900BD00002DE9F84F04460E46CD
:100A800017469B460025A8464FF0010AC4F107000F
:100A9000C4B2C6F10400C6B261E000254FF0010AFD
:100AA00012E03248405D17F8081088420AD12F49F9
:100AB000681C095C08F10100385C814202D14FEAF0
:100AC000051A05E0A81CC5B22848405D8328E8DC6B
:100AD00000BFBAF1010F3CD006F1010C4FF0010E3E
:100AE000CEEB0C1C0CF0FF0304F1010CCEEB0C1C44
:100AF0000CF0FF024FEA067C4FEA1C614FEA047CCF
:100B00004FEA1C6000F097F8002000901EE04FF0C4
:100B1000000912E0164810F80A00802141FA09F194
:100B2000084018B1584600F005FA02E00A9800F0B3
:100B300001FA09F1010000F0FF09B9F1080FE9DB42
:100B40000AF1010A0098401CC0B2009000982028C9
:100B5000DDDB601EC4B208F1020000F0FF0817F8E8
:100B60000800002899D1BDE8F88F00002006002079
:100B70005B0600202DE9F04F04460D46904699464D
:100B8000DDF824A005F1010C4FF0010BCBEB0C1CA0
:100B90000CF0FF0304F1010CCBEBCC0C0CF0FF02CA
:100BA0004FEA057C4FEA1C614FEAC46C4FEA1C60B7
:100BB00000F041F8002718E0002612E0A8F120001C
:100BC0000C4901EB0010C05D80213141084018B193
:100BD000484600F0AFF902E0504600F0ABF9701C57
:100BE000C6B2082EEADB781CC7B2102FE4DBBDE8E2
:100BF000F08F0000300000202DE9F84105460E4638
:100C000014461F46DDF81C80C5F10F00C5B2C6F1C1
:100C10000400C6B20AE0CDF8008014F8012B284683
:100C20006B1EDDB23B463146FFF7A4FF207800285B
:100C3000F1D1BDE8F881F0B507460C4615461E46D1
:100C40002A2000F04BF9002000F0CCF9384600F0E3
:100C5000C9F9002000F0C6F9284600F0C3F92B209E
:100C600000F03CF9002000F0BDF9204600F0BAF990
:100C7000002000F0B7F9304600F0B4F92C2000F065
:100C80002DF9F0BD70B506464223842200210846A6
:100C9000FFF7D1FF002408E0002503E0304600F014
:100CA00049F96D1C422DF9D3641C842CF4D370BD1A
:100CB0001CB50121022000F063FB49F203400090C3
:100CC00001208DF8040000208DF8060003208DF827
:100CD000050001208DF8070069467D48FFF7A3FD58
:100CE00001207C4908607C49C1F8BC027949243163
:100CF000086078492C31086000207649091F086097
:100D0000C82001F043FA01207349C1F88002322063
:100D100001F03CFA112000F0E1F8642001F036FA0D
:100D2000B12000F0DBF8052000F05CF93A2000F07B
:100D300059F9362000F0D2F8082000F053F9B2201B
:100D400000F0CCF8052000F04DF93A2000F04AF907
:100D5000B32000F0C3F8052000F044F93A2000F079
:100D600041F9052000F03EF93A2000F03BF9B420AB
:100D700000F0B4F8002000F035F9C02000F0AEF823
:100D8000AA2000F02FF90A2000F02CF9842000F0AE
:100D900029F9C12000F0A2F8C02000F023F9C220F8
:100DA00000F09CF80D2000F01DF9002000F01AF969
:100DB000C32000F093F88D2000F014F92A2000F0F1
:100DC00011F9C42000F08AF88D2000F00BF9EE2014
:100DD00000F008F9C52000F081F8062000F002F9C3
:100DE000E02000F07BF8062000F0FCF81C2000F06A
:100DF000F9F8102000F0F6F8142000F0F3F8302095
:100E000000F0F0F82B2000F0EDF8242000F0EAF8D4
:100E1000292000F0E7F8282000F0E4F8262000F070
:100E2000E1F82E2000F0DEF8392000F0DBF8002099
:100E300000F0D8F8022000F0D5F8012000F0D2F838
:100E4000102000F0CFF8E12000F048F8062000F074
:100E5000C9F81C2000F0C6F8102000F0C3F81420D8
:100E600000F0C0F8302000F0BDF82B2000F0BAF8F8
:100E7000242000F0B7F8292000F0B4F8282000F072
:100E8000B1F8262000F0AEF82E2000F0ABF83920A3
:100E900000F0A8F8002000F0A5F8022000F0A2F869
:100EA000012000F09FF8102000F09CF83A2000F09C
:100EB00015F8052000F096F8292000F00FF80A2018
:100EC00001F064F94FF47840FFF7DCFE1CBD000030
:100ED0000004024084824042008040420022134BC2
:100EE0001A60134BC3F8B022002118E000220F4B08
:100EF00024331A6000F08002802A04D101220B4BB7
:100F000038331A6003E00022084B38331A6001229C
:100F1000064B24331A604206100E4A1CD1B208292F
:100F2000E4DB0122014B2C331A607047848240427B
:100F30000080404210B502460123284C2360002364
:100F4000274CC4F8B032C2F30721002018E0002378
:100F5000224C2434236001F08003802B04D1012330
:100F60001E4C3834236003E000231C4C38342360CB
:100F700001231A4C243423604B06190E431CD8B2AB
:100F80000828E4DB0123154C2C342360D1B2002364
:100F9000134CC4F8B032002018E000230F4C243466
:100FA000236001F08003802B04D101230B4C3834E3
:100FB000236003E00023094C383423600123074CED
:100FC000243423604B06190E431CD8B20828E4DBF6
:100FD0000123024C2C34236010BD00008482404267
:100FE000008040420122144B1A600022134BC3F8C8
:100FF000B022002118E000220F4B24331A6000F0C9
:101000008002802A04D101220B4B38331A6003E09E
:101010000022094B38331A600122074B24331A602F
:101020004206100E4A1CD1B20829E4DB0122024B11
:101030002C331A6070470000848240420080404296
:101040001CB50121022000F09BF9782000900120BE
:101050008DF8040000208DF8060003208DF80500AF
:1010600001208DF8070069460348FFF7DCFB782173
:101070000148FFF74CFC1CBD0004024000BFFEE726
:1010800010B58D4800788D4908708D48B0F9000082
:101090008C4908808C48B0F900008C4908808C4845
:1010A000B0F900008B49088002218B48FFF726FC2D
:1010B00070BB40218948FFF721FC28BB8848007895
:1010C000401C40B286490870084690F90000052887
:1010D00021DD002008700CE000208249804A92F94E
:1010E000002021F812007E480078401C40B27C4964
:1010F00008707B4890F900000428EDDB00F038FB15
:1011000000207749087006E000207549087002E069
:101110000020734908704FF480516F48FFF7EEFBD1
:10112000A8BB052251426B48B0F9000001F07EF8DF
:1011300068490880052251426448B0F9000001F076
:1011400075F8624908806748008862490988084440
:1011500000B264490880084680885C4909880844D0
:1011600000B260498880B1F900007D22002101F0C1
:101170005DF85C490880B1F904007D22002101F08E
:1011800055F85849888004204B49087093E0FFE7E0
:101190004FF400515448FFF7B1FBA8BB0522514260
:1011A0004C48B0F9000001F041F84A490880052296
:1011B00051424648B0F9000001F038F84349088030
:1011C0004848408843490988084400B24549488056
:1011D0000846C0883D490988084400B24149C88092
:1011E000B1F902007D22002101F020F83D4948803C
:1011F000B1F906007D22002101F018F83949C880B4
:1012000005202D49087056E0FFE701213248FFF71D
:1012100075FB012815D12B49B1F9001001F16400CB
:1012200000EBD0714910323109B2264A11802748AB
:101230000088643000B22549088001201E490870EA
:1012400039E001212548FFF759FB012811D11D483C
:101250000088643000B21B4908801C480088642163
:1012600001EB400000B219490880022012490870C1
:1012700021E008211948FFF741FB012813D111484B
:101280000088642101EB400000B20E4908800F483D
:101290000088642101EB800000B20C490880032023
:1012A0000549087007E0642006490880074908805E
:1012B00000200149087010BD2C0000202E000020E5
:1012C000000000201E00002002000020200000205E
:1012D000040000202A000020000802400000024014
:1012E0002F00002022000020000402407047000070
:1012F00070B5002100230F22C4781CB3174C24685A
:1013000004F4E064C4F5E064C4F30721C1F104040B
:10131000E3B20A4144789C40E1B28478144021430E
:101320000C07210E0E4C05786155047804F01F055A
:101330000124AC4005786D11AD0005F1E025C5F83C
:10134000004109E0047804F01F050124AC40054D7C
:101350000678761145F8264070BD00000CED00E0DF
:1013600000E400E080E100E002490143024A11602C
:10137000704700000000FA050CED00E07047000027
:1013800029B1064A12680243044B1A6004E0034A7A
:1013900012688243014B1A607047000030380240E7
:1013A00029B1064A12680243044B1A6004E0034A5A
:1013B00012688243014B1A607047000040380240B7
:1013C00029B1064A12680243044B1A6004E0034A3A
:1013D00012688243014B1A60704700004438024093
:1013E00029B1064A12680243044B1A6004E0034A1A
:1013F00012688243014B1A60704700002438024093
:10140000F0B5002100220024022500260223324FDD
:101410003F6807F00C0121B1042905D0082937D114
:1014200005E02E4F076036E02D4F076033E02A4F6E
:101430003F1F3F68C7F38056274F3F1F3F6807F0A5
:101440003F036EB1264FB7FBF3F7DFF88CC0ACF16A
:10145000040CDCF800C0CCF3881C07FB0CF40CE097
:101460001E4FB7FBF3F7DFF870C0ACF1040CDCF8EB
:1014700000C0CCF3881C07FB0CF4174F3F1F3F68DC
:10148000C7F301477F1C7D00B4FBF5F7076002E05E
:10149000124F076000BF00BF0F4F3F6807F0F00119
:1014A0000909104F7A5C0768D74047600A4F3F68C8
:1014B00007F4E051890A0B4F7A5C4768D740876090
:1014C000054F3F6807F46041490B064F7A5C476857
:1014D000D740C760F0BD0000083802400024F40087
:1014E00000127A00060A0020704700000CB50020A8
:1014F000019000903448006840F480303249086020
:1015000000BF3148006800F4003000900198401C92
:101510000190009818B90198B0F5A04FF1D12A4870
:10152000006800F4003010B10120009001E00020BC
:1015300000900098012846D123484030006840F0D0
:1015400080502149403108602048006840F4404004
:101550001E4908601C48083000681B4908310860B3
:101560000846006840F4004008600846006840F4FF
:10157000A05008601648091F0860081F006840F066
:101580008070091F086000BF0F48006800F00070FD
:101590000028F9D040F205700E4908600A4808306A
:1015A000006820F003000849083108600846006818
:1015B00040F00200086000BF03480830006800F0F7
:1015C0000C000828F8D10CBD003802400070004023
:1015D00008544007003C024000B585B04A480078F6
:1015E00004280ED14948B0F9002049A103A8FEF70C
:1015F00061FE4648B0F9042045A101A8FEF75AFE55
:1016000011E04148007805280DD14048B0F902208A
:101610003FA103A8FEF74EFE3C48B0F906203CA1CE
:1016200001A8FEF747FE00204FF6FF7303AA012131
:1016300000900B20FFF7E0FA00204FF6FF7301AA9D
:10164000022100900B20FFF7D7FA2F4800780428DA
:101650002AD1002040F2FF732EA201210090FFF753
:101660000BFA002040F2FF732DA2012100900A2006
:10167000FFF7C2FA002040F2FF732AA20221009075
:10168000FFF7FAF9002040F2FF7325A20221009033
:101690000A20FFF7B1FA00204FF61F0324A204210D
:1016A0000090FFF7E9F92DE017480078052829D1C7
:1016B00000204FF6E07323A201210090FFF7DCF930
:1016C00000204FF6FF7316A2012100900A20FFF7B9
:1016D00093FA00204FF6E0731DA202210090FFF75D
:1016E000CBF900204FF6FF730DA2022100900A20D3
:1016F000FFF782FA00204FF61F0318A20421009082
:10170000FFF7BAF905B000BD2C0000202200002030
:1017100025336400D7F3C7B0B8B1C2C4B4F8000031
:101720003A000000D3D2C7B0B8B1C2C4B4F80000C8
:10173000C7B0B8B1C2C4B4F8A1A4A1A4A1A4A1A483
:1017400000000000D7F3BAF3B8B1C2C4B4F8000087
:10175000D3D2BAF3B8B1C2C4B4F80000A1A4A1A412
:10176000A1A4A1A4BAF3B8B1C2C4B4F800000000A7
:1017700008B500210B4800F068FBFFF777F900205F
:101780004FF6E07308A203210090FFF775F94FF4BC
:10179000C87000F0FBFCFFF769F90121014800F077
:1017A00054FB08BD000C0040B8B4CEBBD6D000003E
:1017B00030B589B074480078643844B27348007812
:1017C000643845B2002C0ADD224671A101A8FEF75B
:1017D00071FD00226EA103A8FEF76CFD09E06242D4
:1017E0006BA103A8FEF766FD002269A101A8FEF720
:1017F00061FD002D0ADD2A4665A107A8FEF75AFD06
:10180000002263A105A8FEF755FD09E06A4260A128
:1018100005A8FEF74FFD00225DA107A8FEF74AFDCF
:10182000002040F2FF735BA201210090FFF724F932
:10183000002040F2FF7358A2012100900220FFF720
:10184000DBF9002040F2FF7354A201210090042034
:10185000FFF712F9002040F2FF734FA20121009020
:101860000A20FFF7C9F9002040F2FF734CA20221C1
:101870000090FFF701F9002040F2FF7346A2022119
:1018800000900846FFF7B8F9002040F2FF7345A228
:10189000022100900420FFF7EFF8002040F2FF73D0
:1018A0003DA2022100900A20FFF7A6F9002040F295
:1018B000FF733DA204210090FFF7DEF8002040F204
:1018C000FF7335A2042100900846FFF795F9002028
:1018D0004FF6FF7307AA012100900520FFF78CF94E
:1018E00000204FF6FF7305AA012100900D20FFF79D
:1018F00083F900204FF6FF7303AA02210090052010
:10190000FFF77AF900204FF6FF7301AA0221009039
:101910000D20FFF771F92648007848B900204FF6EE
:10192000FF7324A2042100900320FFF7A5F828E00C
:101930001F480078012809D100204FF6E07320A24B
:10194000042100900320FFF797F81AE01848007868
:10195000022809D100204FF608431CA20421009060
:101960000320FFF789F80CE011480078032808D11C
:1019700000204FF4784318A2042100900320FFF7C1
:101980007BF809B030BD00001E00002020000020C0
:1019900025642000C7B000003A000000BAF3000040
:1019A000D7F30000D3D20000B5B5CEBB00000000D5
:1019B0002C000020CEDEA1A4A1A4A1A40000000060
:1019C000A1A4B5CDA1A4A1A400000000A1A4A1A43C
:1019D000D6D0A1A400000000A1A4A1A4A1A4B8DFB6
:1019E0000000000008B50021354800F02EFAFFF78E
:1019F0003DF800204FF4784332A2012100900220EC
:101A0000FFF73AF8002040F2FF7331A20221009064
:101A1000FFF732F800204FF6E07332A20421009065
:101A2000FFF72AF84FF4967000F0B0FB00204FF655
:101A3000E0732EA2042100900620FFF7DDF84FF49A
:101A4000967000F0A3FBFEF79FFF00204FF6E073B7
:101A500026A2042100900820FFF7CEF84FF49670DC
:101A600000F094FB00204FF6E07320A204210090C8
:101A70000A20FFF7C1F8C82000F088FB00204FF6CD
:101A8000E0731AA2042100900C20FFF7B5F8C820DB
:101A900000F07CFBFEF778FF00204FF6E07313A206
:101AA000042100900E20FFF7A7F8C82000F06EFB7D
:101AB000FEF7DCFF0121024800F0C7F908BD000075
:101AC000000C0040D0A1D4AED0A1D4AE00000000E4
:101AD000D2BBC2B7BBF0BBA8B4F8C9C1B5E7A3A1DC
:101AE00000000000BFAABBFAD6D000002E2E0000D6
:101AF000042808D14FF0E021096941F004014FF0BA
:101B0000E022116107E04FF0E021096921F00401B2
:101B10004FF0E022116170477047000010B5154882
:101B2000006840F47000134908601348006840F0F2
:101B300001001149086000200F49083108600E4873
:101B400000680E4908400C4908600D48091D0860EE
:101B5000081F006820F48020091F08600020064943
:101B60000C310860FFF7C2FC4FF00060014980397A
:101B7000086010BD88ED00E000380240FFFFF6FE6F
:101B80001030002410B50121874800F06AF90028C0
:101B90007ED00121844800F055F905210D20FEF783
:101BA000D1FEC0F50060C82190FBF1F004B26421C1
:101BB000204600F046FB7D49088005210C20FEF7F9
:101BC000C1FEA0F50060C82190FBF1F004B26421D1
:101BD000204600F036FB7649088005210846FEF7CE
:101BE000B1FEA0F50060C82190FBF1F004B26421C1
:101BF000204600F026FB6F490880FFF741FA6E4847
:101C000000786E490978884201D0FEF72FFF6A48B4
:101C1000007858B168480078012807D066480078F5
:101C2000022803D064480078032802D1FFF7C0FDE2
:101C300009E061480078042803D05F48007805284F
:101C400001D1FFF7C9FC5C48007858B15A480078C8
:101C5000012807D058480078022803D05648007859
:101C600003282DD15648C0785649B1F90010884252
:101C700006D1534800795449B1F9001088421FD069
:101C8000504800784E49C8704F480078087100E00D
:101C900089E000204D4908700DE049494B4A92F90E
:101CA0000020885C4A49FEF704FC48480078401C44
:101CB00040B246490870454890F900000828ECDB1E
:101CC000444800794349C97800EB01204249B1F901
:101CD0000010884220D13F4880793E49497900EB85
:101CE00001203D49B1F90210884215D13948007AE6
:101CF0003849C97900EB01203749B1F9041088420D
:101D00000AD13448807A3349497A00EB01203249BC
:101D1000B1F90610884233D02F480088000A2D49B7
:101D2000C8702D48007808712B484088000A487117
:101D300029488078887128488088000AC871264818
:101D4000007908722448C088000A487222488079C5
:101D5000887200201D4908700DE01E491B4A92F947
:101D60000020885C1A49FEF7A4FB18480078401C44
:101D700040B216490870154890F900000E28ECDBB7
:101D8000164890F900100078401C40B2134A1070B9
:101D90000A2908DD12480068C0431249C1F88C02C4
:101DA00000201146087010BD000C0040000000200B
:101DB00004000020020000202C0000202E00002043
:101DC000060000201E000020200000201D00002032
:101DD000000A00200E000020220000201C0000202D
:101DE0008C824042008040427FB505460C4601216E
:101DF0000820FFF7D5FA0295ADF804400020ADF8B1
:101E00000600ADF80C0001A90D4800F045F80122CC
:101E100011460B4800F036F80121094800F015F88A
:101E200032208DF8000001208DF8010003208DF88C
:101E3000020001208DF803006846FFF759FA7FBDC4
:101E4000000C0040CA430282704721B1028842F070
:101E50000102028004E002884FF6FE731A400280FD
:101E6000704730B50246002000230024158A05EA99
:101E70000103958905EA010413B10CB1012000E0CA
:101E8000002030BD1AB183890B43838102E083892E
:101E90008B4383817047000000220288184B9842D0
:101EA0000ED0184B98420BD0B0F1804F08D0164B93
:101EB000984205D0154B984202D0154B984204D158
:101EC0004FF68F731A404B881A43124B984207D033
:101ED000114B984204D04FF6FF431A400B891A4326
:101EE00002804B68C3620B880385054B984202D081
:101EF000044B984201D18B7A038601238382704779
:101F000000000140000401400004004000080040BF
:101F1000000C0040001000400014004010B540F2DA
:101F200025511D4800F04AF810B31B4800F000F995
:101F3000C4B21A48008800F40040C8B917480088A5
:101F400000F4804060B10A2C03D0002013490880BF
:101F500020E01248008840F400401049088019E051
:101F60000D2C06D10D48008840F480400B490880B4
:101F700010E00A480088C0F30D0009490C540748D6
:101F80000088401C0549088008460088C72801DDF4
:101F90000020088010BD000000100140040A00204D
:101FA000180A002021B1828942F40052828104E0A3
:101FB00082894DF6FF731A408281704770B50246E0
:101FC000002400230025002040F66A16B14200D10B
:101FD00000BFC1F3421501F01F03012606FA03F307
:101FE000012D02D19689334006E0022D02D1168AD6
:101FF000334001E0968A33400C12012606FA04F4BD
:102000001688344013B10CB1012000E0002070BDEF
:10201000F0B50346002400260025002040F66A178C
:10202000B94200D100BF1846C1F3421401F01F06A7
:10203000012707FA06F5012C01D10C3004E0022C2F
:1020400001D1103000E014301AB107682F43076047
:1020500002E00768AF430760F0BD00002DE9FF47CD
:1020600005460E460024A14600BFA046B08900B137
:1020700000BF2C8A24F44054F08804432C82AC899D
:1020800041F20C608443B088318908437189084368
:102090000443AC81AC8A24F44074B0890443AC821C
:1020A0006846FFF7ADF92048854202D01F488542B7
:1020B00002D1DDF80C9001E0DDF80890A88900F469
:1020C000004040B109EBC90000EB0910316849003C
:1020D000B0FBF1F707E009EBC90000EB091031682C
:1020E0008900B0FBF1F76420B7FBF0F00401200990
:1020F000642101FB1078A88900F4004040B132202F
:1021000000EBC800B0FBF1F000F00700044308E06A
:10211000322000EB08106421B0FBF1F000F00F005A
:1021200004432C81BDE8FF870010014000140140EA
:1021300001468888C0F30800704700BFFEE73038CA
:102140000A2801D2012070470020704700BF704765
:1021500010B504466FF00400FFF7CAFCE11704EB6A
:102160005171C1F3C701074A11701046007800EBA6
:102170004001C1EBC0104FF6FF7101EAC0000249F7
:10218000088010BDFC090020FE09002070B504463F
:102190004FF4077094FBF0F0C6B24FF4077094FB55
:1021A000F0F100FB114085B205E04FF4077000F03C
:1021B00009F8701EC6B2002EF7D115B1284600F0FE
:1021C00001F870BD0146114A12884A434FF0E023DE
:1021D0005A6100229A611A46126942F001021A619C
:1021E00000BF4FF0E022106900F001021AB100F4C4
:1021F0008032002AF5D04FF0E022126922F001026D
:102200004FF0E0231A6100229A617047FE09002016
:1022100000BF054A128802F04002002AF9D0C2B27B
:10222000014B9A80704700000010014003468B422A
:1022300001DC08467047934201DB1046FAE7184676
:10224000F8E702468A4201DB08467047484282426C
:1022500002DC484200B2F8E71046F6E74FF4A0600F
:10226000FFF782F84FF4E13000F01CF8A820FFF7E8
:102270006FFFFEF7E5FEFEF785FAFEF7B5FBFEF70A
:1022800017FD42F2CF0140F2CF70FFF7ADFD4FF4E2
:10229000C8710720FEF77CFBFFF7A4FB01E0FEF707
:1022A00073FBFCE710B588B0044601210846FFF730
:1022B00067F801211020FFF783F80722092122483F
:1022C000FEF7F9FA07220A211F48FEF7F4FA4FF445
:1022D000C060069002208DF81C008DF81D000020C3
:1022E0008DF81E0001208DF81F0006A91648FEF784
:1022F0009AFA02940020ADF80C00ADF80E00ADF88B
:102300001000ADF814000C20ADF8120002A90F481F
:10231000FFF7A4FE01210D48FFF744FE012240F221
:1023200025510A48FFF774FE25208DF8040003208C
:102330008DF805008DF8060001208DF8070001A832
:10234000FEF7D6FF08B010BD0000024000100140AB
:102350004FF04070E1EE100A704700007C23000847
:1023600000000020180A0000C401000878290008B5
:10237000180A0020280700002002000861800CFFD6
:10238000FF020A0AFE0D0AFFFA08190E01271B04B4
:1023900004033901C14610703030402D2424247EBE
:1023A000042C48484817400E103C52525050301CE4
:1023B0001252523C10500C22525454582A0D1515EA
:1023C0002522E00C6E91192925760A1212120C258D
:1023D000020404063E4020101008011C1010206169
:1023E0002B02040A29015508080402780808086B22
:1023F0001C1C6B08CB191C1AFE0499450111A27E06
:10240000CA06201A0232496D2A206F214C18244234
:10241000015324185BFC3001533C30500CFEC60CB9
:10242000183060C0C6C6C67C500C3C4242402018E2
:10243000204042423C500CF82020FE222424283028
:102440003020480B1C22424040221E020202851B03
:1024500038445C5D463A02026069EC4B2042201928
:1024600050197B298549501F182440405C620F4B4E
:10247000221C1039374906393E490891480A402044
:1024800010080402040810CF51195A495D29F13986
:102490001B392569501A107F6A46702D3C423A5507
:1024A000015A5A701AE77A5E3C241414186A2B1FDA
:1024B000228C6E1E2222221FE02A01018C42427CC5
:1024C0002029015920500C3F42420212121E1212C2
:1024D000423FBC070202101E1C22222171404B22E7
:1024E000228019702C42427E0552E71A3EE34901D0
:1024F000323E1B0F11AD59014970500C7722221248
:10250000120A0E0A1222771B7F4261390152071B01
:102510006B2A012A36014920580C476262525252F6
:102520004A4A4646E3804A410159F029A02B023E1F
:102530008039A0BD601C324D202BC7427129214932
:10254000C0190A480840201804024242906A1CAF91
:1025500053497F2A3C4B390149D0680908081814AF
:1025600014242422101A14012A36A4532A6B580A60
:10257000E742242418181824242049505C141422FB
:10258000E0400C3F4242040408101020217E6A788B
:102590006F290112781808404020202010100C35B7
:1025A000040404029B1E1001E21E132418021CFFE7
:1025B0003308065E6C32222C30FC411B1A26CB6697
:1025C000261A0202039008384402020244382BDC27
:1025D00062EC657C40406090083C42027E42423C96
:1025E0003A3EAA4D3E0848301E9008423C021C224A
:1025F000227C2AE73F7B463A604930220E2B0C0CA6
:10260000CF1A22E0190119703A304111D808772207
:10261000120E0A127230293352082BB79201DA7F58
:1026200060923B1982190169A04B0702E0721B1DE1
:10263000E0405864109364581B1F04018B4C77D002
:102640008E42403C0242C04B3048E0497E212BDCA8
:10265000626092638F080814142222409008242498
:102660002A5A5291DB70087624181818246E1C061A
:1026700008080E942442E780087E44080810227E51
:102680002BC020013A10061320C0DA1001112A03D2
:10269000AF3B040806E30403603E205A04A3BAA13A
:1026A000A3C7B0BAF3D7F3D3D2B5B5CEBBCEDEB89D
:1026B000DFB5CDD6D0B8B1C2C4B4F8BFD5B8B4A1D7
:1026C000A4D0A1D4AED2BBC2B7BBF0BBA8C9C1B520
:1026D000E7A3A1BFAABBFA1A1C02690601141238AB
:1026E0001A6C02021438180D186C3CFC30CC30CC3B
:1026F00036FC36CC0239062330FC1811FFFF0C30B3
:102700001830181830603FE33066306C0214783FA0
:10271000F82A18023AFF081C01F83F07192A100E80
:10272000FC03030306030C031803183FF012302ABE
:10273000600213FFFF2AC0022E30303FF030011E2E
:10274000333036303C424A302269202F60187FD81F
:1027500060180238167F9B601E607E603C7FDC0C38
:10276000183F7F6F186F186D980C6E3E0C180D98FF
:1027700019021E30DB30DE30E81A7F821706300681
:102780003003301809037E06630C6318030C2B0317
:1027900060024B7FFE5A111BC01FC8180D70066FD8
:1027A000F66C366C366FF660061A1128090FF00CBD
:1027B000300C300FF0E2130180180DC0D8D8EDD8DE
:1027C000F3D8F0D8D8D818021F0CDBFFDE0CDC02DF
:1027D0001FD80CD80FF07CB74B0180026F318C3FB3
:1027E000FC318C026B3FFC18180E6606F7FEC666BD
:1027F000C666DFFEDE66DE0612D8100ADBFCDB0CE6
:10280000DB0CC3FCC014C7FEC0180FF3F01E33333B
:10281000F67FB6033C7FBC61BC0414EC7F8C380BA4
:10282000DCFFBC018C7FFC600C7F483C0D981FDEF8
:1028300018081FF86183C186FFA62F0DB00DB07F69
:10284000FE060120180B70070E3801C0022604187E
:10285000D41E200FF808080414090FFA14043FF8D6
:102860001A0802B1296C0111124012A0128028101E
:10287000804081408240842084208810880888120B
:102880004902100D60C21B1504240A4411441F8420
:10289000100A877FEC011401043FC4000A101F14C2
:1028A00084224403E43C04E37FFF12112F1F07112D
:1028B0003A110A0210141F3A608811080A08043EEF
:1028C0000AA211221E22023E021011600310040807
:1028D00008041002200220014001421D84048408E3
:1028E000846A10842016087E084108412841480166
:1028F00089010A030C050809101110280C04107F27
:10290000FF041004101002283B580C022412242249
:1029100022422142208202130220133FE813047F47
:10292000280B4080408050841FFC10840289085985
:1029300060411A08026908C902111F040204040454
:102940000802196C290249764902333FFE1C28709F
:1029500048011808884888088908AA0218089C08AD
:102960008C088808BF045C880F8858A12D010203D9
:08297000040425060708090014
:040000050800018965
:00000001FF
