:020000040800F2
:1000000020120020810200088921000867150008DD
:10001000511D000815140008BF3100080000000041
:100020000000000000000000000000008523000820
:10003000191400080000000019220008112A000805
:100040009B0200089B0200089B0200089B0200081C
:100050009B0200089B0200089B0200089B0200080C
:100060009B0200089B0200089B0200089B020008FC
:100070009B0200089B0200089B0200089B020008EC
:100080009B0200089B0200089B0200089B020008DC
:100090009B0200089B0200089B0200089B020008CC
:1000A0009B0200089B0200089B0200089B020008BC
:1000B0009B0200089B0200089B0200089B020008AC
:1000C0009B0200089B0200089B0200089B0200089C
:1000D0009B020008A12F00089B0200089B02000859
:1000E0009B0200089B0200089B0200089B0200087C
:1000F0009B0200089B0200089B0200089B0200086C
:100100009B0200089B0200087D2A00089B02000851
:100110009B0200089B0200089B0200089B0200084B
:100120009B0200089B0200089B0200089B0200083B
:100130009B0200089B0200089B0200089B0200082B
:100140009B0200089B0200089B0200089B0200081B
:100150009B0200089B0200089B0200089B0200080B
:100160009B0200089B0200089B0200089B020008FB
:100170009B0200089B0200089B0200089B020008EB
:100180009B0200089B02000800F002F800F069F8EA
:100190000AA090E8000C82448344AAF10107DA45E2
:1001A00001D100F05EF8AFF2090EBAE80F0013F0CB
:1001B000010F18BFFB1A43F001031847F436000083
:1001C000143700000A444FF0000C10F8013B13F004
:1001D000070408BF10F8014B1D1108BF10F8015BA0
:1001E000641E05D010F8016B641E01F8016BF9D193
:1001F00013F0080F1EBF10F8014BAD1C0C1B09D1EA
:100200006D1E58BF01F801CBFAD505E014F8016B5B
:1002100001F8016B6D1EF9D59142D6D370470000ED
:100220000023002400250026103A28BF78C1FBD8FF
:10023000520728BF30C148BF0B607047662903F0E2
:10024000EA82002070471FB503F0DBFA00F0B4FA31
:1002500004000020002103F007F9E0601FBD10B585
:1002600010BD00F0A5FB1146FFF7EDFF03F03EF8CF
:1002700000F0C3FB03B4FFF7F2FF03BC02F0B9FFC9
:100280000948804709480047FEE7FEE7FEE7FEE72A
:10029000FEE7FEE7FEE7FEE7FEE7FEE70448054966
:1002A000054A064B70470000152A0008890100081E
:1002B000200C002020120020200E0020200E002004
:1002C000704700000FB41CB5074B06AA7B44694673
:1002D0000090059800F057FA0020694600F066FA91
:1002E0001CBC5DF814FB0000DD0400002DE9F041AA
:1002F0000E460446002020622046E168884730B35D
:10030000252805D0D4E901219047206A401CF2E756
:10031000E168204600278847050018D0A5F1410074
:10032000192802D820354FF4006732462946204666
:100330002760FFF783FF40B1012804D0F61D26F0A7
:1003400007060836D8E7361DD6E72846DAE7206ADA
:10035000BDE8F08102F0B0BF70477047704770474A
:1003600070472DE9FF4F0C461E464FF0FF378BB00C
:10037000D2E90001DDF860800A908A46C1F30A558F
:1003800005B93D46002108464FF00000BAF1000FC4
:1003900000F4400005DA00EB80004FF4400101EA70
:1003A00050004FEA9059B9F1010F00DDB9460A98A3
:1003B00050EA4A000ED044F61050A5F2FF354543EE
:1003C0002F14B8F1000F1ED07542291E1EDDC9F191
:1003D00000021CE0B8F1010F4FF0000001D0302105
:1003E00003E0F24305E02154401CB042FBDB304601
:1003F0000022002121540B99C1F80880C1E9002096
:100400000FB0BDE8F08FBD1B6D1CDEE74A4600DA79
:10041000694206A800F05AFA06AB93E8070003AB5E
:1004200083E8070050460A9900F02EFB8DE807008C
:10043000A0F500501F3800900398002D09DD42F20E
:100440001F014A46084403A90390684600F08DFD49
:1004500008E0A0F500504A461F3803A903906846FB
:1004600000F097FD8DE807000004000C03D04FF06A
:10047000FF30410800E01046B8F1000F03D0002221
:10048000009215461EE0751E05D400F099F9303231
:1004900062556D1EF9D5B3460122084302D00022F1
:1004A0007F1C04E02078302801D100227F1E002A22
:1004B000099786D01DE0112D07DA00F081F930325E
:1004C00062556D1C50EA0102F5D1084302D0009834
:1004D000C8B10EE00021681E05E0235C625C635435
:1004E0002254401E491C8142F7DBAB46A81B401E2C
:1004F0000990002004F80B000B98099AC0F80880B6
:10050000C0E9002B7CE711264FF0000859E72DE9E0
:10051000F04F88460446D21D22F0070191B0D1E980
:100520000001CDE90A0102F04CFE02460B98C00F13
:1005300001D02D2007E02068810701D52B2002E0A3
:10054000202101EAC000032A099001D0072A05DB17
:1005500003464146204600F079F90BE120788006F9
:1005600001D5E06900E00620B8F1650F814606D0AC
:10057000B8F1660F18D0B8F1670F70D131E00020E4
:10058000B9F1110F009001DB112301E009F1010322
:100590000AAA01A90CA8FFF7E4FEDDE90C70002609
:1005A00009F10105834647E001204B4600904FF0DA
:1005B00000470AAA01A90CA8FFF7D3FEDDE90DB098
:1005C0000C995D46002610B909F101000D18B9EB30
:1005D000050003D4C0F1FF3609F10105A5EB0900C0
:1005E0002BE0B9F1010F01DA4FF001090020B9F158
:1005F000110F0090484601DD112300E003460AAACE
:1006000001A90CA8FFF7ADFEDDE90C704D460026F0
:100610008346207800070AD4AB4500DA5D4601A87E
:10062000012D04DD411911F8011C302907D04F4577
:1006300002DA17F1040F04DA012082460FE06D1E82
:10064000EEE7002F02DCED1B3E4403E0781CA842DD
:1006500000DD7D1CB81B00F1010A4FF00047207837
:10066000000703D4AA4501DB4FF0FF3A0021B7F1A0
:10067000004F0DF143088DF8431024D002202B23A6
:10068000002F01DA7F422D230A21021EA0F1010072
:1006900000DC5FB197FBF1FC97FBF1F201FB1C7CE6
:1006A00017460CF1300C08F801CDEEE7A8F1010077
:1006B00003702188090501D5452100E06521A0F1DD
:1006C000010800F8011C09980FA9A1EB0807FF1DFC
:1006D00000B10120411901EBEA70A1693844081A00
:1006E000401EA0612078C00602D42046AFF30080EF
:1006F000099828B1D4E901219047206A401C206262
:100700002078C00622D52046AFF300801EE0002EE0
:1007100004DBB34502DD01A8805D00E03020D4E9B0
:1007200001219047206A401C2062761CAAF101003A
:100730005FEA000A0AD100F03FF8C0680168405C37
:10074000D4E901219047206A401C2062281EA5F1AF
:100750000105DCDC07E0D4E9012118F8010B904722
:10076000206A401C2062381EA7F10107F3DC2046F6
:10077000AFF30080032011B043E6000001694A1C7A
:1007800002610878704700B58FB0CDE901310021D2
:10079000059105497944CDE9031011466846FFF7F4
:1007A000A5FD0FB000BD0000E5FFFFFF0A6802F8DD
:1007B000010B0A607047000000487047DC0B002006
:1007C00030B5B0F10A024FEA900E71F100034EEA23
:1007D000817EB0EB0E0061EB91014FEA101E4EEAF4
:1007E000017E10EB0E0041EB11114FEA102E4EEA84
:1007F000016E10EB0E0041EB11214FEA104E4EEA54
:10080000014E10EB0E0041EB1141401841F1000187
:100810004FEAD00040EA41704FEAD10110EB800569
:100820004FEA810444EA907444EB01046D1944EBEF
:100830000404521BA3414FF0000348BF0A3200D505
:1008400030BD401C41F1000130BD00002DE9F041F8
:100850001F46044603260168072A01F4006004DBF2
:1008600008B116A505E016A503E008B115A500E03E
:1008700015A521F010002060A069C01EA0610FB175
:10088000401EA0612046AFF300804FB1D4E90121A2
:1008900038469047206A401C2062C01C206206E057
:1008A000206AFAE7D4E9012115F8010B9047761E7A
:1008B000F8D22046AFF30080BDE8F0814E414E00F3
:1008C0006E616E00494E4600696E66002DE9F04784
:1008D000814616468AB0334878440DC88DE80D002D
:1008E00030487844801C03AC0DC884E80D0041F604
:1008F0009B300844372190FBF1F290FBF1F5A5F114
:10090000800501FB12041B3C02D56442012000E07B
:100910000020DFF890A080460027FA44AAF1BE0A22
:100920000DE0E00709D03246684607EB47010AEBC5
:10093000810100F02EFB8DE8070064107F1C002C65
:10094000EFD1184F7F44AC3F18E0E80714D007EB15
:1009500004100DF1180A90E80E008AE80E00C06835
:10096000F04201D198190890324606A903A800F078
:1009700010FB03AB83E807006D10641C002DE4D16D
:1009800032466946B8F1000F03A802D000F0EDFA34
:1009900001E000F0FEFAC9E90001C9F808200AB038
:1009A000BDE8F087BC2F000000487047BC0B00205A
:1009B0007546FFF7F9FFAE4605006946534620F03D
:1009C0000700854618B020B5FFF768FCBDE8204059
:1009D0004FF000064FF000074FF000084FF0000BFB
:1009E00021F00701AC46ACE8C009ACE8C009ACE8AE
:1009F000C009ACE8C0098D4670470446AFF30080DB
:100A00002046FFF737FC00004FF0013C50F8042B64
:100A100051F8043B9A4221D1A2EB0C03934313EA11
:100A2000CC1317D150F8042B51F8043B9A4215D13E
:100A3000A2EB0C03934313EACC130BD150F8042B15
:100A400051F8043B9A4209D1A2EB0C03934313EAF9
:100A5000CC13DBD04FF00000704700BFD01A01BAB2
:100A6000B1FA81F101F0180122FA01F0CB40C1F195
:100A70002001DBB2C0B2C01A2CFA01F3D11A9143A3
:100A800011EAC311E6D170475FEA400C08BF91F04C
:100A9000000F4FEA8C234FEAC12243EA51514FEA3B
:100AA0001C5018BF00F5F0404FEA300018BF41F06D
:100AB00000415FEA6C5C00F02980BCF1FF3F08BF99
:100AC00040F080407047130C06BF12044FF0100C2A
:100AD0004FF0000C130E04BF12020CF1080C130FA0
:100AE00004BF12010CF1040C930F04BF92000CF12F
:100AF000020CD30F04BF52000CF1010C11464FF051
:100B00000002A0F11F00A0EB0C00704711F0004F95
:100B100008BF704731F000413FF4D5AF0B0C06BF62
:100B200009044FF0100C4FF0000C0B0E04BF09022B
:100B30000CF1080C0B0F04BF09010CF1040C8B0F16
:100B400004BF89000CF1020CCB0F04BF49000CF16B
:100B5000010CCCF12003A0EB0C0022FA03F302FA03
:100B60000CF241EA030100F10100704720F07F4CD4
:100B700080EA030023F07F47ACEB070303F57C53C7
:100B800000F0004003F1FF032DE980494FEA154BC7
:100B900009B44FEA144325EA0B4E24EA03480FF246
:100BA000042606EB132749083E785FEA320203FB6E
:100BB0000667C7F5000707FB06F64FEA54374FEA0A
:100BC000D64606F1020607FB066CCCF1005C4FEA44
:100BD0001C472CEA074C07FB06F40CFB06F504EB5C
:100BE00015464FEA961634BF00204FF000404FEAFA
:100BF000D13706FB07FC4FEA1C4C0CFB0BF7D21B52
:100C000003FB0CF761EB07010CFB0EF7B0EB0740A1
:100C100072EB17420CFB08F734BFA2EB0742B2EBB2
:100C2000074261EB17414FEA0C444FEA910706FB7C
:100C300007FC4FEA1C4C0CFB0BF7B0EBC74072EB08
:100C4000573203FB0CF734BFA2EBC742B2EBC742EB
:100C500061EB57310CFB0EF7B0EBC70072EB57722C
:100C60000CFB08F734BFA2EBC702B2EBC70261EB83
:100C70005771039F4FEA816141EA921104EBCC0462
:100C80004FEAD1374FEA826206FB07FC42EA901234
:100C90004FEA80604FEA1C4C0CFB0BF7D21B03FBA6
:100CA0000CF761EB07010CFB0EF7B0EB074072EBA2
:100CB00017420CFB08F734BFA2EB0742B2EB074226
:100CC00061EB17414FEA8C554FEA910704EB9C24E6
:100CD00006FB07FC4FEA1C4C0CFB0BF7B0EBC740C4
:100CE00072EB573203FB0CF734BFA2EBC742B2EBF7
:100CF000C74261EB57310CFB0EF7B0EBC70072EB4C
:100D000057720CFB08F734BFA2EBC702B2EBC70265
:100D100061EB577115EB4C254FEA816141EA921165
:100D20004FEA82624FEAD13742EA901206FB07FC93
:100D300044F100044FEA80604FEA1C4C0CFB0BF7B7
:100D4000D21B03FB0CF761EB07010CFB0EF7B0EBBA
:100D5000074072EB17420CFB08F734BFA2EB0742C7
:100D6000B2EB074261EB174115EB1C154FEA8131DD
:100D700041EA92414FEA823242EA90424FEA8030A1
:100D80004FEA0C7644F1000448EA03434EEA0B486C
:100D90004FF0000EB2EB080C71EB030724BF624664
:100DA00039464EEB0E0E4FF0000B001852414941F0
:100DB0004BEB0B0BB2EB080C71EB03077BF1000B59
:100DC00024BF624639464EEB0E0E4FF0000B001862
:100DD000524149414BEB0B0BB2EB080C71EB030793
:100DE0007BF1000B24BF624639464EEB0E0E51EAF2
:100DF000020718BF46F0010616EB0E7655F1000209
:100E000054F1000103D5BDE88901BDE80088BDE8C3
:100E10008901BDE80048B619524141EB0101A3F137
:100E20000103704780807F7E7D7C7B7A797877763E
:100E300076757473727171706F6E6E6D6C6C6B6AB7
:100E40006A69686867666665646463636261616055
:100E5000605F5F5E5E5D5D5C5C5B5B5A5A595958D2
:100E6000585757565655555554545353525252513C
:100E7000515050504F4F4F4E4E4D4D4D4C4C4C4B92
:100E80004B4B4A4A4A4949494848484747474746D9
:100E90004646454545444444444343434342424215
:100EA00042414141002B26D4770021D01CB54FEAA6
:100EB000370703B44FF010004FF010014FF000005F
:100EC0000FBCBDE810400BF1010BBBF1010F08BFD7
:100ED0005FEA170722BF12F1010211F101014FF081
:100EE000004143F1000300F0004043EA0000704776
:100EF000F9D35708DAE746EA064613F1400F4FEAFE
:100F000016461FDD13F1200FDFBF16430A460021EE
:100F100020335B42C8D0C3F1200746EA064602FAF6
:100F200007F74FEA164646EA0706C3F1200722FAFA
:100F300003F201FA07F721FA03F14FF0000342EA46
:100F40000702B1E746EA020646EA06464FEA1646B7
:100F500046EA0106BCBF46EA0646360C4FF00003DF
:100F60004FF000024FF000019EE72DE9C048934684
:100F700030B491E8380007C831EA400C48BF34EA81
:100F8000430C03D5FFF7F2FDFFF78CFFF0BCBDE883
:100F900000882DE9C048934630B491E8380007C86E
:100FA00010F0804F08BF13F0804F03D100F005F818
:100FB000FFF778FFF0BCBDE8008820F07F4780EAAB
:100FC000030023F07F4C07EB0C03A3F57C5300F0E8
:100FD0000040A3F1FE0392F0000F00F0B38095F003
:100FE000000F00F077802DE901494FEA11404FEAE8
:100FF000144621EA004800FB06FC24EA064708FBE9
:1010000006F607FB08F800FB07F718EB06484CEB61
:10101000164C4FEA124B18EB07484FEA15464CEBBB
:10102000174022EA0B4E0BFB06FC25EA06470EFB97
:1010300006F607FB0EFE0BFB07F71EEB064E4CEB0E
:10104000164C4FF000061EEB074E4CEB174B18EBFF
:101050000B0840F1000018EB0E0B58EB000840F1B4
:1010600000008F1A4FF000013CBFC943661B14BF3C
:10107000B5EB040C00213CBFC943F61B4FEA1744F3
:101080004EEA8E0E27EA04454FEA1C4704FB07622E
:101090002CEA074C05FB07F70CFB05F604FB0CFCE0
:1010A00016EB074642EB174216EB0C4642EB1C428E
:1010B0001BEB060658EB0202414146EA9E0601D5AB
:1010C000BDE80189B619524141EB0101A3F10103C9
:1010D000BDE801894FEA14454FEA114724EA054665
:1010E00021EA074C05FB07F406FB07F70CFB06F1AA
:1010F00005FB0CFC11EB074144EB17444FEA124788
:1011000011EB0C4144EB1C4422EA074C05FB07F2AF
:1011100006FB07F70CFB06F605FB0CFC16EB074677
:1011200042EB174216EB0C4642EB1C456A1854F191
:10113000000148BF7047B619524141EB0101A3F1CC
:101140000103704795F0000F37D04FEA11424FEA84
:10115000144721EA024624EA074C02FB07F106FB8A
:1011600007F70CFB06F402FB0CFC14EB074441EB05
:1011700017414FEA154714EB0C4441EB1C4125EA9B
:10118000074C02FB07F506FB07F70CFB06F602FB14
:101190000CFC16EB074645EB174516EB0C4645EBEA
:1011A0001C42121951F1000148BF7047B619524153
:1011B00041EB0101A3F1010370474FEA14454FEAE7
:1011C000114724EA054621EA074C05FB07F106FB17
:1011D00007F70CFB06F24FF0000605FB0CFC12EBC8
:1011E000074241EB174112EB0C4251EB1C4148BF47
:1011F0007047921841EB0101A3F10103704721B13F
:10120000826842F00102826003E0826822F00102FB
:10121000826070470021084A1168084A1140D0E9ED
:1012200000231A4383681A43C3681A431143044ACC
:10123000C2F804137047000004230140E030FCFFB3
:10124000002001400146C86C80B270470246002071
:1012500013680B400BB1012000E000207047000034
:1012600030B50246002000235068104C20400D7914
:101270000C6844EA05242043506090680C4C2040E0
:10128000D1E903542C438D682C434D7944EA45043D
:1012900020439060D06A20F470000C7D641EE4B29C
:1012A000234340EA0350D06230BD0000FFFEFFFC44
:1012B000FDF7FFC0F0B504460D4600200021092DC2
:1012C00011DDE068A5F10A0606EB4607072606FAD7
:1012D00007F18843A5F10A0606EB460603FA06F174
:1012E0000843E0600CE0206905EB4507072606FA95
:1012F00007F1884305EB450603FA06F10843206130
:10130000072A0FDA606B561E06EB86071F2606FAC1
:1013100007F18843561E06EB860605FA06F10843D8
:10132000606322E00D2A0FDA206BD61F06EB8607DA
:101330001F2606FA07F18843D61F06EB860605FA34
:1013400006F10843206310E0E06AA2F10D0606EB07
:1013500086071F2606FA07F18843A2F10D0606EB61
:10136000860605FA06F10843E062F0BD816841F0A7
:10137000804181607047000000B58DB001210420DC
:1013800000F04CFF0121084600F048FF012108024F
:1013900000F064FF0C20059003208DF81800002059
:1013A0008DF81B0005A9184800F037F8302005908B
:1013B00005A9164800F031F80121080200F05EFF8F
:1013C00000214FF4807000F059FF0020019004903C
:1013D00003904FF48030029001A8FFF71BFF00201C
:1013E00007908DF820008DF8210009900B900120C6
:1013F0008DF8300007A90648FFF732FF01210448A5
:10140000FFF7FDFE0DB000BD0008024000000240E5
:101410000020014000BFFEE77047F0B50A460021FA
:101420000023002400BF3DE0012505FA01F3156803
:1014300005EA03049C4234D105684F000326BE40F0
:10144000B543056015794E00B54006683543056023
:101450001579012D02D01579022D16D185684F001E
:101460000326BE40B543856055794E00B540866879
:1014700035438560456801268E40B5434560456823
:1014800096798E40B6B235434560C5684F00032655
:10149000BE40B543C560D5794E00B540C6683543FA
:1014A000C560491C1029BFD3F0BDF0B5002300244E
:1014B0004D07ED0E02FA05F3CE1000F1200555F8A8
:1014C00026504E07F70E0F26BE40B543CF1000F151
:1014D000200646F82750CE1000F1200555F826507A
:1014E00045EA0304CE1000F1200545F82640F0BD82
:1014F0000246002013690B400BB1012000E00020E0
:10150000704741837047000010B50446072301224D
:1015100021460848FFF7CEFE0648FFF727FF00BF29
:1015200002210448FFF792FE0028F9D00148FFF796
:1015300089FE10BD002001402DE9F04107460C4610
:101540000025002608E03846FFF7DEFF05440520A9
:1015500001F070FE701CC6B2A642F4DBB5FBF4F0DD
:1015600080B2BDE8F08100BFFEE700004CF6CC4041
:1015700001490860704700000030004010B500F0DD
:1015800013F810BD70B505460C4645F2555000F0F5
:101590001FF8284600F010F8204600F013F800F07D
:1015A00003F8FFF7E3FF70BD4AF6AA20014908607F
:1015B000704700000030004001494860704700005B
:1015C0000030004001498860704700000030004052
:1015D0000149086070470000003000401CB501213F
:1015E000072000F01BFE0920009000208DF8040069
:1015F00003208DF8050002208DF807006946154884
:10160000FFF70BFF0120009002208DF807006946CC
:101610001148FFF702FF41F20200009001208DF80F
:10162000070069460C48FFF7F8FE4FF400500090A1
:1016300001208DF8070069460848FFF7EEFE4020BC
:10164000009001208DF8070069460248FFF7E5FE8B
:101650001CBD0000000002400008024000040240DF
:1016600010B501213348FFF743FF01280BD1322089
:1016700001F0E0FD01212F48FFF73AFF012857D183
:101680002D49087054E001212C48FFF731FF012853
:101690000CD1322001F0CEFD01212848FFF728FFB0
:1016A000012845D102202449087041E0082123483F
:1016B000FFF71EFF01280CD1322001F0BBFD0821ED
:1016C0001E48FFF715FF012832D103201A49087080
:1016D0002EE04FF480511748FFF70AFF60B932201F
:1016E00001F0A8FD4FF480511248FFF701FFF8B94F
:1016F0000420114908701BE0322001F09BFD4FF4DB
:1017000080510C48FFF7F4FE012811D1012109484E
:10171000FFF7EEFE60B901210848FFF7E9FE38B98E
:1017200008210648FFF7E4FE10B9002002490870BE
:1017300010BD0000000802403E00002000000240F2
:1017400000B5002000F008F900BD00002DE9F84FB9
:1017500004460E4617469B460025A8464FF0010A50
:10176000C4F10700C4B2C6F10400C6B261E00025AE
:101770004FF0010A12E03248405D17F80810884225
:101780000AD12F49681C095C08F10100385C8142CC
:1017900002D14FEA051A05E0A81CC5B22848405DF1
:1017A0008328E8DC00BFBAF1010F3CD006F1010C40
:1017B0004FF0010ECEEB0C1C0CF0FF0304F1010CFA
:1017C000CEEB0C1C0CF0FF024FEA067C4FEA1C61CA
:1017D0004FEA047C4FEA1C6000F097F8002000906C
:1017E0001EE04FF0000912E0164810F80A008021B0
:1017F00041FA09F1084018B1584600F005FA02E034
:101800000A9800F001FA09F1010000F0FF09B9F1AE
:10181000080FE9DB0AF1010A0098401CC0B20090F1
:1018200000982028DDDB601EC4B208F1020000F041
:10183000FF0817F80800002899D1BDE8F88F0000CC
:1018400032060020780600202DE9F04F04460D46B0
:1018500090469946DDF824A005F1010C4FF0010BEC
:10186000CBEB0C1C0CF0FF0304F1010CCBEBCC0C0C
:101870000CF0FF024FEA057C4FEA1C614FEAC46C92
:101880004FEA1C6000F041F8002718E0002612E043
:10189000A8F120000C4901EB0010C05D802131410E
:1018A000084018B1484600F0AFF902E0504600F099
:1018B000ABF9701CC6B2082EEADB781CC7B2102F39
:1018C000E4DBBDE8F08F0000420000202DE9F84184
:1018D00005460E4614461F46DDF81C80C5F10F0074
:1018E000C5B2C6F10400C6B20AE0CDF8008014F813
:1018F000012B28466B1EDDB23B463146FFF7A4FFA5
:1019000020780028F1D1BDE8F881F0B507460C46F3
:1019100015461E462A2000F04BF9002000F0CCF9B5
:10192000384600F0C9F9002000F0C6F9284600F05A
:10193000C3F92B2000F03CF9002000F0BDF920464F
:1019400000F0BAF9002000F0B7F9304600F0B4F921
:101950002C2000F02DF9F0BD70B5064642238422FC
:1019600000210846FFF7D1FF002408E0002503E02E
:10197000304600F049F96D1C422DF9D3641C842CCB
:10198000F4D370BD1CB50121022000F047FC49F2E0
:101990000340009001208DF8040000208DF806001F
:1019A00003208DF8050001208DF8070069467D4869
:1019B000FFF733FD01207C4908607C49C1F8BC0277
:1019C00079492431086078492C3108600020764933
:1019D000091F0860C82001F02DFC01207349C1F8DF
:1019E0008002322001F026FC112000F0E1F8642092
:1019F00001F020FCB12000F0DBF8052000F05CF9DC
:101A00003A2000F059F9362000F0D2F8082000F012
:101A100053F9B22000F0CCF8052000F04DF93A203F
:101A200000F04AF9B32000F0C3F8052000F044F9B3
:101A30003A2000F041F9052000F03EF93A2000F08C
:101A40003BF9B42000F0B4F8002000F035F9C020D4
:101A500000F0AEF8AA2000F02FF90A2000F02CF9CF
:101A6000842000F029F9C12000F0A2F8C02000F085
:101A700023F9C22000F09CF80D2000F01DF9002091
:101A800000F01AF9C32000F093F88D2000F014F94B
:101A90002A2000F011F9C42000F08AF88D2000F00F
:101AA0000BF9EE2000F008F9C52000F081F80620BF
:101AB00000F002F9E02000F07BF8062000F0FCF8CE
:101AC0001C2000F0F9F8102000F0F6F8142000F0C7
:101AD000F3F8302000F0F0F82B2000F0EDF824208F
:101AE00000F0EAF8292000F0E7F8282000F0E4F8F8
:101AF000262000F0E1F82E2000F0DEF8392000F07A
:101B0000DBF8002000F0D8F8022000F0D5F8012022
:101B100000F0D2F8102000F0CFF8E12000F048F8F3
:101B2000062000F0C9F81C2000F0C6F8102000F0D4
:101B3000C3F8142000F0C0F8302000F0BDF82B20CE
:101B400000F0BAF8242000F0B7F8292000F0B4F82B
:101B5000282000F0B1F8262000F0AEF82E2000F08A
:101B6000ABF8392000F0A8F8002000F0A5F802201A
:101B700000F0A2F8012000F09FF8102000F09CF87F
:101B80003A2000F015F8052000F096F8292000F022
:101B90000FF80A2001F04EFB4FF47840FFF7DCFE0F
:101BA0001CBD00000004024084824042008040428C
:101BB0000022134B1A60134BC3F8B022002118E027
:101BC00000220F4B24331A6000F08002802A04D1D7
:101BD00001220B4B38331A6003E00022084B3833E4
:101BE0001A600122064B24331A604206100E4A1C6A
:101BF000D1B20829E4DB0122014B2C331A60704773
:101C0000848240420080404210B502460123284CA5
:101C100023600023274CC4F8B032C2F30721002010
:101C200018E00023224C2434236001F08003802B31
:101C300004D101231E4C3834236003E000231C4CE4
:101C40003834236001231A4C243423604B06190EC8
:101C5000431CD8B20828E4DB0123154C2C34236044
:101C6000D1B20023134CC4F8B032002018E0002396
:101C70000F4C2434236001F08003802B04D1012316
:101C80000B4C3834236003E00023094C38342360C4
:101C90000123074C243423604B06190E431CD8B291
:101CA0000828E4DB0123024C2C34236010BD000023
:101CB00084824042008040420122144B1A6000227C
:101CC000134BC3F8B022002118E000220F4B24333D
:101CD0001A6000F08002802A04D101220B4B3833B5
:101CE0001A6003E00022094B38331A600122074BC7
:101CF00024331A604206100E4A1CD1B20829E4DBD4
:101D00000122024B2C331A6070470000848240424B
:101D1000008040421CB50121022000F07FFA7820AB
:101D2000009001208DF8040000208DF806000320AB
:101D30008DF8050001208DF8070069460348FFF77C
:101D40006CFB78210148FFF7DCFB1CBD000402405E
:101D500000BFFEE710B52DED048BEA480078EA4994
:101D60000870EA48B0F90000E9490880E948B0F98C
:101D70000000E9490880E948B0F90000E849088016
:101D8000E848B0F90000E8490880DE4800780128FA
:101D90006DD1DF48B0F9000001F0ADFB41EC190B4B
:101DA0009FEDE20B53EC102B01F0BCFB41EC180B48
:101DB00001F070FB00EE100ADE48D0ED000A30EEB4
:101DC000200A80ED000AD848B0F9000001F093FB2A
:101DD00041EC190B9FEDD50B53EC102B01F0A2FB3E
:101DE00041EC180B01F056FB00EE100AD248D0ED82
:101DF000000A30EE200A80ED000ACE4890ED000A7D
:101E0000DFEDCE0AB4EEE00AF1EE10FA04DB9FED4E
:101E1000CB0A80ED000A0DE0C64890ED000ADFED28
:101E2000C80AB4EEE00AF1EE10FA03D89FEDC40A36
:101E300080ED000AC04890ED000ADFEDC20AB4EE62
:101E4000E00AF1EE10FA04DB9FEDBE0A80ED000A15
:101E50000DE0B94890ED000ADFEDBB0AB4EEE00AF0
:101E6000F1EE10FA03D89FEDB80A80ED000AA548FC
:101E7000007802286DD1A648B0F9000001F03BFBC4
:101E800041EC190B9FEDA90B53EC102B01F04AFB11
:101E900041EC180B01F0FEFA00EE100AAB48D0ED51
:101EA000000A30EE200A80ED000A9F48B0F90000D9
:101EB00001F021FB41EC190B9FED9C0B53EC102B17
:101EC00001F030FB41EC180B01F0E4FA00EE100ACF
:101ED0009F48D0ED000A30EE200A80ED000A9B48B2
:101EE00090ED000ADFED970AB4EEE00AF1EE10FA89
:101EF00004DB9FED940A80ED000A0DE0934890ED1D
:101F0000000ADFED910AB4EEE00AF1EE10FA03D810
:101F10009FED8D0A80ED000A8D4890ED000ADFEDFF
:101F20008D0AB4EEE00AF1EE10FA04DB9FED890AA7
:101F300080ED000A0DE0864890ED000ADFED860A8C
:101F4000B4EEE00AF1EE10FA03D89FED830A80EDBB
:101F5000000A6C480078032869D17148B0F9000084
:101F600001F0C9FA41EC190B9FED700B53EC102BEB
:101F700001F0D8FA41EC180B01F08CFA00EE100ACF
:101F80007648D0ED000A30EE200A80ED000A624863
:101F9000B0F9000001F0AFFA41EC190B9FED630BB3
:101FA00053EC102B01F0BEFA41EC180B01F072FA61
:101FB00000EE100A6A48D0ED000A30EE200A80EDEB
:101FC000000A664890ED000ADFED5E0AB4EEE00A12
:101FD000F1EE10FA04DB9FED5B0A80ED000A0BE0E6
:101FE0005E4890ED000AB5EEC00AF1EE10FA03D893
:101FF0009FED5C0A80ED000A594890ED000ADFED84
:10200000510AB4EEE00AF1EE10FA04DB9FED4D0A3E
:1020100080ED000A0BE0524890ED000AB5EEC00AD0
:10202000F1EE10FA03D89FED4F0A80ED000A354813
:102030000078042835D13C48B0F9000001F05BFA83
:1020400041EC190B9FED390B53EC102B01F06AFAA0
:1020500041EC180B01F01EFA00EE100A4248D0EDD8
:10206000000A30EE200A80ED000A90ED000ADFED54
:10207000350AB4EEE00AF1EE10FA04DB9FED310A06
:1020800080ED000A0DE0384890ED000ADFED2E0AE1
:10209000B4EEE00AF1EE10FA03D89FED2B0A80EDC2
:1020A000000A4FF400513148FFF722FA58B930487E
:1020B00001780078401C2E4A1070142906DD01209A
:1020C0002C49087002E000202949087002212A48A2
:1020D000FFF70EFA80B940212848FFF709FA70B9D6
:1020E000274801780078401C254A1070052906DD34
:1020F00001202449087002E0002021490870BDEC4D
:10210000048B10BD3E0000203F0000200000002096
:1021100036000020040000203800002006000020C7
:102120003A000020020000203C0000207B14AE4753
:10213000E17A843F2C000020300000209A99194059
:102140003333B33FC3F548400AD7233C2400002073
:10215000280000209A993940C3F5483F1C00002010
:1021600020000020000000001800002000040240B1
:10217000400000203500002000080240000002401E
:1021800041000020340000207047000070B500219D
:1021900000230F22C4781CB3174C246804F4E064B5
:1021A000C4F5E064C4F30721C1F10404E3B20A41B9
:1021B00044789C40E1B28478144021430C07210EFE
:1021C0000E4C05786155047804F01F050124AC40DD
:1021D00005786D11AD0005F1E025C5F8004109E075
:1021E000047804F01F050124AC40054D06787611F3
:1021F00045F8264070BD00000CED00E000E400E072
:1022000080E100E002490143024A1160704700008A
:102210000000FA050CED00E07047000029B1064A05
:1022200012680243044B1A6004E0034A12688243B6
:10223000014B1A60704700003038024029B1064A4D
:1022400012680243044B1A6004E0034A1268824396
:10225000014B1A60704700004038024029B1064A1D
:1022600012680243044B1A6004E0034A1268824376
:10227000014B1A60704700004438024029B1064AF9
:1022800012680243044B1A6004E0034A1268824356
:10229000014B1A607047000024380240F0B500215D
:1022A00000220024022500260223324F3F6807F057
:1022B0000C0121B1042905D0082937D105E02E4FA2
:1022C000076036E02D4F076033E02A4F3F1F3F681D
:1022D000C7F38056274F3F1F3F6807F03F036EB19B
:1022E000264FB7FBF3F7DFF88CC0ACF1040CDCF839
:1022F00000C0CCF3881C07FB0CF40CE01E4FB7FBAE
:10230000F3F7DFF870C0ACF1040CDCF800C0CCF3DC
:10231000881C07FB0CF4174F3F1F3F68C7F30147AA
:102320007F1C7D00B4FBF5F7076002E0124F0760E9
:1023300000BF00BF0F4F3F6807F0F0010909104FC1
:102340007A5C0768D74047600A4F3F6807F4E0515E
:10235000890A0B4F7A5C4768D7408760054F3F6812
:1023600007F46041490B064F7A5C4768D740C76065
:10237000F0BD0000083802400024F40000127A008A
:10238000E20A0020704700000CB500200190009088
:102390003448006840F480303249086000BF31485A
:1023A000006800F4003000900198401C01900098F3
:1023B00018B90198B0F5A04FF1D12A48006800F48F
:1023C000003010B10120009001E000200090009842
:1023D000012846D123484030006840F08050214910
:1023E000403108602048006840F440401E490860C1
:1023F0001C48083000681B4908310860084600681E
:1024000040F4004008600846006840F4A0500860AE
:102410001648091F0860081F006840F08070091FF7
:10242000086000BF0F48006800F000700028F9D075
:1024300040F205700E4908600A480830006820F034
:1024400003000849083108600846006840F00200AF
:10245000086000BF03480830006800F00C0008283E
:10246000F8D10CBD0038024000700040085440070D
:10247000003C024000B52DED028B87B09C480078EF
:1024800040B900204FF6FF739AA20121009003206B
:10249000FFF75CF99648007801284FD100204FF6ED
:1024A000E07396A201210090FFF750F900204FF64B
:1024B000E07395A2012100900A20FFF707FA9348E4
:1024C00090ED000A10EE101A084601F029F941ECCF
:1024D000180B53EC182B8EA104A8FDF7F3FE002077
:1024E0001F2304AA02210090FFF7F0F900204FF605
:1024F000E07388A203210090FFF728F900204FF62F
:10250000E07381A2032100900A20FFF7DFF98448DD
:1025100090ED000A10EE101A084601F001F941ECA6
:10252000180B53EC182B7AA101A8FDF7CBFE002065
:102530001F2301AA04210090FFF7C8F96C48007816
:1025400002284FD100204FF6E07376A201210090BF
:10255000FFF7FCF800204FF6E0736BA2012100901A
:102560000820FFF7B3F9714890ED000A10EE101A39
:10257000084601F0D5F841EC180B53EC182B64A178
:1025800004A8FDF79FFE00201F2304AA022100904B
:10259000FFF79CF900204FF6E07365A2032100903D
:1025A000FFF7D4F800204FF6E07357A20321009004
:1025B0000820FFF78BF9604890ED000A10EE101A22
:1025C000084601F0ADF841EC180B53EC182B50A164
:1025D00001A8FDF777FE00201F2301AA0421009027
:1025E000FFF774F94248007803284FD100204FF6D6
:1025F000E07352A201210090FFF7A8F800204FF6E7
:10260000E07341A2012100900820FFF75FF94D48D7
:1026100090ED000A10EE101A084601F081F841EC26
:10262000180B53EC182B3AA104A8FDF74BFE002021
:102630001F2304AA02210090FFF748F900204FF65B
:10264000E07341A203210090FFF780F800204FF6CD
:10265000E0732DA2032100900820FFF737F93C48D2
:1026600090ED000A10EE101A084601F059F841ECFE
:10267000180B53EC182B26A101A8FDF723FE002010
:102680001F2301AA04210090FFF720F918480078C1
:10269000042828D100204FF6E0732EA202210090DA
:1026A0000846FFF753F800204FF6E07316A2022108
:1026B00000900820FFF70AF9284890ED000A10EE74
:1026C000101A084601F02CF841EC180B53EC182BAB
:1026D0000FA104A8FDF7F6FD00201F2304AA032183
:1026E0000090FFF7F3F807B0BDEC028B00BD0000CF
:1026F0003E000020CDA3D6B900000000D7A6D7D356
:10270000BFAABACF000000003A0000002C00002051
:1027100025660000D7A6D7D3D0FDD7AA00000000B9
:1027200030000020D6E1CFF200000000240000209D
:10273000B0DAB6AF0000000028000020D2BBBCB663
:10274000B1DB00001C000020B6FEBCB6B1DB00000F
:1027500020000020B5D7D7F90000000018000020A5
:1027600008B50021344800F0B2FBFEF7E9FFC820AD
:1027700000F060FDFEF702FF00204FF6E0732FA28D
:1027800003210090FEF7E2FF4FF47A7000F052FD53
:10279000FEF7F4FE00204FF6E0732AA2032100901A
:1027A0000620FFF793F84FF47A7000F043FDFEF730
:1027B000E5FE00204FF6E07322A2032100900720DF
:1027C000FFF784F84FF47A7000F034FDFEF7D6FE80
:1027D00000204FF6E0731BA2032100900820FFF7B2
:1027E00075F84FF47A7000F025FDFEF7C7FE002063
:1027F0004FF6E07313A2032100900920FFF766F85B
:102800004FF47A7000F016FDFEF7B8FE00204FF688
:10281000E0730CA2032100900A20FFF757F84FF451
:102820007A7000F007FDFEF7A9FEFEF789FF01218F
:10283000014800F04CFB08BD000C0040B8B4CEBB12
:10284000D6D000002E00000008B500211E4800F080
:102850003EFBFEF775FFC82000F0ECFCFEF78EFE95
:1028600000204FF6E07319A203210090FEF76EFFDF
:102870004FF47A7000F0DEFCFEF780FE00204FF689
:10288000E07315A2032100900A20FFF71FF84FF410
:10289000FA7000F0CFFCFEF771FE00204FF6E073F7
:1028A0000DA2032100900C20FFF710F84FF4FA70EE
:1028B00000F0C0FCFEF762FEFEF742FF0121024875
:1028C00000F005FB08BD0000000C0040BFECCBD9B8
:1028D000D0FDD7AAD6D000002E2E000008B50021CA
:1028E000354800F0F4FAFEF72BFF00204FF4784350
:1028F00032A2012100900220FEF728FF002040F2C2
:10290000FF7331A202210090FEF720FF00204FF656
:10291000E07332A204210090FEF718FF4FF4967086
:1029200000F088FC00204FF6E0732EA204210090F6
:102930000620FEF7CBFF4FF4967000F07BFCFEF70D
:102940001DFE00204FF6E07326A20421009008200F
:10295000FEF7BCFF4FF4967000F06CFC00204FF6C1
:10296000E07320A2042100900A20FEF7AFFFC820E8
:1029700000F060FC00204FF6E0731AA204210090E2
:102980000C20FEF7A3FFC82000F054FCFEF7F6FD74
:1029900000204FF6E07313A2042100900E20FEF7F2
:1029A00095FFC82000F046FCFEF7CAFE0121024850
:1029B00000F08DFA08BD0000000C0040D0A1D4AE9C
:1029C000D0A1D4AE00000000D2BBC2B7BBF0BBA800
:1029D000B4F8C9C1B5E7A3A100000000BFAABBFAC3
:1029E000D6D000002E2E0000042808D14FF0E021A0
:1029F000096941F004014FF0E022116107E04FF056
:102A0000E021096921F004014FF0E02211617047D3
:102A10007047000010B51548006840F47000134975
:102A200008601348006840F0010011490860002068
:102A30000F49083108600E4800680E4908400C49EB
:102A400008600D48091D0860081F006820F48020F8
:102A5000091F0860002006490C310860FFF794FC4C
:102A60004FF0006001498039086010BD88ED00E03A
:102A700000380240FFFFF6FE1030002430B587B06A
:102A80000121E14800F02FFA00287CD00121DE4826
:102A900000F01AFA05210D20FEF74EFDC0F500608A
:102AA000C82190FBF1F56421284600F013FC00B228
:102AB000D649088005210C20FEF73EFDA0F50060F8
:102AC000C82190FBF1F56421284600F003FC00B218
:102AD000CF49088005210846FEF72EFDA0F50060CD
:102AE000C82190FBF1F56421284600F0F3FB00B209
:102AF000C849088005210420FEF71EFDA0F50060EE
:102B0000C82190FBF1F56421284600F0E3FB00B2F8
:102B1000C1490880C1480078C1490978884201D07C
:102B2000FEF70EFEBD480078A8B9BC480078BC4945
:102B3000097888420FD0BBA30FCB01AD0FC500248D
:102B400006E001A9085DBB49FDF704FC601CC4B2A6
:102B50000E2CF6DB00BFFFF7FDF8FFF78BFCAF484C
:102B60000078012843D1B448D0F803000690B24859
:102B7000D0F807000590B14890ED000ADDED060A97
:102B8000B4EE600A00E03DE1F1EE10FA09D1AC4884
:102B900090ED000ADDED050AB4EE600AF1EE10FAE0
:102BA00025D03820A4494870A4480078C870A348AC
:102BB00040780871A14880784871A048C078887131
:102BC0009F480078C8719E48407808729C48807879
:102BD00048729B48C0788872002406E09649085DD8
:102BE0009449FDF7B7FB601CC4B20E2CF6DB8B4892
:102BF0000078022841D19048D0F8030006908E4812
:102C0000D0F8070005908F4890ED000ADDED060A28
:102C1000B4EE600AF1EE10FA09D18B4890ED000A8B
:102C2000DDED050AB4EE600AF1EE10FA25D027209A
:102C30008149487083480078C8708248407808719C
:102C40008048807848717F48C07888717E480078D5
:102C5000C8717D48407808727B48807848727A480D
:102C6000C0788872002406E07349085D7149FDF759
:102C700071FB601CC4B20E2CF6DB68480078032898
:102C800041D16D48D0F8030006906B48D0F807009A
:102C900005906E4890ED000ADDED060AB4EE600A7C
:102CA000F1EE10FA09D16A4890ED000ADDED050A4F
:102CB000B4EE600AF1EE10FA25D016205E49487095
:102CC00062480078C8706148407808715F48807831
:102CD00048715E48C07888715D480078C8715C486A
:102CE000407808725A48807848725948C07888728B
:102CF000002406E05049085D4E49FDF72BFB601C9F
:102D0000C4B20E2CF6DB45480078042827D14A4887
:102D1000D0F8030006904F4890ED000ADDED060A5A
:102D2000B4EE600AF1EE10FA19D00520424948705D
:102D300048480078C870474840780871454880780E
:102D400048714448C0788871002406E03A49085D1B
:102D50003849FDF7FFFA601CC4B20E2CF6DB3E4882
:102D6000007801281BD100203B49087049203249D6
:102D70004870032404E000202F490855601CC4B2A9
:102D80000A2CF8DD002406E02B49085D2949FDF7EF
:102D9000E1FA601CC4B20E2CF6DBFFF755FD2F489C
:102DA000007801281BD100202C4908705A202249A4
:102DB0004870032404E000201F490855601CC4B279
:102DC0000A2CF8DD002406E01B49085D1949FDF7CF
:102DD000C1FA601CC4B20E2CF6DBFFF7C1FC204820
:102DE00090F900100078401C40B21D4A10700A296A
:102DF00008DD1C480068C0431B49C1F88C02002054
:102E00001146087007B030BD000C004000000020E3
:102E10000600002004000020020000203E000020E8
:102E20003F000020FF00080000000000000000FE3E
:102E30000D0A0000DC0A0020080000202C00002001
:102E40003000002024000020280000201C0000206A
:102E50002000002018000020350000203400002051
:102E6000160000208C824042008040427FB505461B
:102E70000C4601210820FFF7E1F90295ADF8044066
:102E80000020ADF80600ADF80C0001A90D4800F0D7
:102E900045F8012211460B4800F036F80121094897
:102EA00000F015F832208DF8000001208DF80100A7
:102EB00003208DF8020001208DF803006846FFF71B
:102EC00065F97FBD000C0040CA430282704721B102
:102ED000028842F00102028004E002884FF6FE738D
:102EE0001A400280704730B50246002000230024BB
:102EF000158A05EA0103958905EA010413B10CB1AD
:102F0000012000E0002030BD1AB183890B4383818A
:102F100002E083898B43838170470000002202888E
:102F2000184B98420ED0184B98420BD0B0F1804FFE
:102F300008D0164B984205D0154B984202D0154B3D
:102F4000984204D14FF68F731A404B881A43124BA4
:102F5000984207D0114B984204D04FF6FF431A40D5
:102F60000B891A4302804B68C3620B880385054BAB
:102F7000984202D0044B984201D18B7A03860123F8
:102F800083827047000001400004014000040040BB
:102F900000080040000C00400010004000140040F9
:102FA00010B540F225511D4800F04AF810B31B48F7
:102FB00000F000F9C4B21A48008800F40040C8B913
:102FC0001748008800F4804060B10A2C03D000202C
:102FD0001349088020E01248008840F4004010495E
:102FE000088019E00D2C06D10D48008840F480407F
:102FF0000B49088010E00A480088C0F30D00094919
:103000000C5407480088401C054908800846008881
:10301000C72801DD0020088010BD0000001001401D
:10302000E00A0020F40A002021B1828942F4005213
:10303000828104E082894DF6FF731A4082817047D5
:1030400070B50246002400230025002040F66A16D1
:10305000B14200D100BFC1F3421501F01F030126A8
:1030600006FA03F3012D02D19689334006E0022DC2
:1030700002D1168A334001E0968A33400C120126B1
:1030800006FA04F41688344013B10CB1012000E0B4
:10309000002070BDF0B50346002400260025002066
:1030A00040F66A17B94200D100BF1846C1F3421476
:1030B00001F01F06012707FA06F5012C01D10C309B
:1030C00004E0022C01D1103000E014301AB107687E
:1030D0002F43076002E00768AF430760F0BD0000C0
:1030E0002DE9FF4705460E460024A14600BFA04635
:1030F000B08900B100BF2C8A24F44054F088044306
:103100002C82AC8941F20C608443B0883189084339
:10311000718908430443AC81AC8A24F44074B089BB
:103120000443AC826846FFF7B9F82048854202D0D4
:103130001F48854202D1DDF80C9001E0DDF80890CF
:10314000A88900F4004040B109EBC90000EB091068
:1031500031684900B0FBF1F707E009EBC90000EB6B
:10316000091031688900B0FBF1F76420B7FBF0F07B
:1031700004012009642101FB1078A88900F40040B3
:1031800040B1322000EBC800B0FBF1F000F00700C6
:10319000044308E0322000EB08106421B0FBF1F09A
:1031A00000F00F0004432C81BDE8FF8700100140B0
:1031B0000014014001468888C0F30800704700BF32
:1031C000FEE703B401984100009850EAC12018BFFF
:1031D00004204A0D18BF40F0010040F2FF72B2EB2C
:1031E000515F08BF40F00200012808BF052002B06F
:1031F000704700BF7047000010B504466FF0040030
:10320000FFF7F2FBE11704EB5171C1F3C701074A65
:1032100011701046007800EB4001C1EBC0104FF672
:10322000FF7101EAC0000249088010BDD80A0020E1
:10323000DA0A002070B504464FF4077094FBF0F0F2
:10324000C6B24FF4077094FBF0F100FB114085B259
:1032500005E04FF4077000F009F8701EC6B2002EAA
:10326000F7D115B1284600F001F870BD0146114AAA
:1032700012884A434FF0E0235A6100229A611A46AD
:10328000126942F001021A6100BF4FF0E02210699A
:1032900000F001021AB100F48032002AF5D04FF09C
:1032A000E022126922F001024FF0E0231A610022AD
:1032B0009A617047DA0A002000BF054A128802F0BE
:1032C0004002002AF9D0C2B2014B9A807047000038
:1032D0000010014002468A4201DB0846704748421E
:1032E000824201DC4842F9E71046F7E74FF4A0605C
:1032F000FEF788FF4FF4E13000F060F8A820FFF7F8
:103300007BFFFEF707FDFEF737F8FEF767F9FEF7DC
:1033100039FB4FF4C8710720FEF734F942F2CF01B0
:1033200040F2CF70FFF7A2FDFFF7D8FA9FED160A23
:10333000164880ED000A9FED160A164880ED000A37
:103340009FED130A144880ED000A9FED0F0A134801
:1033500080ED000A9FED120A124880ED000A9FEDF1
:10336000120A124880ED000A9FED070A104880ED0E
:10337000000A00200F4908700F49087003E0FEF7AB
:10338000FDF8FEF76DF9FAE7C3F5C83F1800002015
:10339000000000001C00002020000020240000206D
:1033A0001F858B3F28000020E17AB43F2C000020CD
:1033B00030000020340000203500002010B588B017
:1033C000044601210846FEF729FF01211020FEF7DF
:1033D00045FF072209212248FEF767F807220A2144
:1033E0001F48FEF762F84FF4C060069002208DF887
:1033F0001C008DF81D0000208DF81E0001208DF8A6
:103400001F0006A91648FEF708F802940020ADF840
:103410000C00ADF80E00ADF81000ADF814000C2053
:10342000ADF8120002A90F48FFF75AFE01210D481E
:10343000FFF7FAFD012240F225510A48FFF72AFE64
:1034400025208DF8040003208DF805008DF8060076
:1034500001208DF8070001A8FEF798FE08B010BD06
:10346000000002400010014010B500290AD0087881
:10347000002807D005487844FDF7C6FA002801D097
:10348000002010BD0248784410BD00005A0400001E
:103490005204000021F00042A2F16052B2F5801FF8
:1034A00001F0004328BFD2F17F6C0BD95FEA001C0A
:1034B00043EAC20242EB507018BF704728BF20F0A9
:1034C00001007047B2F5801FBCBF184670474FEA35
:1034D000410C1CF5001F02D2084600F097B970B5E8
:1034E00000F0CAF800000089FFF7F6BF4FF0004077
:1034F000A0F58000704710F0004248BF4042B0FA8B
:1035000080F310FA03F10AD0C3F11D0303F58063C1
:103510004FEA415002EB035202EBD12170474FF0CA
:1035200000007047DFF848C170B51CEA111E1EBFCD
:103530001CEA13159EEA0C0F95EA0C0F00F06F8041
:1035400081EA030423EA4C134EEAD47E21EA4C11AB
:1035500041F4801143F48013AE44A1FB024CA0FB64
:103560000365AEF17F7E361955EB0C05A1FB034CCC
:103570004CF10003A0FB021C16EB0C06654153F155
:103580000003094218BF46F0010613F4007F0BD177
:103590004FEA03314FEA0530340341EA155140EA5E
:1035A00016506FF003020AE04FEAC3214FEAC5202C
:1035B000F40241EA555140EA56506FF0020202EB24
:1035C0002E4201EB025585EACE710AD05FEA440C27
:1035D00018BF24F0004450F1000041F1000120EA3E
:1035E000D47040F2FE7C624500D270BDA84214BF88
:1035F0004FF080444FF04044002E08BF0024BEF13D
:10360000806FA8BFA1F1C041BDE8704080F2828008
:103610004FF0000001F1C04101F0004170479EEA07
:103620000C0F0CEA131518BF95EA0C0F06D04FF0DB
:10363000000081EA030E0EF0004170BD00F01CF89E
:103640008900013E00F007B800F009B84FEA430CCA
:103650005FEA5C5C08D081EA030100F05BB84FEAE6
:10366000410C5FEA5C5CF6D14FF000000149704705
:103670000000FF070000F87F0EF1020E2EF0030E8F
:103680005EF8046B364205D4012A43EB030515F5B9
:10369000001F12D8012841EB010C1CF5001F0CD8AB
:1036A0000ED14FEAD17C15F5001F0CEB4C0C0CF140
:1036B000020C08BF4CEBD37C04E04FF0080C01E097
:1036C0004FEAD37C0CEB4C0526FA05F606F007060C
:1036D000B6F1040C06D20EEB860CBDE870404CF03F
:1036E000010C6047DFE80CF0090B02024FF00041CB
:1036F0004FF00000A1F5002170BD194610460128C9
:1037000051EB010418BFD4F5001484BF002001F070
:10371000004170BD0808A0F500114FEA3101704763
:1037200043004FEAD30C4FEA3C0C43401FBF400715
:103730000CF1605113F0FE4F70471CF0006F03D185
:1037400000200CF0004170470CF0004343EA507039
:1037500010B540EACC0000F00EF800BF0000009267
:103760004FEA0001FFF7D6BF4FF000414FF00000D5
:10377000A1F5002170470EF1020E2EF0030E5EF847
:10378000044B244204D44FEA4102B2F17F4F11D8D6
:103790004FEA4003B3F17F4F0CD80ED14FEAD07CF3
:1037A000B2F17F4F0CEB4C0C0CF1020C08BF4CEB50
:1037B000D17C04E04FF0080C01E04FEAD17C0CEB27
:1037C0004C0324FA03F404F00704B4F1040C06D209
:1037D0000EEB840CBDE810404CF0010C6047DFE8B4
:1037E0000CF0070802024FF00040A0F5800010BD69
:1037F0000846420018BFD2F1807288BF00F0004036
:1038000010BD4FF04070E1EE100A7047FF2141EA11
:10381000D050C0057047FCF77ABE0000024000009F
:10382000000000A00000000005400000000000C8EB
:10383000000000000C4000000000409C0000000060
:10384000194000000020BCBE000000003440000011
:10385000BFC91B8E00000004B5400000504BCFD004
:103860006607E2CF010000006C4100003E8251AAD1
:10387000DFEEA73401000000D9420000DCB5A0E271
:103880003A301F97FFFFFFFFB4450000FD25A0C899
:10389000E9A3C14FFFFFFFFFFF3F000000000080D2
:1038A00000000000FF3F000000000080000000005A
:1038B000EC38000800000020F40A0000C4010008F1
:1038C000903F0008F40A00202C07000020020008A6
:1038D0001C00000043000000F8FFFFFF0C00000088
:1038E0000E0000000F0000002E0000008112FF8279
:1038F00008043FFE0D0A1B0404033901C146107081
:103900003030402D2424247E042C48484817400E93
:10391000103C52525050301C1252523C10500C224B
:10392000525454582A0D15152522E00C6E91192970
:1039300025760A1212120C25020404063E402010BD
:103940001008011C101020612B02040A29015508DF
:10395000080402780808086B1C1C6B08E3191C1A81
:10396000FE0499450111A27ECA06201A0232496D51
:103970002A206F214C182442015324185BFC30018B
:10398000533C30500CFEC60C183060C0C6C6C67C16
:10399000500C3C4242402018204042423C500CF81F
:1039A0002020FE22242428303020480B1C224240B4
:1039B00040221E020202851B38445C5D463A020228
:1039C0006069EC4B2042201950197B298549501F12
:1039D000182440405C620F4B221C103937490639CD
:1039E0003E490891480A402010080402040810CFFC
:1039F00051195A495D29F1391B392569501A107F2F
:103A00006A46702D3C423A55015A5A701AE77A5E5E
:103A10003C241414186A2B1F228C6E1E2222221F93
:103A2000E02A01018C42427C2029015920500C3FA0
:103A300042420212121E1212423FBC070202101E24
:103A40001C22222171404B22228019702C42427E7E
:103A50000552E71A3EE34901323E1B0F11AD5901F1
:103A60004970500C77222212120A0E0A1222771B7A
:103A70007F4261390152071B6B2A012A3601492016
:103A8000580C4762625252524A4A4646E3804A41C3
:103A90000159F029A02B023E8039A0BD601C324D97
:103AA000202BC74271292149C0190A480840201813
:103AB00004024242906A1CAF53497F2A3C4B3901B1
:103AC00049D068090808181414242422101A140173
:103AD0002A36A4532A6B580AE742242418181824BB
:103AE000242049505C141422E0400C3F424204045C
:103AF00008101020217E6A786F290112781808407A
:103B00004020202010100C35040404029B1E1001DC
:103B1000E21E132418021CFF3308065E6C32222CAE
:103B200030FC411B1A26CB66261A02020390083885
:103B30004402020244382BDC62EC657C4040609019
:103B4000083C42027E42423C3A3EAA4D3E08483082
:103B50001E9008423C021C22227C2AE73F7B463A08
:103B6000604930220E2B0C0CCF1A22E0190119707B
:103B70003A304111D8087722120E0A1272302933D6
:103B800052082BB79201DA7F60923B1982190169C2
:103B9000A04B0702E0721B1DE0405864109364586C
:103BA0001B1F04018B4C77D08E42403C0242C04B1D
:103BB0003048E0497E212BDC626092638F08081454
:103BC00014222240900824242A5A5291DB7008764D
:103BD00024181818246E1C0608080E942442E78046
:103BE000087E44080810227E2BC020013A100613DC
:103BF00020C0DA1001112A03AF3B040806E30403D6
:103C00002049205A04CEBBB8B4A1A4D0A1D4AED2CE
:103C1000BBC2B7BBF0BBA8B4F8C9C1B5E7A3A1BF8D
:103C2000AABBFABFECCBD9D0FDD7AACDA3D6B9D7C2
:103C3000A6D7D3BACFD6E1CFF2B0DAB6AFB6FEBCD4
:103C4000B6B1DBB5D7D7F9D6D020380918FFF80CB4
:103C5000180D9819021730DB30DE301C141C7FF869
:103C600010141806300630033070070E3801C002F9
:103C70002604180FF01E200FF808080414090FFA84
:103C800014043FF81A0802B10511018001801240A6
:103C900012A012802810804081408240842084201D
:103CA0008810880888124902100D60C21B15042470
:103CB0000A4411441F84100A877FEC011401043F59
:103CC000C4000A101F1484224403E43C04E37FFF71
:103CD00012112F1F07113A110A0210141F3A60889F
:103CE00011080A08043E0AA211221E22023E0210F6
:103CF0001160031004080804100220022001400192
:103D0000421D84048408846A10842016087E0841B9
:103D100008412841480189010A030C0508091011CE
:103D200010280904107FFF04100410241C04880AC2
:103D3000B41E08880FF820C61B7FFE1E2E9004902C
:103D40003FFE062C1002285B580C0224122422226B
:103D5000422142208202130220133FE813047F28ED
:103D60000B4080408050841FFC10840289085980D9
:103D7000411A08026908C902111F04020404040858
:103D800002198C2902499649021A3F8A111C28708F
:103D900048011808884888088908AA021C9C088CD1
:103DA000AC3ABFB012882E08602810480C180B05DA
:103DB00008050802087FE9120A021F2A12181FC804
:103DC00002101A0262137FE2201B1402082228123A
:103DD000480A8807081FC8124F12401FC002083F38
:103DE000E8020402180B517CAA06A2052405243D12
:103DF0000410090524243C24043F84127F18098000
:103E00007F08010801040801181704080A0A110FA5
:103E100020383F880108023F7FC9020A04023FBFE1
:103E2000B819011D01040284481902171FC4401467
:103E30007FF41008051FC610461FC41A04601942FB
:103E4000198012FFAA88024A1F084A8002A810405F
:103E50000120421042104408440848084804021354
:103E6000F81F193F12406AA02C2902194E15800133
:103E700080021A041C231FFE2D08080FF8A4290134
:103E8000430FF8280B67F3180C0410022001403090
:103E9000380D20883F882488248A248F24B80A4833
:103EA0000ABF2489248A3F82043FC0580C1002288C
:103EB000022002222223E222011C23E22012133FCD
:103EC000FE1210122018204040847FCA208811085A
:103ED00002087FE8040B040C3F98042804087FDFE5
:103EE0004A484A487FC87F280F20144020A220BF9C
:103EF0002122211221042202137F221A3FA21B0237
:103F00003E047119B6F1631FFC181E418022221471
:103F100047085814801482229F22822104390809FC
:103F20001F1112110421043F603A0CD8690419F0E2
:103F30001819443F7C08457F7E1404227C7F440886
:103F40007C4421626250A2482404022D7FE40224B2
:103F5000021503E43C0425047FFC011A807C1CFD4F
:103F6000010202280C041FF40104238C15540924B7
:103F7000026A012059026F10841FFC108402199EEE
:103F8000691A012D2D010203040425060708090002
:040000050800018965
:00000001FF
