:020000040800F2
:100000008813002071020008651100087F080008AD
:10001000811000082D0700085B1C0008000000008C
:100020000000000000000000000000006113000854
:100030003107000800000000F51100089D170008B6
:100040008B0200088B0200088B0200088B0200085C
:100050008B0200088B0200088B0200088B0200084C
:100060008B0200088B0200088B0200088B0200083C
:100070008B0200088B0200088B0200088B0200082C
:100080008B0200088B0200088B0200088B0200081C
:100090008B0200088B0200088B0200088B0200080C
:1000A0008B0200088B0200088B0200088B020008FC
:1000B0008B0200088B0200088B0200088B020008EC
:1000C0008B0200088B0200088B0200088B020008DC
:1000D0008B0200083D1A00088B0200088B02000802
:1000E0008B0200088B0200088B0200088B020008BC
:1000F0008B0200088B0200088B0200088B020008AC
:100100008B0200088B020008091800088B02000807
:100110008B0200088B0200088B0200088B0200088B
:100120008B0200088B0200088B0200088B0200087B
:100130008B0200088B0200088B0200088B0200086B
:100140008B0200088B0200088B0200088B0200085B
:100150008B0200088B0200088B0200088B0200084B
:100160008B0200088B0200088B0200088B0200083B
:100170008B0200088B0200088B0200088B0200082B
:100180008B0200088B02000800F002F800F061F812
:100190000AA090E8000C82448344AAF10107DA45E2
:1001A00001D100F056F8AFF2090EBAE80F0013F0D3
:1001B000010F18BFFB1A43F001031847A41C0000ED
:1001C000C41C00000A444FF0000C10F8013B13F06F
:1001D000070408BF10F8014B1D1108BF10F8015BA0
:1001E000641E05D010F8016B641E01F8016BF9D193
:1001F00013F0080F1EBF10F8014BAD1C0C1B09D1EA
:100200006D1E58BF01F801CBFAD505E014F8016B5B
:1002100001F8016B6D1EF9D59142D6D370470000ED
:100220000023002400250026103A28BF78C1FBD8FF
:10023000520728BF30C148BF0B607047642900F0E7
:100240008180002070471FB501F004FE1FBD10B56E
:1002500010BD00F030F91146FFF7F5FF01F07DFD0C
:1002600000F04EF903B4FFF7F2FF03BC01F0F7FC16
:100270000948804709480047FEE7FEE7FEE7FEE73A
:10028000FEE7FEE7FEE7FEE7FEE7FEE70448054976
:10029000054A064B70470000A117000889010008B5
:1002A000880D002088130020880F0020880F002070
:1002B000704700000FB41CB5074B06AA7B44694683
:1002C0000090059800F0DFF80020694600F0EEF895
:1002D0001CBC5DF814FB0000ED0100002DE9F041AD
:1002E0000E460446002020622046E168884730B36D
:1002F000252805D0D4E901219047206A401CF2E767
:10030000E168204600278847050018D0A5F1410084
:10031000192802D820354FF4006732462946204676
:100320002760FFF78BFF40B1012804D0F61D26F0AF
:1003300007060836D8E7361DD6E72846DAE7206AEA
:10034000BDE8F0812DE9F0410646002410687529CA
:10035000314616A510D0AFF30080002802DA4042E3
:1003600013A507E031688A0701D512A502E0490705
:1003700004D511A5012401E0AFF3008000210A2279
:1003800006F1240709E0B0FBF2FCB0FBF2F302FB3C
:100390001C00303078541846491C0028F3D12346FD
:1003A0002A463046BDE8F04100F00EB800000000DB
:1003B0002D0000002B0000002000000001F0B2BC66
:1003C00070477047704770472DE9F0470D469946D2
:1003D0009246044600F124080168880604D5E069C5
:1003E00021F01001216000E00120A84201DD471B3F
:1003F00000E00027A1697A1902EB0900081AA06140
:100400002078C00602D42046AFF30080002608E022
:10041000D4E901211AF806009047206A401C761C96
:1004200020624E45F4DB2078C0060AD52046AFF3A3
:10043000008006E0D4E9012130209047206A401C6A
:100440002062381EA7F10107F4DC07E0D4E901219E
:1004500018F805009047206A401C2062281EA5F16C
:100460000105F3DC2046AFF300802078000602D5BA
:100470000220BDE8F0870120FBE7000001694A1C6B
:1004800002610878704700B58FB0CDE901310021D5
:10049000059105497944CDE9031011466846FFF7F7
:1004A0001DFF0FB000BD0000E5FFFFFF0A6802F866
:1004B000010B0A607047754600F028F8AE4605004B
:1004C0006946534620F00700854618B020B5FFF76F
:1004D000DDFEBDE820404FF000064FF000074FF072
:1004E00000084FF0000B21F00701AC46ACE8C00952
:1004F000ACE8C009ACE8C009ACE8C0098D4670475B
:100500000446AFF300802046FFF7ACFE004870477A
:10051000280D002021B1826842F00102826003E0D0
:10052000826822F001028260704700000021084AC0
:100530001168084A1140D0E900231A4383681A431E
:10054000C3681A431143044AC2F8041370470000F9
:1005500004230140E030FCFF002001400146C86C4C
:1005600080B270470246002013680B400BB1012097
:1005700000E000207047000030B502460020002354
:100580005068104C20400D790C6844EA0524204343
:10059000506090680C4C2040D1E903542C438D6886
:1005A0002C434D7944EA450420439060D06A20F4FE
:1005B00070000C7D641EE4B2234340EA0350D06215
:1005C00030BD0000FFFEFFFCFDF7FFC0F0B50446A4
:1005D0000D4600200021092D11DDE068A5F10A0675
:1005E00006EB4607072606FA07F18843A5F10A0637
:1005F00006EB460603FA06F10843E0600CE02069CA
:1006000005EB4507072606FA07F1884305EB450683
:1006100003FA06F108432061072A0FDA606B561EC1
:1006200006EB86071F2606FA07F18843561E06EBDF
:10063000860605FA06F10843606322E00D2A0FDA08
:10064000206BD61F06EB86071F2606FA07F18843A4
:10065000D61F06EB860605FA06F10843206310E074
:10066000E06AA2F10D0606EB86071F2606FA07F1DF
:100670008843A2F10D0606EB860605FA06F108434B
:10068000E062F0BD816841F0804181607047000008
:1006900000B58DB00121042000F0AEFD0121084617
:1006A00000F0AAFD0121080200F0C6FD0C20059013
:1006B00003208DF8180000208DF81B0005A91848AC
:1006C00000F037F83020059005A9164800F031F801
:1006D0000121080200F0C0FD00214FF4807000F0FD
:1006E000BBFD00200190049003904FF480300290F5
:1006F00001A8FFF71BFF002007908DF820008DF860
:10070000210009900B9001208DF8300007A90648C0
:10071000FFF732FF01210448FFF7FCFE0DB000BDDA
:1007200000080240000002400020014000BFFEE738
:100730007047F0B50A4600210023002400BF3DE0C9
:10074000012505FA01F3156805EA03049C4234D13A
:1007500005684F000326BE40B543056015794E007D
:10076000B5400668354305601579012D02D015792D
:10077000022D16D185684F000326BE40B543856023
:1007800055794E00B5408668354385604568012639
:100790008E40B5434560456896798E40B6B2354384
:1007A0004560C5684F000326BE40B543C560D57996
:1007B0004E00B540C6683543C560491C1029BFD3FB
:1007C000F0BDF0B5002300244D07ED0E02FA05F34D
:1007D000CE1000F1200555F826504E07F70E0F26D3
:1007E000BE40B543CF1000F1200646F82750CE108A
:1007F00000F1200555F8265045EA0304CE1000F11B
:10080000200545F82640F0BD0246002013690B4044
:100810000BB1012000E000207047418370470000C9
:1008200010B504460723012221460848FFF7CEFEF3
:100830000648FFF727FF00BF02210448FFF792FE9A
:100840000028F9D00148FFF789FE10BD00200140C3
:100850002DE9F04107460C460025002608E0384601
:10086000FFF7DEFF0544052001F01AFA701CC6B23E
:10087000A642F4DBB5FBF4F080B2BDE8F08100BF26
:10088000FEE700004CF6CC400149086070470000CC
:100890000030004010B500F013F810BD70B50546EB
:1008A0000C4645F2555000F01FF8284600F010F8AD
:1008B000204600F013F800F003F8FFF7E3FF70BDE7
:1008C0004AF6AA2001490860704700000030004045
:1008D00001494860704700000030004001498860CD
:1008E0007047000000300040014908607047000078
:1008F000003000401CB50121072000F07DFC0920DC
:10090000009000208DF8040003208DF805000220DF
:100910008DF8070069461548FFF70BFF012000908E
:1009200002208DF8070069461148FFF702FF41F2E7
:100930000200009001208DF8070069460C48FFF77F
:10094000F8FE4FF40050009001208DF80700694632
:100950000848FFF7EEFE4020009001208DF80700C8
:1009600069460248FFF7E5FE1CBD0000000002409A
:10097000000802400004024010B54FF48051364890
:10098000FFF742FF98B9322001F08AF94FF4805105
:100990003148FFF739FF00285DD1322001F080F99E
:1009A00001202E494870322001F07AF953E04FF4CB
:1009B00000512B48FFF728FF98B9322001F070F959
:1009C0004FF400512648FFF71FFF002843D1322083
:1009D00001F066F9132021494870322001F060F9D6
:1009E00039E002211C48FFF70FFFB8B9322001F0AF
:1009F00057F902211848FFF707FF60BB322001F0CA
:100A00004FF9252015494870322001F049F9154861
:100A10000068C0431449C1F890021CE0402113480B
:100A2000FFF7F2FEB8B9322001F03AF940210F4841
:100A3000FFF7EAFE78B90B48001D0068C0430A4979
:100A4000C1F89402322001F02BF937200349487095
:100A5000322001F025F910BD0008024000000020FE
:100A60000004024090824042008040420000024068
:100A700000B5002000F008F900BD00002DE9F84F96
:100A800004460E4617469B460025A8464FF0010A2D
:100A9000C4F10700C4B2C6F10400C6B261E000258B
:100AA0004FF0010A12E03248405D17F80810884202
:100AB0000AD12F49681C095C08F10100385C8142A9
:100AC00002D14FEA051A05E0A81CC5B22848405DCE
:100AD0008328E8DC00BFBAF1010F3CD006F1010C1D
:100AE0004FF0010ECEEB0C1C0CF0FF0304F1010CD7
:100AF000CEEB0C1C0CF0FF024FEA067C4FEA1C61A7
:100B00004FEA047C4FEA1C6000F097F80020009048
:100B10001EE04FF0000912E0164810F80A0080218C
:100B200041FA09F1084018B1584600F005FA02E010
:100B30000A9800F001FA09F1010000F0FF09B9F18B
:100B4000080FE9DB0AF1010A0098401CC0B20090CE
:100B500000982028DDDB601EC4B208F1020000F01E
:100B6000FF0817F80800002899D1BDE8F88F0000A9
:100B700003060020620600202DE9F04F04460D46D2
:100B800090469946DDF824A005F1010C4FF0010BC9
:100B9000CBEB0C1C0CF0FF0304F1010CCBEBCC0CE9
:100BA0000CF0FF024FEA057C4FEA1C614FEAC46C6F
:100BB0004FEA1C6000F041F8002718E0002612E020
:100BC000A8F120000C4901EB0010C05D80213141EB
:100BD000084018B1484600F0AFF902E0504600F076
:100BE000ABF9701CC6B2082EEADB781CC7B2102F16
:100BF000E4DBBDE8F08F0000130000202DE9F84190
:100C000005460E4614461F46DDF81C80C5F10F0050
:100C1000C5B2C6F10400C6B20AE0CDF8008014F8EF
:100C2000012B28466B1EDDB23B463146FFF7A4FF81
:100C300020780028F1D1BDE8F881F0B507460C46D0
:100C400015461E462A2000F04BF9002000F0CCF992
:100C5000384600F0C9F9002000F0C6F9284600F037
:100C6000C3F92B2000F03CF9002000F0BDF920462C
:100C700000F0BAF9002000F0B7F9304600F0B4F9FE
:100C80002C2000F02DF9F0BD70B5064642238422D9
:100C900000210846FFF7D1FF002408E0002503E00B
:100CA000304600F049F96D1C422DF9D3641C842CA8
:100CB000F4D370BD1CB50121022000F09DFA49F269
:100CC0000340009001208DF8040000208DF80600FC
:100CD00003208DF8050001208DF8070069467D4846
:100CE000FFF727FD01207C4908607C49C1F8BC0260
:100CF00079492431086078492C3108600020764910
:100D0000091F0860C82000F0CBFF01207349C1F81B
:100D10008002322000F0C4FF112000F0E1F86420CE
:100D200000F0BEFFB12000F0DBF8052000F05CF918
:100D30003A2000F059F9362000F0D2F8082000F0EF
:100D400053F9B22000F0CCF8052000F04DF93A201C
:100D500000F04AF9B32000F0C3F8052000F044F990
:100D60003A2000F041F9052000F03EF93A2000F069
:100D70003BF9B42000F0B4F8002000F035F9C020B1
:100D800000F0AEF8AA2000F02FF90A2000F02CF9AC
:100D9000842000F029F9C12000F0A2F8C02000F062
:100DA00023F9C22000F09CF80D2000F01DF900206E
:100DB00000F01AF9C32000F093F88D2000F014F928
:100DC0002A2000F011F9C42000F08AF88D2000F0EC
:100DD0000BF9EE2000F008F9C52000F081F806209C
:100DE00000F002F9E02000F07BF8062000F0FCF8AB
:100DF0001C2000F0F9F8102000F0F6F8142000F0A4
:100E0000F3F8302000F0F0F82B2000F0EDF824206B
:100E100000F0EAF8292000F0E7F8282000F0E4F8D4
:100E2000262000F0E1F82E2000F0DEF8392000F056
:100E3000DBF8002000F0D8F8022000F0D5F80120FF
:100E400000F0D2F8102000F0CFF8E12000F048F8D0
:100E5000062000F0C9F81C2000F0C6F8102000F0B1
:100E6000C3F8142000F0C0F8302000F0BDF82B20AB
:100E700000F0BAF8242000F0B7F8292000F0B4F808
:100E8000282000F0B1F8262000F0AEF82E2000F067
:100E9000ABF8392000F0A8F8002000F0A5F80220F7
:100EA00000F0A2F8012000F09FF8102000F09CF85C
:100EB0003A2000F015F8052000F096F8292000F0FF
:100EC0000FF80A2000F0ECFE4FF47840FFF7DCFE4C
:100ED0001CBD000000040240848240420080404269
:100EE0000022134B1A60134BC3F8B022002118E004
:100EF00000220F4B24331A6000F08002802A04D1B4
:100F000001220B4B38331A6003E00022084B3833C0
:100F10001A600122064B24331A604206100E4A1C46
:100F2000D1B20829E4DB0122014B2C331A6070474F
:100F3000848240420080404210B502460123284C82
:100F400023600023274CC4F8B032C2F307210020ED
:100F500018E00023224C2434236001F08003802B0E
:100F600004D101231E4C3834236003E000231C4CC1
:100F70003834236001231A4C243423604B06190EA5
:100F8000431CD8B20828E4DB0123154C2C34236021
:100F9000D1B20023134CC4F8B032002018E0002373
:100FA0000F4C2434236001F08003802B04D10123F3
:100FB0000B4C3834236003E00023094C38342360A1
:100FC0000123074C243423604B06190E431CD8B26E
:100FD0000828E4DB0123024C2C34236010BD000000
:100FE00084824042008040420122144B1A60002259
:100FF000134BC3F8B022002118E000220F4B24331A
:101000001A6000F08002802A04D101220B4B383391
:101010001A6003E00022094B38331A600122074BA3
:1010200024331A604206100E4A1CD1B20829E4DBB0
:101030000122024B2C331A60704700008482404228
:10104000008040421CB50121022000F0D5F8782034
:10105000009001208DF8040000208DF80600032088
:101060008DF8050001208DF8070069460348FFF759
:1010700060FB78210148FFF7D0FB1CBD0004024053
:1010800000BFFEE710B53048B0F900002F490880D6
:101090002F48B0F900002F49088001212E48FFF7A2
:1010A000B3FB012815D12949B1F9001001F1640001
:1010B00000EBD0714910323109B2244A1180254821
:1010C0000088643000B22349088001202349087059
:1010D00039E001212248FFF797FB012811D11B4875
:1010E0000088643000B2194908801A4800886421D9
:1010F00001EB400000B21749088002201749087030
:1011000021E008211648FFF77FFB012813D10F4883
:101110000088642101EB400000B20C4908800D48B2
:101120000088642101EB800000B20A490880032096
:101130000A49087007E064200449088005490880CE
:1011400000200649087010BD080000200E00002095
:101150000A000020100000200008024012000020B9
:10116000000002407047000070B5002100230F22EC
:10117000C4781CB3174C246804F4E064C4F5E0643C
:10118000C4F30721C1F10404E3B20A4144789C404E
:10119000E1B28478144021430C07210E0E4C0578EF
:1011A0006155047804F01F050124AC4005786D11E9
:1011B000AD0005F1E025C5F8004109E0047804F030
:1011C0001F050124AC40054D0678761145F82640F0
:1011D00070BD00000CED00E000E400E080E100E004
:1011E00002490143024A1160704700000000FA05FD
:1011F0000CED00E07047000029B1064A1268024376
:10120000044B1A6004E0034A12688243014B1A60DF
:10121000704700003038024029B1064A1268024384
:10122000044B1A6004E0034A12688243014B1A60BF
:10123000704700004038024029B1064A1268024354
:10124000044B1A6004E0034A12688243014B1A609F
:10125000704700004438024029B1064A1268024330
:10126000044B1A6004E0034A12688243014B1A607F
:101270007047000024380240F0B50021002200240D
:10128000022500260223324F3F6807F00C0121B1EE
:10129000042905D0082937D105E02E4F076036E034
:1012A0002D4F076033E02A4F3F1F3F68C7F380563A
:1012B000274F3F1F3F6807F03F036EB1264FB7FB34
:1012C000F3F7DFF88CC0ACF1040CDCF800C0CCF311
:1012D000881C07FB0CF40CE01E4FB7FBF3F7DFF89C
:1012E00070C0ACF1040CDCF800C0CCF3881C07FB28
:1012F0000CF4174F3F1F3F68C7F301477F1C7D0069
:10130000B4FBF5F7076002E0124F076000BF00BFB3
:101310000F4F3F6807F0F0010909104F7A5C07682A
:10132000D74047600A4F3F6807F4E051890A0B4FE6
:101330007A5C4768D7408760054F3F6807F4604193
:10134000490B064F7A5C4768D740C760F0BD000084
:10135000083802400024F40000127A004E0C0020ED
:10136000704700000CB500200190009034480068E0
:1013700040F480303249086000BF3148006800F412
:10138000003000900198401C0190009818B9019815
:10139000B0F5A04FF1D12A48006800F4003010B138
:1013A0000120009001E0002000900098012846D123
:1013B00023484030006840F08050214940310860A7
:1013C0002048006840F440401E4908601C4808302E
:1013D00000681B49083108600846006840F4004076
:1013E00008600846006840F4A05008601648091FCD
:1013F0000860081F006840F08070091F086000BF87
:101400000F48006800F000700028F9D040F2057025
:101410000E4908600A480830006820F003000849B7
:10142000083108600846006840F00200086000BF0C
:1014300003480830006800F00C000828F8D10CBD03
:10144000003802400070004008544007003C024051
:1014500030B589B075480078643844B27448007873
:10146000643845B2002C0ADD224672A101A8FEF7BD
:1014700021FF00226FA103A8FEF71CFF09E06242D2
:101480006CA103A8FEF716FF00226AA101A8FEF7CF
:1014900011FF002D0ADD2A4666A107A8FEF70AFF04
:1014A000002264A105A8FEF705FF09E06A4261A1D8
:1014B00005A8FEF7FFFE00225EA107A8FEF7FAFED0
:1014C00000204FF6E0735CA2012100900846FFF770
:1014D000D5FA00204FF6FF7358A201210090042096
:1014E000FFF78CFB00204FF6E07355A2012100901E
:1014F0000420FFF7C3FA00204FF6FF734FA201212B
:1015000000900A20FFF77AFB00204FF6E0734DA20F
:10151000032100900120FFF7B1FA00204FF6FF737E
:1015200046A2032100900420FFF768FB00204FF63D
:10153000E07345A2032100900420FFF79FFA0020EA
:101540004FF6FF733DA2032100900A20FFF756FBE0
:1015500000204FF6E0733DA2042100900220FFF727
:101560008DFA00204FF6FF7334A20421009008206A
:10157000FFF744FB00204FF6FF7307AA01210090FC
:101580000520FFF73BFB00204FF6FF7305AA012162
:1015900000900B20FFF732FB00204FF6FF7303AAE9
:1015A000032100900520FFF729FB00204FF6FF7371
:1015B00001AA032100900B20FFF720FB25480078AB
:1015C00048B900204FF6FF7323A2042100900520A4
:1015D000FFF754FA28E01F480078012809D10020BD
:1015E0004FF6E0731DA2042100900520FFF746FA94
:1015F0001AE018480078022809D100204FF6084365
:1016000017A2042100900520FFF738FA0CE01148DA
:101610000078032808D100204FF4784311A2042158
:1016200000900520FFF72AFA09B030BD0E00002017
:101630001000002025642000C7B000003A00000020
:10164000BAF30000D7F30000D3D20000B5B5CEBB8B
:101650000000000012000020CEDE0000B5CD00002A
:10166000D6D00000B8DF000008B50021354800F0F2
:101670007CF9FFF7FDF900204FF4784332A20121F5
:1016800000900220FFF7FAF9002040F2FF7331A228
:1016900002210090FFF7F2F900204FF6E07332A22A
:1016A00004210090FFF7EAF94FF4967000F0F8FA81
:1016B00000204FF6E0732EA2042100900620FFF7D1
:1016C0009DFA4FF4967000F0EBFAFFF7E3F8002074
:1016D0004FF6E07326A2042100900820FFF78EFA4F
:1016E0004FF4967000F0DCFA00204FF6E07320A271
:1016F000042100900A20FFF781FAC82000F0D0FAF8
:1017000000204FF6E0731AA2042100900C20FFF78E
:1017100075FAC82000F0C4FAFFF7BCF800204FF6B5
:10172000E07313A2042100900E20FFF767FAC8208F
:1017300000F0B6FAFFF79CF90121024800F015F914
:1017400008BD0000000C0040D0A1D4AED0A1D4AEA2
:1017500000000000D2BBC2B7BBF0BBA8B4F8C9C13F
:10176000B5E7A3A100000000BFAABBFAD6D00000D5
:101770002E2E0000042808D14FF0E021096941F025
:1017800004014FF0E022116107E04FF0E021096908
:1017900021F004014FF0E022116170477047000012
:1017A00010B51548006840F47000134908601348EC
:1017B000006840F001001149086000200F4908311D
:1017C00008600E4800680E4908400C4908600D4842
:1017D000091D0860081F006820F48020091F0860A8
:1017E000002006490C310860FFF7BCFD4FF0006097
:1017F00001498039086010BD88ED00E000380240E2
:10180000FFFFF6FE1030002470B50121344800F0CF
:10181000B8F8002863D00121314800F0A3F8052171
:101820000D20FFF715F8C0F50060C82190FBF1F01E
:1018300005B26421284600F083FA2A490880052170
:101840000846FFF705F8A0F50060C82190FBF1F00D
:1018500005B26421284600F073FA23490880FFF797
:1018600011FCFFF7F5FD2148C0782149B1F90010BE
:1018700088420AD11D4800791E49B1F900108842FA
:1018800003D11A484078FF2811D019480078174929
:10189000C870184800780871002406E01349085DF4
:1018A0001549FEF78BFD601CC4B2082CF6DB0F480F
:1018B0004078FF2802D0FF200C4948700F4800787C
:1018C000401C0E490870084600780A2807DD0020F1
:1018D00008700B480068C0430A49C1F88C0270BD0B
:1018E000000C0040080000200A000020000000203A
:1018F0000E00002010000020480C00200C000020EA
:101900008C824042008040427FB505460C46012152
:101910000820FFF781FC0295ADF804400020ADF8E7
:101920000600ADF80C0001A90D4800F045F80122B1
:1019300011460B4800F036F80121094800F015F86F
:1019400032208DF8000001208DF8010003208DF871
:10195000020001208DF803006846FFF705FC7FBDFB
:10196000000C0040CA430282704721B1028842F055
:101970000102028004E002884FF6FE731A400280E2
:10198000704730B50246002000230024158A05EA7E
:101990000103958905EA010413B10CB1012000E0AF
:1019A000002030BD1AB183890B43838102E0838913
:1019B0008B4383817047000000220288184B9842B5
:1019C0000ED0184B98420BD0B0F1804F08D0164B78
:1019D000984205D0154B984202D0154B984204D13D
:1019E0004FF68F731A404B881A43124B984207D018
:1019F000114B984204D04FF6FF431A400B891A430B
:101A000002804B68C3620B880385054B984202D065
:101A1000044B984201D18B7A03860123838270475D
:101A200000000140000401400004004000080040A4
:101A3000000C0040001000400014004010B540F2BF
:101A400025511D4800F04AF810B31B4800F000F97A
:101A5000C4B21A48008800F40040C8B9174800888A
:101A600000F4804060B10A2C03D0002013490880A4
:101A700020E01248008840F400401049088019E036
:101A80000D2C06D10D48008840F480400B49088099
:101A900010E00A480088C0F30D0009490C540748BB
:101AA0000088401C0549088008460088C72801DDD9
:101AB0000020088010BD0000001001404C0C0020E8
:101AC000600C002021B1828942F40052828104E03E
:101AD00082894DF6FF731A408281704770B50246C5
:101AE000002400230025002040F66A16B14200D1F0
:101AF00000BFC1F3421501F01F03012606FA03F3EC
:101B0000012D02D19689334006E0022D02D1168ABA
:101B1000334001E0968A33400C12012606FA04F4A1
:101B20001688344013B10CB1012000E0002070BDD4
:101B3000F0B50346002400260025002040F66A1771
:101B4000B94200D100BF1846C1F3421401F01F068C
:101B5000012707FA06F5012C01D10C3004E0022C14
:101B600001D1103000E014301AB107682F4307602C
:101B700002E00768AF430760F0BD00002DE9FF47B2
:101B800005460E460024A14600BFA046B08900B11C
:101B900000BF2C8A24F44054F08804432C82AC8982
:101BA00041F20C608443B08831890843718908434D
:101BB0000443AC81AC8A24F44074B0890443AC8201
:101BC0006846FFF759FB2048854202D01F488542EE
:101BD00002D1DDF80C9001E0DDF80890A88900F44E
:101BE000004040B109EBC90000EB09103168490021
:101BF000B0FBF1F707E009EBC90000EB0910316811
:101C00008900B0FBF1F76420B7FBF0F00401200974
:101C1000642101FB1078A88900F4004040B1322013
:101C200000EBC800B0FBF1F000F00700044308E04F
:101C3000322000EB08106421B0FBF1F000F00F003F
:101C400004432C81BDE8FF870010014000140140CF
:101C500001468888C0F30800704700BFFEE700BF58
:101C60007047000010B504466FF00400FFF782FDD6
:101C7000E11704EB5171C1F3C701074A1170104617
:101C8000007800EB4001C1EBC0104FF6FF7101EA94
:101C9000C0000249088010BD420C0020440C002006
:101CA00070B504464FF4077094FBF0F0C6B24FF4E1
:101CB000077094FBF0F100FB114085B205E04FF492
:101CC000077000F009F8701EC6B2002EF7D115B1EA
:101CD000284600F001F870BD0146114A12884A43B7
:101CE0004FF0E0235A6100229A611A46126942F0CD
:101CF00001021A6100BF4FF0E022106900F00102FA
:101D00001AB100F48032002AF5D04FF0E0221269B7
:101D100022F001024FF0E0231A6100229A6170471D
:101D2000440C002000BF054A128802F04002002A3D
:101D3000F9D0C2B2014B9A807047000000100140F8
:101D400002468A4201DB084670474842824202DC72
:101D5000484200B2F8E71046F6E74FF4A060FFF7FC
:101D60003FFAA820FFF77EFF4FF4E13000F01CF8A7
:101D7000FFF768F9FEF78CFCFEF7BCFDFEF79AFF53
:101D800042F2CF0140F2CF70FFF7BEFD4FF4C871B1
:101D90000720FEF783FDFFF767FC03E0FEF77AFDFF
:101DA000FEF7EAFDFAE7000010B588B0044601210D
:101DB0000846FFF721FA01211020FFF73DFA07221C
:101DC00009212248FEF7FDFC07220A211F48FEF7E1
:101DD000F8FC4FF4C060069002208DF81C008DF8CE
:101DE0001D0000208DF81E0001208DF81F0006A99F
:101DF0001648FEF79EFC02940020ADF80C00ADF8EA
:101E00000E00ADF81000ADF814000C20ADF8120073
:101E100002A90F48FFF7B2FE01210D48FFF752FE5D
:101E2000012240F225510A48FFF782FE25208DF855
:101E3000040003208DF805008DF8060001208DF8C0
:101E4000070001A8FFF790F908B010BD000002409C
:101E5000001001404FF04070E1EE100A70470000A2
:101E6000801E000800000020600C0000C401000873
:101E700008270008600C0020280700002002000846
:101E800000091EFFFF020A0AFE0D0A1B04040339A3
:101E900001C14610703030402D2424247E042C488B
:101EA000484817400E103C52525050301C125252AB
:101EB0003C10500C22525454582A0D15152522E07E
:101EC0000C6E91192925760A1212120C25020404AF
:101ED000063E4020101008011C101020612B020447
:101EE0000A29015508080402780908086B1C1C6BB4
:101EF00008088B1C1010FE0499450111A27ECA0629
:101F0000201A0232496D2A206F214C1824420153B5
:101F100024185BFC3001533C30500CFEC60C1830CA
:101F200060C0C6C6C67C500C3C42424020182040CF
:101F300042423C500CF82020FE222424283030203D
:101F4000480B1C22424040221E020202851B3844DC
:101F50005C5D463A02026069EC4B20422019501940
:101F60007B298549501F182440405C620F4B221C7E
:101F70001039374906393E490891480A402010086F
:101F80000402040810CF51195A495D29F1391B394F
:101F90002569501A107F6A46702D3C423A55015A05
:101FA0005A701AE77A5E3C241414186A2B1F228C8C
:101FB0006E1E2222221FE02A01018C42427C20292F
:101FC000015920500C3F42420212121E1212423F8F
:101FD000BC070202101E1C22222171404B222280CB
:101FE00019702C42427E0552E71A3EE34901323E07
:101FF0001B0F11AD59014970500C77222212120AA1
:102000000E0A1222771B7F4261390152071B6B2A8D
:10201000012A36014920580C4762625252524A4AFC
:102020004646E3804A410159F029A02B023E8039FF
:10203000A0BD601C324D202BC74271292149C01917
:102040000A480840201804024242906A1CAF5349D3
:102050007F2A3C4B390149D0680908081814142418
:102060002422101A14012A36A4532A6B580AE74274
:10207000242418181824242049505C141422E04009
:102080000C3F4242040408101020217E6A786F2918
:102090000112781808404020202010100C3504044C
:1020A00004029B1E1001E21E132418021CFF3308B9
:1020B000065E6C32222C30FC411B1A26CB66261A97
:1020C0000202039008384402020244382BDC62EC1E
:1020D000657C40406090083C42027E42423C3A3E71
:1020E000AA4D3E0848301E9008423C021C22227C29
:1020F0002AE73F7B463A604930220E2B0C0CCF1A60
:1021000022E0190119703A304111D8087722120ED5
:102110000A127230293352082BB79201DA7F60928B
:102120003B1982190169A04B0702E0721B1DE040B8
:102130005864109364581B1F04018B4C77D08E4257
:10214000403C0242C04B3048E0497E212BDC6260BB
:1021500092638F08081414222240900824242A5ADB
:102160005291DB70087624181818246E1C06080893
:102170000E942442E780087E44080810227E2BC07B
:1021800020013A10061320C0DA1001112A03AF3BD8
:10219000040806E304031062205A04B1B1BEA9CBBF
:1021A000D9B6C8D3EBBCA4C7E9BFC6BCBCCCD4B1BC
:1021B000A6B5EAD2BABEA7B5A5C6ACBBFAD6C7C407
:1021C000DCB3B5CEC2B6C8BAA3B0CEB2E2CAD4D0E0
:1021D000A3D7BCC8A1CFFBB0B4BCFCBEF8B6D4CF6B
:1021E000E0A3BAA1A3C7B0BAF3D7F3D3D2B5B5CEA3
:1021F000BBCEDEB8DFB5CDD6D03B06600248086660
:10220000066F7E7C06700E200B0E603E63F66366E2
:1022100063063F120345018C7FFE1B1FF8F7281051
:10222000181FF801800DB81D9C398E618C0780AF96
:1022300013FFE6101B3C0618667836D81F980F1857
:102240003FD836DF36C03FC006187FF8060C0610B0
:102250000DF03C1CE307860CC6186C1FFC1D0C0F10
:10226000CC0C022B7FFC061BFFFC5C138004120AC3
:102270001A10022B13FF06121019261A0402140852
:102280003FF82A0802582944882954291411241196
:10229000E428272BF42848282A2BF225117DF00961
:1022A0001409F4082208400848144810481FC804BC
:1022B00012C978270A7FEA022A1FD802083FE802DB
:1022C000080208070C7CCC0C6C0C6CFF0C1CCC1EA0
:1022D0006C3F6C3C0F6C7CCFCC0C012B183002187F
:1022E00011FFFF18301E301DFE398CF8CC18D8189D
:1022F000700217D8198F7F06301819318019801B8A
:10230000FE0306C7867BFE7EC618C637FE30C6F6BD
:10231000DE36DE081A06332A0CC4280B7FFF60065F
:10232000C00C3FFC018002200D1FFC01E001B00148
:10233000B801B07FFF1301803EC03FFF30C0022ACA
:10234000FE06200D37FC360C360C660C67FCC60CFE
:1023500020216060303037FF0DB0CDB07B7E7B66D2
:102360001FFC3FDC3378F3303338337833CC338F92
:1023700033066D0FF80C1804212D7F7F6363044929
:102380000621280B0C30073806603FFC318C0449CD
:10239000064D0180FFFF8C197E2B60180215661F09
:1023A000FF1829023C1FF8180129F71D6018C018F2
:1023B000141FFC18CCFFCC180210143CCC3ECC7E71
:1023C000CC78CCD98C198F1B0F1B0F1E071812301D
:1023D00018103F806C7E0C66FFE60E660F7E19803B
:1023E0007F86498C4906100D30603860366E637800
:1023F000FFE66367137E7F1C63607F0E100A7F60B9
:10240000636663676F3E661A0302147FFE06100957
:1024100006C00CC018C03FFE12C02CC0FFFF06490A
:10242000021260180D37F8361807F8DE187E181FEC
:10243000F86E5DFEEDB66D02147FFF6019C2180ADA
:10244000C03FFF333033303FFE0613F030101637F5
:10245000FC331831B030E061B8670FDC0631801909
:102460008019FF031809DFFC7BCC7B6C1B0C2C183C
:102470000ECCF36C330C33FF300C303C3018E310CF
:102480001DD818CCFEC01BFF18C01EFE1CCC39EC9A
:10249000F9F819B81B301B781ECF7F8630381060D2
:1024A0000337E33663C67B67FB7FFB1FFB370210F6
:1024B0000DE7FB618363C36363666F6C06100A30CC
:1024C000603C3036383637FF180A30F03037F0319C
:1024D000B031980220088F3DEF3F073003100A18F3
:1024E0006018301830FFFF18180B3CCC3EC6798FAF
:1024F000798CDBD872181870187019DC1F0F180649
:10250000036063B033363BFF37300F3C1BFE782B44
:102510003CF3C85730333633FF33180AFFC0337FDC
:1025200033663F66330210103F3C333C33D8379854
:102530003F3CE36703C6031A037F381418601B6629
:10254000C1EC6DF86FFE1B061B0633FE3306F30667
:1025500019024C1E330C8028101BFFFF0618601E4A
:10256000601FFF38CCF9981980177C19CF7F06308F
:102570001A3001201B37FE3DB661FF7F36F7FE3172
:10258000B0FDFE37B033FF31B03FF03E703C1F105E
:102590001D30C038C031FE618C6F18FFFE1FB63190
:1025A000B661B6FDFE018001801F83F18332FF1208
:1025B00018101A187E18061807FF661836181D9886
:1025C0000CD81EF836D833186318C01812781A3091
:1025D0001F1813FE18C618C6FFC61CFE3EC63BC613
:1025E0007BC678FED8103902191A511A1C026906E6
:1025F000011412381A6C02021438180D186C3CFCC5
:1026000030CC30CC36FC36CC0239062330FC1CFFF3
:10261000FF0CF8180B181830603FE33066306C027E
:102620002C783FF8AE113B18FF081C01F83F071942
:102630002A100EFC03030306030C031803183FF0D3
:1026400012302A600213FFFF2AC0022E30303FF002
:1026500030011E333036303C424A302269202F6030
:10266000187FD860180238167F9B601E607E603C21
:102670007FDC0C183F7F6F186F186D980C6E3E0C46
:10268000180D9819021E30DB30DE30E81A7F8217F1
:102690000630063003301809037E06630C63180306
:1026A0000C2B0360024B7FFE5A111BC01FC8180D74
:1026B00070066FF66C366C366FF660061A112809D4
:1026C0000FF00C300C300FF0E2130180180DC0D861
:1026D000D8EDD8F3D8F0D8D8D818021F0CDBFFDE1D
:1026E0000CDC021FD80CD80FF07CB74B0180026FB6
:1026F000318C3FFC318C026B3FFC1801102D010224
:08270000030404250607080983
:040000050800018965
:00000001FF
