:020000040800F2
:100000008008002049020008E52E00087B2800082F
:10001000B92B0008A11700083B38000800000000B9
:100020000000000000000000000000001D3100087A
:10003000C525000800000000752F00089132000857
:1000400063020008630200086302000863020008FC
:1000500063020008630200086302000863020008EC
:1000600063020008630200086302000863020008DC
:1000700063020008630200086302000863020008CC
:1000800063020008630200086302000863020008BC
:10009000ED1800086302000863020008630200080C
:1000A000630200086302000863020008630200089C
:1000B0006302000863020008FD32000863020008C2
:1000C000630200086302000863020008630200087C
:1000D0006302000863020008630200081D3600087E
:1000E000630200086302000863020008630200085C
:1000F000630200086302000863020008630200084C
:100100006302000863020008B933000863020008B4
:10011000630200086302000863020008630200082B
:10012000630200086302000863020008630200081B
:10013000630200086302000863020008630200080B
:10014000711D0008630200086302000863020008D2
:1001500063020008630200086302000863020008EB
:1001600063020008630200086302000863020008DB
:1001700063020008630200086302000863020008CB
:10018000630200086302000800F002F800F04CF877
:100190000AA090E8000C82448344AAF10107DA45E2
:1001A00001D100F041F8AFF2090EBAE80F0013F0E8
:1001B000010F18BFFB1A43F00103184790490000D4
:1001C000B0490000103A24BF78C878C1FAD8520765
:1001D00024BF30C830C144BF04680C6070470000C1
:1001E0000023002400250026103A28BF78C1FBD840
:1001F000520728BF30C148BF0B607047662904F022
:100200005884642900F04E80002070471FB504F028
:1002100046FC00F087FB04000020002103F0A0FE54
:10022000E0601FBD10B510BD00F094FC1146FFF753
:10023000EDFF03F0F3FD00F0B2FC03B4FFF7F2FFB3
:1002400003BC03F068FB00000948804709480047E9
:10025000FEE7FEE7FEE7FEE7FEE7FEE7FEE7FEE776
:10026000FEE7FEE704480549054A064B70470000D3
:1002700095320008890100088002002080080020D3
:100280008004002080040020704700000FB404495F
:1002900010B503AA029800F033FB10BC5DF814FB04
:1002A000200000202DE9F041064600241068752941
:1002B000314616A510D0AFF30080002802DA404284
:1002C00013A507E031688A0701D512A502E04907A6
:1002D00004D511A5012401E0AFF3008000210A221A
:1002E00006F1240709E0B0FBF2FCB0FBF2F302FBDD
:1002F0001C00303078541846491C0028F3D123469E
:100300002A463046BDE8F04100F093B800000000F6
:100310002D0000002B000000200000002DE9F04718
:100320004FF0000A89460446C0F820A02046E16844
:100330008847002876D0252806D0D4E901219047A7
:10034000206A401C2062F1E7E168204600258847CA
:10035000C4F81CA006460027C4F818A02A2E09D00D
:10036000304603F0D1FA38B304EB8708303EC8F8C2
:10037000186019E059F8041B204604EB87029161CC
:10038000E1688847012F064618D1E069002820DA85
:1003900025F020051DE0D8F8180000EB800006EBE2
:1003A00040003038C8F818002046E1688847064603
:1003B00003F0AAFA0028EED1012F0AD02E2E08D180
:1003C0002046E16888477F1C0646022F45F020053D
:1003D000C4DBA069002803DA404245F00105A061B2
:1003E000E80701D025F01005B6B1A6F141001928A3
:1003F00002D8203645F400654A463146204625603D
:100400004D46FFF7FBFE58B1012806D0ED1D25F043
:10041000070000F1080989E704E005F1040985E710
:1004200030468AE7206ABDE8F0877047704770471A
:1004300070472DE9F0470D4699469246044600F173
:1004400024080168880604D5E06921F010012160C4
:1004500000E00120A84201DD471B00E00027A16960
:100460007A1902EB0900081AA0612078C00602D4AC
:100470002046AFF30080002608E0D4E901211AF8F5
:1004800006009047206A401C761C20624E45F4DB33
:100490002078C0060AD52046AFF3008006E0D4E9F4
:1004A000012130209047206A401C2062381EA7F1AD
:1004B0000107F4DC07E0D4E9012118F805009047B2
:1004C000206A401C2062281EA5F10105F3DC2046AD
:1004D000AFF300802078000602D50220BDE8F08747
:1004E0000120FBE770472DE9FF4F0C461E464FF0F9
:1004F000FF378BB0D2E90001DDF860800A908A46B0
:10050000C1F30A5505B93D46002108464FF00000E9
:10051000BAF1000F00F4400005DA00EB80004FF460
:10052000400101EA50004FEA9059B9F1010F00DD96
:10053000B9460A9850EA4A000ED044F61050A5F287
:10054000FF3545432F14B8F1000F1ED07542291E08
:100550001EDDC9F100021CE0B8F1010F4FF00000F0
:1005600001D0302103E0F24305E02154401CB042A9
:10057000FBDB30460022002121540B99C1F8088092
:10058000C1E900200FB0BDE8F08FBD1B6D1CDEE798
:100590004A4600DA694206A800F066FA06AB93E81C
:1005A000070003AB83E8070050460A9900F03EFBC2
:1005B0008DE80700A0F500501F3800900398002D2B
:1005C00009DD42F21F014A46084403A90390684628
:1005D00000F09DFD08E0A0F500504A461F3803A931
:1005E0000390684600F0A7FD8DE807000004000CAA
:1005F00003D04FF0FF30410800E01046B8F1000F83
:1006000003D00022009215461EE0751E05D400F0AE
:100610008DF9303262556D1EF9D5B346012208437B
:1006200002D000227F1C04E02078302801D1002273
:100630007F1E002A099786D01DE0112D07DA00F0F1
:1006400075F9303262556D1C50EA0102F5D108434C
:1006500002D00098C8B10EE00021681E05E0235CBE
:10066000625C63542254401E491C8142F7DBAB4656
:10067000A81B401E0990002004F80B000B98099A53
:10068000C0F80880C0E9002B7CE711264FF0000875
:1006900059E72DE9F04F88460446D21D22F00701A4
:1006A00091B0D1E90001CDE90A0103F00BF902464E
:1006B0000B98C00F01D02D2007E02068810701D5DD
:1006C0002B2002E0202101EAC000032A099001D07A
:1006D000072A05DB03464146204600F085F90BE179
:1006E0002078800601D5E06900E00620B8F1650FAA
:1006F000814606D0B8F1660F18D0B8F1670F70D1F7
:1007000031E00020B9F1110F009001DB112301E06D
:1007100009F101030AAA01A90CA8FFF7E4FEDDE92B
:100720000C70002609F10105834647E001204B4685
:1007300000904FF000470AAA01A90CA8FFF7D3FECA
:10074000DDE90DB00C995D46002610B909F10100F4
:100750000D18B9EB050003D4C0F1FF3609F101050E
:10076000A5EB09002BE0B9F1010F01DA4FF0010907
:100770000020B9F1110F0090484601DD112300E07F
:1007800003460AAA01A90CA8FFF7ADFEDDE90C702B
:100790004D4600268346207800070AD4AB4500DA90
:1007A0005D4601A8012D04DD411911F8011C302915
:1007B00007D04F4502DA17F1040F04DA0120824610
:1007C0000FE06D1EEEE7002F02DCED1B3E4403E060
:1007D000781CA84200DD7D1CB81B00F1010A4FF017
:1007E00000472078000703D4AA4501DB4FF0FF3A09
:1007F0000021B7F1004F0DF143088DF8431024D0CC
:1008000002202B23002F01DA7F422D230A21021E12
:10081000A0F1010000DC5FB197FBF1FC97FBF1F266
:1008200001FB1C7C17460CF1300C08F801CDEEE7FB
:10083000A8F1010003702188090501D5452100E0D8
:100840006521A0F1010800F8011C09980FA9A1EB8E
:100850000807FF1D00B10120411901EBEA70A169F1
:100860003844081A401EA0612078C00602D42046F1
:10087000AFF30080099828B1D4E901219047206A9C
:10088000401C20622078C00622D52046AFF30080AD
:100890001EE0002E04DBB34502DD01A8805D00E010
:1008A0003020D4E901219047206A401C2062761C48
:1008B000AAF101005FEA000A0AD100F033F8C0682B
:1008C0000168405CD4E901219047206A401C206205
:1008D000281EA5F10105DCDC07E0D4E9012118F8A8
:1008E000010B9047206A401C2062381EA7F10107C7
:1008F000F3DC2046AFF30080032011B043E6000094
:10090000074B70B50D467B4400F05BF80446284663
:1009100000F018F910B14FF0FF3070BD204670BDE7
:1009200033340000004870474002002030B5B0F179
:100930000A024FEA900E71F100034EEA817EB0EB9D
:100940000E0061EB91014FEA101E4EEA017E10EBA2
:100950000E0041EB11114FEA102E4EEA016E10EB22
:100960000E0041EB11214FEA104E4EEA014E10EB02
:100970000E0041EB1141401841F100014FEAD00057
:1009800040EA41704FEAD10110EB80054FEA810443
:1009900044EA907444EB01046D1944EB0404521BC7
:1009A000A3414FF0000348BF0A3200D530BD401CC0
:1009B00041F1000130BD000001694A1C0261087864
:1009C000704700B58FB0CDE901310021059105498F
:1009D0007944CDE9031011466846FFF79FFC0FB03C
:1009E00000BD0000E5FFFFFF2DE9F0411F46044672
:1009F00003260168072A01F4006004DB08B116A58C
:100A000005E016A503E008B115A500E015A521F045
:100A100010002060A069C01EA0610FB1401EA0613F
:100A20002046AFF300804FB1D4E90121384690470A
:100A3000206A401C2062C01C206206E0206AFAE79F
:100A4000D4E9012115F8010B9047761EF8D2204613
:100A5000AFF30080BDE8F0814E414E006E616E0044
:100A6000494E4600696E66002DE9F04781461646FC
:100A70008AB0334878440DC88DE80D00304878447A
:100A8000801C03AC0DC884E80D0041F69B3008447F
:100A9000372190FBF1F290FBF1F5A5F1800501FB08
:100AA00012041B3C02D56442012000E00020DFF864
:100AB00090A080460027FA44AAF1BE0A0DE0E007A4
:100AC00009D03246684607EB47010AEB810100F086
:100AD00032FB8DE8070064107F1C002CEFD1184F0B
:100AE0007F44AC3F18E0E80714D007EB04100DF189
:100AF000180A90E80E008AE80E00C068F04201D1A2
:100B000098190890324606A903A800F014FB03AB1D
:100B100083E807006D10641C002DE4D1324669465D
:100B2000B8F1000F03A802D000F0F1FA01E000F0E4
:100B300002FBC9E90001C9F808200AB0BDE8F08746
:100B4000BC400000007B00F0800070470048704708
:100B5000200200207546FFF7F9FFAE460500694602
:100B6000534620F00700854618B020B5FFF77AFB02
:100B7000BDE820404FF000064FF000074FF000089E
:100B80004FF0000B21F00701AC46ACE8C009ACE81F
:100B9000C009ACE8C009ACE8C0098D4670470446FE
:100BA000AFF300802046FFF748FB00004FF0013C08
:100BB00050F8042B51F8043B9A4221D1A2EB0C03CC
:100BC000934313EACC1317D150F8042B51F8043B8C
:100BD0009A4215D1A2EB0C03934313EACC130BD129
:100BE00050F8042B51F8043B9A4209D1A2EB0C03B4
:100BF000934313EACC13DBD04FF00000704700BFE3
:100C0000D01A01BAB1FA81F101F0180122FA01F00B
:100C1000CB40C1F12001DBB2C0B2C01A2CFA01F303
:100C2000D11A914311EAC311E6D170475FEA400C33
:100C300008BF91F0000F4FEA8C234FEAC12243EA2C
:100C400051514FEA1C5018BF00F5F0404FEA3000F8
:100C500018BF41F000415FEA6C5C00F02980BCF1F4
:100C6000FF3F08BF40F080407047130C06BF1204DE
:100C70004FF0100C4FF0000C130E04BF12020CF1D9
:100C8000080C130F04BF12010CF1040C930F04BFE6
:100C900092000CF1020CD30F04BF52000CF1010CB6
:100CA00011464FF00002A0F11F00A0EB0C007047AE
:100CB00011F0004F08BF704731F000413FF4D5AF4D
:100CC0000B0C06BF09044FF0100C4FF0000C0B0E7C
:100CD00004BF09020CF1080C0B0F04BF09010CF151
:100CE000040C8B0F04BF89000CF1020CCB0F04BF66
:100CF00049000CF1010CCCF12003A0EB0C0022FA0E
:100D000003F302FA0CF241EA030100F1010070471B
:100D100020F07F4C80EA030023F07F47ACEB070311
:100D200003F57C5300F0004003F1FF032DE98049F7
:100D30004FEA154B09B44FEA144325EA0B4E24EA57
:100D400003480FF2042606EB132749083E785FEAB2
:100D5000320203FB0667C7F5000707FB06F64FEAFA
:100D600054374FEAD64606F1020607FB066CCCF173
:100D7000005C4FEA1C472CEA074C07FB06F40CFB0F
:100D800006F504EB15464FEA961634BF00204FF0E7
:100D900000404FEAD13706FB07FC4FEA1C4C0CFB26
:100DA0000BF7D21B03FB0CF761EB07010CFB0EF7F3
:100DB000B0EB074072EB17420CFB08F734BFA2EB15
:100DC0000742B2EB074261EB17414FEA0C444FEA8E
:100DD000910706FB07FC4FEA1C4C0CFB0BF7B0EB32
:100DE000C74072EB573203FB0CF734BFA2EBC7428C
:100DF000B2EBC74261EB57310CFB0EF7B0EBC7000B
:100E000072EB57720CFB08F734BFA2EBC702B2EBD0
:100E1000C70261EB5771039F4FEA816141EA92116A
:100E200004EBCC044FEAD1374FEA826206FB07FCA1
:100E300042EA90124FEA80604FEA1C4C0CFB0BF721
:100E4000D21B03FB0CF761EB07010CFB0EF7B0EBB9
:100E5000074072EB17420CFB08F734BFA2EB0742C6
:100E6000B2EB074261EB17414FEA8C554FEA91070D
:100E700004EB9C2406FB07FC4FEA1C4C0CFB0BF715
:100E8000B0EBC74072EB573203FB0CF734BFA2EB59
:100E9000C742B2EBC74261EB57310CFB0EF7B0EB28
:100EA000C70072EB57720CFB08F734BFA2EBC70206
:100EB000B2EBC70261EB577115EB4C254FEA81612C
:100EC00041EA92114FEA82624FEAD13742EA901228
:100ED00006FB07FC44F100044FEA80604FEA1C4C1B
:100EE0000CFB0BF7D21B03FB0CF761EB07010CFBB0
:100EF0000EF7B0EB074072EB17420CFB08F734BF5C
:100F0000A2EB0742B2EB074261EB174115EB1C1550
:100F10004FEA813141EA92414FEA823242EA9042FD
:100F20004FEA80304FEA0C7644F1000448EA03436C
:100F30004EEA0B484FF0000EB2EB080C71EB0307C2
:100F400024BF624639464EEB0E0E4FF0000B0018E0
:100F5000524149414BEB0B0BB2EB080C71EB030711
:100F60007BF1000B24BF624639464EEB0E0E4FF06C
:100F7000000B0018524149414BEB0B0BB2EB080C34
:100F800071EB03077BF1000B24BF624639464EEB41
:100F90000E0E51EA020718BF46F0010616EB0E7658
:100FA00055F1000254F1000103D5BDE88901BDE807
:100FB0000088BDE88901BDE80048B619524141EBFF
:100FC0000101A3F10103704780807F7E7D7C7B7AE5
:100FD0007978777676757473727171706F6E6E6DE5
:100FE0006C6C6B6A6A69686867666665646463638B
:100FF00062616160605F5F5E5E5D5D5C5C5B5B5A11
:101000005A5959585857575656555555545453537D
:1010100052525251515050504F4F4F4E4E4D4D4DD8
:101020004C4C4C4B4B4B4A4A4A4949494848484723
:101030004747474646464545454444444443434361
:101040004342424242414141002B26D4770021D005
:101050001CB54FEA370703B44FF010004FF01001F2
:101060004FF000000FBCBDE810400BF1010BBBF1CD
:10107000010F08BF5FEA170722BF12F1010211F149
:1010800001014FF0004143F1000300F0004043EA4A
:1010900000007047F9D35708DAE746EA064613F12D
:1010A000400F4FEA16461FDD13F1200FDFBF164336
:1010B0000A46002120335B42C8D0C3F1200746EA2C
:1010C000064602FA07F74FEA164646EA0706C3F154
:1010D000200722FA03F201FA07F721FA03F14FF091
:1010E000000342EA0702B1E746EA020646EA06467C
:1010F0004FEA164646EA0106BCBF46EA0646360CEB
:101100004FF000034FF000024FF000019EE72DE981
:10111000C048934630B491E8380007C831EA400C23
:1011200048BF34EA430C03D5FFF7F2FDFFF78CFF0D
:10113000F0BCBDE800882DE9C048934630B491E882
:10114000380007C810F0804F08BF13F0804F03D15C
:1011500000F005F8FFF778FFF0BCBDE8008820F04C
:101160007F4780EA030023F07F4C07EB0C03A3F5D5
:101170007C5300F00040A3F1FE0392F0000F00F05A
:10118000B38095F0000F00F077802DE901494FEA18
:1011900011404FEA144621EA004800FB06FC24EA0D
:1011A000064708FB06F607FB08F800FB07F718EBF5
:1011B00006484CEB164C4FEA124B18EB07484FEA27
:1011C00015464CEB174022EA0B4E0BFB06FC25EABA
:1011D00006470EFB06F607FB0EFE0BFB07F71EEBA2
:1011E000064E4CEB164C4FF000061EEB074E4CEB38
:1011F000174B18EB0B0840F1000018EB0E0B58EBE7
:10120000000840F100008F1A4FF000013CBFC943B5
:10121000661B14BFB5EB040C00213CBFC943F61B91
:101220004FEA17444EEA8E0E27EA04454FEA1C4760
:1012300004FB07622CEA074C05FB07F70CFB05F6DD
:1012400004FB0CFC16EB074642EB174216EB0C4670
:1012500042EB1C421BEB060658EB0202414146EAF8
:101260009E0601D5BDE80189B619524141EB010145
:10127000A3F10103BDE801894FEA14454FEA114784
:1012800024EA054621EA074C05FB07F406FB07F7AD
:101290000CFB06F105FB0CFC11EB074144EB17447A
:1012A0004FEA124711EB0C4144EB1C4422EA074C75
:1012B00005FB07F206FB07F70CFB06F605FB0CFC2B
:1012C00016EB074642EB174216EB0C4642EB1C4569
:1012D0006A1854F1000148BF7047B619524141EBFA
:1012E0000101A3F10103704795F0000F37D04FEAD9
:1012F00011424FEA144721EA024624EA074C02FB56
:1013000007F106FB07F70CFB06F402FB0CFC14EBE1
:10131000074441EB17414FEA154714EB0C4441EBEE
:101320001C4125EA074C02FB07F506FB07F70CFBFF
:1013300006F602FB0CFC16EB074645EB174516EBD1
:101340000C4645EB1C42121951F1000148BF704791
:10135000B619524141EB0101A3F1010370474FEA75
:1013600014454FEA114724EA054621EA074C05FBDC
:1013700007F106FB07F70CFB06F24FF0000605FB32
:101380000CFC12EB074241EB174112EB0C4251EB04
:101390001C4148BF7047921841EB0101A3F10103C2
:1013A000704721B1826842F00102826003E08268E6
:1013B00022F00102826070470021084A1168084A41
:1013C0001140D0E900231A4383681A43C3681A43C3
:1013D0001143044AC2F8041370470000042301407B
:1013E000E030FCFF002001400146C86C80B270472D
:1013F0000246002013680B400BB1012000E00020E2
:101400007047000030B50246002000235068104CA1
:1014100020400D790C6844EA052420435060906810
:101420000C4C2040D1E903542C438D682C434D795A
:1014300044EA450420439060D06A20F470000C7D9B
:10144000641EE4B2234340EA0350D06230BD000082
:10145000FFFEFFFCFDF7FFC0F0B504460D4600207F
:101460000021092D11DDE068A5F10A0606EB46070B
:10147000072606FA07F18843A5F10A0606EB460699
:1014800003FA06F10843E0600CE0206905EB45072C
:10149000072606FA07F1884305EB450603FA06F12D
:1014A00008432061072A0FDA606B561E06EB860799
:1014B0001F2606FA07F18843561E06EB860605FA34
:1014C00006F10843606322E00D2A0FDA206BD61F75
:1014D00006EB86071F2606FA07F18843D61F06EBA0
:1014E000860605FA06F10843206310E0E06AA2F1DF
:1014F0000D0606EB86071F2606FA07F18843A2F1C0
:101500000D0606EB860605FA06F10843E062F0BD1B
:10151000816841F0804181607047000000B58DB066
:101520000121084601F028FD0121080201F044FDD7
:10153000F020059003208DF8180000208DF81B0086
:1015400005A9154801F0FAF80121080201F044FD4F
:1015500000214FF4807001F03FFD002001900490C5
:1015600003904FF48030029001A8FFF725FF002080
:1015700007908DF820008DF8210009900B90012034
:101580008DF8300007A90548FFF73CFF012103480B
:10159000FFF707FF0DB000BD000002400020014032
:1015A00070B52DED088B00250024E1E004EBC400AC
:1015B000724901EBC000807E01287CD1204602F0F8
:1015C000CBFB04EBC4006D4A02EBC000D0ED000A77
:1015D00004EBC40002EBC000B0F9440000EE100AB6
:1015E000B8EEC00A30EEC00A10EE101A084603F03A
:1015F000E5F941EC190BB0EE490AF0EE690A02F088
:1016000079F9B0EE408AF0EE608A9FED5D0B53EC05
:10161000102B51EC180B03F0A5F802D241F27075B3
:1016200069E004EBC400554A02EBC000D0ED000AAB
:1016300004EBC40002EBC000B0F9440000EE100A55
:10164000B8EEC00A30EEC00A10EE101A084603F0D9
:10165000B5F941EC190BB0EE490AF0EE690A02F057
:1016600049F9B0EE408AF0EE608A9FED470B53ECEB
:10167000102B51EC180B03F075F83BD204EBC400AF
:101680003E4A02EBC000D0ED000A04EBC40002EBBE
:10169000C000B0F9440000EE100AB8EEC00A30EE07
:1016A000C00A10EE101A084603F088F941EC1B0B33
:1016B000B0EE4B0A00E059E0F0EE6B0A02F01AF9C6
:1016C000B0EE40AAF0EE60AA9FED310B53EC102B68
:1016D00051EC1A0B02F048FF41EC190B9FED2E0B59
:1016E00053EC102B02F084FC41EC180B02F08CFE42
:1016F00005B200E0002504EBC400204901EBC00066
:10170000D0ED000A04EBC40001EBC000B0F94400C6
:1017100000EE100AB8EEC00AF4EEC00AF1EE10FABC
:1017200002DD684205B200E000BF012C01D0022CAE
:1017300002D1684205B200E000BF3DB9002004EBD1
:10174000C4010E4A02EBC101887606E0012004EBD9
:10175000C4010A4A02EBC101887604EBC4000749C0
:1017600001EBC000A0F8425001F092F8601CC4B236
:10177000042CFFF61BAFBDEC088B70BD38000020B9
:101780000000000000002040000000000000E03FDA
:101790000000000000C062400000000000708740B0
:1017A00000BFFEE72DE9F0418AB004460D4616461B
:1017B0001F46DDF840800121084601F0DDFB0121D4
:1017C000480601F0E9FB4FF4C050089002208DF864
:1017D000240000208DF8260003208DF8250001202C
:1017E0008DF8270008A93F4800F0A8FF09220B2127
:1017F0003C4800F0EBFF09220C213A4800F0E6FFDC
:1018000000208DF81A008DF81B008DF81C000120B7
:101810008DF81D0000208DF81E008DF81F008DF83A
:1018200016808DF817408DF818608DF81950ADF8B6
:10183000147005A92C4800F006FC00208DF80E005D
:1018400001208DF80F0000208DF810004FF4F0708B
:10185000ADF804004FF43E60ADF806004FF4387068
:10186000ADF808000020ADF80A00ADF80C0001202A
:101870008DF8110001A800F059FB01208DF80E0031
:101880008DF80F008DF810004FF47870ADF804005B
:101890000020ADF806004FF49C60ADF80800002071
:1018A000ADF80A00ADF80C0001208DF8110001A878
:1018B00000F03CFB012202210B4800F0BBFB14208E
:1018C0008DF8000001208DF8010000208DF8020045
:1018D00001208DF80300684601F006FB0AB0BDE860
:1018E000F0810000000002400064004000B52DEDD2
:1018F000028B85B06A460021AD4800F02EFCAD4851
:1019000001880088401CAB4A1080C82902DD1420E1
:101910001146088000980F2804D01F284CD0272893
:1019200049D1C4E0A448DDF80B100160006803F061
:1019300045F841EC180B53EC182BA0A0FEF7A6FCC1
:10194000A4A0FEF7A3FC9C4890ED000ADFEDA20ADC
:1019500020EE200A80ED000A90ED000ABDEEC00ADC
:1019600010EE100A00B29D4908809349DDF80F007F
:1019700008600846006803F021F841EC180B53ECAE
:10198000182B97A0FEF782FC92A0FEF77FFC8A48F6
:1019900090ED000AB1EE400ADFED8F0A20EE200A3A
:1019A00080ED000A90ED000ABDEEC00A10EE100AAC
:1019B00000B28A494880F5E08F48DDF80B100160DD
:1019C00090ED000ADFED8D0A20EE200ADFED8C0A93
:1019D00020EE200A80ED000A90ED000AB5EEC00A64
:1019E000F1EE10FA03D29FED870A80ED000A8248DB
:1019F00090ED000ABDEEC00A10EE100AC0F1C6005C
:101A000001B28148A0F84410B0F94400282803DA54
:101A100002217D48A0F8441001207B4988760846C1
:101A2000B0F9441079A0FEF731FC6AA0FEF72EFC55
:101A30007149DDF80F000860084690ED000ADFEDFF
:101A40006F0A20EE200ADFED6E0A20EE200A80EDFC
:101A5000000A90ED000AB5EEC00AF1EE10FA03D2CA
:101A60009FED680A80ED000A634890ED000ABDEE24
:101A7000C00A10EE100A5C3001B26348A0F8D4101E
:101A8000B0F9D400B0F5907F04DD4FF490715E485A
:101A9000A0F8D41001215C4880F8AA10B0F9D41045
:101AA00060A0FEF7F3FB4BA0FEF7F0FB7AE0524894
:101AB000DDF80B10016090ED000ADFED500A20EE1A
:101AC000200ADFED4F0A20EE200A80ED000A90ED9B
:101AD000000AB5EEC00AF1EE10FA03D29FED490AF2
:101AE00080ED000A444890ED000ABDEEC00A10EEF9
:101AF000100A503001B24448A0F88C10B0F98C00A4
:101B0000B0F5907F04DD4FF490713F48A0F88C1041
:101B100001213D4880F86210B0F98C1047A0FEF713
:101B2000B5FB2CA0FEF7B2FB3349DDF80F000860CF
:101B3000084690ED000ADFED310A20EE200ADFEDC5
:101B4000300A20EE200A80ED000A90ED000AB5EE82
:101B5000C00AF1EE10FA03D29FED2A0A80ED000AC6
:101B6000254890ED000ABDEEC00A10EE100AC0F143
:101B7000D20001B22448A0F81C11B0F91C01282899
:101B800003DA02212048A0F81C1101211E4880F828
:101B9000F210B0F91C112FA0FEF778FB0DA0FEF794
:101BA00075FB00BF00BF05B0BDEC028B00BD00009F
:101BB000006400400800002000000020D7F3D6F7A2
:101BC000C2C4B4F8C9E8B6A8CBD9B6C8CEAA3A25DB
:101BD0002E3266000D0A0000000096431600002019
:101BE000D3D2D6F7C2C4B4F8C9E8B6A8CBD9B6C820
:101BF000CEAA3A252E32660004000020000048429A
:101C00009A99993F0000000038000020D7F3C7B030
:101C1000B8B1C2C4B4F8C9E8B6A8BDC7B6C8CEAAA0
:101C20003A256400D3D2C7B0B8B1C2C4B4F8C9E889
:101C3000B6A8BDC7B6C8CEAA3A256400D7F3BAF392
:101C4000B8B1C2C4B4F8C9E8B6A8BDC7B6C8CEAA70
:101C50003A256400D3D2BAF3B8B1C2C4B4F8C9E823
:101C6000B6A8BDC7B6C8CEAA3A2564002DE9F04192
:101C70008AB004460D4616461F46DDF84080012115
:101C8000022001F079F90121880601F085F94FF46D
:101C90004050089002208DF8240000208DF8260086
:101CA00003208DF8250001208DF8270008A92E4873
:101CB00000F044FD09220C212B4800F087FD092289
:101CC0000D21294800F082FD00208DF81A008DF8C2
:101CD0001B008DF81C0001208DF81D0000208DF8E0
:101CE0001E008DF81F008DF816808DF817408DF8B6
:101CF00018608DF81950ADF8147005A91B4800F054
:101D0000A2F90E2000F0A2FA0E208DF80E0000209D
:101D10008DF80F0001208DF810000020ADF80400B0
:101D2000ADF80600ADF80800ADF80A00ADF80C00FB
:101D300001208DF8110001A800F0F8F8012202211D
:101D40000A4800F077F940208DF8000001208DF856
:101D500001008DF802008DF80300684601F0C4F818
:101D60000AB0BDE8F08100000004024000680040B5
:101D700010B586B001AA0021284800F0EEF90198BC
:101D8000A0F2012030B1012813D0022821D003286D
:101D90003FD12EE0002406E00DF10F00015D204848
:101DA0000155601CC4B2082CF6DB002000F0C8FB13
:101DB00030E0002407E00DF10F00015D18484830C5
:101DC0000155601CC4B2082CF5DB012000F0B8FB03
:101DD00020E0002407E00DF10F00015D1048903075
:101DE0000155601CC4B2082CF5DB022000F0A8FBF2
:101DF00010E0002407E00DF10F00015D0848D83025
:101E00000155601CC4B2082CF5DB032000F098FBE0
:101E100000E000BF00BF06B010BD00000068004039
:101E20004800002010B51C48007858B1002404E098
:101E300000201A490855601CC4B2082CF8DB0020A9
:101E4000154908701648008B000A14490870144898
:101E5000007E48701248B0F86000000A8870104890
:101E600090F86000C8700E48B0F8A800000A087129
:101E70000B4890F8A80048710948B0F8F000000A33
:101E80008871074890F8F000C8714FF4007208217B
:101E9000024800F007F810BD130000200B000020DE
:101EA000380000202DE9F04186B007460D469046E7
:101EB0000024CDF80480002002908DF80C008DF8ED
:101EC0000D0008208DF80E0000BF05E0395D0DF112
:101ED0000F000155601C84B2AC42F7DB2C4605E0D4
:101EE00000210DF10F000155601C84B2082CF7DBB6
:101EF00001A90D4800F0C4F90646002401E0601C69
:101F000084B23146084800F04FFA18B940F6FF7025
:101F10008442F4DB40F6FF70844203DB012006B00C
:101F2000BDE8F0810020FAE70068004010B500210C
:101F3000837A012202FA03F13D4A126842F001025B
:101F40003B4B1A603A4A1C3212688A43384B1C33A6
:101F50001A60027BCAB9364A0C3212688A43344B83
:101F60000C331A604288C38842EA0343304A403245
:101F7000847A42F834300288838842EA03432C4A48
:101F80004032847A02EBC4025360027B012A19D1E9
:101F9000274A0C3212680A43254B0C331A604288D8
:101FA000038842EA0343224A4032847A42F83430BA
:101FB000C288838842EA03431D4A4032847A02EB96
:101FC000C4025360C27A3AB9194A121D12688A4390
:101FD000174B1B1D1A6006E0154A121D12680A43B2
:101FE000134B1B1D1A60028932B9114A1432126850
:101FF0008A430F4B14331A600289012A06D10C4A16
:10200000143212680A430A4B14331A60427B012AC5
:1020100006D1074A1C3212680A43054B1C331A606A
:10202000034A126822F00102014B1A6010BD000041
:10203000006600401AB143690B43436102E0436903
:102040008B434361704730B502460020002314687B
:1020500024F002041460146844F00104146000E0E9
:102060005B1C546804F001041CB94FF6FF74A342D2
:10207000F6D1546804F001040CB900206CE08C79AE
:10208000012C04D1146844F08004146003E0146847
:1020900024F080041460CC79012C04D1146844F03D
:1020A0004004146003E0146824F0400414600C7AC7
:1020B000012C04D1146844F02004146003E0146877
:1020C00024F0200414604C7A012C04D1146844F0EC
:1020D0001004146003E0146824F0100414608C7A77
:1020E000012C04D1146844F00804146003E014685F
:1020F00024F008041460CC7A012C04D1146844F054
:102100000404146003E0146824F0040414608C7860
:10211000A407CD7844EA05640D7944EA05444D7975
:1021200044EA05540D886D1E2C43D461146824F0D4
:1021300001041460002300E05B1C546804F00104F7
:102140001CB14FF6FF74A342F6D1546804F00104A9
:102150000CB1002000E0012030BD10B500F5D873AF
:1021600003EB01131B6803F004031372137A53B9D2
:1021700000F5D87303EB01131B6840F2FF7404EA07
:102180005353136009E000F5D87303EB01131B6888
:102190006FF0604404EAD303536000F5D87303EB97
:1021A00001131B6803F00203537200F5D87303EBAD
:1021B00001135B6803F00F03937200F5D87303EB10
:1021C00001135B681B0AD37400F5D87303EB01138A
:1021D0009B68D37200F5D87303EB01139B681C0A4C
:1021E000147300F5D87303EB01139B681C0C547334
:1021F00000F5D87303EB01139B681B0E937300F576
:10220000D87303EB0113DB68D37300F5D87303EBCA
:102210000113DB681C0A147400F5D87303EB011377
:10222000DB681C0C547400F5D87303EB0113DB68F6
:102230001B0E937421B9C36843F02003C36003E00D
:10224000036943F02003036110BD00000B490968D6
:1022500041F00101094A11601146096843F60E7206
:102260009143064A11601146096841EA0021116054
:102270001146096821F001011160704700660040B5
:1022800010B502460020936803F08063B3F1806FBD
:1022900000D110E0936803F00063B3F1006F01D147
:1022A000012008E0936803F08053B3F1805F01D10F
:1022B000022000E00420042874D002F5C07303EB70
:1022C00000131B6803F0010402F5C07303EB001355
:1022D0001C600B7A7BB94B7A0C8843EA445302F5B5
:1022E000C07404EB00142468234302F5C07404EBAB
:1022F0000014236010E00B7A4C6843EAC4034C7A64
:10230000234302F5C07404EB00142468234302F550
:10231000C07404EB001423608B7A03F00F038B72FC
:1023200002F5C07303EB00135B6823F00F0402F5A2
:10233000C07303EB00135C6002F5C07303EB001382
:102340005B688C7A234302F5C07404EB001463606D
:102350008B7B1C064B7B44EA03440B7B44EA032340
:10236000CC7A234302F5C07404EB0014A3608B7C89
:102370001C064B7C44EA03440B7C44EA0323CC7BDD
:10238000234302F5C07404EB0014E36002F5C0734C
:1023900003EB00131B6843F0010402F5C07303EB69
:1023A00000131C6010BD000010B50246002321B1CF
:1023B000012907D002290FD109E090681D4C00EADD
:1023C00004030BE090681C4C00EA040306E09068EC
:1023D0001A4C00EA040301E0002300BF00BF184CC0
:1023E000181BA34216D007DC83B16FF0806018443D
:1023F00070B1022818D111E0B0F5007F10D0114C57
:10240000204448B1B0F5003F0ED10BE002230DE0AF
:1024100000230BE0002309E0002307E0012305E08F
:10242000012303E0012301E0002300BF00BFD8B275
:1024300010BD0000030000040003000800000310AA
:10244000000100080001FFF7002070E09FED390A4D
:1024500000EBC001384A02EBC10181ED000A9FED9B
:10246000350A00EBC00102EBC10181ED010A002138
:1024700000EBC002304B03EBC202D16000EBC002A4
:1024800003EBC202916000EBC00203EBC2021183B6
:1024900000EBC00203EBC202917643F6982100EBF9
:1024A000C00203EBC20291839FED220A00EBC00140
:1024B0001A4602EBC10181ED080AB2EE020A00EBF6
:1024C000C00102EBC10181ED090A9FED1C0A00EB7E
:1024D000C00102EBC10181ED0A0A9FED160A00EB73
:1024E000C00102EBC10181ED0B0A9FED120A00EB66
:1024F000C00102EBC10181ED0C0A002200EBC0011A
:1025000003EBC101A1F842209FED0A0A00EBC001D4
:102510001A4602EBC10181ED0F0A43F6982200EB47
:10252000C00103EBC101A1F84020411CC8B204283E
:102530008CDB704700000000380000203333333F4D
:1025400000EBC0011E4A02EBC101497C00EBC00256
:102550001B4B03EBC202127C01EB022109B200EE1D
:10256000101AB8EEC00A00EBC0011A4602EBC10116
:1025700081ED010A00EBC00102EBC101CA7C00EB56
:10258000C00103EBC101897C02EB012109B200EB20
:10259000C00203EBC202916000EBC0011A4602EBDD
:1025A000C1014A7D00EBC00103EBC101097D02EBD3
:1025B000012109B200EBC00203EBC202D1607047F7
:1025C00038000020704700002DE9F047804689461A
:1025D0009246002600204849087088E03046711C69
:1025E0008EB246490C5C44480078062877D2DFE872
:1025F00000F003122F353F53FF2C03D101203E4939
:10260000087007E03EA0FDF741FE701E86B205206F
:102610003949087067E0FF2C0BD0FE2C09D0FD2C47
:1026200007D0FC2C05D0FB2C03D0FA2C01D0F92CC0
:1026300005D10220304908708AF8004007E033A035
:10264000FDF724FE701E86B205202B4908704AE073
:10265000E7B2032028490870002544E009F8054046
:10266000681CC5B2BD4202D10420234908703AE07B
:10267000FE2C08D128A0FDF709FE00201E49087095
:102680003846BDE8F08728A0FDF700FE701E86B230
:1026900005201949087026E0002505E0002025499D
:1026A00021F81500681CC5B2022DF7DB00250FE0EC
:1026B000002005EBC501204A02EBC101887600210C
:1026C00005EBC50002EBC000A0F84210681CC5B2C3
:1026D000042DEDDB002008490870D2E7FFE7002059
:1026E00005490870CDE700BF464500D100E075E719
:1026F00000BF0020C5E700000A00002058010020AC
:102700004552524F52310D0A200000004552524F9F
:1027100052320D0A2000000046534D206973204FAD
:102720004B210D0A200000004552524F52330D0A32
:10273000200000001600002038000020F0B50A46F6
:1027400000210023002400BF3DE0012505FA01F32C
:10275000156805EA03049C4234D105684F0003263E
:10276000BE40B543056015794E00B5400668354357
:1027700005601579012D02D01579022D16D18568D5
:102780004F000326BE40B543856055794E00B540E5
:10279000866835438560456801268E40B5434560AF
:1027A000456896798E40B6B235434560C5684F009E
:1027B0000326BE40B543C560D5794E00B540C66816
:1027C0003543C560491C1029BFD3F0BDF0B50023C7
:1027D00000244D07ED0E02FA05F3CE1000F120059E
:1027E00055F826504E07F70E0F26BE40B543CF10C2
:1027F00000F1200646F82750CE1000F1200555F8CC
:10280000265045EA0304CE1000F1200545F8264085
:10281000F0BD4183704701837047000010B5044646
:102820000723012221460848FEF716FE0648FEF758
:102830006FFE00BF02210448FEF7DAFD0028F9D040
:102840000148FEF7D1FD10BD002001402DE9F04107
:1028500007460C460025002608E03846FFF7DEFF55
:102860000544052001F028FA701CC6B2A642F4DB2C
:10287000B5FBF4F080B2BDE8F08100BFFEE70000D8
:102880004CF6CC4001490860704700000030004021
:1028900010B500F013F810BD70B505460C4645F2B2
:1028A000555000F01FF8284600F010F8204600F0C0
:1028B00013F800F003F8FFF7E3FF70BD4AF6AA2013
:1028C000014908607047000000300040014948603D
:1028D00070470000003000400149886070470000E8
:1028E000003000400149086070470000003000409F
:1028F0001CB50121042000F03FFB4FF40050009074
:1029000001208DF8040000208DF8060003208DF8CA
:10291000050002208DF8070069460448FFF70EFF06
:102920004FF400510148FFF774FF1CBD000802403E
:1029300000B58BB00121084600F02EFB01210820D4
:1029400000F02AFB0121084600F016FB01210220BD
:1029500000F012FB0121042000F00EFB01220B21EC
:102960004448FFF733FF022200214348FFF72EFFC0
:102970000620099001208DF8280003208DF82900F9
:1029800000208DF82A0001208DF82B0009A93B4872
:10299000FFF7D4FE0620099001208DF828000320BF
:1029A0008DF8290000208DF82A0001208DF82B00D9
:1029B00009A93148FFF7C2FE02212F48FFF72BFF7C
:1029C00004212E48FFF727FF01202D4908602D49DB
:1029D000C1F8880202208DF828008002099009A918
:1029E0002448FFF7ABFE0120099009A92248FFF710
:1029F000A5FE5320ADF818000020ADF81A0040F2F3
:102A0000F31007900020ADF8200006A94FF0804099
:102A100000F0C2FD06A91C4800F0BEFD6020ADF824
:102A200004000120ADF806000020ADF8100001A957
:102A30004FF0804000F062FD01A9134800F016FD40
:102A40000821C80600F096FD08210F4800F04CFD53
:102A50000121880700F0D4FC01210B4800F0D0FCD4
:102A60000121880700F0DBFC0121074800F0D7FCBA
:102A70000BB000BD0004024000000240000802400C
:102A80008402414200004042000C004010B52DED90
:102A9000088B00244049B1F9000001F012FD41EC1F
:102AA0001B0BB0EE4B0AF0EE6B0A00F023FFB0EE0A
:102AB00040AAF0EE60AA9FED390B53EC102B51ECBD
:102AC0001A0B01F049FB41EC190B9FED360B53EC4F
:102AD000102B01F08DFA41EC180B01F0C5FC84B20B
:102AE000B4F5E17F02DD4FF4E17402E0322C00DA4C
:102AF00032242948B0F90000002803DB01202B49CB
:102B0000086002E000202949086021464FF080401B
:102B100000F03FFD2049B1F9020001F0D2FC41EC88
:102B20001B0BB0EE4B0AF0EE6B0A00F0E3FEB0EECA
:102B300040AAF0EE60AA9FED190B53EC102B51EC5C
:102B40001A0B01F009FB41EC190B9FED160B53EC2E
:102B5000102B01F04DFA41EC180B01F085FC84B20A
:102B6000B4F5E17F02DD4FF4E17402E0322C00DACB
:102B700032240948B0F90200002803DB01200C4987
:102B8000086002E000200A4908602146094800F078
:102B9000FEFCBDEC088B10BD1600002000000000FC
:102BA000000024400000000000004940840241422F
:102BB00088024042000C004000BFFEE770B52DEDDA
:102BC0000E8B05460C469FEDBE0BB0EE409AF0EE24
:102BD000609A04EBC401BC4A02EBC1018968681A1F
:102BE00001F06FFC41EC180B9FEDB80B53EC102B70
:102BF00051EC180B01F0B6FD06D29FEDB40BB0EE10
:102C0000408AF0EE608A0EE09FEDB20B53EC102B81
:102C100051EC180B01F06CFC05D29FEDAE0BB0EE41
:102C2000408AF0EE608A04EBC400A74A02EBC000C1
:102C300090ED0F0A10EE101A084601F0BFFE41ECAD
:102C40001B0B53EC182B01F0D3F941EC1A0B01F0DC
:102C50009DF904EBC4019C4A02EBC101C86304EB7B
:102C6000C40102EBC101B1F9400001F02AFC41ECC2
:102C70001A0B04EBC400944A02EBC00090ED0F0A5B
:102C800010EE101A084601F099FE41EC1C0BB0EE54
:102C90004C0AF0EE6C0A00F02DFEB0EE40BAF0EEF9
:102CA00060BA53EC1A2B51EC1B0B01F05BFD2ED2DA
:102CB00004EBC400844901EBC00090ED0F0AB5EEAF
:102CC000C00AF1EE10FA10DD04EBC40001EBC00005
:102CD000B0F9400000EE100AB8EEC00A04EBC400E0
:102CE00001EBC00080ED0F0A11E004EBC40076494F
:102CF00001EBC000B0F94000404200EE100AB8EE0F
:102D0000C00A04EBC40001EBC00080ED0F0A04EB25
:102D1000C4006D4A02EBC00090ED0C0A10EE101AD0
:102D2000084601F04BFE41EC1E0B53EC182B01F052
:102D30004FFD41EC1C0B04EBC400634A02EBC000E6
:102D400090ED0B0A10EE101A084601F037FE41EC28
:102D50001D0B53EC1C2B01F007FC41EC1A0B04EB90
:102D6000C400594A02EBC00090ED0A0A04EBC4000B
:102D700002EBC000D0ED0F0A20EE200A10EE101A70
:102D8000084601F01BFE41EC1C0B04EBC4004E4A4C
:102D900002EBC00090ED090A10EE101A084601F08F
:102DA0000DFE41EC1E0B53EC182B01F0DDFB41EC4A
:102DB0001D0B53EC1C2B01F01BF941EC1B0B53ECCE
:102DC0001A2B01F015F941EC190B51EC180B01F01D
:102DD000DDF804EBC4013C4A02EBC1010863B0EE2C
:102DE000490AF0EE690A00F085FDB0EE40AAF0EE67
:102DF00060AA9FED3A0B53EC102B51EC1A0B01F02B
:102E000077FB06D29FED2E0BB0EE409AF0EE609A63
:102E100047E004EBC4012C4A02EBC101B1F91C00EC
:102E200001F04FFB41EC1A0BB0EE490AF0EE690AD3
:102E300000F060FDB0EE40BAF0EE60BA53EC1A2B31
:102E400051EC1B0B01F08EFC21D29FED1D0B53ECBE
:102E5000102B51EC190B01F085FC0BD204EBC401D3
:102E6000194A02EBC101B1F91C0001F02AFB41EC47
:102E7000190B16E004EBC401134A02EBC101B1F9CE
:102E80001C10484201F01DFB41EC190B09E051EC0C
:102E9000190B01F0B9FA06B2304601F012FB41EC11
:102EA000190B51EC190B01F0AFFA00B204EBC4019D
:102EB000054A02EBC1010883BDEC0E8B70BD00001A
:102EC00000000000000000003800002000000000AA
:102ED0000088B340000000000088B3C0000000007C
:102EE0000000F03F7047000070B5002100230F2262
:102EF000C4781CB3174C246804F4E064C4F5E0649F
:102F0000C4F30721C1F10404E3B20A4144789C40B0
:102F1000E1B28478144021430C07210E0E4C057851
:102F20006155047804F01F050124AC4005786D114B
:102F3000AD0005F1E025C5F8004109E0047804F092
:102F40001F050124AC40054D0678761145F8264052
:102F500070BD00000CED00E000E400E080E100E066
:102F600002490143024A1160704700000000FA055F
:102F70000CED00E07047000029B1064A12680243D8
:102F8000044B1A6004E0034A12688243014B1A6042
:102F9000704700003038024029B1064A12680243E7
:102FA000044B1A6004E0034A12688243014B1A6022
:102FB000704700004038024029B1064A12680243B7
:102FC000044B1A6004E0034A12688243014B1A6002
:102FD000704700004438024029B1064A1268024393
:102FE000044B1A6004E0034A12688243014B1A60E2
:102FF0007047000024380240F0B500210022002470
:10300000022500260223324F3F6807F00C0121B150
:10301000042905D0082937D105E02E4F076036E096
:103020002D4F076033E02A4F3F1F3F68C7F380569C
:10303000274F3F1F3F6807F03F036EB1264FB7FB96
:10304000F3F7DFF88CC0ACF1040CDCF800C0CCF373
:10305000881C07FB0CF40CE01E4FB7FBF3F7DFF8FE
:1030600070C0ACF1040CDCF800C0CCF3881C07FB8A
:103070000CF4174F3F1F3F68C7F301477F1C7D00CB
:10308000B4FBF5F7076002E0124F076000BF00BF16
:103090000F4F3F6807F0F0010909104F7A5C07688D
:1030A000D74047600A4F3F6807F4E051890A0B4F49
:1030B0007A5C4768D7408760054F3F6807F46041F6
:1030C000490B064F7A5C4768D740C760F0BD0000E7
:1030D000083802400024F40000127A002600002084
:1030E0001CB501210420FFF747FF2020009001209C
:1030F0008DF8040000208DF8060003208DF80500EF
:1031000002208DF8070069460348FFF717FB2021CE
:103110000148FFF77EFB1CBD00080240704700001D
:103120000CB50020019000903448006840F48030D5
:103130003249086000BF3148006800F40030009058
:103140000198401C0190009818B90198B0F5A04F63
:10315000F1D12A48006800F4003010B1012000903D
:1031600001E0002000900098012846D1234840301B
:10317000006840F0805021494031086020480068D4
:1031800040F440401E4908601C48083000681B4954
:10319000083108600846006840F4004008600846AE
:1031A000006840F4A05008601648091F0860081F16
:1031B000006840F08070091F086000BF0F48006879
:1031C00000F000700028F9D040F205700E49086048
:1031D0000A480830006820F00300084908310860F8
:1031E0000846006840F00200086000BF034808304D
:1031F000006800F00C000828F8D10CBD003802402F
:103200000070004008544007003C024010B5002404
:1032100004E0204600F0A0FD601CC4B2042CF8DBE2
:10322000C6210E48A0F844105021A0F88C105C2153
:10323000A0F8D410D221A0F81C11002408E001202D
:1032400004EBC401054A02EBC1018876601CC4B2DC
:10325000042CF4DB02A0FDF719F810BD38000020A3
:1032600072657365740D0A00042808D14FF0E021DF
:10327000096941F004014FF0E022116107E04FF0CD
:10328000E021096921F004014FF0E022116170474B
:103290007047000010B51548006840F470001349ED
:1032A00008601348006840F00100114908600020E0
:1032B0000F49083108600E4800680E4908400C4963
:1032C00008600D48091D0860081F006820F4802070
:1032D000091F0860002006490C310860FFF720FF35
:1032E0004FF0006001498039086010BD88ED00E0B2
:1032F00000380240FFFFF6FE1030002410B5012117
:10330000134800F098F810B30121114800F084F838
:10331000FFF7BCFB00240BE004EBC4010D4A02EBF9
:10332000C101B1F942002146FFF748FC601CC4B25C
:10333000042CF1DBFEF776FD074801780078401C8D
:10334000054A1070322902DD00201146087010BDB8
:103350000008004038000020150000207FB5054619
:103360000C4601210420FFF717FE0295ADF804403A
:103370000020ADF80600ADF80C0001A90D4800F0E2
:103380000BF9012211460B4800F066F801210948AB
:1033900000F045F81E208DF8000001208DF8010096
:1033A00002208DF8020001208DF803006846FFF727
:1033B0009BFD7FBD0008004010B501210E4800F0C4
:1033C0003AF8B8B101210C4800F026F8FFF75EFB8F
:1033D00000240BE004EBC401084A02EBC101B1F97F
:1033E00042002146FFF7EAFB601CC4B2042CF1DB6B
:1033F000FEF718FD10BD0000000C00403800002052
:1034000021B1028842F08002028004E002884FF677
:103410007F731A4002807047CA430282704721B10D
:10342000028842F00102028004E002884FF6FE7337
:103430001A400280704730B5024600200023002465
:10344000158A05EA0103958905EA010413B10CB157
:10345000012000E0002030BD1AB183890B43838135
:1034600002E083898B4383817047000070B500249C
:1034700000220023058C4FF6FE7635400584028C31
:103480008388048B4FF68F752C40B51E2C400D8819
:103490002C43751E2A408D892A434D882A43104D9E
:1034A000A84202D00F4DA84213D14FF6F7752A401B
:1034B000CD892A434FF6FB752A408D882A434FF663
:1034C000FF652B404FF6FF552B400D8A2B434D8A4D
:1034D0002B43838004838D684563028470BD0000A4
:1034E00000000140000401400A460021018B4FF614
:1034F000F7731940114301837047000070B5002233
:1035000000230024058C4EF6FF7635400584038C9D
:103510008488828B48F6FF752A404FF6FF452A4083
:103520000D884FF6FF7606EA05252A434DF6FF750E
:103530002B408D8906EA05352B434D8806EA053573
:103540002B430A4DA84202D0094DA84208D14BF6A0
:10355000FF752C400D8A4FF6FF7606EA85152C4341
:10356000848082838D680564038470BD00000140FF
:10357000000401400A460021818B4FF2FF7319407D
:103580004FF6FF7303EA02231943818370474163B7
:10359000704701647047000000220288184B98426F
:1035A0000ED0184B98420BD0B0F1804F08D0164B7C
:1035B000984205D0154B984202D0154B984204D141
:1035C0004FF68F731A404B881A43124B984207D01C
:1035D000114B984204D04FF6FF431A400B891A430F
:1035E00002804B68C3620B880385054B984202D06A
:1035F000044B984201D18B7A038601238382704762
:1036000000000140000401400004004000080040A8
:10361000000C0040001000400014004010B540F2C3
:1036200025511D4800F04AF810B31B4800F000F97E
:10363000C4B21A48008800F40040C8B9174800888E
:1036400000F4804060B10A2C03D0002013490880A8
:1036500020E01248008840F400401049088019E03A
:103660000D2C06D10D48008840F480400B4908809D
:1036700010E00A480088C0F30D0009490C540748BF
:103680000088401C0549088008460088C72801DDDD
:103690000020088010BD00000048004024000020E9
:1036A0005801002021B1828942F40052828104E055
:1036B00082894DF6FF731A408281704770B50246C9
:1036C000002400230025002040F66A16B14200D1F4
:1036D00000BFC1F3421501F01F03012606FA03F3F0
:1036E000012D02D19689334006E0022D02D1168ABF
:1036F000334001E0968A33400C12012606FA04F4A6
:103700001688344013B10CB1012000E0002070BDD8
:10371000F0B50346002400260025002040F66A1775
:10372000B94200D100BF1846C1F3421401F01F0690
:10373000012707FA06F5012C01D10C3004E0022C18
:1037400001D1103000E014301AB107682F43076030
:1037500002E00768AF430760F0BD00002DE9FF47B6
:1037600005460E460024A14600BFA046B08900B120
:1037700000BF2C8A24F44054F08804432C82AC8986
:1037800041F20C608443B088318908437189084351
:103790000443AC81AC8A24F44074B0890443AC8205
:1037A0006846FFF729FC2048854202D01F48854221
:1037B00002D1DDF80C9001E0DDF80890A88900F452
:1037C000004040B109EBC90000EB09103168490025
:1037D000B0FBF1F707E009EBC90000EB0910316815
:1037E0008900B0FBF1F76420B7FBF0F00401200979
:1037F000642101FB1078A88900F4004040B1322018
:1038000000EBC800B0FBF1F000F00700044308E053
:10381000322000EB08106421B0FBF1F000F00F0043
:1038200004432C81BDE8FF870010014000140140D3
:1038300001468888C0F30800704700BFFEE700001B
:1038400010B50848008800F4004048B105480478E5
:1038500000200449088004A0FCF718FD204610BD94
:103860000020FCE72400002055736172742072650B
:1038700063656976652073756363657366756C6CE3
:1038800079210D0A000000001CB501210220FFF77C
:1038900073FB3020009001208DF8040000208DF88B
:1038A000060003208DF8050002208DF80700694608
:1038B0000348FEF743FF30210148FEF7AAFF1CBD75
:1038C0000004024003B401984100009850EAC1206E
:1038D00018BF04204A0D18BF40F0010040F2FF72EB
:1038E000B2EB515F08BF40F00200012808BF05207D
:1038F00002B070472DED020B019820F000400190BE
:103900009DED000B02B0704730380A2801D201202B
:1039100070470020704700BF70470000F0B52DEDE4
:10392000068B87B000240025002001900026FFF7B9
:1039300087FF0646002E7CD0ADA0FCF7A7FC01AAAD
:1039400002A93046FEF740FE05469DF80400F9281E
:1039500070D0FA286FD0FB2832D0FF286CD19DF8A8
:1039600009006438642110FB01F19DF808006438F7
:1039700000EBC00202EB001001EB800000B29E4998
:1039800008809DF808006438642110FB01F19DF85F
:103990000900643800EBC00202EB0010A1EB8000CC
:1039A00000B2954948800846B0F9001093A0FCF792
:1039B0006DFC9148B0F9021092A0FCF767FC11E190
:1039C000072D58D1002450E09DF808000A2190FBF3
:1039D000F1F000EE100AB8EEC00A04EBC4008B4907
:1039E00001EBC00080ED090A9DF809000A2190FB57
:1039F000F1F000EE100AB8EEC00A04EBC4008349EF
:103A000001EBC00080ED0A0A9DF80A000A2190FB34
:103A1000F1F000EE100AB8EEC00A04EBC4007B49D6
:103A200001EBC00080ED0B0A9DF80C009DF80B1017
:103A300003E0D9E0CEE022E0D3E000EB012000B2C9
:103A400004EBC401714A02EBC10188839DF80E00AA
:103A50009DF80D1000EB012001B204EBC40002EB55
:103A6000C000A0F84010601CC4B2072CACDB68A0FA
:103A7000FCF70CFC02E06AA0FCF708FCB2E00024B2
:103A8000A4E004BB02AA611C515C125D01EB0220A0
:103A900000F017FD41EC1A0B9FED660B53EC102B59
:103AA00000F062FD41EC190B9FED640B53EC102B01
:103AB00000F08EFE41EC180B00F0A6FC01B253485A
:103AC000A0F8441067E0022C20D102AA611C515CCE
:103AD000125D01EB022000F0F4FC41EC1A0B9FEDAB
:103AE000550B53EC102B00F03FFD41EC190B9FEDF3
:103AF000550B53EC102B00F07BFA41EC180B00F047
:103B000083FC01B24148A0F88C1044E0042C20D181
:103B100002AA611C515C125D01EB022000F0D1FC95
:103B200041EC1A0B9FED430B53EC102B00F01CFDE6
:103B300041EC190B9FED450B53EC102B00F058FA9C
:103B400041EC180B00F060FC01B23048A0F8D41032
:103B500021E0062C1FD102AA611C515C125D01EB11
:103B6000022000F0AEFC41EC1A0B9FED320B53EC3F
:103B7000102B00F0F9FC41EC190B9FED360B53ECC8
:103B8000102B00F025FE41EC180B00F03DFC01B2BB
:103B90001E48A0F81C11274604EBD770401000EB1C
:103BA000C0001A4A02EBC000B0F944102BA0FCF789
:103BB0006DFB0121204604EBD072521002EBC202D1
:103BC000124B03EBC2029176A01CC4B2AC42FFF6CA
:103BD00058AF07E027480068C0432749C1F894025E
:103BE00000E000BF00BF002607B0BDEC068BF0BDB3
:103BF000646562756700000016000020D7F33A255F
:103C000064000000D3D23A25640000003800002090
:103C1000504944C9E8D6C3B3C9B9A6A3A10D0A0047
:103C2000CEB4C4DCB3C9B9A6C9E8D6C3504944A3CD
:103C3000A10D0A009E5E29CB10C7F13F00000000D5
:103C400000C0684000000000000054400000000078
:103C5000000057400000000000406A40CEBBD6C3C1
:103C6000BDC7B6C8C9E8D6C3CEAAA3BA25640D0A93
:103C700000000000940241420000414210B5044699
:103C80006FF00400FFF7F0FAE11704EB5171C1F394
:103C9000C701074A11701046007800EB4001C1EBE4
:103CA000C0104FF6FF7101EAC0000249088010BD44
:103CB0001A0000201C00002070B504464FF4077065
:103CC00094FBF0F0C6B24FF4077094FBF0F100FBE8
:103CD000114085B205E04FF4077000F009F8701E3E
:103CE000C6B2002EF7D115B1284600F001F870BD1C
:103CF0000146114A12884A434FF0E0235A610022DC
:103D00009A611A46126942F001021A6100BF4FF02F
:103D1000E022106900F001021AB100F48032002A9A
:103D2000F5D04FF0E022126922F001024FF0E023BB
:103D30001A6100229A6170471C00002000BF054AEA
:103D4000128802F04002002AF9D0C2B2014B1B1DBA
:103D50001A8070470048004010B52DED068B0446D0
:103D6000002008EE100A9FED270AF0EE408A34B1D9
:103D7000012C0BD0022C10D0032C1CD114E00521F7
:103D80000420FEF763FD08EE100A14E00521084642
:103D9000FEF75CFD08EE100A0DE005210620FEF797
:103DA00055FD08EE100A06E005210720FEF74EFD3E
:103DB00008EE100A00BF00BFB8EE480A10EE100A65
:103DC00000F0FCFD41EC1A0B9FED0F0B53EC102B98
:103DD00000F0CAFB41EC190B00F0D8F808EE900A8D
:103DE0009FED0B0A28EE800ADFED0A0A80EE201A0A
:103DF00004EBC400084901EBC00080ED001ABDECE3
:103E0000068B10BD000000006666666666664A3F67
:103E100000009143333353403800002008B54FF47D
:103E2000A060FFF79DF8A820FFF728FF4FF4E130CE
:103E300000F040F800200323062205210090FDF742
:103E4000B1FC00200323062205210090FDF70EFFA0
:103E5000FEF74EFDFDF762FBFFF742F94AF20F4114
:103E60001E20FFF77BFA4FF448710720FEF714FD80
:103E7000FFF70AFDFEF75CFDFEF7E6FAFFF7C6F96D
:103E800008A0FCF703FA0BE0FEF702FDFFF746FD82
:103E9000FDF786FB05480068C0430549C1F8B40238
:103EA000F2E7000048656C6C6F000000B40241420C
:103EB0000000414210B588B0044601210420FFF7FC
:103EC0005BF801218804FFF767F807220A212248DE
:103ED000FEF77CFC07220B211F48FEF777FC4FF40E
:103EE0004060069002208DF81C008DF81D00002017
:103EF0008DF81E0001208DF81F0006A91648FEF758
:103F00001DFC02940020ADF80C00ADF80E00ADF8D9
:103F10001000ADF814000C20ADF8120002A90F48F3
:103F2000FFF71CFC01210D48FFF7BCFB012240F20A
:103F300025510A48FFF7ECFB27208DF804000320E9
:103F40008DF805008DF8060001208DF8070001A806
:103F5000FEF7CAFF08B010BD00080240004800404C
:103F600010B500290AD00878002807D00548784401
:103F7000FCF71CFE002801D0002010BD0248784448
:103F800010BD0000FE0B0000F60B000021F0004207
:103F9000A2F16052B2F5801F01F0004328BFD2F1B8
:103FA0007F6C0BD95FEA001C43EAC20242EB5070FF
:103FB00018BF704728BF20F001007047B2F5801F7E
:103FC000BCBF184670474FEA410C1CF5001F02D2D7
:103FD000084600F069BD70B500F070FB0000008974
:103FE000FFF7F6BF4FF00040A0F5800070470000DB
:103FF00010B591EA030F48BF83F0004300F1FC8342
:10400000841A71EB030C05D2121943EB0C03001B4D
:1040100061EB0C01DFF824E14FEA1154A4EB135CCF
:104020001EEA430F18BF9EEA445F73D023EA0E03D3
:10403000DCF1200E21EA045143F4801332D322FA3A
:104040000CFE10EB0E0023FA0CFE41EB0E01CCF13E
:10405000200E03FA0EFE10EB0E0051F10001B1F537
:10406000801FCCF1200E32D201EB045112FA0EF275
:10407000BDE8104058BF7047401C38BF5FEA42029D
:1040800018BF7047002814BF20F0010041F1000163
:104090004FEA410313F5001F38BF7047A1F1C0413B
:1040A00000F05ABB012A43EB0302ACF1200CDCF117
:1040B0001F0E32BF4FF0000E23FA0CF310EB03007B
:1040C00041EB0451B4EB115FD0D0A1EB045101F5E9
:1040D000801149085FEA300001EB04510ED350F122
:1040E000000038BF12FA0EFE08D1BDE81040C9E743
:1040F000401C38BF5FEA4202CAD1C3E7BDE81040A6
:104100004FEA410313F5001F38BF7047A1F1C041CA
:1041100000F022BB9EEA445F08D011EA5E0FBDE8C2
:10412000104004BF01F0004100207047BDE810407E
:1041300070B500F0C3FA00BF64FBBE3E0000E0FFB4
:10414000491058BFC1F140415B1058BFC3F1404313
:104150008B42EFF3008070472DE9C04130B4DFF8A7
:10416000A0C23CEA111418BF3CEA131400F0EC8022
:1041700081EA03051CEA111444EAD57418BF1CEA4D
:10418000131500F0C780A4EB05044FF0004545EA85
:10419000C12145EAC32341EA505143EA525304F195
:1041A0007F74994204F500344FEAC0204FEAC222DE
:1041B00008BF904200F09C804FEA13650FF2401652
:1041C000765D4FEA134506FB05F7C7F1807706FBDE
:1041D00007F74FEAD737A7FB03687642C8F5803860
:1041E000A7FB06CE38BFA8F1010807FB08E64FF091
:1041F000000EA6FB028CE6FB03CEDCF1000CCEF138
:10420000004E38BFAEF1010EA6FB0C584FF0000770
:104210004FF00005E6FB0E87A1FB08C6A0FB07CE0A
:1042200016EB0E0645F10005E1FB076515F1E04EC2
:104230007EBFA4F580345FEA46066D4116F1800723
:1042400045F100054FEA17274FEA066647EA05677A
:10425000A6F1DE46B6F1805F4FEA15251FD9384634
:1042600024F0010C05EBC471BCF1FE6F01EB0C11E5
:1042700002D8F0BCBDE8008124425CBF01F5801E7D
:104280009EEAC47F02D4F0BCBDE80081244238D449
:10429000F0BCA1F1C041BDE8004100F05DBA4FEAB9
:1042A000D22242EA43524FEAD323A7FB02864FEAC7
:1042B000D02040EA415007FB03661EEA0E0F4FEA8A
:1042C000D12105FB026658BFA6EB0056B6EB00569F
:1042D0004FEA520E4EEAC37E18EB0E0E56EB530E0B
:1042E000BDD518EB02085E417F1C55F10005B6E70D
:1042F0004FF480154FF000074FF000064FF0000814
:10430000ADE7F0BC4FF0000001F1C04101F0004109
:10431000BDE8008111EA0C1F0CEA131500D00CE077
:1043200013EA0C1F00F025804FF00000F0BC81EA7A
:10433000030101F00041BDE80081F0BCBDE800418F
:1043400081EA030100F008BAF0BCBDE8004170B595
:1043500000F0B4F9097EFC3E00F007B881EA0301E1
:104360004FF0000001F00041704781EA030100F0C6
:10437000F3B9F0BCBDE800414FF00000214970479F
:10438000FFFDFBF9F7F5F4F2F0EEEDEBE9E8E6E41A
:10439000E3E1E0DEDDDBDAD8D7D5D4D3D1D0CFCDA1
:1043A000CCCBCAC8C7C6C5C4C2C1C0BFBEBDBCBBDA
:1043B000BAB9B8B7B6B5B4B3B2B1B0AFAEADACABD5
:1043C000AAA9A8A8A7A6A5A4A3A3A2A1A09F9F9EAF
:1043D0009D9C9C9B9A999998979796959594939361
:1043E000929191908F8F8E8E8D8C8C8B8B8A8989F8
:1043F000888887878685858484838382828181807B
:104400000000FF070000F87F4FEA41034FEA5353D3
:10441000A3F58063D3F11E03C8BFD3F1210C0CDDDB
:104420004FF0004242EAC12242EA505232FA03FC03
:104430008CEAE17CACEBE1707047102BC4BF00202C
:10444000704703F5787CBCF1FF3F04D06FF0004269
:1044500082EA2100704770B500F030F9499224805B
:1044600000207047F2E700004FEA1153A3F5806384
:10447000D3F11E03A8BFD3F1200C08DB4FF000429C
:1044800042EAC12252EA505232FA03F0704709421E
:104490000BD4102BC4BF0020704703F5787CBCF10F
:1044A000FF3F05D04FF0FF3070474FF000007047DE
:1044B00070B500F003F900BF4992248000207047D6
:1044C000F0E710F0004248BF4042B0FA80F310FA23
:1044D00003F10AD0C3F11D0303F580634FEA415095
:1044E00002EB035202EBD12170474FF000007047FE
:1044F00051EA030C17D41CF5801F58BFBCF5801F70
:1045000000F10680994218BF704708BF904270477B
:1045100007D711F5801F58BF13F5801F19D4994292
:104520007047894270471CF5801F08D5BCF5801F75
:10453000F7D58B4218BF704708BF824270474FF4CF
:10454000001C1CEB410F38BF1CEB430F01D28B4208
:10455000704770B500F0B2F8922449004FF0005156
:104560004FF08053FFF7ECBDDFF848C170B51CEA8F
:10457000111E1EBF1CEA13159EEA0C0F95EA0C0FC4
:1045800000F06F8081EA030423EA4C134EEAD47EE4
:1045900021EA4C1141F4801143F48013AE44A1FB95
:1045A000024CA0FB0365AEF17F7E361955EB0C057E
:1045B000A1FB034C4CF10003A0FB021C16EB0C0604
:1045C000654153F10003094218BF46F0010613F498
:1045D000007F0BD14FEA03314FEA0530340341EA43
:1045E000155140EA16506FF003020AE04FEAC3216A
:1045F0004FEAC520F40241EA555140EA56506FF0A7
:10460000020202EB2E4201EB025585EACE710AD07E
:104610005FEA440C18BF24F0004450F1000041F15F
:10462000000120EAD47040F2FE7C624500D270BDE9
:10463000A84214BF4FF080444FF04044002E08BF02
:104640000024BEF1806FA8BFA1F1C041BDE8704059
:1046500080F282804FF0000001F1C04101F0004182
:1046600070479EEA0C0F0CEA131518BF95EA0C0F61
:1046700006D04FF0000081EA030E0EF0004170BD3D
:1046800000F01CF88900013E00F007B800F009B8FE
:104690004FEA430C5FEA5C5C08D081EA030100F05A
:1046A0005BB84FEA410C5FEA5C5CF6D14FF000006A
:1046B000014970470000FF070000F87F0EF1020E6D
:1046C0002EF0030E5EF8046B364205D4012A43EB4C
:1046D000030515F5001F12D8012841EB010C1CF54C
:1046E000001F0CD80ED14FEAD17C15F5001F0CEB42
:1046F0004C0C0CF1020C08BF4CEBD37C04E04FF0E7
:10470000080C01E04FEAD37C0CEB4C0526FA05F6C9
:1047100006F00706B6F1040C06D20EEB860CBDE8D7
:1047200070404CF0010C6047DFE80CF0090B02020E
:104730004FF000414FF00000A1F5002170BD194677
:104740001046012851EB010418BFD4F5001484BFB2
:10475000002001F0004170BD0808A0F500114FEAEB
:104760003101704753EA010C17D41CF5801F58BF64
:10477000BCF5801F00F106808B4218BF704708BF50
:104780008242704707D713F5801F58BF11F5801F6D
:1047900019D48B4270479B4270471CF5801F08D587
:1047A000BCF5801FF7D5994218BF704708BF9042EB
:1047B00070474FF4001C1CEB430F38BF1CEB410F3C
:1047C00001D2994270470FB40CBC03BCFFF7C1BEC5
:1047D00091EA030F10B581F000413FF511AC83F071
:1047E000004300F009B8000010B591EA030F48BF7C
:1047F00083F000433FF504AC841A71EB030C07D23D
:1048000012198CF0004C43EB0C03001B61EB0C0104
:10481000DFF8A4E14FEA1154A4EB135C1EEA430F46
:1048200018BF9EEA445F00F0B08023EA6E03524254
:1048300021EA0451C3EB6E0338BF5B1EDCF1200E8E
:1048400025D322FA0CFE10EB0E0043FA0CFE41EBCE
:104850000E01CCF1200E03FA0EFE10EB0E0051F10A
:104860000001CCF1200E29D412FA0EF201EB045112
:10487000BDE8104058BF7047401C1CBFB2F1004F4C
:10488000704700280CBF491C20F00100704712EB54
:10489000020E43EB030218BF4FF0010E4EEA420234
:1048A000ACF1200CDCF11E0E54D943FA0CFE10EBD7
:1048B0000E0051F1FF31CCF11E0ED5D50EF1010ED7
:1048C00012FA0EFE404141EB010101EB445C5FEA4C
:1048D0005C5C10D910EBDE7001EB045138BFBEF107
:1048E000004FBDE8104018BF704700280CBF491C9E
:1048F00020F00100704730D24FEAD42C11F500119E
:1049000024F400641BD0B1FA81F20B3AA41AA41E5D
:10491000D2F12003914030FA03F31943904001EBA8
:10492000CC71002C01EB0451BDE81040A8BF7047CA
:1049300001F1C0414FF0000001F000417047B0FAB2
:1049400080F310FA03F100D110BDE41A173C4805BA
:10495000C90AE4E701EB045110BD491001EB045111
:10496000BDE810404FEA300002E04FF00001704710
:104970004A0008BF0042F8D0B2F5001F28BF7047B8
:1049800001F000414FF0000070479EEA445F07D0FD
:1049900011EA5E0FBDE8104004BF002100207047FF
:1049A000BDE8104070B5FFF789FE00BF40DFF63E5E
:1049B00083F00041104670470000E0FF43004FEADB
:1049C000D30C4FEA3C0C43401FBF40070CF1605131
:1049D00013F0FE4F70471CF0006F03D100200CF065
:1049E000004170470CF0004343EA507010B540EAB4
:1049F000CC0000F00EF800BF000000924FEA00016A
:104A0000FFF7AABE4FF000414FF00000A1F50021D2
:104A100070470EF1020E2EF0030E5EF8044B244296
:104A200004D44FEA4102B2F17F4F11D84FEA40035C
:104A3000B3F17F4F0CD80ED14FEAD07CB2F17F4F4B
:104A40000CEB4C0C0CF1020C08BF4CEBD17C04E0DD
:104A50004FF0080C01E04FEAD17C0CEB4C0324FA38
:104A600003F404F00704B4F1040C06D20EEB840C3A
:104A7000BDE810404CF0010C6047DFE80CF007087F
:104A800002024FF00040A0F5800010BD0846420031
:104A900018BFD2F1807288BF00F0004010BD4FF007
:104AA0004070E1EE100A7047FF2141EAD050C00586
:104AB0007047FBF7EEBD000002400000000000A0C0
:104AC0000000000005400000000000C800000000D9
:104AD0000C4000000000409C000000001940000055
:104AE0000020BCBE0000000034400000BFC91B8E87
:104AF00000000004B5400000504BCFD06607E2CF65
:104B0000010000006C4100003E8251AADFEEA73494
:104B100001000000D9420000DCB5A0E23A301F9746
:104B2000FFFFFFFFB4450000FD25A0C8E9A3C14F6A
:104B3000FFFFFFFFFF3F00000000008000000000BB
:104B4000FF3F00000000008000000000884B0008CC
:104B50000000002038000000C4010008C04B00081D
:104B60003800002048080000E00100081C00000098
:104B700043000000F8FFFFFF0C0000000E000000E3
:104B80000F0000002E0000000000000000000000E8
:104B90001400000000000000000000010000000000
:104BA0000000000000000000000000000000000005
:104BB00000000102030401020304060708090000C3
:040000050800018965
:00000001FF
