:020000040800F2
:10000000F8070020B52E00087107000873070008E4
:10001000770700087B0700087F0700080000000042
:10002000000000000000000000000000830700083E
:1000300085070008000000008707000889070008FE
:10004000CF2E0008CF2E0008CF2E0008CF2E00089C
:10005000CF2E0008CF2E0008E7280008FB28000854
:10006000CF2E0008CF2E0008CF2E0008CF2E00087C
:10007000CF2E0008CF2E0008CF2E0008CF2E00086C
:10008000CF2E0008CF2E0008CF2E0008CF2E00085C
:10009000CF2E0008CF2E0008CF2E0008CF2E00084C
:1000A000CF2E0008CF2E0008CF2E0008CF2E00083C
:1000B000CF2E0008CF2E0008CF2E0008CF2E00082C
:1000C000CF2E0008CF2E0008CF2E0008CF2E00081C
:1000D000CF2E0008252E0008CF2E0008CF2E0008B6
:1000E000CF2E0008CF2E0008CF2E0008CF2E0008FC
:1000F000CF2E0008CF2E0008CF2E0008CF2E0008EC
:10010000CF2E0008CF2E0008F11E0008CF2E0008C9
:10011000CF2E0008CF2E0008CF2E0008CF2E0008CB
:10012000CF2E0008CF2E0008CF2E0008CF2E0008BB
:10013000CF2E0008CF2E0008CF2E0008CF2E0008AB
:100140008D120008CF2E0008CF2E0008CF2E0008F9
:10015000CF2E0008CF2E0008CF2E0008CF2E00088B
:10016000CF2E0008CF2E0008CF2E0008CF2E00087B
:10017000CF2E0008CF2E0008CF2E0008CF2E00086B
:10018000CF2E0008CF2E000800F002F800F04CF847
:100190000AA090E8000C82448344AAF10107DA45E2
:1001A00001D100F041F8AFF2090EBAE80F0013F0E8
:1001B000010F18BFFB1A43F001031847407F0000EE
:1001C000607F0000103A24BF78C878C1FAD852077F
:1001D00024BF30C830C144BF04680C6070470000C1
:1001E0000023002400250026103A28BF78C1FBD840
:1001F000520728BF30C148BF0B607047662907F01F
:100200009686642905F0BA83002070471FB507F071
:1002100084FE05F0FDFE04000020002107F0ECF84C
:10022000E0601FBD10B510BD06F00EF81146FFF7D7
:10023000EDFF00F059FA06F02CF803B4FFF7F2FFD7
:1002400003BC02F091FD000010B52DED068B88B0C7
:1002500000249FEDF90AB0EE408A9FEDF70A8DED7C
:10026000070A9FEDF50A8DED060A01AA0021F34861
:1002700004F02BFE01982F2806D0372845D03F28C0
:100280007ED047287DD15CE1DDF80F00079007980C
:1002900007F0D2FD41EC190B53EC192BE8A005F047
:1002A00061FB9DED070ADFEDE90A30EE200A8DEDD6
:1002B000070ADDED070AE64890ED001A9FEDE50A12
:1002C00000EE810ABDEEC00A10EE100A04B2B4F5C9
:1002D000FA7F02DC4FF4FA7404E040F6C410844262
:1002E00000DB0446DC48B0F90000844206D0DA485E
:1002F0000480008881B2032000F090FCD648B0F959
:100300000010D6A005F02EFB8BE1DDF80F00079062
:100310009DED070AB1EE400AB0EE408AB9EE000A40
:10032000B4EEC08AF1EE10FA04D8B9EE000AB0EECD
:10033000408A08E0B5EEC08AF1EE10FA03DB9FEDCB
:10034000BE0AB0EE408AC84890ED000A38EE400A76
:1003500010EE101A084607F06FFD41EC1A0BB0EED4
:100360004A0AF0EE6A0A06F013FCB0EE409AF0EE8C
:10037000609A9FEDBE0B53EC102B51EC190B01E072
:100380006EE04DE107F0F2FA2AD2B74890ED000A8C
:10039000B4EE408AF1EE10FA17D080ED008AD0ED6D
:1003A000000AB5EE001A70EE810A9FEDB21A60EEF7
:1003B000810AB0EE600A9FEDA02AF6EE001AB2EEB6
:1003C0000E1ADFED9D0A02F007FBA748006807F050
:1003D00033FD41EC190B53EC192BA7A005F0C2FA21
:1003E000DDF8130006909DED060AB1EE400A8DED92
:1003F000060A9DED060AA348D0ED000A20EE200A69
:10040000B0EE408A9FEDA00AB4EEC08AF1EE10FA79
:1004100004DB9FED9D0AB0EE408A08E0B5EEC08A8D
:10042000F1EE10FA03D89FED840AB0EE408A9748A7
:1004300090ED000AB4EE408AF1EE10FA04D080ED9F
:10044000008A0120924988769048006807F0F4FC01
:1004500041EC190B53EC192B8EA005F083FAE0E068
:10046000DDF80F0007909DED070AB1EE400ADFEDC1
:100470008C0A30EE200A8DED070ADDED070A894867
:1004800090ED001A9FED730A00EE810ABDEEC00ADE
:1004900010EE100A04B2B4F5FA7F02DC4FF4FA74DD
:1004A00004E040F6C410844200DB04467E48B0F904
:1004B0000000844206D07C480480008881B2042079
:1004C00000F0ACFB7848B0F9001078A005F04AFACB
:1004D000DDF8130007909DED070AB1EE400ADFED4D
:1004E000750A30EE200A8DED070ADDED070A6D482A
:1004F00090ED001A9FED570A00EE810ABDEEC00A8A
:1005000010EE100A04B2B4F57A7F02DC4FF47A746C
:1005100004E040F62E10844200DB04466648B0F941
:100520000000844206D064480480008881B205201F
:1005300000F074FB6048B0F9001060A005F012FAFA
:100540006FE0DDF80F0007909DED070ADFED5D0A13
:1005500030EE200A8DED070ADDED070A514890EDD7
:10056000001A9FED3C0A00EE810ABDEEC00A10EEB3
:10057000100A04B240F2AA50844201DC044604E0AE
:1005800040F66600844200DB04464F48B0F90000A4
:10059000844206D04C480480008881B2072000F0D5
:1005A0003DFB4948B0F9001048A005F0DBF9DDF843
:1005B000130007909DED070AB1EE400ADFED380AFF
:1005C00030EE200A8DED070ADDED070A354890ED83
:1005D000001A9FED200A00EE810ABDEEC00A10EE5F
:1005E000100A04B2B4F5FA7F02DC4FF4FA7404E0A6
:1005F00040F6C410844200DB04463648B0F90000DF
:10060000844206D033480480008881B2062000F07E
:1006100005FB3048B0F900102FA005F0A3F900E069
:1006200000BF00BF2E480068C0432E49C1F88002B9
:1006300008B0BDEC068B10BD000000000064004057
:10064000333A252E32660D0A00000000508D0F400F
:10065000387F00080000FA4300000020333A252EBE
:1006600032640D0A00000000380000200000000085
:100670000000E03FCDCC4C3F313A252E32660D0ACA
:10068000000000003C7F0008000087433400002089
:1006900068000020323A252E32660D0A0000000064
:1006A000C3F5C83F347F000802000020343A2564B7
:1006B0000D0A00001F858B3F04000020353A256499
:1006C0000D0A00000AD7C33F08000020373A25640E
:1006D0000D0A000006000020363A25640D0A0000CD
:1006E000800241420000414208B54FF4A06002F090
:1006F00001FCA82002F0B6FA4FF4E13002F041FB11
:1007000002F002F901F082FC0020032306220521F9
:10071000009000F041FC00200323062205210090F8
:1007200000F000FD00F055F900F0D8FD00F0EEFB00
:1007300002F06BFA00F032F901F00AFD4AF20F41C3
:10074000132001F0A9FBC821062002F015F906A02C
:1007500005F008F907E0FFF777FD01F0C7FC02F0AC
:100760001DF901F0CFFDF6E7496E69740D0A00002E
:10077000704700BFFEE700BFFEE700BFFEE700BF17
:10078000FEE7704770477047704700000CB50020C7
:10079000019000907648006840F480307449086009
:1007A00000BF7348006800F4003000900198401CBE
:1007B0000190009818B90198B0F5A04FF1D16C489C
:1007C000006800F4003010B10120009001E000202A
:1007D00000900098012846D165484030006840F0FC
:1007E00080506349403108606248006840F44040EE
:1007F000604908605E48083000685D49083108605B
:100800000846006840F4004008600846006840F46C
:10081000A05008605848091F0860081F006840F091
:100820008070091F086000BF5148006800F0007028
:100830000028F9D040F20570504908604C48083053
:10084000006820F003004A49083108600846006843
:1008500040F00200086000BF45480830006800F022
:100860000C000828F8D10CBD10B54548006840F4CC
:100870007000434908603E48006840F001003C4970
:10088000086000203A4908310860394800683D494D
:100890000840374908603C48091D0860081F006887
:1008A00020F48020091F0860002031490C310860C5
:1008B000FFF76CFF4FF0006031498039086010BDD0
:1008C00070B500200022022300240221284D0835A3
:1008D0002D6805F00C0020B1042806D0082834D17A
:1008E00007E02A4D2A4E356033E02A4D284E356008
:1008F0002FE01F4D2D1D2D68C5F380541C4D2D1D5F
:100900002D6805F03F0154B1224DB5FBF1F5184EAD
:10091000361D3668C6F3881605FB06F209E01B4D46
:10092000B5FBF1F5124E361D3668C6F3881605FB89
:1009300006F20F4D2D1D2D68C5F301456D1C6B0092
:10094000B2FBF3F5124E356003E0104D104E3560EA
:1009500000BF00BF064D08352D68C5F303150E4EC8
:10096000705D0B4D2D68C540094E356070BD0000AF
:10097000003802400070004008544007003C02402C
:1009800088ED00E0FFFFF6FE103000240024F400A4
:100990000C00002000127A00100000201CB501217C
:1009A000042003F0B7FE012000908DF80400002021
:1009B0008DF8060003208DF8050001208DF8070052
:1009C0006946124802F08CFB0121104802F006FC37
:1009D0001CBD1CB50121022003F09CFE30200090BC
:1009E00001208DF8040000208DF8060003208DF80A
:1009F000050002208DF807006946054802F070FBEB
:100A00003021034802F0EAFB1CBD00000008024050
:100A10000004024030B58BB004460D46012104208D
:100A200003F0C1FE0121022003F074FE0222062120
:100A3000774802F0E0FB02220721754802F0DBFB59
:100A4000C020099002208DF8280003208DF829008D
:100A500000208DF82A0001208DF82B0009A96C4890
:100A600002F03EFBA8B2ADF818000020ADF81A0065
:100A70000794ADF8200006A9664802F0CCFE60207D
:100A8000ADF804000120ADF806000020ADF810001C
:100A900001A9604802F054FF01A95E4802F089FFF5
:100AA00008215C4803F0D9F808215A4803F0DEF821
:100AB0000121584802F01AFF0121564802F034FF84
:100AC0000BB030BD30B58BB004460D46012102207D
:100AD00003F069FE0121022003F01CFE0222002126
:100AE0004B4802F088FB02220121494802F083FBB7
:100AF0000320099002208DF8280003208DF829009A
:100B000000208DF82A0001208DF82B0009A940480B
:100B100002F0E6FAA8B2ADF818000020ADF81A000D
:100B20000794ADF8200006A93B4802F074FE60204F
:100B3000ADF804000120ADF806000020ADF810006B
:100B400001A9354802F082FF01A9334802F0E4FF11
:100B50000821314803F097F808212F4803F09CF84A
:100B600001212D4802F0C2FE01212B4802F0DCFEDB
:100B70000BB030BD30B58BB004460D4601210846A0
:100B800003F011FE0121022003F0C4FD0122032124
:100B90001F4802F030FB0820099002208DF8280041
:100BA00003208DF8290000208DF82A0001208DF8FF
:100BB0002B0009A9164802F093FAA8B2ADF8180064
:100BC0000020ADF81A000794ADF8200006A94FF0F8
:100BD000804002F020FE6020ADF804000120ADF856
:100BE00006000020ADF8100001A94FF0804002F08F
:100BF000E0FE0821C80603F039F80121880702F059
:100C000075FE0121880702F08FFE0BB030BD000099
:100C10000004024000080040000400402DE9F041BB
:100C200007460D46F81E05284AD2DFE800F0F1DD40
:100C3000934A030040F2C350854201DC054604E0BC
:100C400040F26C70854200DB0546D04830F8170052
:100C5000A84215DACD4830F817400EE02646314656
:100C6000CB4802F0C8FF052002F05EF801F096FEC6
:100C7000C64820F81740601D84B2AC42EEDD1FE08C
:100C8000C24830F81700A84215DDC04830F81740B8
:100C90000EE026463146BE4802F0ADFF052002F0C8
:100CA00043F801F07BFEB94820F81740601F84B27A
:100CB000AC42EEDA04E02E463146B54802F09BFF26
:100CC00021E1B5F5FA7F02DC4FF4FA7504E040F655
:100CD000C410854200DB0546AC4830F81700A84236
:100CE00016DAAA4830F817400FE026463146A848E1
:100CF00002F07FFF052002F017F801F04FFEA34835
:100D000020F8174004F10A0084B2AC42EDDD20E087
:100D10009E4830F81700A84216DD9C4830F817406E
:100D20000FE0264631469A4802F063FF052001F0A5
:100D3000FBFF01F033FE954820F81740A4F10A00AC
:100D400084B2AC42EDDA04E02E463146904802F01F
:100D500050FFD8E0B5F57A7F02DC4FF47A7504E0F5
:100D600040F62E10854200DB0546884830F8170013
:100D7000A84216DA854830F817400FE0264631467B
:100D80004FF0804002F037FF0A2001F0CDFF01F064
:100D900005FE7E4820F81740A01C84B2AC42EDDD71
:100DA00021E07A4830F81700A84216DD774830F87D
:100DB00017400FE0264631464FF0804002F01BFFFF
:100DC0000A2001F0B1FF01F0E9FD704820F817405A
:100DD000A01E84B2AC42EDDA05E02E4631464FF05B
:100DE000804002F008FF8EE0B5F5FA7F02DC4FF498
:100DF000FA7504E040F6C410854200DB05466348FE
:100E000030F81700A84216DA604830F817400FE0B3
:100E100032E0264631465F4802F0F1FE052001F03F
:100E200083FF01F0BBFD594820F81740A01C84B295
:100E3000AC42EEDD1FE0554830F81700A84215DD42
:100E4000524830F817400EE026463146514802F02D
:100E5000D6FE052001F068FF01F0A0FD4B4820F808
:100E60001740A01E84B2AC42EEDA04E02E463146B2
:100E7000484802F0C4FE46E0B5F5FA7F02DC4FF4C4
:100E8000FA7504E040F6C410854200DB05463F4891
:100E900030F81700A84215DA3C4830F817400EE049
:100EA000264631463B4802F0A8FE052001F03CFFF3
:100EB00001F074FD354820F81740601D84B2AC4243
:100EC000EEDD1FE0314830F81700A84215DD2F484D
:100ED00030F817400EE0264631462E4802F08DFECF
:100EE000052001F021FF01F059FD284820F81740A6
:100EF000601F84B2AC42EEDA04E02E46314625484B
:100F000002F07BFE00BF00BFBDE8F08110B55321A9
:100F100044F61F60FFF77EFD532144F61F60FFF784
:100F2000D1FD532144F61F60FFF724FE322001F06B
:100F3000FBFE1648C188174802F05FFE322001F020
:100F4000F3FE12480189134802F059FE322001F0E5
:100F5000EBFE01F023FD0D4841894FF0804002F087
:100F60004AFE322001F0E0FE08488189084802F07C
:100F700040FE322001F0D8FE0448C189044802F046
:100F80003AFE322001F0D0FE10BD0000200000200B
:100F900000080040000400402DE9F0418AB00446FA
:100FA0000D4616461F46DDF840800121084603F035
:100FB000B1FB0121480603F0F6FB4FF4C050089046
:100FC00002208DF8240000208DF8260003208DF8E3
:100FD000250001208DF8270008A9BB4802F080F801
:100FE00009220B21B84802F006F909220C21B64863
:100FF00002F001F900208DF81A008DF81B008DF821
:101000001C0001208DF81D0000208DF81E008DF8B9
:101010001F008DF816808DF817408DF818608DF838
:101020001950ADF8147005A9A84803F0E0FC0020A1
:101030008DF80E0001208DF80F0000208DF81000B3
:101040004FF4BC60ADF804004FF4DC60ADF806006E
:101050004FF4FC60ADF808004FF40E60ADF80A00E4
:101060000020ADF80C0001208DF8110001A803F05C
:1010700048FD01208DF80E008DF80F0000208DF83E
:1010800010004FF43E60ADF804000020ADF80C00F5
:1010900001208DF8110001A803F033FD0AB0BDE86E
:1010A000F0812DE9F04186B007460D4690460024B8
:1010B000CDF80480002002908DF80C008DF80D0012
:1010C0008DF80E5000BF05E0395D0DF10F000155A0
:1010D000601C84B2AC42F7DB2C4605E000210DF128
:1010E0000F000155601C84B2082CF7DB01A977487A
:1010F00003F0F6FD0646002401E0601C84B2314690
:10110000724803F085FE18B940F6FF708442F4DBA4
:1011100040F6FF70844203DB012006B0BDE8F08199
:101120000020FAE72DE9F0418AB004460D46164644
:101130001F46DDF840800121022003F0EBFA012177
:10114000880603F030FB4FF44050089002208DF8E1
:10115000240000208DF8260003208DF825000120B2
:101160008DF8270008A95A4801F0BAFF09220C217E
:10117000574802F040F809220D21554802F03BF88B
:1011800000208DF81A008DF81B008DF81C0001203E
:101190008DF81D0000208DF81E008DF81F008DF8C1
:1011A00016808DF817408DF818608DF81950ADF83D
:1011B000147005A9474803F01AFC0E2003F032FD15
:1011C0000E208DF80E0000208DF80F0001208DF804
:1011D00010000020ADF80400ADF80600ADF80800DE
:1011E000ADF80A00ADF80C0001208DF8110001A83F
:1011F00003F087FC01220221364803F081FF4020E2
:101200008DF8000001208DF801008DF802008DF8A6
:101210000300684601F073FE0AB0BDE8F0812DE9D5
:10122000F04186B007460D4690460024CDF8048074
:10123000002002908DF80C008DF80D008DF80E50F6
:1012400000BF05E0395D0DF10F000155601C84B24F
:10125000AC42F7DB01A91F4803F042FD064600241B
:1012600001E0601C84B231461A4803F0D1FD18B980
:1012700040F6FF708442F4DB40F6FF70844203DBEB
:10128000012006B0BDE8F0810020FAE710B586B075
:1012900001AA00210F4803F018FE0198A0F20120D6
:1012A00070B9002406E00DF10F00015D0A480155F8
:1012B000601CC4B2082CF6DB002000F03FF800BF31
:1012C00000BF06B010BD00000000024000640040F6
:1012D0000004024000680040780000200020FE4921
:1012E0004860C86088600883012088764FF47A607F
:1012F00088839FEDFA0B084680ED080B9FEDF90BF4
:1013000080ED0A0B9FEDF90B80ED0C0B9FEDF90BB7
:1013100080ED0E0B9FEDF50B80ED100B9FEDF70BA5
:1013200080ED120B9FEDF70A80ED140A0021A0F862
:1013300060109FEDF40A80ED170A704700EB800102
:1013400001EBC001E44A02EBC101497C00EB8002E1
:1013500002EBC002E04B03EBC202127C01EB022164
:1013600009B200EB800202EBC00203EBC202516043
:1013700000EB800101EBC0011A4602EBC101CA7CFF
:1013800000EB800101EBC00103EBC101897C02EBA2
:10139000012109B200EB800202EBC00203EBC202A2
:1013A000916000EB800101EBC0011A4602EBC10124
:1013B0004A7D00EB800101EBC00103EBC101097D17
:1013C00002EB012109B200EB800202EBC00203EB49
:1013D000C202D160704710B5BF48008B000ACA49ED
:1013E0000870BD48007E48704FF400720221C64864
:1013F000FFF715FF10BD30B52DED0E8B83B0054600
:101400000C4600BF04EB840000EBC400B24901EBC2
:10141000C0008068281A00EE100AB8EEC00AF0EE8C
:10142000408A9FEDBA0AF4EEC08AF1EE10FA04DDAC
:101430009FEDB60AF0EE408A0AE09FEDB50AF4EEA1
:10144000C08AF1EE10FA03D29FEDB10AF0EE408AA5
:1014500004EB840000EBC4009F4901EBC00090ED59
:10146000170A30EE280A04EB840000EBC40001EBFD
:10147000C00080ED170A04EB840000EBC4000A46AC
:1014800002EBC00090ED170A10EE101A084606F0A5
:10149000D3FC41EC1A0BB0EE4A0AF0EE6A0A05F0F2
:1014A00077FBB0EE409AF0EE609A9FED9A0B53EC0A
:1014B000102B51EC190B06F093FB23D204EB8400A4
:1014C00000EBC400844901EBC00090ED170AB5EEB3
:1014D000C00AF1EE10FA0ADD9FED900A04EB8400D9
:1014E00000EBC40001EBC00080ED170A0AE09FED9D
:1014F0008C0A04EB840000EBC400774901EBC000C8
:1015000080ED170A002D72DD04EB840000EBC400AF
:10151000714A02EBC00090ED140A38EEC00A10EEDA
:10152000101A084606F088FC41EC1C0B04EB840002
:1015300000EBC400684901EBC00090ED0C1BB0EE5D
:10154000410AF0EE610A53EC102B51EC1C0B06F033
:1015500049FA41EC1A0B04EB840000EBC4005E4A2C
:1015600002EBC00090ED170A10EE101A084606F0C4
:1015700063FC41EC1E0B04EB840000EBC4005649F5
:1015800001EBC00090ED0A1BB0EE410AF0EE610ADB
:1015900053EC102B51EC1E0B06F024FA41EC1C0B03
:1015A00018EE900A06F048FC41EC1E0B04EB840098
:1015B00000EBC400484901EBC00090ED081BB0EE01
:1015C000410AF0EE610A53EC102B51EC1E0B06F0B1
:1015D00009FA53EC1C2B05F063FF53EC1A2B05F0B2
:1015E0005FFF05F02BFF08EE100A71E0FFE704EB48
:1015F000840000EBC400384A02EBC00090ED140AEE
:1016000038EEC00A10EE101A084606F015FC41EC40
:101610001C0B04EB840000EBC4002F4901EBC0005D
:1016200090ED121BB0EE410AF0EE610A53EC102B64
:1016300051EC1C0B06F0D6F941EC1A0B04EB8400BC
:1016400000EBC400244A02EBC00090ED170A10EE34
:10165000101A084606F0F0FB41EC1E0B04EB840068
:1016600000EBC4001C4901EBC00090ED101BB0EE74
:10167000410AF0EE610A53EC102B51EC1E0B06F000
:10168000B1F941EC1C0B18EE900A06F0D5FB41ECC9
:101690001E0B04EB840000EBC4000F4901EBC000FB
:1016A00090ED0E1BB0EE410AF0EE610A53EC102BE8
:1016B00051EC1E0B06F096F953EC1C2B05F0F0FED6
:1016C00053EC1A2B05F0ECFE05F0B8FE08EE100AFC
:1016D00004EB840026E00000680000200000000009
:1016E000000024409A9999999999C93F9A99999992
:1016F0009999D93F00000000000034409A999999C7
:101700009999E93F000000003000002000004843A4
:10171000000048C3000000000088C34000401C4691
:1017200000401CC600EBC400FE4901EBC000C0ED48
:10173000148A18EE100A06F07FFB41EC1A0BB0EE8B
:101740004A0AF0EE6A0A05F023FAB0EE409AF0EE8B
:10175000609A1FED1E0B53EC102B51EC190B06F089
:1017600005F904D21FED190AB0EE408A50E004EBEF
:10177000840101EBC401EB4A02EBC101B1F91C0089
:1017800006F0C9F841EC190B18EE100A06F054FBEC
:1017900041EC1B0BB0EE4B0AF0EE6B0A05F0F8F9CA
:1017A000B0EE40AAF0EE60AA53EC192B51EC1A0BE4
:1017B00006F016FA21D2B5EEC08AF1EE10FA0DDD70
:1017C00004EB840000EBC400D64901EBC000B0F983
:1017D0001C0000EE100AB8EEC08A19E004EB840089
:1017E00000EBC400CF4901EBC000B0F91C0040423F
:1017F00000EE100AB8EEC08A0AE0BDEEC80A10EE8C
:10180000100A00B200EE100AB8EEC00AB0EE408A2C
:10181000BDEEC80A10EE100A00B204EB840101EB21
:10182000C401C04A02EBC1010883BF4801780078B7
:10183000401CBD4A10700A2921DD18EE100A06F07E
:10184000FBFA41EC190B04EB840000EBC400B54932
:1018500001EBC000806802908DED009B04EB8400DA
:1018600000EBC4000B4603EBC00082680846B0F9E9
:101870006010AEA004F076F80020AB49087003B009
:10188000BDEC0E8B30BD70B52DED108B86B00546CE
:101890000C461FED640AF0EE408AA94890ED000A5C
:1018A000B1EE400AF0EE40FA04EB840000EBC40015
:1018B0009C4901EBC00090ED000AA248D0ED000A5F
:1018C00030EEC00AA048D0ED000A80EE201A8DED5F
:1018D000041A9DED040A3FEEC00A10EE106A30466D
:1018E00006F0AAFA41EC1C0BB0EE4C0AF0EE6C0AC2
:1018F00005F0EAF8B0EE40BAF0EE60BA51EC1B0B1E
:1019000005F090FD9FED910B53EC102B06F06AF85B
:1019100005F094FD0FEE100A04EB840000EBC40008
:10192000804901EBC000D0ED000A00EE105AB8EE7D
:10193000C00A30EE600AB0EE408A9FED860AB4EE2F
:10194000C08AF1EE10FA04DD9FED820AB0EE408A03
:101950000AE09FED810AB4EEC08AF1EE10FA03D2DC
:101960009FED7D0AB0EE408A04EB840000EBC400DA
:101970006C4A02EBC00090ED170A10EE101A0846F0
:1019800006F05AFA41EC1A0BB0EE4A0AF0EE6A0A77
:1019900005F0FEF8B0EE409AF0EE609A9FED6F0B06
:1019A00053EC102B51EC190B06F01AF923D204EB6F
:1019B000840000EBC4005B4901EBC00090ED170A06
:1019C000B5EEC00AF1EE10FA0ADD9FED660A04EBEF
:1019D000840000EBC40001EBC00080ED170A0AE0B0
:1019E0009FED610A04EB840000EBC4004D4901EB5C
:1019F000C00080ED170A1FEE100A06F01DFA41EC38
:101A00001A0BB0EE4A0AF0EE6A0A05F0C1F8B0EE21
:101A1000409AF0EE609A9FED550B53EC102B51EC71
:101A2000190B05F0A3FF7BD804EB840000EBC40086
:101A30003C4A02EBC00090ED140A38EE400A10EE6A
:101A4000101A084606F0F8F941EC1B0B04EB840071
:101A500000EBC400334901EBC00090ED121BB0EE67
:101A6000410AF0EE610A53EC102B51EC1B0B05F010
:101A7000B9FF41EC190B04EB840000EBC400294AC8
:101A800002EBC00090ED170A10EE101A084606F09F
:101A9000D3F941EC1C0B04EB840000EBC40021499A
:101AA00001EBC00090ED101BB0EE410AF0EE610AB0
:101AB00053EC102B51EC1C0B05F094FF41EC1B0B6D
:101AC00018EE100A06F0B8F941EC1E0B04EB840086
:101AD00000EBC400134901EBC00090ED0E1BB0EE0B
:101AE000410AF0EE610A53EC102B51EC1E0B05F08D
:101AF00079FF41EC1C0B1FEE100A06F09DF953EC28
:101B00001C2B05F0CDFC53EC1B2BCDE900019DED0A
:101B1000000B51EC100B05F0C3FC53EC192B29E022
:101B200035E00000680000203200002025642020FD
:101B300025642020252E3266202025640D0A000011
:101B400038000020407F00083C7F000800000000B3
:101B50000050944000003443000034C300000000F3
:101B60000088B34000409C4500409CC50000000038
:101B700000407F4005F094FCCDE902019DED020B91
:101B800051EC100B05F05AFC08EE900AD7E018EE65
:101B9000100A06F051F941EC1A0BB0EE4A0AF0EEC9
:101BA0006A0A04F0F5FFB0EE409AF0EE609A9FEDFD
:101BB000B10B53EC102B51EC190B06F011F812D2AB
:101BC000B5EEC08AF1EE10FA06DD9FEDAC0A3FEEED
:101BD000000AF0EE408AB2E09FEDA80A3FEE400A0C
:101BE000F0EE408AABE018EE100A06F025F941EC61
:101BF0001A0BB0EE4A0AF0EE6A0A04F0C9FFB0EE22
:101C0000409AF0EE609A9FED9E0B53EC102B51EC36
:101C1000190B05F0E5FF7DD204EB840000EBC40056
:101C2000994A02EBC00090ED140A38EE400A10EE1B
:101C3000101A084606F000F941EC1A0B04EB840078
:101C400000EBC400904901EBC00090ED0C1BB0EE1E
:101C5000410AF0EE610A53EC102B51EC1A0B05F01F
:101C6000C1FECDE9020104EB840000EBC400864A0A
:101C700002EBC00090ED170A10EE101A084606F0AD
:101C8000DBF841EC1B0B04EB840000EBC4007E4945
:101C900001EBC00090ED0A1BB0EE410AF0EE610AC4
:101CA00053EC102B51EC1B0B05F09CFE41EC1E0B72
:101CB00018EE100A06F0C0F841EC1D0B04EB84008E
:101CC00000EBC400704901EBC00090ED081BB0EEC2
:101CD000410AF0EE610A53EC102B51EC1D0B05F09C
:101CE00081FE41EC1B0B1FEE100A06F0A5F853EC29
:101CF0001B2B05F0D5FB53EC1E2B05F0D1FBCDE9DA
:101D000000019DED020B53EC102B9DED000B51ECEF
:101D1000100B00E006E005F0C3FB05F08FFB08EEBA
:101D2000900A0CE0F0EE4F8A9FED580A04EB840015
:101D300000EBC400544901EBC00080ED170A04EB2E
:101D4000840000EBC400504901EBC00090ED170A7D
:101D500030EE080A04EB840000EBC40001EBC00085
:101D600080ED170A04EB840000EBC40001EBC00017
:101D700080ED148A18EE900A06F05EF841EC1A0B1A
:101D8000B0EE4A0AF0EE6A0A04F002FFB0EE409AA2
:101D9000F0EE609A9FED3E0B53EC102B51EC190BBB
:101DA00005F0E4FD04D29FED390AF0EE408A50E0E0
:101DB00004EB840101EBC401334A02EBC101B1F928
:101DC0001C0005F0A8FD41EC190B18EE900A06F076
:101DD00033F841EC1B0BB0EE4B0AF0EE6B0A04F04B
:101DE000D7FEB0EE40AAF0EE60AA53EC192B51ECEE
:101DF0001A0B05F0F5FE21D2F5EEC08AF1EE10FACD
:101E00000DDD04EB840000EBC4001F4901EBC000B2
:101E1000B0F91C0000EE100AF8EEC08A19E004EBDD
:101E2000840000EBC400184901EBC000B0F91C00AD
:101E3000404200EE100AF8EEC08A0AE0BDEEE80A61
:101E400010EE100A00B200EE100AB8EEC00AF0EE72
:101E5000408ABDEEE80A10EE100A00B204EB8401DD
:101E600001EBC401084A02EBC101088306B0BDECD6
:101E7000108B70BD00000000000034400000FA44E8
:101E8000000000000000E03F6800002000000000AB
:101E9000000000000000F03F7FB505460C46012120
:101EA000082002F080FC0295ADF804400020ADF857
:101EB0000600ADF80C0001A9434801F0ACFC01227A
:101EC0001146414802F048F901213F4801F02CFD3C
:101ED00032208DF8000001208DF8010003208DF8DC
:101EE000020001208DF80300684601F008F87FBD6C
:101EF00000B52DED028B81B00121334802F043F98A
:101F000000285DD00121304802F04EF92F48807E34
:101F1000012809D1002000F027F92C49B1F960000F
:101F20000021FFF768FA03E000210846FFF763FA93
:101F3000FFF751FA264801780078401C244A1070B7
:101F40000A293DDD214890ED000A10EE101A0846DE
:101F500005F072FF41EC180B53EC182B1DA003F099
:101F600001FD1F4890ED000A1E48D0ED000A30EE3A
:101F7000600A10EE101A084605F05EFF41EC180BDF
:101F800053EC182B18A003F0EDFC1048B0F9181012
:101F900018A003F0E7FC0D4890ED170A10EE101A98
:101FA000084605F049FF41EC180B0848807E53ECC9
:101FB000182B009012A003F0D5FC002004490870F3
:101FC00001B0BDEC028B00BD000C00406800002099
:101FD00033000020BDC7B6C83D2025660D0A0000AD
:101FE000407F000834000020C4BFB1EA3D202566D0
:101FF0000D0A0000CBD9B6C83D2025640D0A0000AB
:1020000045733D2025662025640D0A0000B58DB07E
:102010000121084602F07EFB0121080202F0D4FBF8
:102020000420059003208DF8180000208DF81B0077
:1020300005A92C4801F054F80121080202F019FC0E
:1020400000214FF4807002F014FC002001900490F5
:1020500003904FF48030029001A803F0E1F90020D2
:1020600007908DF820008DF8210009900B90012039
:102070008DF8300007A91C4803F0A3F901211A4884
:1020800003F0E5F90DB000BD10B5044607230122A9
:102090002146154803F01BFA134803F074FA00BFF9
:1020A0000221114803F090FB0028F9D00E4803F0FC
:1020B000A6FA10BD2DE9F04107460C460025002682
:1020C00008E03846FFF7E0FF0544052000F02CFE4D
:1020D000701CC6B2A642F4DBB5FBF4F080B2BDE8DA
:1020E000F0810000000002400020014010B52DEDFD
:1020F000068B002008EE100A9FED740AF0EE408A6D
:1021000003210220FFF7D6FF08EE100AB8EE480AB6
:1021100010EE100A05F090FE41EC1A0B9FED6C0BCF
:1021200053EC102B05F05EFC41EC190B05F086F921
:1021300008EE900A9FED680A28EE800ADFED670A34
:1021400080EE201A664880ED001ABDEC068B10BDAB
:1021500010B5FFF7CBFF9FED5D0A624880ED000AE6
:1021600001205F49887610BD70B52DED0A8B0446BD
:10217000002519265B4890ED000ADFED5B0A30EE82
:10218000C00A04EB840000EBC400554901EBC00019
:10219000D0ED000A30EE600AB0EE408A18EE100A68
:1021A00005F04AFE41EC1A0BB0EE4A0AF0EE6A0A5C
:1021B00004F0EEFCB0EE409AF0EE609A9FED4B0B0F
:1021C00053EC102B51EC190B05F00AFD03D24948D2
:1021D000B0F900503AE018EE100A05F02DFE41EC7F
:1021E0001A0BB0EE4A0AF0EE6A0A04F0D1FCB0EE27
:1021F000409AF0EE609A9FED400B53EC102B51EC9F
:10220000190B05F0EDFC20D2304605F084FB41ECC3
:102210001A0B18EE100A05F00FFE41EC1C0BB0EE85
:102220004C0AF0EE6C0A04F0B3FCB0EE40BAF0EEEB
:1022300060BA53EC1A2B51EC1B0B05F0D3FB41ECAD
:10224000190B05F039FB05B200E00025B5EEC08A98
:10225000F1EE10FA02D2684205B200E000BF2DB9DB
:1022600027480078401C264908700BE0012004EB49
:10227000840101EBC4011A4A02EBC10188760020F7
:102280001F4908701E480078052813DB002004EB66
:10229000840101EBC401124A02EBC10188769FED73
:1022A0000B0A04EB840000EBC400114601EBC000F4
:1022B00080ED170A04EB840000EBC400084901EB31
:1022C000C000A0F86050BDEC0A8B70BD000000009B
:1022D0006666666666664A3F0000AF433333534026
:1022E000680000203400002000009143000000003E
:1022F000000014403C000020000000000000E03F0F
:102300003E00002070B52DED048B88B000249FEDB9
:10231000D20AB0EE408A9FEDD00A8DED070A002563
:1023200000200690002600F0D7F90546002D7CD04D
:1023300006AA01A9284600F0E1F90646002E75D04C
:102340009DF81800272872D005DC58B105280AD05E
:1023500016286DD135E038286BD049286AD05A2824
:10236000F7D170E171E101980790DDED070ABB48F4
:1023700090ED001A9FEDBA0A00EE810ABDEEC00A88
:1023800010EE100A04B2B4F5FA7F02DC4FF4FA74CE
:1023900004E040F6C410844200DB0446B148B0F9C2
:1023A0000000844206D0AF480480008881B2032038
:1023B000FEF734FCAB48B0F90010ABA003F0D2FA42
:1023C00043E1019807909DED070AB1EE400AB0EE97
:1023D000408AB9EE000AB4EEC08AF1EE10FA04D8D1
:1023E000B9EE000AB0EE408A08E0B5EEC08AF1EE20
:1023F00010FA03DB9FED980AB0EE408A9C4890EDFE
:10240000000AB4EE408AF1EE10FA1ED080ED008A88
:10241000D0ED000A9FED971A70EE810A9FED961A93
:1024200060EE810AB0EE600A05E010E10EE150E0D6
:102430000AE1A9E003E19FED882AF6EE001AB2EE68
:102440000E1ADFED850A00F0C7FA8948006805F02A
:10245000F3FC41EC190B53EC192B88A003F082FA22
:10246000029807909DED070A8748D0ED000A20EEFC
:10247000200AB0EE408A9FED850AB4EEC08AF1EEE4
:1024800010FA04DB9FED810AB0EE408A08E0B5EE59
:10249000C08AF1EE10FA03D89FED6F0AB0EE408AC1
:1024A0007B4890ED000AB4EE408AF1EE10FA04D0B9
:1024B00080ED008A0120774988767548006805F02C
:1024C000BBFC41EC190B53EC192B73A003F04AFA37
:1024D000BBE001980790DDED070A724890ED001A05
:1024E0009FED5F0A00EE810ABDEEC00A10EE100AF1
:1024F00004B2B4F5FA7F02DC4FF4FA7404E040F65B
:10250000C410844200DB04466748B0F900008442EE
:1025100006D065480480008881B20420FEF77EFB67
:102520006148B0F9001061A003F01CFA029807900E
:10253000DDED070A5B4890ED001A9FED490A00EEB9
:10254000810ABDEEC00A10EE100A04B2B4F57A7F1B
:1025500002DC4FF47A7404E040F62E10844200DB73
:1025600004465448B0F90000844206D05148048023
:10257000008881B20520FEF751FB4E48B0F90010EB
:102580004DA003F0EFF960E001980790DDED070A38
:10259000444890ED001A9FED320A00EE810ABDEE2C
:1025A000C00A10EE100A04B240F2AA50844201DCC4
:1025B000044604E040F66600844200DB04464048DE
:1025C000B0F90000844206D03D480480008881B202
:1025D0000720FEF723FB3A48B0F9001039A003F0BA
:1025E000C1F902980790DDED070A2E4890ED001A18
:1025F0009FED1B0A00EE810ABDEEC00A10EE100A24
:1026000004B2B4F5FA7F02DC4FF4FA7404E040F649
:10261000C410844200DB04462C48B0F90000844218
:1026200006D02A480480008881B20620FEF7F6FA18
:102630002648B0F9001026A003F094F905E0022026
:1026400003F043F901E000E000BF00BF002508B03F
:10265000BDEC048B70BD000000000000387F000856
:102660000000FA4340000020333A25640D0A0000C0
:1026700038000020CDCC4C3EE17A543F313A252E33
:1026800032660D0A000000003C7F0008000087430E
:102690003400002068000020323A252E32660D0AF0
:1026A00000000000347F000842000020343A256416
:1026B0000D0A000044000020353A25640D0A000090
:1026C00048000020373A25640D0A0000460000202B
:1026D000363A25640D0A000010B54D48008800F414
:1026E000004048B14A48047800204949088049A080
:1026F00003F038F9204610BD0020FCE7F0B5054690
:102700000E46174600220020DFF810C18CF80000AA
:1027100079E0104602F1010C1FFA8CF2DFF800C1DB
:102720001CF800103D480078062862D2DFE800F06F
:102730000313373F4A5BFF2905D10120DFF8DCC0D6
:102740008CF8000006E0501E82B20520DFF8CCC0F5
:102750008CF8000053E005290AD0162908D0272953
:1027600006D0382904D0492902D05A2900D031B9DD
:102770000220DFF8A8C08CF8000039700EE0FF29B5
:1027800005D10120DFF894C08CF8000006E0501E4F
:1027900082B20520DFF884C08CF800002FE0CBB2B5
:1027A0000320DFF878C08CF80000002427E03155C2
:1027B000601CC4B29C4204D10420DFF860C08CF8D5
:1027C00000001CE0FE2906D10020DFF850C08CF884
:1027D00000001846F0BD501E82B20520DFF83CC054
:1027E0008CF800000BE00020DFF830C08CF800000F
:1027F000F0E70020DFF824C08CF80000EAE700BF13
:10280000AA4200D100E084E700BF0020E2E7000018
:102810005400002055736172740D0A004A000020B4
:10282000D000002010B52DED028B9FED4C0AB0EECC
:10283000408A00249FED4A0AB0EE408A4948D0ED14
:10284000000A9FED490A08EE200ABDEEC00A10EE0C
:10285000100A04B2A1B20720FEF7E0F99FED3F0A8B
:10286000B0EE408A3F48D0ED000A9FED3F0A08EEE7
:10287000200ABDEEC00A10EE100A04B2A1B2062072
:10288000FEF7CCF9C82000F04FFA9FED380AB0EE01
:10289000408A3448D0ED000A9FED330A08EE200A42
:1028A000BDEEC00A10EE100A04B2A1B20720FEF776
:1028B000B5F99FED2F0AB0EE408A2A48D0ED000A04
:1028C0009FED290A08EE200ABDEEC00A10EE100A9C
:1028D00004B2A1B20620FEF7A1F9C82000F024FA44
:1028E000BDEC028B10BD10B5012003F010F800F014
:1028F0008CF900201F49887610BD10B5022003F026
:1029000006F8FFF78FFF10BD0EB5032000900020E2
:102910008DF8040001208DF80600684602F086FF5D
:1029200006208DF8080000208DF809008DF80A00B7
:1029300001208DF80B0002A800F0E1FA07208DF8C5
:10294000080003208DF809008DF80A0001208DF899
:102950000B0002A800F0D3FA0EBD0000000000003A
:102960003D0AB73F347F00080000FA4385EB014081
:10297000C3F548406800002070B505460C4645F296
:10298000555002F0CDFF284602F0CDFF204602F060
:10299000CDFF02F0CEFF02F0D1FF70BD10B502F006
:1029A000C8FF10BD014671EE602AF0EE621AB0EE6B
:1029B000602A30EE423A01208840401E02EE900A22
:1029C000F8EEE22A63EE222A82EEA13AFCEEC32A56
:1029D00012EE900A80B270472DE9F0412DED068B82
:1029E00082B0B0EE40AAB0EE608AF0EE418AB0EE5E
:1029F000619AF0EE429A9FED920AB4EEC0AAF1EE0F
:102A000010FA02D89FED8E0A0BE09FED8E0AB4EE0D
:102A1000C0AAF1EE10FA02DB9FED8A0A01E0B0EEE7
:102A20004A0AB0EE40AA9FED880AB4EEC08AF1EEE1
:102A300010FA02D89FED840A0BE09FED840AB4EEF1
:102A4000C08AF1EE10FA02DB9FED800A01E0B0EEE1
:102A5000480AB0EE408AF5EEC08AF1EE10FA02D8CC
:102A60009FED7B0A0BE09FED7B0AF4EEC08AF1EE4E
:102A700010FA02DB9FED770A01E0B0EE680AF0EE93
:102A8000408AB5EEC09AF1EE10FA02D89FED700AB6
:102A90000BE0B1EE040AB4EEC09AF1EE10FA02DBDC
:102AA000B1EE040A01E0B0EE490AB0EE409ABBEE86
:102AB000020AF4EEC09AF1EE10FA02D8BBEE020A56
:102AC0000BE0B3EE020AF4EEC09AF1EE10FA02DB6C
:102AD000B3EE020A01E0B0EE690AF0EE409A10206F
:102AE0009FED581ADFED560AB0EE4A0AFFF75AFF7B
:102AF00004460C209FED551ADFED530AB0EE480A4C
:102B0000FFF750FF05460C209FED521ADFED500AEB
:102B1000B0EE680AFFF746FF80460C20B1EE041ABB
:102B2000DFED4B0AB0EE490AFFF73CFF06460C20EA
:102B3000B3EE021AFBEE020AB0EE690AFFF732FFAB
:102B4000074620128DF80000E0B28DF80100C5F3B1
:102B500007108DF802002807000E40EA28208DF8A3
:102B6000030008F0FF008DF80400C6F307108DF88D
:102B700005003007000E40EA27208DF80600F8B265
:102B80008DF80700012208216846FEF748FB02B0D5
:102B9000BDEC068BBDE8F0811CB504462EA103C92F
:102BA000CDE90001012C04D0022C06D0032C0CD15D
:102BB00007E0FC208DF8070008E0FD208DF80700F5
:102BC00004E0FE208DF8070000E01CBD00BF0122DC
:102BD00008216846FEF723FB00BFF6E710B5012089
:102BE000FFF7DAFF642000F09FF89FED192ADFED70
:102BF000181A9FED171ADFED160A9FED150AFFF759
:102C0000EBFE642000F090F810BD10B5FFF7E6FF72
:102C10000320FFF7C1FF0A2000F086F89FED0C2A81
:102C2000F6EE001AB2EE0E1ADFED090A9FED0C0A5D
:102C3000FFF7D2FE10BD10B50220FFF7ADFF10BDAB
:102C40000000BFC20000BF42000034C20000344296
:102C5000000000000000FA43FFFFFFFFFFFFFF003E
:102C6000CDCC4C3E10B504466FF0040000F094F952
:102C7000E11704EB5171C1F3C701394A11701046D5
:102C8000007800EB4001C1EBC0104FF6FF7101EA84
:102C9000C0003449088010BD0146314A12784A43C9
:102CA0004FF0E0235A6100229A611A46126942F0FD
:102CB00001021A6100BF4FF0E022106900F001022A
:102CC0001AB100F48032002AF5D04FF0E0221269E8
:102CD00022F001024FF0E0231A6100229A6170474E
:102CE0000146204A12884A434FF0E0235A610022ED
:102CF0009A611A46126942F001021A6100BF4FF050
:102D0000E022106900F001021AB100F48032002ABA
:102D1000F5D04FF0E022126922F001024FF0E023DB
:102D20001A6100229A61704770B504464FF407702B
:102D300094FBF0F0C6B24FF4077094FBF0F100FB87
:102D4000114085B205E04FF40770FFF7C9FF701E10
:102D5000C6B2002EF7D115B12846FFF7C1FF70BDEE
:102D60004C0000204E00002000BF704700BF4D4ABD
:102D7000128802F04002002AF9D0C2B2494B9A8070
:102D8000704710B588B004460121084601F0C2FC26
:102D90000121102001F018FD07220921424800F00E
:102DA0002AFA07220A21404800F025FA4FF4C060B1
:102DB000069002208DF81C008DF81D0000208DF873
:102DC0001E0001208DF81F0006A9374800F088F981
:102DD00002940020ADF80C00ADF80E00ADF8100024
:102DE000ADF814000C20ADF8120002A92D4800F037
:102DF000A2FA01212B4800F026FB012240F22551C6
:102E0000284800F0D6FB25208DF8040001208DF81D
:102E100005008DF806008DF8070001A800F06FF896
:102E200008B010BD10B540F225511E4800F0FCFB63
:102E300020B31C4800F036FBC4B21C48008800F4E4
:102E40000040D8B91948008800F4804070B10A2CBD
:102E500003D000201549088022E01448008840F47F
:102E6000004012490880FFF74DFA19E00D2C06D1F9
:102E70000E48008840F480400C49088010E00B4860
:102E80000088C0F30D000A490C5408480088401C13
:102E90000649088008460088C72801DD0020088010
:102EA00010BD00000010014000000240540000204E
:102EB000D00000200948804709480047FEE7FEE7A8
:102EC000FEE7FEE7FEE7FEE7FEE7FEE7FEE7FEE7DA
:102ED00004480549054A064B704700006908000888
:102EE00089010008F8010020F8070020F8030020FD
:102EF000F803002032490143324A1160704770B52F
:102F0000002100230F22C4781CB32E4C246804F443
:102F1000E064C4F5E064C4F30721C1F10404E3B242
:102F20000A4144789C40E1B28478144021430C0764
:102F3000210E254C05786155047804F01F05012405
:102F4000AC4005786D11AD0005F1E025C5F80041F4
:102F500009E0047804F01F050124AC401B4D0678FD
:102F6000761145F8264070BD194A0A400243154BB8
:102F70001B1F1A60704739B1124A121D12680243B2
:102F8000104B1B1D1A6006E00E4A121D1268824388
:102F90000C4B1B1D1A607047042808D14FF0E0212C
:102FA000096941F004014FF0E022116107E04FF0A0
:102FB000E021096921F004014FF0E022116170471E
:102FC0000000FA050CED00E000E400E080E100E024
:102FD00080FFFF1F10B504469848844208D10121A4
:102FE000084601F002FC0021012001F0FEFB76E022
:102FF0009348844208D10121022001F0F6FB002110
:10300000022001F0F2FB6AE08E48844208D10121DF
:10301000042001F0EAFB0021042001F0E6FB5EE061
:103020008948844208D10121082001F0DEFB0021FB
:10303000082001F0DAFB52E08448844208D10121E3
:10304000102001F0D2FB0021102001F0CEFB46E061
:103050007F48844208D10121202001F0C6FB0021D5
:10306000202001F0C2FB3AE07A48844208D10121D5
:10307000402001F0BAFB0021402001F0B6FB2EE019
:103080007548844208D10121802001F0AEFB002167
:10309000802001F0AAFB22E07048844208D101217F
:1030A000801501F0A2FB0021A01501F09EFB16E0A7
:1030B0006B48844208D10121401501F096FB0021A4
:1030C000601501F092FB0AE06648844207D10121B5
:1030D000001501F08AFB0021201501F086FB10BDD0
:1030E000F0B50A4600210023002400BF3DE0012581
:1030F00005FA01F3156805EA03049C4234D105681A
:103100004F000326BE40B543056015794E00B5401B
:103110000668354305601579012D02D01579022D19
:1031200016D185684F000326BE40B54385605579AA
:103130004E00B540866835438560456801268E405F
:10314000B5434560456896798E40B6B235434560D3
:10315000C5684F000326BE40B543C560D5794E0013
:10316000B540C6683543C560491C1029BFD3F0BDC2
:103170004FF6FF7101600021017141718171C171D0
:10318000704708B54FF480320092009A0A430092CB
:10319000009AC261C161009AC261C2690092C269AB
:1031A000009208BD0246002013690B400BB10120BC
:1031B00000E0002070470146086980B2704702466F
:1031C000002053690B400BB1012000E00020704744
:1031D0000146486980B27047018370474183704758
:1031E0000AB1018300E04183704741617047426941
:1031F0004A4042617047F0B5002300244D07ED0EB0
:1032000002FA05F3CE1000F1200555F826504E07BE
:10321000F70E0F26BE40B543CF1000F1200646F84A
:103220002750CE1000F1200555F8265045EA03043A
:10323000CE1000F1200545F82640F0BD0000024008
:103240000004024000080240000C0240001002404E
:103250000014024000180240001C024000200240FE
:10326000002402400028024010B50446FA48844277
:1032700008D10121102001F0FCFA0021102001F0FA
:10328000F8FA57E0F548844209D10121480401F0D9
:10329000DFFA00214FF4003001F0DAFA4AE0F0489A
:1032A000844209D10121880401F0D2FA00214FF4AF
:1032B000802001F0CDFA3DE0EA48844209D10121A5
:1032C000C80401F0C5FA00214FF4002001F0C0FA53
:1032D00030E0E548844209D10121080501F0B8FA3F
:1032E00000214FF4801001F0B3FA23E0DF4884425C
:1032F00008D10121202001F0BCFA0021202001F09A
:10330000B8FA17E0DA48844209D10121880701F0B0
:103310009FFA00214FF0804001F09AFA0AE0D54868
:10332000844207D10121400501F092FA0021600595
:1033300001F08EFA10BD2DE9FF4705460E46002428
:10334000A14600BFA046B08900B100BF2C8A24F47A
:103350004054F08804432C82AC8941F20C608443D1
:10336000B08831890843718908430443AC81AC8A31
:1033700024F44074B0890443AC82684601F0F9F843
:10338000B548854202D0B948854202D1DDF80C909B
:1033900001E0DDF80890A88900F4004040B109EB95
:1033A000C90000EB091031684900B0FBF1F707E0F4
:1033B00009EBC90000EB091031688900B0FBF1F797
:1033C0006420B7FBF0F004012009642101FB1078B0
:1033D000A88900F4004040B1322000EBC800B0FBE7
:1033E000F1F000F00700044308E0322000EB081081
:1033F0006421B0FBF1F000F00F0004432C81BDE824
:10340000FF874FF41651016000218180C180018146
:103410000C21418100218181704710B502460020B6
:10342000108A20F470600B884C8823438C882343D7
:10343000CC8823431843108210BD002101804180B5
:103440008180C180704721B1828942F4005282811B
:1034500004E082894DF6FF731A4082817047028B27
:1034600002F47F420283028B0A430283704721B138
:10347000828942F40042828103E08289C2F30E0213
:103480008281704721B1828A42F40062828204E024
:10349000828A4FF2FF731A4082827047C1F308029A
:1034A0008280704701468888C0F308007047028A0E
:1034B0004FF6F0731A400282028A0A430282704772
:1034C00021B1828942F00202828104E082894FF6B2
:1034D000FD731A408281704782894FF2FF731A4050
:1034E000828182890A4382817047028A4FF6DF73A4
:1034F0001A400282028A0A430282704721B1028A7C
:1035000042F48042028204E0028A4BF6FF731A40C2
:1035100002827047818941F001018181704721B1A8
:10352000828A42F00802828204E0828A4FF6F773B0
:103530001A4082827047028BD2B20283028B42EA27
:1035400001220283704721B1828A42F020028282E6
:1035500004E0828A4FF6DF731A408282704721B1FD
:10356000828A42F01002828204E0828A4FF6EF7370
:103570001A4082827047828A4FF6FB731A40828219
:10358000828A0A438282704721B1828A42F0020213
:10359000828204E0828A4FF6FD731A40828270476D
:1035A0001AB1838A0B43838202E0838A8B4383822E
:1035B0007047F0B50346002400260025002040F6A1
:1035C0006A17B94200D100BF1846C1F3421401F096
:1035D0001F06012707FA06F5012C01D10C3004E083
:1035E000022C01D1103000E014301AB107682F43CB
:1035F000076002E00768AF430760F0BD02460020A5
:10360000B1F5007F00D100BF13880B400BB1012042
:1036100000E00020704701F40072B2F5007F00D195
:1036200000BFCA430280704770B5024600240023E1
:103630000025002040F66A16B14200D100BFC1F358
:10364000421501F01F03012606FA03F3012D13D1E1
:103650009689334017E0000000100140004400400C
:1036600000480040004C0040005000400014014061
:1036700000780040007C0040022D02D1168A3340C1
:1036800001E0968A33400C12012606FA04F41688EB
:10369000344013B10CB1012000E0002070BD10B522
:1036A0000022002340F66A14A14200D100BF0A1292
:1036B00001249440A3B2DC43048010BD10B504463D
:1036C000FE48844208D10121084601F0D2F80021C9
:1036D000012001F0CEF89DE0B4F1804F08D1012126
:1036E000084601F0B5F80021012001F0B1F891E0A1
:1036F000F348844208D10121022001F0A9F80021F9
:10370000022001F0A5F885E0EE48844208D10121AD
:10371000042001F09DF80021042001F099F879E0DF
:10372000E948844208D10121082001F091F80021E4
:10373000082001F08DF86DE0E448844208D10121B1
:10374000102001F085F80021102001F081F861E0DF
:10375000DF48844208D10121202001F079F80021BE
:10376000202001F075F855E0DA48844208D10121A3
:10377000022001F07EF80021022001F07AF849E0F1
:10378000D548844209D10121080401F072F80021D2
:103790004FF4803001F06DF83CE0D048844209D10C
:1037A0000121480401F065F800214FF4003001F0D8
:1037B00060F82FE0CA48844209D10121880401F051
:1037C00058F800214FF4802001F053F822E0C5485A
:1037D000844208D10121402001F03AF80021402024
:1037E00001F036F816E0C048844208D1012180205B
:1037F00001F02EF80021802001F02AF80AE0BB48F1
:10380000844207D10121801501F022F80021A01582
:1038100001F01EF810BD00220288A84B98420ED07D
:10382000AC4B98420BD0B0F1804F08D0A44B9842DB
:1038300005D0A44B984202D0A34B984204D14FF636
:103840008F731A404B881A43A04B984207D0A04B65
:10385000984204D04FF6FF431A400B891A43028066
:103860004B68C3620B880385944B984202D0994BF6
:10387000984201D18B7A03860123838270474FF0EF
:10388000FF314160002101800181418081727047D8
:103890000185828270470A46002101884FF68F73A6
:1038A000194011430180704741627047C1627047FF
:1038B0000146486A70470146088D704721B1028869
:1038C00042F00202028004E002884FF6FD731A40C3
:1038D0000280704721B1028842F00402028004E0B5
:1038E00002884FF6FB731A400280704721B10288AC
:1038F00042F08002028004E002884FF67F731A4093
:103900000280704702884FF6F7731A4002800288DF
:103910000A430280704702884FF6FF431A40028034
:1039200002880A430280704721B1028842F00102F6
:10393000028004E002884FF6FE731A40028070474E
:1039400070B5002400220023058C4FF6FE7635402A
:103950000584028C8388048B4FF68F752C40B51E2E
:103960002C400D882C43751E2A408D892A434D8892
:103970002A43524DA84202D0564DA84213D14FF6C9
:10398000F7752A40CD892A434FF6FB752A408D886A
:103990002A434FF6FF652B404FF6FF552B400D8A0B
:1039A0002B434D8A2B43838004838D6845630284B7
:1039B00070BD70B5002400220023058C4FF6EF7611
:1039C00035400584028C8388048B48F6FF752C40B3
:1039D0004FF6FF452C400D884FF6FF7606EA052589
:1039E0002C434FF6DF752A408D8906EA05152A43D8
:1039F0004D8806EA05152A43304DA84202D0354DC0
:103A0000A8421DD14FF67F752A40CD894FF6FF762B
:103A100006EA05152A434FF6BF752A408D8806EA47
:103A200005152A434FF6FF352B404FF2FF752B400B
:103A30000D8A06EA85052B434D8A06EA85052B4348
:103A4000838004838D688563028470BD70B5002413
:103A500000220023058C4FF6FF6635400584028C5A
:103A60008388848B4FF68F752C404FF6FC752C4065
:103A70000D882C434FF6FF552A408D894FF6FF766F
:103A800006EA05252A434D8806EA05252A430B4DFB
:103A9000A84202D00F4DA84238D14FF2FF752A40FC
:103AA000CD894FF6FF7606EA05252A434FF6FF3506
:103AB0002A408D8806EA05252A4319E000000140C6
:103AC0000004004000080040000C004000100040CE
:103AD0000014004000040140004001400044014047
:103AE0000048014000180040001C00400020004039
:103AF0004EF6FF752B404DF6FF752B400D8A06EAFA
:103B000005152B434D8A06EA05152B4383808483D4
:103B10008D68C563028470BD70B500220023002447
:103B2000058C4EF6FF7635400584038C8488828BA5
:103B300048F6FF752A404FF6FF452A400D884FF69C
:103B4000FF7606EA05252A434DF6FF752B408D8941
:103B500006EA05352B434D8806EA05352B43FE4D15
:103B6000A84202D0FD4DA84208D14BF6FF752C406B
:103B70000D8A4FF6FF7606EA85152C4384808283F2
:103B80008D680564038470BD0021018041808180BF
:103B900081608181C18101824182704770B5034695
:103BA000002000241846183001258D40ACB21D8C31
:103BB000A5431D8409B108290AD100EB61000568FD
:103BC0004FF68F76354005600568154305600FE0B8
:103BD0000D1FC5F34E052844056848F6FF763540AD
:103BE000056005684FF6FF7606EA02263543056054
:103BF00070BD4163704781637047C1637047016462
:103C000070470A460021018B4FF68F73194011430C
:103C1000018370470A460021018B48F6FF73194063
:103C20004FF6FF7303EA02231943018370470A46E4
:103C30000021818B4FF68F731940114381837047A8
:103C40000A460021818B48F6FF7319404FF6FF7337
:103C500003EA02231943818370470A460021018B3E
:103C60004FF6F77319401143018370470A4600214C
:103C7000018B4FF2FF7319404FF6FF7303EA0223E3
:103C80001943018370470A460021818B4FF6F77371
:103C900019401143818370470A460021818B4FF2FE
:103CA000FF7319404FF6FF7303EA02231943818320
:103CB00070470A460021018B4FF6FB7319401143F0
:103CC000018370470A460021018B4FF6FF331940EC
:103CD0004FF6FF7303EA02231943018370470A4634
:103CE0000021818B4FF6FB7319401143818370478C
:103CF0000A460021818B4FF6FF3319404FF6FF73C0
:103D000003EA02231943818370470A460021018B8D
:103D10004FF67F7319401143018370470A46002113
:103D2000018BC1F30E014FF6FF7303EA022319431F
:103D3000018370470A460021818B4FF67F7319403B
:103D40001143818370470A460021818BC1F30E0124
:103D50004FF6FF7303EA02231943818370470A4633
:103D60000021018C4FF6FD73194011430184704707
:103D70000A460021018C4FF6F77319401143018464
:103D800070470A460021018C4FF6DF7319404FF649
:103D9000FF7303EA02131943018470470A460021A6
:103DA000018C4FF67F7319404FF6FF7303EA02133D
:103DB0001943018470470A460021018C4FF6FF53D6
:103DC00019404FF6FF7303EA022319430184704739
:103DD0000A460021018C4FF2FF7319404FF6FF7322
:103DE00003EA02231943018470470A460021018C2B
:103DF0004DF6FF7319404FF6FF7303EA0233194380
:103E00000184704730B5002301248C40A3B2048C98
:103E10009C430484048C02FA01F5ADB22C43048463
:103E200030BD30B5002304248C40A3B2048C9C43E5
:103E30000484048C02FA01F5ADB22C43048430BD35
:103E4000828B4FF2FF331A408283828B4FF6FF73CF
:103E500003EA01231A4382837047F0B50C461546E6
:103E6000002100220026078C4EF6FF7C07EA0C0793
:103E70000784818B028C4FF6FF7707EA043640F601
:103E8000FF4739404FF6FF7707EA052739434FF6DA
:103E9000FF7707EA0337394345F6FF773A4046F4A0
:103EA00080573A4381830284F0BD828B4FF6F373CF
:103EB0001A408283828B0A4382837047F0B50C4696
:103EC0001546002100220026078C4FF6FF6C07EAFA
:103ED0000C070784818B028C4FF6FF7707EA0426D4
:103EE0004FF60C7739404FF6FF7707EA03172F4359
:103EF00039434FF2FF573A4046F480773A43818383
:103F00000284F0BD028B4FF2FF331A400283028B12
:103F10004FF6FF7303EA01231A4302837047F0B59B
:103F20000C461546002100220026078C4FF6EF7C38
:103F300007EA0C070784018B028C4FF6FF7707EA2C
:103F4000041640F6FF4739404FF6FF7707EA03377C
:103F500039434FF6FF7703E00000014000040140C1
:103F600007EA052739434FF65F773A4046F01007D6
:103F70003A4301830284F0BD028B4FF6F3731A407B
:103F80000283028B0A4302837047F0B50C46154644
:103F900000210022068C4FF6FE773E400684018BFE
:103FA000028C4FF60C7631407E1C06EA03162E4337
:103FB00031434FF6F576324044F001063243018337
:103FC0000284F0BD70B505460C46208850B923899F
:103FD000A28861882846FFF7D8FFE1882846FFF7C6
:103FE000CBFF25E0208804280AD12389A288618894
:103FF0002846FFF794FFE1882846FFF783FF17E084
:10400000208808280AD12389A28861882846FFF7DA
:1040100055FFE1882846FFF748FF09E02389A28879
:1040200061882846FFF719FFE1882846FFF708FF57
:1040300070BD002101804180012181800021C1806B
:10404000018170472DE9F04105460C460026012705
:10405000608808B9022600E00026A088012801D166
:10406000022700E001272088A0B92389A28861885F
:104070002846FFF78AFFE1882846FFF77DFF23895E
:104080003A4631462846FFF74AFFE1882846FFF7BF
:1040900039FF13E02389A28861882846FFF73FFF94
:1040A000E1882846FFF72EFF23893A463146284605
:1040B000FFF76BFFE1882846FFF75EFFBDE8F08160
:1040C0000146486B70470146886B70470146C86BD4
:1040D00070470146086C70470A884B881A438B88E2
:1040E0001A43CB881A430B891A434B891A438B898D
:1040F0001A43A0F84420704700210180418081804C
:10410000C180018141818181704731B1B0F8442083
:1041100042F40042A0F8442005E0B0F84420C2F385
:104120000E02A0F84420704721B1828842F00402B8
:10413000828004E082884FF6FB731A4082807047C9
:1041400021B1828842F00102828004E082884FF629
:10415000FE731A40828070471AB183890B438381B2
:1041600002E083898B4383817047818270470246D6
:104170000020138A0B400BB1012000E000207047A3
:10418000CA430282704730B5024600200023002453
:10419000158A05EA0103958905EA010413B10CB1FA
:1041A000012000E0002030BDCA430282704741EA8E
:1041B0000203A0F8483070471AB183890B4383810A
:1041C00002E083898B438381704721B1828842F06A
:1041D0000802828004E082884FF6F7731A408280DA
:1041E000704701894FF6F8721140018170470A4605
:1041F000002101894FF68F731940114301817047E7
:1042000030B504460D4629462046FFF7F0FF2089C9
:1042100040F00700208130BD2DE9F04104460D46F5
:1042200016461F46602D06D13B46012231462046E8
:10423000FFF775FE05E03B46012231462046FFF7B9
:10424000A4FE29462046FFF7D2FF208940F0070050
:104250002081BDE8F08130B50C4600210189C9B24A
:104260004FF6FF7505EA03251543254329430181D0
:1042700030BD2DE9F04105460E461746984600240C
:1042800043463A4631462846FFF7E5FF2C894FF66C
:10429000F870044044F007044FF68F70044044F077
:1042A00070042C81BDE8F081F0B504460D46164639
:1042B0001F463B46324629462046FFF7CCFF208961
:1042C00040F480402081F0BD82884FF68F731A4001
:1042D000828082880A438280704702894FF6F87391
:1042E0001A40028102890A430281704702894FF60F
:1042F0007F731A40028102890A4302817047F0B538
:104300000C4615461E460021002200230189028B1F
:10431000038C4FF6F877394021434FF6FC473A407B
:1043200040F201173A434FF6DD773B404FF6FF77F7
:1043300007EA06172F433B43018102830384F0BD44
:1043400021B1828842F08002828004E082884FF6A8
:104350007F731A4082807047A0F8501070470000A9
:10436000F948006840F00100F74908600020F6496C
:1043700008310860F4480068F4490840F2490860D0
:10438000F348091D0860F348EF4984310860F0489C
:104390001038091D0860EC48006820F48020EA49C4
:1043A00008600020E8490C310860E7498C3108605A
:1043B00070470021E44A921C117011460870704742
:1043C00010B501460022002300204A11012A02D123
:1043D000DD4C236808E0022A03D1DB4C70342368EB
:1043E00002E0D94C7434236801F01F020124944088
:1043F0001C400CB1012000E0002010BD38B50020A9
:1044000000900024002500BF3120FFF7D9FF0546AA
:104410000098401C00900098B0F5A04F01D0002DEE
:10442000F2D03120FFF7CCFF08B1012400E00024D6
:10443000204638BD01460020C34A106820F0F8002D
:1044400040EAC10010607047C3490860704700210E
:10445000BD4A703211701170012802D004280AD1AF
:1044600004E00121B84A7032117005E00521B64A16
:104470007032117000E000BF00BF7047B74908609C
:10448000704770B5049C41EA82150126C6EB5306BD
:1044900045EA0645054345EA0465AB4E361D3560E1
:1044A00070BDAD4908667047820142EA0172A64BB1
:1044B00084331A607047A8498866704710B5830135
:1044C00043EA016343EA02739F4C8834236010BDC2
:1044D000A14908677047A049C86470470246002098
:1044E000994B0833186820F0EC6042EA0103184346
:1044F000954B08331860704702460020924B0833F2
:10450000186820F0784042EA010318438E4B0833C4
:1045100018607047014600208B4A0832106820F06E
:10452000030008431060704787480830006800F0B7
:104530000C00704701460020834A0832106820F0C2
:10454000F000084310607047014600207E4A0832A0
:10455000106820F4E05008431060704701460020C6
:10456000794A0832106820F4604040EAC1001060C7
:104570007047F0B500210022002402250026022306
:10458000714F08373F6807F00C0121B1042905D0AD
:10459000082937D105E0724F076036E0714F076098
:1045A00033E0694F3F1D3F68C7F38056664F3F1D9C
:1045B0003F6807F03F036EB16A4FB7FBF3F7DFF8D0
:1045C00088C10CF1040CDCF800C0CCF3881C07FB9C
:1045D0000CF40CE0624FB7FBF3F7DFF86CC10CF1A1
:1045E000040CDCF800C0CCF3881C07FB0CF4564F1D
:1045F0003F1D3F68C7F301477F1C7D00B4FBF5F703
:10460000076002E0564F076000BF00BF4E4F0837FB
:104610003F6807F0F0010909534F7A5C0768D740FB
:104620004760494F08373F6807F4E051890A4E4F09
:104630007A5C4768D7408760434F08373F6807F484
:104640006041490B484F7A5C4768D740C760F0BD6E
:10465000002100F44072B2F5407F0AD13A4A083294
:10466000116821F4F811414A02401143364A0832D8
:104670001160354A70321268C0F30B031A43324B93
:1046800070331A60704735494439086070473349C0
:10469000403908607047364908607047014600207D
:1046A000294A8C32106820F01F004A1E1043264A07
:1046B0008C321060704701460020234A8C3210680B
:1046C00020F4F8504A1E40EA02201F4A8C32106043
:1046D0007047014600201C4A8C32106820F44010BC
:1046E00008431060704701460020174A8C3210685A
:1046F00020F4400008431060704701460020124A31
:104700008C32106820F4403008431060704719491B
:104710000860704739B10C4A3032126802430A4BC4
:1047200030331A6006E0084A303212688243064B82
:1047300030331A607047F9B1034A343212680243C9
:10474000014B34331A601CE000380240FFFFF6EAE8
:10475000103000240030002000004742800E474205
:104760000024F40000127A0056000020FFFCFF0F26
:104770005C014742E01147428F4A126882438E4BE8
:104780001A60704739B18C4A121D126802438A4B75
:104790001B1D1A6006E0884A121D12688243864B70
:1047A0001B1D1A60704739B1834A0C3212680243EC
:1047B000814B0C331A6006E07F4A0C321268824348
:1047C0007D4B0C331A60704739B17B4A1032126846
:1047D0000243794B10331A6006E0774A10321268B0
:1047E0008243754B10331A60704739B1724A243ACC
:1047F00012680243704B243B1A6006E06E4A243A6A
:10480000126882436C4B243B1A60704739B16A4A84
:10481000203A12680243684B203B1A6006E0664A61
:10482000203A12688243644B203B1A60704739B1CA
:10483000614A1C3A126802435F4B1C3B1A6006E057
:104840005D4A1C3A126882435B4B1C3B1A607047FE
:1048500039B1594A143A12680243574B143B1A6053
:1048600006E0554A143A12688243534B143B1A60CF
:10487000704739B1504A103A126802434E4B103B10
:104880001A6006E04C4A103A126882434A4B103BC9
:104890001A60704739B1484A1C3212680243464BCD
:1048A0001C331A6006E0444A1C3212688243424BB1
:1048B0001C331A60704739B13F4A203212680243F4
:1048C0003D4B20331A6006E03B4A20321268824397
:1048D000394B20331A60704739B1374A2432126895
:1048E0000243354B24331A6006E0334A24321268FF
:1048F0008243314B24331A60704739B12E4A2C322F
:10490000126802432C4B2C331A6006E02A4A2C32E0
:1049100012688243284B2C331A60704739B1264AFB
:10492000303212680243244B30331A6006E0224AC8
:10493000303212688243204B30331A6070470128AE
:1049400008D11D493C31096841F008011A4A3C323E
:10495000116007E018493C31096821F00801164A46
:104960003C321160704739B1134A273A127802433A
:10497000114B273B1A7006E00F4A273A1278824300
:104980000D4B273B1A7070470B484030006840F0D1
:104990008070094940310860704701460020064A8E
:1049A000283A12680A400AB1012000E0002070474E
:1049B00001492639087070473438024010B5044662
:1049C000FE48844209D101214806FFF741FF00213A
:1049D0004FF00070FFF73CFF08E001218806FFF769
:1049E00037FF00214FF08060FFF732FF10BD30B578
:1049F000024600200023146824F0020414601468A6
:104A000044F00104146000E05B1C546804F00104ED
:104A10001CB94FF6FF74A342F6D1546804F00104A8
:104A20000CB900206CE08C79012C04D1146844F09E
:104A30008004146003E0146824F080041460CC79CE
:104A4000012C04D1146844F04004146003E014689D
:104A500024F0400414600C7A012C04D1146844F052
:104A60002004146003E0146824F0200414604C7ADD
:104A7000012C04D1146844F01004146003E014689D
:104A800024F0100414608C7A012C04D1146844F0D2
:104A90000804146003E0146824F008041460CC7A5D
:104AA000012C04D1146844F00404146003E0146879
:104AB00024F0040414608C78A407CD7844EA0564DB
:104AC0000D7944EA05444D7944EA05540D886D1E7C
:104AD0002C43D461146824F001041460002300E026
:104AE0005B1C546804F001041CB14FF6FF74A34230
:104AF000F6D1546804F001040CB1002000E001205C
:104B000030BD10B50021837A012202FA03F1AC4ACC
:104B1000126842F00102AA4B1A60A94A1C321268BC
:104B20008A43A74B1C331A60027BCAB9A44A0C32D1
:104B300012688A43A24B0C331A604288C38842EA47
:104B400003439F4A4032847A42F834300288838893
:104B500042EA03439A4A4032847A02EBC402536029
:104B6000027B012A19D1964A0C3212680A43944BEF
:104B70000C331A604288038842EA0343904A403269
:104B8000847A42F83430C288838842EA03438C4AEC
:104B90004032847A02EBC4025360C27A3AB9884A3E
:104BA000121D12688A43864B1B1D1A6006E0844A58
:104BB000121D12680A43824B1B1D1A60028932B90A
:104BC0007F4A143212688A437D4B14331A6002897B
:104BD000012A06D17A4A143212680A43784B1433F8
:104BE0001A60427B012A06D1754A1C3212680A43B8
:104BF000734B1C331A60724A126822F00102704B28
:104C00001A6010BD00218171C171017241728172FF
:104C1000C1728170C17003210171022141710121B2
:104C2000018070476649096841F00101644A1160DA
:104C30001146096843F60E729143614A11601146AC
:104C4000096841EA002111601146096821F001015B
:104C50001160704721B1026842F48032026003E0C3
:104C6000026822F4803202607047E1B1026842F0CB
:104C7000800202604FF4C272125842F480734FF403
:104C8000C27213504FF4CA72125842F480734FF438
:104C9000CA7213504FF4D272125842F480734FF418
:104CA000D27213501BE0026822F0800202604FF4BF
:104CB000C272125822F480734FF4C27213504FF430
:104CC000CA72125822F480734FF4CA7213504FF410
:104CD000D272125822F480734FF4D272135070477C
:104CE00010B502460020936803F08063B3F1806F33
:104CF00000D110E0936803F00063B3F1006F01D1BD
:104D0000012008E0936803F08053B3F1805F01D184
:104D1000022000E00420042879D002F5C07303EBE0
:104D200000131B6803F0010402F5C07303EB0013CA
:104D30001C600B7A7BB94B7A0C8843EA445302F52A
:104D4000C07404EB00142468234302F5C07404EB20
:104D50000014236010E00B7A4C6843EAC4034C7AD9
:104D6000234302F5C07404EB00142468234302F5C6
:104D7000C07404EB001423608B7A03F00F038B7272
:104D800002F5C07303EB00135B6823F00F0402F518
:104D9000C07303EB00135C6002F5C07303EB0013F8
:104DA0005B688C7A234302F5C07404EB00146360E3
:104DB0008B7B1C064B7B44EA034403E00064004009
:104DC000006600400B7B44EA0323CC7A234302F5C0
:104DD000C07404EB0014A3608B7C1C064B7C44EA7B
:104DE00003440B7C44EA0323CC7B234302F5C074C9
:104DF00004EB0014E36002F5C07303EB00131B68BF
:104E000043F0010402F5C07303EB00131C6010BDF6
:104E100010B50246002321B1012907D002290FD184
:104E200009E09068F94C00EA04030BE09068F84C44
:104E300000EA040306E09068F64C00EA040301E08F
:104E4000002300BF00BFF44C181BA34216D007DCA0
:104E500083B16FF08060184470B1022818D111E05E
:104E6000B0F5007F10D0ED4C204448B1B0F5003FC4
:104E70000ED10BE002230DE000230BE0002309E03C
:104E8000002307E0012305E0012303E0012301E003
:104E9000002300BF00BFD8B210BD21B1012907D047
:104EA00002290FD109E0826842F0800282600AE0A4
:104EB000826842F40042826005E0826842F40002A7
:104EC000826000E000BF00BF704710B500F5D873E6
:104ED00003EB01131B6803F004031372137A53B935
:104EE00000F5D87303EB01131B6840F2FF7404EA6A
:104EF0005353136009E000F5D87303EB01131B68EB
:104F00006FF0604404EAD303536000F5D87303EBF9
:104F100001131B6803F00203537200F5D87303EB0F
:104F200001135B6803F00F03937200F5D87303EB72
:104F300001135B681B0AD37400F5D87303EB0113EC
:104F40009B68D37200F5D87303EB01139B681C0AAE
:104F5000147300F5D87303EB01139B681C0C547396
:104F600000F5D87303EB01139B681B0E937300F5D8
:104F7000D87303EB0113DB68D37300F5D87303EB2D
:104F80000113DB681C0A147400F5D87303EB0113DA
:104F9000DB681C0C547400F5D87303EB0113DB6859
:104FA0001B0E937421B9C36843F02003C36003E070
:104FB000036943F02003036110BD21B9C26842F0C8
:104FC0002002C26003E0026942F0200202617047E1
:104FD0000246002019B9D36803F0030006E0012956
:104FE00003D1136903F0030000E00020704710B5FF
:104FF00002460B4600204FF6FF71BBB9146824F03F
:10500000020444F00104146000E0491E546804F0F6
:105010000304012C01D00029F7D1546804F00304E3
:10502000012C01D0002032E0012030E0012B13D10F
:10503000146824F00304146000E0491E546804F06E
:1050400003040CB10029F8D1546804F003040CB136
:1050500000201CE001201AE0022B17D1146824F074
:10506000010444F00204146000E0491E546804F096
:105070000304022C01D00029F7D1546804F0030482
:10508000022C01D0002002E0012000E0002010BD31
:10509000014600200A6822F0010242F002020A6082
:1050A0004A6802F00302022A00D10120704701463B
:1050B0004FF6FF7200200B6823F002030B6000E044
:1050C000521E4B6803F00203022B01D1002AF7D1D4
:1050D0004B6803F00203022B00D001207047014609
:1050E00000208A6902F070007047014600208A693A
:1050F000100E7047014600208A69C2F307407047CE
:105100001AB143690B43436102E043698B43436136
:10511000704710B50246002001F4700343B1936953
:10512000C1F3130423400BB101202DE000202BE03C
:1051300001F0807343B15368C1F3130423400BB1F2
:10514000012021E000201FE001F0006343B19368DB
:10515000C1F3130423400BB1012015E0002013E03C
:1051600001F0007343B1D368C1F3130423400BB1C2
:10517000012009E0002007E01369C1F31304234074
:105180000BB1012000E0002010BD0022244B994209
:1051900002D10023836111E0C1F3130201F0007317
:1051A0000BB1C2600AE001F080630BB1026105E05F
:1051B00001F000630BB1826000E04260704702467C
:1051C000002002EA01030BB1012000E0002070473B
:1051D00070B504460D46002660692840002872D04C
:1051E000B5F5807F69D01DDC082D42D006DC012D8D
:1051F0002DD0022D31D0042D7FD134E0102D3ED0A2
:10520000202D42D0402D78D145E00000030000045D
:105210000003000800000310000100080001FFF770
:105220007000F030B5F5004F61D009DCB5F5007FB6
:105230004AD0B5F5806F4DD0B5F5006F5DD150E027
:10524000B5F5803F2DD0B5F5003F56D12FE0A068D1
:105250005549FFF7B4FF064651E0E0680321FFF728
:10526000AEFF06464BE0E0680821FFF7A8FF0646C0
:1052700045E0E0681021FFF7A2FF06463FE0206905
:105280000321FFF79CFF064639E020690821FFF75C
:1052900096FF064633E020691021FFF790FF06468F
:1052A0002DE060680821FFF78AFF064627E0606866
:1052B0001021FFF784FF064621E0A0690121FFF7D6
:1052C0007EFF06461BE01BE0A0690221FFF777FF87
:1052D000064614E0A0690421FFF771FF06460EE0C0
:1052E0000BE0A0697021FFF76AFF064607E06068DF
:1052F0000421FFF764FF064601E0002600BF00E03E
:105300000026304670BDB1F5007F3AD00FDC202971
:1053100028D006DC01291CD004291DD0082940D141
:105320001DE0402921D0B1F5807F3AD126E0B1F5CA
:10533000004F31D006DCB1F5806F25D0B1F5006F9C
:105340002FD124E0B1F5803F12D0B1F5003F28D134
:1053500011E0154A826025E00822C26022E0102296
:10536000C2601FE0082202611CE01022026119E005
:105370000822426016E01022426013E004224260DC
:1053800010E0042242600DE0042242600AE00022A4
:1053900082610422426005E00022826104224260B0
:1053A00000E000BF00BF70470101010010B50121FE
:1053B0000802FFF75EFA00214FF48070FFF759FAF8
:1053C00010BD30B50246002000235068F84C204044
:1053D0000D790C6844EA0524204350609068F54C30
:1053E0002040D1E903542C438D682C434D7944EA85
:1053F000450420439060D06A20F470000C7D641E48
:10540000E4B2234340EA0350D06230BD0021016082
:10541000017141718160C1600161012101757047B5
:105420000021E54A1168E54A1140D0E900231A43FA
:1054300083681A43C3681A431143E14AC2F804134C
:1054400070470021016041608160C160704721B1F7
:10545000826842F00102826003E0826822F0010269
:10546000826070470A4600214168D64B19401143BB
:10547000416070474162826270470A46002141687C
:1054800021F01F0111434160704738B1CA490968D2
:1054900041F40001CA4AC2F8041306E0C64909688B
:1054A00021F40001C64AC2F80413704738B1C2495A
:1054B000096841F48001C24AC2F8041306E0BE49FB
:1054C000096821F48001BE4AC2F804137047F0B5A0
:1054D00004460D4600200021092D11DDE068A5F1EC
:1054E0000A0606EB4607072606FA07F18843A5F1E8
:1054F0000A0606EB460603FA06F10843E0600CE0F4
:10550000206905EB4507072606FA07F1884305EBF6
:10551000450603FA06F108432061072A0FDA606B9B
:10552000561E06EB86071F2606FA07F18843561E0D
:1055300006EB860605FA06F10843606322E00D2AB1
:105540000FDA206BD61F06EB86071F2606FA07F137
:105550008843D61F06EB860605FA06F1084320634A
:1055600010E0E06AA2F10D0606EB86071F2606FA98
:1055700007F18843A2F10D0606EB860605FA06F14F
:105580000843E062F0BD816841F08041816070476E
:10559000014600208A6802F080420AB1012000E042
:1055A0000020704721B1826842F48062826003E08B
:1055B000826822F480628260704721B1826842F082
:1055C0000202826003E0826822F002028260704779
:1055D00010B50A4600210023416821F46041531EA2
:1055E00041EA4331416010BD21B1426842F400629A
:1055F000426003E0426822F4006242607047014664
:10560000C86C80B270476C48001D0068704721B1BB
:10561000826842F48072826003E0826822F48072C1
:105620008260704721B1826842F40072826003E0B8
:10563000826822F400728260704738B15E4909685E
:1056400041F400515E4AC2F8041306E05A49096861
:1056500021F400515A4AC2F804137047F0B50446C9
:105660001546002000220026092911DDE068A1F17D
:105670000A0707EB470C072707FA0CF29043A1F142
:105680000A0707EB470703FA07F21043E0600CE054
:10569000206901EB410C072707FA0CF2904301EB5C
:1056A000410703FA07F210432061A06BC0F30156D3
:1056B000EF1C06F1010CA7EB0C0707EB870C1F276B
:1056C00007FA0CF29043EF1C06F1010CA7EB0C0754
:1056D00007EB870701FA07F21043A063F0BD10B58E
:1056E0000A4600210023816B21F44011531E41EA38
:1056F0000351816310BD08B5002300930090009B07
:105700000B440093009B1A6008BD0A460021816883
:1057100021F470211143816070470A46002181689D
:1057200021F44011114381607047816841F4800188
:1057300081607047014600208A6802F480020AB145
:10574000012000E00020704721B1426842F48062ED
:10575000426003E0426822F480624260704721B1F7
:10576000426842F48052426003E0426822F4805270
:105770004260704708B5024600200090009201F197
:105780002800009B184400900098006880B208BD73
:1057900010B50B460021D9B2012404FA01F11AB167
:1057A00044680C43446002E044688C43446010BD8C
:1057B000FFFEFFFCFDF7FFC004230140E030FCFFCB
:1057C00000200140FFFD3FFF0246002013680B4010
:1057D0000BB1012000E000207047CA43026070470F
:1057E00070B502460020002300240B1255680126E4
:1057F0008E4005EA060415681D4015B10CB1012064
:1058000000E0002070BD00220A12D34303607047FD
:10581000002041490860091D0860091D0860091D34
:1058200008603E483C4914310860704700213A49FD
:105830008279002A3AD00A46126803689A430B46D6
:105840001A600A1D126803689A430B1D1A600279D8
:1058500011440A6803681A430A602F4A0832126822
:1058600003689A432C4B08331A601A1D12680368A8
:105870009A43294B0C331A604279102A0ED11A1F11
:10588000126803681A43244B08331A601A1D126801
:1058900003681A43204B0C331A600DE01E4942790D
:1058A00011440A6803681A430A6005E0027911444A
:1058B0000A6803689A430A60704700210160017119
:1058C0000C21417100218171704713491031096821
:1058D0000143114A103211607047014600200E4A00
:1058E000143212680A400AB1012000E0002070471B
:1058F000094914310860704701460020064A1432F5
:1059000012680A400AB1012000E0002070470249F5
:105910001431086070470000003C0140FFFF7F0029
:105920000E49086070470D49486070470B49886010
:1059300070474AF6AA200949086070474CF6CC40E7
:1059400006490860704701460020044AD2680A40B0
:105950000AB1012000E00020704700000030004044
:10596000704700000FB4044910B503AA029800F074
:105970003DFB10BC5DF814FB500000202DE9F04108
:105980000646002410687529314616A510D0AFF3DD
:105990000080002802DA404213A507E031688A0738
:1059A00001D512A502E0490704D511A5012401E0A3
:1059B000AFF3008000210A2206F1240709E0B0FBC2
:1059C000F2FCB0FBF2F302FB1C00303078541846B6
:1059D000491C0028F3D123462A463046BDE8F04151
:1059E00000F09EB8000000002D0000002B00000019
:1059F000200000002DE9F0474FF0000A89460446D8
:105A0000C0F820A02046E1688847002876D02528E5
:105A100006D0D4E901219047206A401C2062F1E7BA
:105A2000E168204600258847C4F81CA006460027E8
:105A3000C4F818A02A2E09D0304601F0C9FC38B3AA
:105A400004EB8708303EC8F8186019E059F8041BC9
:105A5000204604EB87029161E1688847012F0646E2
:105A600018D1E069002820DA25F020051DE0D8F8DB
:105A7000180000EB800006EB40003038C8F8180032
:105A80002046E1688847064601F0A2FC0028EED1D6
:105A9000012F0AD02E2E08D12046E16888477F1CAE
:105AA0000646022F45F02005C4DBA069002803DA72
:105AB000404245F00105A061E80701D025F010053E
:105AC000B6B1A6F14100192802D8203645F4006588
:105AD0004A463146204625604D46FAF78FFB58B1BD
