:020000040800F2
:1000000098B800209102000891250008E71E00081A
:100010008D25000889160008032E00080000000046
:100020000000000000000000000000008D27000814
:10003000991D00080000000021260008E1280008A2
:10004000AB020008AB020008AB020008AB020008DC
:10005000AB020008AB020008AB020008AB020008CC
:10006000AB020008AB020008AB020008AB020008BC
:10007000AB020008AB020008AB020008AB020008AC
:10008000AB020008AB020008AB020008AB0200089C
:100090008D160008AB020008AB020008AB02000896
:1000A000AB020008AB020008AB020008AB0200087C
:1000B000AB020008AB020008AB020008AB0200086C
:1000C000AB020008AB020008AB020008AB0200085C
:1000D000AB020008E52B0008AB020008AB020008E9
:1000E000AB020008AB020008AB020008AB0200083C
:1000F000AB020008AB020008AB020008AB0200082C
:10010000AB020008AB0200084D290008AB02000852
:10011000AB020008AB020008AB020008AB0200080B
:10012000AB020008AB020008AB020008AB020008FB
:10013000AB020008AB020008AB020008AB020008EB
:10014000F91A0008AB020008AB020008AB02000875
:10015000AB020008AB020008AB020008AB020008CB
:10016000AB020008AB020008AB020008AB020008BB
:10017000AB020008AB020008AB020008AB020008AB
:10018000AB020008AB02000800F002F800F070F8C3
:100190000AA090E8000C82448344AAF10107DA45E2
:1001A00001D100F065F8AFF2090EBAE80F0013F0C4
:1001B000010F18BFFB1A43F001031847B0430000BA
:1001C000D043000010F8013B0A4413F0030408BFB9
:1001D00010F8014B1D1108BF10F8015B641E05D01B
:1001E00010F8016B641E01F8016BF9D1002D15D0D8
:1001F00010F8014B03F00C030C2BA1EB04040ABF15
:1002000010F8013BA4EB8314A4EB032405F10103D4
:1002100014F8016B5B1E01F8016BF9D5914238BFF0
:1002200010F8013BD1D3704700230024002500269D
:10023000103A28BF78C1FBD8520728BF30C148BF49
:100240000B607047662904F04481642900F08A80BD
:10025000002070471FB504F032F900F0E3FB040002
:100260000020002103F038FCE0601FBD10B510BD78
:1002700000F0D8FC1146FFF7EDFF02F011FF00F08F
:10028000F6FC03B4FFF7F2FF03BC02F0DBFD000055
:100290000948804709480047FEE7FEE7FEE7FEE71A
:1002A000FEE7FEE7FEE7FEE7FEE7FEE70448054956
:1002B000054A064B70470000E52800088901000840
:1002C00098B2002098B8002098B4002098B400207C
:1002D000704700000FB4044910B503AA029800F05B
:1002E0008FFB10BC5DF814FB68AE00200FB41CB58A
:1002F000074B06AA7B4469460090059800F067FB0F
:100300000020694600F076FB1CBC5DF814FB000081
:10031000FD06000070B5044685690068C10601D578
:10032000302600E02026C00707D070BDD4E90121A7
:1003300030469047206A401C20626D1EF6D570BD85
:1003400070B5044685690078C00707D170BDD4E94F
:10035000012120209047206A401C20626D1EF6D5A6
:1003600070BD00002DE9F041064600241068752993
:10037000314616A510D0AFF30080002802DA4042C3
:1003800013A507E031688A0701D512A502E04907E5
:1003900004D511A5012401E0AFF3008000210A2259
:1003A00006F1240709E0B0FBF2FCB0FBF2F302FB1C
:1003B0001C00303078541846491C0028F3D12346DD
:1003C0002A463046BDE8F04100F095B80000000034
:1003D0002D0000002B000000200000002DE9F04758
:1003E0004FF0000A89460446C0F820A02046E16884
:1003F0008847002876D0252806D0D4E901219047E7
:10040000206A401C2062F1E7E16820460025884709
:10041000C4F81CA006460027C4F818A02A2E09D04C
:10042000304602F008FD38B304EB8708303EC8F8C8
:10043000186019E059F8041B204604EB870291610B
:10044000E1688847012F064618D1E069002820DAC4
:1004500025F020051DE0D8F8180000EB800006EB21
:1004600040003038C8F818002046E1688847064642
:1004700002F0E1FC0028EED1012F0AD02E2E08D187
:100480002046E16888477F1C0646022F45F020057C
:10049000C4DBA069002803DA404245F00105A061F1
:1004A000E80701D025F01005B6B1A6F141001928E2
:1004B00002D8203645F400654A463146204625607C
:1004C0004D46FFF7BFFE58B1012806D0ED1D25F0BF
:1004D000070000F1080989E704E005F1040985E750
:1004E00030468AE7206ABDE8F08702F06BBD7047AE
:1004F0007047704770472DE9F0470D469946924680
:10050000044600F124080168880604D5E06921F05A
:100510001001216000E00120A84201DD471B00E03E
:100520000027A1697A1902EB0900081AA061207856
:10053000C00602D42046FFF7EDFE002608E0D4E90D
:1005400001211AF806009047206A401C761C2062A0
:100550004E45F4DB2078C0060AD52046FFF7DAFEC8
:1005600006E0D4E9012130209047206A401C206237
:10057000381EA7F10107F4DC07E0D4E9012118F8DF
:1005800005009047206A401C2062281EA5F1010545
:10059000F3DC2046FFF7D4FE2078000602D50220C7
:1005A000BDE8F0870120FBE770472DE9FF4F0C46BF
:1005B0001E464FF0FF378BB0D2E90001DDF86080B6
:1005C0000A908A46C1F30A5505B93D4600210846FE
:1005D0004FF00000BAF1000F00F4400005DA00EB24
:1005E00080004FF4400101EA50004FEA9059B9F100
:1005F000010F00DDB9460A9850EA4A000ED044F6D1
:100600001050A5F2FF3545432F14B8F1000F1ED04E
:100610007542291E1EDDC9F100021CE0B8F1010F70
:100620004FF0000001D0302103E0F24305E02154F7
:10063000401CB042FBDB30460022002121540B99C4
:10064000C1F80880C1E900200FB0BDE8F08FBD1BE4
:100650006D1CDEE74A4600DA694206A800F06CFA33
:1006600006AB93E8070003AB83E8070050460A99FE
:1006700000F044FB8DE80700A0F500501F38009003
:100680000398002D09DD42F21F014A46084403A9E0
:100690000390684600F0A3FD08E0A0F500504A462C
:1006A0001F3803A90390684600F0ADFD8DE80700F0
:1006B0000004000C03D04FF0FF30410800E010466A
:1006C000B8F1000F03D00022009215461EE0751EFF
:1006D00005D400F0ABF9303262556D1EF9D5B34642
:1006E0000122084302D000227F1C04E02078302839
:1006F00001D100227F1E002A099786D01DE0112D0E
:1007000007DA00F093F9303262556D1C50EA0102AD
:10071000F5D1084302D00098C8B10EE00021681E50
:1007200005E0235C625C63542254401E491C8142F4
:10073000F7DBAB46A81B401E0990002004F80B0015
:100740000B98099AC0F80880C0E9002B7CE71126B5
:100750004FF0000859E72DE9F04F88460446D21DB6
:1007600022F0070191B0D1E90001CDE90A0102F0C0
:100770004AFB02460B98C00F01D02D2007E02068ED
:10078000810701D52B2002E0202101EAC000032AC5
:10079000099001D0072A05DB03464146204600F0B8
:1007A0008BF90BE12078800601D5E06900E0062096
:1007B000B8F1650F814606D0B8F1660F18D0B8F1D0
:1007C000670F70D131E00020B9F1110F009001DB0B
:1007D000112301E009F101030AAA01A90CA8FFF7FE
:1007E000E4FEDDE90C70002609F10105834647E0CF
:1007F00001204B4600904FF000470AAA01A90CA81F
:10080000FFF7D3FEDDE90DB00C995D46002610B967
:1008100009F101000D18B9EB050003D4C0F1FF3652
:1008200009F10105A5EB09002BE0B9F1010F01DA8F
:100830004FF001090020B9F1110F0090484601DD89
:10084000112300E003460AAA01A90CA8FFF7ADFE98
:10085000DDE90C704D4600268346207800070AD457
:10086000AB4500DA5D4601A8012D04DD411911F800
:10087000011C302907D04F4502DA17F1040F04DAC2
:10088000012082460FE06D1EEEE7002F02DCED1B1B
:100890003E4403E0781CA84200DD7D1CB81B00F13B
:1008A000010A4FF000472078000703D4AA4501DB76
:1008B0004FF0FF3A0021B7F1004F0DF143088DF8DA
:1008C000431024D002202B23002F01DA7F422D2356
:1008D0000A21021EA0F1010000DC5FB197FBF1FCD0
:1008E00097FBF1F201FB1C7C17460CF1300C08F869
:1008F00001CDEEE7A8F1010003702188090501D5BB
:10090000452100E06521A0F1010800F8011C0998CB
:100910000FA9A1EB0807FF1D00B10120411901EB50
:10092000EA70A1693844081A401EA0612078C00608
:1009300002D42046FFF7EEFC099828B1D4E9012142
:100940009047206A401C20622078C00622D52046AD
:10095000FFF7E0FC1EE0002E04DBB34502DD01A83A
:10096000805D00E03020D4E901219047206A401CDE
:100970002062761CAAF101005FEA000A0AD100F0A9
:1009800051F8C0680168405CD4E901219047206AB1
:10099000401C2062281EA5F10105DCDC07E0D4E93B
:1009A000012118F8010B9047206A401C2062381E74
:1009B000A7F10107F3DC2046FFF7C2FC032011B0CA
:1009C00043E6000001694A1C02610878704700B5DF
:1009D0008FB0CDE901310021059105497944CDE978
:1009E000031011466846FFF7F9FC0FB000BD000088
:1009F000E5FFFFFF0A6802F8010B0A60704700007C
:100A0000074B70B50D467B44FFF7E1FF04462846CF
:100A100000F000F910B14FF0FF3070BD204670BDFE
:100A2000BB2500000048704758B2002030B5B0F137
:100A30000A024FEA900E71F100034EEA817EB0EB9C
:100A40000E0061EB91014FEA101E4EEA017E10EBA1
:100A50000E0041EB11114FEA102E4EEA016E10EB21
:100A60000E0041EB11214FEA104E4EEA014E10EB01
:100A70000E0041EB1141401841F100014FEAD00056
:100A800040EA41704FEAD10110EB80054FEA810442
:100A900044EA907444EB01046D1944EB0404521BC6
:100AA000A3414FF0000348BF0A3200D530BD401CBF
:100AB00041F1000130BD00002DE9F0411F46044620
:100AC00003260168072A01F4006004DB08B116A5BB
:100AD00005E016A503E008B115A500E015A521F075
:100AE00010002060A069C01EA0610FB1401EA0616F
:100AF0002046FFF70FFC4FB1D4E90121384690475B
:100B0000206A401C2062C01C206206E0206AFAE7CE
:100B1000D4E9012115F8010B9047761EF8D2204642
:100B2000FFF70EFCBDE8F0814E414E006E616E0095
:100B3000494E4600696E66002DE9F047814616462B
:100B40008AB0334878440DC88DE80D0030487844A9
:100B5000801C03AC0DC884E80D0041F69B300844AE
:100B6000372190FBF1F290FBF1F5A5F1800501FB37
:100B700012041B3C02D56442012000E00020DFF893
:100B800090A080460027FA44AAF1BE0A0DE0E007D3
:100B900009D03246684607EB47010AEB810100F0B5
:100BA00032FB8DE8070064107F1C002CEFD1184F3A
:100BB0007F44AC3F18E0E80714D007EB04100DF1B8
:100BC000180A90E80E008AE80E00C068F04201D1D1
:100BD00098190890324606A903A800F014FB03AB4D
:100BE00083E807006D10641C002DE4D1324669468D
:100BF000B8F1000F03A802D000F0F1FA01E000F014
:100C000002FBC9E90001C9F808200AB0BDE8F08775
:100C10000C3A0000007B00F08000704700487047ED
:100C200038B200207546FFF7F9FFAE460500694669
:100C3000534620F00700854618B020B5FFF736FB75
:100C4000BDE820404FF000064FF000074FF00008CD
:100C50004FF0000B21F00701AC46ACE8C009ACE84E
:100C6000C009ACE8C009ACE8C0098D46704704462D
:100C7000AFF300802046FFF704FB00004FF0013C7B
:100C800050F8042B51F8043B9A4221D1A2EB0C03FB
:100C9000934313EACC1317D150F8042B51F8043BBB
:100CA0009A4215D1A2EB0C03934313EACC130BD158
:100CB00050F8042B51F8043B9A4209D1A2EB0C03E3
:100CC000934313EACC13DBD04FF00000704700BF12
:100CD000D01A01BAB1FA81F101F0180122FA01F03B
:100CE000CB40C1F12001DBB2C0B2C01A2CFA01F333
:100CF000D11A914311EAC311E6D170475FEA400C63
:100D000008BF91F0000F4FEA8C234FEAC12243EA5B
:100D100051514FEA1C5018BF00F5F0404FEA300027
:100D200018BF41F000415FEA6C5C00F02980BCF123
:100D3000FF3F08BF40F080407047130C06BF12040D
:100D40004FF0100C4FF0000C130E04BF12020CF108
:100D5000080C130F04BF12010CF1040C930F04BF15
:100D600092000CF1020CD30F04BF52000CF1010CE5
:100D700011464FF00002A0F11F00A0EB0C007047DD
:100D800011F0004F08BF704731F000413FF4D5AF7C
:100D90000B0C06BF09044FF0100C4FF0000C0B0EAB
:100DA00004BF09020CF1080C0B0F04BF09010CF180
:100DB000040C8B0F04BF89000CF1020CCB0F04BF95
:100DC00049000CF1010CCCF12003A0EB0C0022FA3D
:100DD00003F302FA0CF241EA030100F1010070474B
:100DE00020F07F4C80EA030023F07F47ACEB070341
:100DF00003F57C5300F0004003F1FF032DE9804927
:100E00004FEA154B09B44FEA144325EA0B4E24EA86
:100E100003480FF2042606EB132749083E785FEAE1
:100E2000320203FB0667C7F5000707FB06F64FEA29
:100E300054374FEAD64606F1020607FB066CCCF1A2
:100E4000005C4FEA1C472CEA074C07FB06F40CFB3E
:100E500006F504EB15464FEA961634BF00204FF016
:100E600000404FEAD13706FB07FC4FEA1C4C0CFB55
:100E70000BF7D21B03FB0CF761EB07010CFB0EF722
:100E8000B0EB074072EB17420CFB08F734BFA2EB44
:100E90000742B2EB074261EB17414FEA0C444FEABD
:100EA000910706FB07FC4FEA1C4C0CFB0BF7B0EB61
:100EB000C74072EB573203FB0CF734BFA2EBC742BB
:100EC000B2EBC74261EB57310CFB0EF7B0EBC7003A
:100ED00072EB57720CFB08F734BFA2EBC702B2EB00
:100EE000C70261EB5771039F4FEA816141EA92119A
:100EF00004EBCC044FEAD1374FEA826206FB07FCD1
:100F000042EA90124FEA80604FEA1C4C0CFB0BF750
:100F1000D21B03FB0CF761EB07010CFB0EF7B0EBE8
:100F2000074072EB17420CFB08F734BFA2EB0742F5
:100F3000B2EB074261EB17414FEA8C554FEA91073C
:100F400004EB9C2406FB07FC4FEA1C4C0CFB0BF744
:100F5000B0EBC74072EB573203FB0CF734BFA2EB88
:100F6000C742B2EBC74261EB57310CFB0EF7B0EB57
:100F7000C70072EB57720CFB08F734BFA2EBC70235
:100F8000B2EBC70261EB577115EB4C254FEA81615B
:100F900041EA92114FEA82624FEAD13742EA901257
:100FA00006FB07FC44F100044FEA80604FEA1C4C4A
:100FB0000CFB0BF7D21B03FB0CF761EB07010CFBDF
:100FC0000EF7B0EB074072EB17420CFB08F734BF8B
:100FD000A2EB0742B2EB074261EB174115EB1C1580
:100FE0004FEA813141EA92414FEA823242EA90422D
:100FF0004FEA80304FEA0C7644F1000448EA03439C
:101000004EEA0B484FF0000EB2EB080C71EB0307F1
:1010100024BF624639464EEB0E0E4FF0000B00180F
:10102000524149414BEB0B0BB2EB080C71EB030740
:101030007BF1000B24BF624639464EEB0E0E4FF09B
:10104000000B0018524149414BEB0B0BB2EB080C63
:1010500071EB03077BF1000B24BF624639464EEB70
:101060000E0E51EA020718BF46F0010616EB0E7687
:1010700055F1000254F1000103D5BDE88901BDE836
:101080000088BDE88901BDE80048B619524141EB2E
:101090000101A3F10103704780807F7E7D7C7B7A14
:1010A0007978777676757473727171706F6E6E6D14
:1010B0006C6C6B6A6A6968686766666564646363BA
:1010C00062616160605F5F5E5E5D5D5C5C5B5B5A40
:1010D0005A595958585757565655555554545353AD
:1010E00052525251515050504F4F4F4E4E4D4D4D08
:1010F0004C4C4C4B4B4B4A4A4A4949494848484753
:101100004747474646464545454444444443434390
:101110004342424242414141002B26D4770021D034
:101120001CB54FEA370703B44FF010004FF0100121
:101130004FF000000FBCBDE810400BF1010BBBF1FC
:10114000010F08BF5FEA170722BF12F1010211F178
:1011500001014FF0004143F1000300F0004043EA79
:1011600000007047F9D35708DAE746EA064613F15C
:10117000400F4FEA16461FDD13F1200FDFBF164365
:101180000A46002120335B42C8D0C3F1200746EA5B
:10119000064602FA07F74FEA164646EA0706C3F183
:1011A000200722FA03F201FA07F721FA03F14FF0C0
:1011B000000342EA0702B1E746EA020646EA0646AB
:1011C0004FEA164646EA0106BCBF46EA0646360C1A
:1011D0004FF000034FF000024FF000019EE72DE9B1
:1011E000C048934630B491E8380007C831EA400C53
:1011F00048BF34EA430C03D5FFF7F2FDFFF78CFF3D
:10120000F0BCBDE800882DE9C048934630B491E8B1
:10121000380007C810F0804F08BF13F0804F03D18B
:1012200000F005F8FFF778FFF0BCBDE8008820F07B
:101230007F4780EA030023F07F4C07EB0C03A3F504
:101240007C5300F00040A3F1FE0392F0000F00F089
:10125000B38095F0000F00F077802DE901494FEA47
:1012600011404FEA144621EA004800FB06FC24EA3C
:10127000064708FB06F607FB08F800FB07F718EB24
:1012800006484CEB164C4FEA124B18EB07484FEA56
:1012900015464CEB174022EA0B4E0BFB06FC25EAE9
:1012A00006470EFB06F607FB0EFE0BFB07F71EEBD1
:1012B000064E4CEB164C4FF000061EEB074E4CEB67
:1012C000174B18EB0B0840F1000018EB0E0B58EB16
:1012D000000840F100008F1A4FF000013CBFC943E5
:1012E000661B14BFB5EB040C00213CBFC943F61BC1
:1012F0004FEA17444EEA8E0E27EA04454FEA1C4790
:1013000004FB07622CEA074C05FB07F70CFB05F60C
:1013100004FB0CFC16EB074642EB174216EB0C469F
:1013200042EB1C421BEB060658EB0202414146EA27
:101330009E0601D5BDE80189B619524141EB010174
:10134000A3F10103BDE801894FEA14454FEA1147B3
:1013500024EA054621EA074C05FB07F406FB07F7DC
:101360000CFB06F105FB0CFC11EB074144EB1744A9
:101370004FEA124711EB0C4144EB1C4422EA074CA4
:1013800005FB07F206FB07F70CFB06F605FB0CFC5A
:1013900016EB074642EB174216EB0C4642EB1C4598
:1013A0006A1854F1000148BF7047B619524141EB29
:1013B0000101A3F10103704795F0000F37D04FEA08
:1013C00011424FEA144721EA024624EA074C02FB85
:1013D00007F106FB07F70CFB06F402FB0CFC14EB11
:1013E000074441EB17414FEA154714EB0C4441EB1E
:1013F0001C4125EA074C02FB07F506FB07F70CFB2F
:1014000006F602FB0CFC16EB074645EB174516EB00
:101410000C4645EB1C42121951F1000148BF7047C0
:10142000B619524141EB0101A3F1010370474FEAA4
:1014300014454FEA114724EA054621EA074C05FB0B
:1014400007F106FB07F70CFB06F24FF0000605FB61
:101450000CFC12EB074241EB174112EB0C4251EB33
:101460001C4148BF7047921841EB0101A3F10103F1
:10147000704721B1826842F00102826003E0826815
:1014800022F00102826070470021084A1168084A70
:101490001140D0E900231A4383681A43C3681A43F2
:1014A0001143044AC2F804137047000004230140AA
:1014B000E030FCFF002001400146C86C80B270475C
:1014C0000246002013680B400BB1012000E0002011
:1014D0007047000030B50246002000235068104CD1
:1014E00020400D790C6844EA052420435060906840
:1014F0000C4C2040D1E903542C438D682C434D798A
:1015000044EA450420439060D06A20F470000C7DCA
:10151000641EE4B2234340EA0350D06230BD0000B1
:10152000FFFEFFFCFDF7FFC0F0B504460D460020AE
:101530000021092D11DDE068A5F10A0606EB46073A
:10154000072606FA07F18843A5F10A0606EB4606C8
:1015500003FA06F10843E0600CE0206905EB45075B
:10156000072606FA07F1884305EB450603FA06F15C
:1015700008432061072A0FDA606B561E06EB8607C8
:101580001F2606FA07F18843561E06EB860605FA63
:1015900006F10843606322E00D2A0FDA206BD61FA4
:1015A00006EB86071F2606FA07F18843D61F06EBCF
:1015B000860605FA06F10843206310E0E06AA2F10E
:1015C0000D0606EB86071F2606FA07F18843A2F1EF
:1015D0000D0606EB860605FA06F10843E062F0BD4B
:1015E000816841F0804181607047000000B58DB096
:1015F0000121042001F016F80121084601F012F83B
:101600000121080201F02EF80C20059003208DF82E
:10161000180000208DF81B0005A9184800F0BDFB3C
:101620003020059005A9164800F0B7FB01210802FB
:1016300001F028F800214FF4807001F023F8002019
:101640000190049003904FF48030029001A8FFF7BE
:101650001BFF002007908DF820008DF821000990D5
:101660000B9001208DF8300007A90648FFF732FFE4
:1016700001210448FFF7FDFE0DB000BD0008024047
:10168000000002400020014000BFFEE700B52DED44
:10169000068B85B06A460021DF4800F0C3FA009847
:1016A0000F2806D017283BD01F2849D0272836D12D
:1016B000F9E0DA48DDF80B10016090ED000ADFED8B
:1016C000D80A20EE200A80ED000A90ED000ABDEE57
:1016D000C00AD44880ED180A016ED3A0FEF7FAFDC7
:1016E000D7A0FEF7F7FDCD49DDF80F0008600846EA
:1016F00090ED000ADFEDCA0A20EE200A80ED000A14
:1017000090ED000ABDEEC00AC64880ED360AD0F85A
:10171000D810CCA0FEF7DEFDC9A0FEF7DBFD75E119
:10172000BE48DDF80B10016090ED000AF7EE000AEC
:10173000B4EE600AF1EE10FA01D101F09FF865E114
:10174000C648DDF80B100160006802F047FE41EC6E
:10175000190B9FEDC30B53EC102B02F04BFC41EC2B
:10176000180B02F0CFF9BD490860084690ED000A59
:10177000B5EEC00AF1EE10FA03D29FEDBB0A80ED80
:10178000000AB64890ED000ABDEEC00A10EE100A3D
:1017900002F019FC41EC1A0B9FEDB40B53EC102B2B
:1017A00002F028FC41EC190B9FEDB20B53EC102B0F
:1017B00002F01EFD41EC180B02F0D6FB01B2994875
:1017C000A0F85411B0F95401012803DA0121954819
:1017D000A0F854110120A94948709248B0F9541159
:1017E000A7A0FEF777FD96A0FEF774FD9B49DDF8F4
:1017F0000F0008600846006802F0F0FD41EC190B8C
:101800009FED970B53EC102B02F0F4FB41EC180BFF
:1018100002F078F991490860084690ED000AB5EEAB
:10182000C00AF1EE10FA03D29FED8F0A80ED000A94
:101830008A4890ED000ABDEEC00A10EE100A02F0D0
:10184000C2FB41EC1A0B9FED890B53EC102B02F0FD
:10185000D1FB41EC190B9FED900B53EC102B02F0D8
:1018600083F941EC180B02F07FFB01B26D48A0F840
:101870004412B0F94402B0F5957F04DD4FF4957140
:101880006848A0F8441201207C49C8706548B0F946
:10189000441283A0FEF71EFD69A0FEF71BFD012088
:1018A00076490870B2E06D48DDF80B100160006801
:1018B00002F094FD41EC190B9FED690B53EC102BDA
:1018C00002F098FB41EC180B02F01CF96349086028
:1018D000084690ED000AB5EEC00AF1EE10FA03D208
:1018E0009FED610A80ED000A5C4890ED000ABDEEB4
:1018F000C00A10EE100A02F066FB41EC1A0B9FEDD5
:101900005B0B53EC102B02F075FB41EC190B9FEDB8
:101910006A0B53EC102B02F027F941EC180B02F084
:1019200023FB01B23F48A0F8CC11B0F9CC01B0F5CF
:10193000957F04DD4FF495713A48A0F8CC11012051
:101940004E4988703748B0F9CC115DA0FEF7C2FC53
:101950003BA0FEF7BFFC4149DDF80F0008600846D8
:10196000006802F03BFD41EC190B9FED3D0B53EC81
:10197000102B02F03FFB41EC180B02F0C3F8374983
:101980000860084690ED000AB5EEC00AF1EE10FAC4
:1019900003D29FED350A80ED000A304890ED000A31
:1019A000BDEEC00A10EE100A02F00DFB41EC1A0B5E
:1019B0009FED2E0B53EC102B02F01CFB41EC190B8E
:1019C0009FED450B53EC102B02F012FC41EC180B71
:1019D00002F0CAFA01B21348A0F8BC12B0F9BC0276
:1019E000012803DA01210F48A0F8BC120120234985
:1019F00008710C48B0F9BC1239A0FEF76BFC10A0BE
:101A0000FEF768FC01201D49087000BF00BF05B04B
:101A1000BDEC068B00BD000000640040000000200B
:101A200000007A4480AE0020D7F3D6F7C2C4B4F8E1
:101A3000C9E8B6A8CBD9B6C8CEAA3A25640000003A
:101A40000D0A0000D3D2D6F7C2C4B4F8C9E8B6A8CC
:101A5000CBD9B6C8CEAA3A25640000000400002005
:101A600024AC9522DCA54C40000000009E5E29CBF2
:101A700010C7F13F0000000000E0694008000020AE
:101A8000D7F3C7B0B8B1C2C4B4F8C9E8B6A8BDC7E7
:101A9000B6C8CEAA3A2564000000000000C0574036
:101AA000D3D2C7B0B8B1C2C4B4F8C9E8B6A8BDC7EC
:101AB000B6C8CEAA3A256400000000000080544059
:101AC000D7F3BAF3B8B1C2C4B4F8C9E8B6A8BDC771
:101AD000B6C8CEAA3A2564000000000000606B4042
:101AE000D3D2BAF3B8B1C2C4B4F8C9E8B6A8BDC776
:101AF000B6C8CEAA3A25640010B586B001AA002166
:101B0000444800F08FF80198A0F2012006287ED208
:101B1000DFE800F0031930475D6D002406E00DF1A9
:101B20000F00015D3C480155601CC4B2082CF6DB77
:101B3000002000F0EFF8394890ED000A36480C38E4
:101B400080ED000A63E0002407E00DF10F00015D65
:101B5000314878300155601CC4B2082CF5DB0120F7
:101B600000F0D8F82D4890ED010A2B480C3880ED94
:101B70001E0A4CE0002407E00DF10F00015D26482D
:101B8000F0300155601CC4B2082CF5DB022000F0D7
:101B9000C1F8224890ED020A1F480C3880ED3C0A3B
:101BA00035E0002406E00DF10F00015D1C480155F1
:101BB000601CC4B2082CF6DB032000F0ABF8174819
:101BC00090ED030A14480C3880ED5A0A1FE00024F7
:101BD00007E00DF10F00015D114878300155601CE0
:101BE000C4B2082CF5DB042000F094F80FE00024C8
:101BF00007E00DF10F00015D0948F0300155601C50
:101C0000C4B2082CF5DB052000F084F800BF00BF4B
:101C100006B010BD006800408CAE002060B100200E
:101C2000F4AF002010B500F5D87303EB01131B6867
:101C300003F004031372137A53B900F5D87303EB5E
:101C400001131B6840F2FF7404EA5353136009E068
:101C500000F5D87303EB01131B686FF0604404EACE
:101C6000D303536000F5D87303EB01131B6803F033
:101C70000203537200F5D87303EB01135B6803F0A2
:101C80000F03937200F5D87303EB01135B681B0A13
:101C9000D37400F5D87303EB01139B68D37200F57E
:101CA000D87303EB01139B681C0A147300F5D873F7
:101CB00003EB01139B681C0C547300F5D87303EB02
:101CC00001139B681B0E937300F5D87303EB01138C
:101CD000DB68D37300F5D87303EB0113DB681C0AD0
:101CE000147400F5D87303EB0113DB681C0C5474F7
:101CF00000F5D87303EB0113DB681B0E937421B955
:101D0000C36843F02003C36003E0036943F020038A
:101D1000036110BDC0EB00111E4A02EBC101497BFB
:101D2000C0EB00121B4B03EBC202127B01EB022142
:101D300009B200EE101AB8EEC00AC0EB00111A4644
:101D400002EBC10181ED000AC0EB001102EBC10101
:101D5000CA7BC0EB001103EBC101897B02EB0121BF
:101D600009B2C0EB001203EBC2025160C0EB0011DC
:101D70001A4602EBC1014A7CC0EB001103EBC10122
:101D8000097C02EB012109B2C0EB001203EBC20295
:101D90009160704780AE00207047F0B50A46002180
:101DA0000023002400BF3DE0012505FA01F315687A
:101DB00005EA03049C4234D105684F000326BE4067
:101DC000B543056015794E00B5400668354305609A
:101DD0001579012D02D01579022D16D185684F0095
:101DE0000326BE40B543856055794E00B5408668F0
:101DF00035438560456801268E40B543456045689A
:101E000096798E40B6B235434560C5684F000326CB
:101E1000BE40B543C560D5794E00B540C668354370
:101E2000C560491C1029BFD3F0BDF0B500230024C4
:101E30004D07ED0E02FA05F3CE1000F1200555F81E
:101E400026504E07F70E0F26BE40B543CF1000F1C7
:101E5000200646F82750CE1000F1200555F82650F0
:101E600045EA0304CE1000F1200545F82640F0BDF8
:101E70000246002013690B400BB1012000E0002056
:101E8000704741837047000010B5044607230122C4
:101E900021460848FFF748FB0648FFF7A1FB00BFB3
:101EA00002210448FFF70CFB0028F9D00148FFF796
:101EB00003FB10BD002001402DE9F04107460C4610
:101EC0000025002608E03846FFF7DEFF0544052020
:101ED00001F036F8701CC6B2A642F4DBB5FBF4F094
:101EE00080B2BDE8F08100BFFEE700001CB5012113
:101EF000072000F097FB0920009000208DF80400D7
:101F000003208DF8050002208DF80700694615486A
:101F1000FFF743FF0120009002208DF8070069467B
:101F20001148FFF73AFF41F20200009001208DF8BE
:101F3000070069460C48FFF730FF4FF4005000904F
:101F400001208DF8070069460848FFF726FF40206A
:101F5000009001208DF8070069460248FFF71DFF39
:101F60001CBD0000000002400008024000040240C6
:101F700000B5002000F008F900BD00002DE9F84F81
:101F800004460E4617469B460025A8464FF0010A18
:101F9000C4F10700C4B2C6F10400C6B261E0002576
:101FA0004FF0010A12E03248405D17F808108842ED
:101FB0000AD12F49681C095C08F10100385C814294
:101FC00002D14FEA051A05E0A81CC5B22848405DB9
:101FD0008328E8DC00BFBAF1010F3CD006F1010C08
:101FE0004FF0010ECEEB0C1C0CF0FF0304F1010CC2
:101FF000CEEB0C1C0CF0FF024FEA067C4FEA1C6192
:102000004FEA047C4FEA1C6000F097F80020009033
:102010001EE04FF0000912E0164810F80A00802177
:1020200041FA09F1084018B1584600F005FA02E0FB
:102030000A9800F001FA09F1010000F0FF09B9F176
:10204000080FE9DB0AF1010A0098401CC0B20090B9
:1020500000982028DDDB601EC4B208F1020000F009
:10206000FF0817F80800002899D1BDE8F88F000094
:1020700003A6002082A600202DE9F04F04460D465D
:1020800090469946DDF824A005F1010C4FF0010BB4
:10209000CBEB0C1C0CF0FF0304F1010CCBEBCC0CD4
:1020A0000CF0FF024FEA057C4FEA1C614FEAC46C5A
:1020B0004FEA1C6000F041F8002718E0002612E00B
:1020C000A8F120000C4901EB0010C05D80213141D6
:1020D000084018B1484600F0AFF902E0504600F061
:1020E000ABF9701CC6B2082EEADB781CC7B2102F01
:1020F000E4DBBDE8F08F000013A000202DE9F841DB
:1021000005460E4614461F46DDF81C80C5F10F003B
:10211000C5B2C6F10400C6B20AE0CDF8008014F8DA
:10212000012B28466B1EDDB23B463146FFF7A4FF6C
:1021300020780028F1D1BDE8F881F0B507460C46BB
:1021400015461E462A2000F04BF9002000F0CCF97D
:10215000384600F0C9F9002000F0C6F9284600F022
:10216000C3F92B2000F03CF9002000F0BDF9204617
:1021700000F0BAF9002000F0B7F9304600F0B4F9E9
:102180002C2000F02DF9F0BD70B5064642238422C4
:1021900000210846FFF7D1FF002408E0002503E0F6
:1021A000304600F049F96D1C422DF9D3641C842C93
:1021B000F4D370BD1CB50121022000F033FA49F2BE
:1021C0000340009001208DF8040000208DF80600E7
:1021D00003208DF8050001208DF8070069467D4831
:1021E000FFF7DBFD01207C4908607C49C1F8BC0297
:1021F00079492431086078492C31086000207649FB
:10220000091F0860C82000F09BFE01207349C1F837
:102210008002322000F094FE112000F0E1F86420EA
:1022200000F08EFEB12000F0DBF8052000F05CF934
:102230003A2000F059F9362000F0D2F8082000F0DA
:1022400053F9B22000F0CCF8052000F04DF93A2007
:1022500000F04AF9B32000F0C3F8052000F044F97B
:102260003A2000F041F9052000F03EF93A2000F054
:102270003BF9B42000F0B4F8002000F035F9C0209C
:1022800000F0AEF8AA2000F02FF90A2000F02CF997
:10229000842000F029F9C12000F0A2F8C02000F04D
:1022A00023F9C22000F09CF80D2000F01DF9002059
:1022B00000F01AF9C32000F093F88D2000F014F913
:1022C0002A2000F011F9C42000F08AF88D2000F0D7
:1022D0000BF9EE2000F008F9C52000F081F8062087
:1022E00000F002F9E02000F07BF8062000F0FCF896
:1022F0001C2000F0F9F8102000F0F6F8142000F08F
:10230000F3F8302000F0F0F82B2000F0EDF8242056
:1023100000F0EAF8292000F0E7F8282000F0E4F8BF
:10232000262000F0E1F82E2000F0DEF8392000F041
:10233000DBF8002000F0D8F8022000F0D5F80120EA
:1023400000F0D2F8102000F0CFF8E12000F048F8BB
:10235000062000F0C9F81C2000F0C6F8102000F09C
:10236000C3F8142000F0C0F8302000F0BDF82B2096
:1023700000F0BAF8242000F0B7F8292000F0B4F8F3
:10238000282000F0B1F8262000F0AEF82E2000F052
:10239000ABF8392000F0A8F8002000F0A5F80220E2
:1023A00000F0A2F8012000F09FF8102000F09CF847
:1023B0003A2000F015F8052000F096F8292000F0EA
:1023C0000FF80A2000F0BCFD4FF47840FFF7DCFE68
:1023D0001CBD000000040240848240420080404254
:1023E0000022134B1A60134BC3F8B022002118E0EF
:1023F00000220F4B24331A6000F08002802A04D19F
:1024000001220B4B38331A6003E00022084B3833AB
:102410001A600122064B24331A604206100E4A1C31
:10242000D1B20829E4DB0122014B2C331A6070473A
:10243000848240420080404210B502460123284C6D
:1024400023600023274CC4F8B032C2F307210020D8
:1024500018E00023224C2434236001F08003802BF9
:1024600004D101231E4C3834236003E000231C4CAC
:102470003834236001231A4C243423604B06190E90
:10248000431CD8B20828E4DB0123154C2C3423600C
:10249000D1B20023134CC4F8B032002018E000235E
:1024A0000F4C2434236001F08003802B04D10123DE
:1024B0000B4C3834236003E00023094C383423608C
:1024C0000123074C243423604B06190E431CD8B259
:1024D0000828E4DB0123024C2C34236010BD0000EB
:1024E00084824042008040420122144B1A60002244
:1024F000134BC3F8B022002118E000220F4B243305
:102500001A6000F08002802A04D101220B4B38337C
:102510001A6003E00022094B38331A600122074B8E
:1025200024331A604206100E4A1CD1B20829E4DB9B
:102530000122024B2C331A60704700008482404213
:10254000008040421CB50121022000F06BF8782089
:10255000009001208DF8040000208DF80600032073
:102560008DF8050001208DF8070069460548FFF742
:1025700014FC78210348FFF784FC0120024908601D
:102580001CBD0000000402408C82404200BFFEE7F8
:102590007047000070B5002100230F22C4781CB3DF
:1025A000174C246804F4E064C4F5E064C4F3072124
:1025B000C1F10404E3B20A4144789C40E1B284785A
:1025C000144021430C07210E0E4C05786155047808
:1025D00004F01F050124AC4005786D11AD0005F134
:1025E000E025C5F8004109E0047804F01F05012446
:1025F000AC40054D0678761145F8264070BD0000C8
:102600000CED00E000E400E080E100E0024901435D
:10261000024A1160704700000000FA050CED00E06E
:102620007047000029B1064A12680243044B1A6041
:1026300004E0034A12688243014B1A6070470000AD
:102640003038024029B1064A12680243044B1A602E
:1026500004E0034A12688243014B1A60704700008D
:102660004038024029B1064A12680243044B1A60FE
:1026700004E0034A12688243014B1A60704700006D
:102680004438024029B1064A12680243044B1A60DA
:1026900004E0034A12688243014B1A60704700004D
:1026A00024380240F0B50021002200240225002633
:1026B0000223324F3F6807F00C0121B1042905D0F5
:1026C000082937D105E02E4F076036E02D4F07600F
:1026D00033E02A4F3F1F3F68C7F38056274F3F1F05
:1026E0003F6807F03F036EB1264FB7FBF3F7DFF803
:1026F0008CC0ACF1040CDCF800C0CCF3881C07FBE8
:102700000CF40CE01E4FB7FBF3F7DFF870C0ACF130
:10271000040CDCF800C0CCF3881C07FB0CF4174F4A
:102720003F1F3F68C7F301477F1C7D00B4FBF5F7EF
:10273000076002E0124F076000BF00BF0F4F3F6805
:1027400007F0F0010909104F7A5C0768D74047602D
:102750000A4F3F6807F4E051890A0B4F7A5C4768DB
:10276000D7408760054F3F6807F46041490B064F2B
:102770007A5C4768D740C760F0BD00000838024067
:102780000024F40000127A006EAE002070470000B2
:102790000CB50020019000903448006840F480306F
:1027A0003249086000BF3148006800F400300090F2
:1027B0000198401C0190009818B90198B0F5A04FFD
:1027C000F1D12A48006800F4003010B101200090D7
:1027D00001E0002000900098012846D123484030B5
:1027E000006840F08050214940310860204800686E
:1027F00040F440401E4908601C48083000681B49EE
:10280000083108600846006840F400400860084647
:10281000006840F4A05008601648091F0860081FAF
:10282000006840F08070091F086000BF0F48006812
:1028300000F000700028F9D040F205700E490860E1
:102840000A480830006820F0030008490831086091
:102850000846006840F00200086000BF03480830E6
:10286000006800F00C000828F8D10CBD00380240C8
:102870000070004008544007003C024010B500F0D2
:10288000AFFB00F0E1FACF210948A0F85411522122
:10289000A0F8CC115F21A0F84412DB21A0F8BC12F3
:1028A00001200449087048708870C870087110BD14
:1028B00080AE002008000020042808D14FF0E0215D
:1028C000096941F004014FF0E022116107E04FF087
:1028D000E021096921F004014FF0E0221161704705
:1028E0007047000010B51548006840F470001349A7
:1028F00008601348006840F001001149086000209A
:102900000F49083108600E4800680E4908400C491C
:1029100008600D48091D0860081F006820F4802029
:10292000091F0860002006490C310860FFF730FFDE
:102930004FF0006001498039086010BD88ED00E06B
:1029400000380240FFFFF6FE1030002410B50121D0
:102950004C4800F0EAF800286DD00121494800F009
:10296000D5F805210D20FFF7A7FAC0F50060C821B2
:1029700090FBF1F46421204600F086FB40B242490E
:10298000087005210C20FFF797FAA0F50060C82118
:1029900090FBF1F46421204600F076FB40B23B4905
:1029A000087005210846FFF787FAA0F50060C821E6
:1029B00090FBF1F46421204600F066FB40B23449FC
:1029C000087002213348FFF753FAC8B94021324852
:1029D000FFF74EFA80B931480078401C40B22F49C9
:1029E0000870084690F900000A280CDD00200870E5
:1029F00001202B49087006E000202849087002E0F9
:102A0000002026490870274890F900100078401CE3
:102A100040B2244A10700A2933DD002011460870A4
:102A200021480068012807D11F49091D08600020BE
:102A30001E49C1F88C0224E01B48001D00680128D3
:102A400007D119490831086000201849C1F89002DF
:102A500017E0154808300068012807D112490C31E9
:102A6000086000201149C1F894020AE00E480C30B9
:102A70000068012805D10C49086000200B49C1F805
:102A8000980210BD000C00400D0000200F00002037
:102A90000E0000200008024000000240120000204A
:102AA00010000020110000208C8240420080404233
:102AB0007FB505460C4601210820FFF7C3FD0295AE
:102AC000ADF804400020ADF80600ADF80C0001A9F7
:102AD0000D4800F045F8012211460B4800F036F889
:102AE0000121094800F015F832208DF8000001207E
:102AF0008DF8010003208DF8020001208DF80300FD
:102B00006846FFF747FD7FBD000C0040CA430282C4
:102B1000704721B1028842F00102028004E002887D
:102B20004FF6FE731A400280704730B5024600200F
:102B300000230024158A05EA0103958905EA0104AA
:102B400013B10CB1012000E0002030BD1AB183891F
:102B50000B43838102E083898B43838170470000AC
:102B600000220288184B98420ED0184B98420BD086
:102B7000B0F1804F08D0164B984205D0154B9842C3
:102B800002D0154B984204D14FF68F731A404B88F0
:102B90001A43124B984207D0114B984204D04FF67B
:102BA000FF431A400B891A4302804B68C3620B88AB
:102BB0000385054B984202D0044B984201D18B7A91
:102BC0000386012383827047000001400004014016
:102BD0000004004000080040000C004000100040CD
:102BE0000014004010B540F225511D4800F04AF88D
:102BF00010B31B4800F000F9C4B21A48008800F472
:102C00000040C8B91748008800F4804060B10A2C21
:102C100003D000201349088020E01248008840F4C7
:102C200000401049088019E00D2C06D10D4800889D
:102C300040F480400B49088010E00A480088C0F347
:102C40000D0009490C5407480088401C05490880BC
:102C500008460088C72801DD0020088010BD00005C
:102C6000001001406CAE002070B1002021B18289BB
:102C700042F40052828104E082894DF6FF731A40CB
:102C80008281704770B50246002400230025002091
:102C900040F66A16B14200D100BFC1F3421501F0FF
:102CA0001F03012606FA03F3012D02D19689334052
:102CB00006E0022D02D1168A334001E0968A3340A5
:102CC0000C12012606FA04F41688344013B10CB134
:102CD000012000E0002070BDF0B50346002400266E
:102CE0000025002040F66A17B94200D100BF1846FF
:102CF000C1F3421401F01F06012707FA06F5012C63
:102D000001D10C3004E0022C01D1103000E014306D
:102D10001AB107682F43076002E00768AF430760F6
:102D2000F0BD00002DE9FF4705460E460024A146F0
:102D300000BFA046B08900B100BF2C8A24F44054E3
:102D4000F08804432C82AC8941F20C608443B08843
:102D500031890843718908430443AC81AC8A24F467
:102D60004074B0890443AC826846FFF79BFC20485E
:102D7000854202D01F48854202D1DDF80C9001E067
:102D8000DDF80890A88900F4004040B109EBC900C3
:102D900000EB091031684900B0FBF1F707E009EBDF
:102DA000C90000EB091031688900B0FBF1F764201D
:102DB000B7FBF0F004012009642101FB1078A88919
:102DC00000F4004040B1322000EBC800B0FBF1F04D
:102DD00000F00700044308E0322000EB08106421F3
:102DE000B0FBF1F000F00F0004432C81BDE8FF8739
:102DF000001001400014014001468888C0F308001B
:102E0000704700BFFEE703B401984100009850EA04
:102E1000C12018BF04204A0D18BF40F0010040F245
:102E2000FF72B2EB515F08BF40F00200012808BFFB
:102E3000052002B0704730380A2801D201207047BF
:102E40000020704700BF704710B52DED048B0024A3
:102E50002BE0214800EB840090ED000ADFED1F0A13
:102E600020EE200A10EE101A084601F0B7FA41ECE5
:102E7000190B9FED1B0B53EC102B00F01DFF41ECC9
:102E8000180B00F03FFE184941F82400084600EBFB
:102E9000840090ED000AA01CC0EB0010134901EB68
:102EA000C00080ED000A601CC4B2042CD1DB0F48C6
:102EB00090ED780A10EE101A084601F08FFA41ECF6
:102EC000180B53EC182B0AA0FDF704FA0CA0FDF721
:102ED00001FABDEC048B10BD50B1002000009643F8
:102EE0006666666666660A4060B1002080AE0020B5
:102EF0004D315F416E676C653D25660D0A0000002F
:102F00000D0A000010B504466FF00400FFF7D4FC72
:102F1000E11704EB5171C1F3C701074A1170104664
:102F2000007800EB4001C1EBC0104FF6FF7101EAE1
:102F3000C0000249088010BD62AE002064AE0020CF
:102F400070B504464FF4077094FBF0F0C6B24FF42E
:102F5000077094FBF0F100FB114085B205E04FF4DF
:102F6000077000F009F8701EC6B2002EF7D115B137
:102F7000284600F001F870BD0146114A12884A4304
:102F80004FF0E0235A6100229A611A46126942F01A
:102F900001021A6100BF4FF0E022106900F0010247
:102FA0001AB100F48032002AF5D04FF0E022126905
:102FB00022F001024FF0E0231A6100229A6170476B
:102FC00064AE002000BF054A128802F04002002AC9
:102FD000F9D0C2B2014B9A80704700000010014046
:102FE00010B52DED048B82B00020009001900521DA
:102FF000FEF762FFADF8000005210120FEF75CFF3F
:10300000ADF8020005210220FEF756FFADF80400DE
:1030100005210320FEF750FFADF80600002427E04D
:103020003DF8140000EE100AB8EE400A10EE101A37
:10303000084601F0D3F941EC190B9FED100B53EC4E
:10304000102B00F0D7FF41EC180B00F05BFD0D4991
:1030500041F82400084600EB840090ED000ABCEE25
:10306000C00A10EE100A80B22DF81400601CC4B221
:10307000042CD5DB02B0BDEC048B10BD6666666621
:1030800066664A3F50B1002002468A4201DB08468C
:1030900070474842824201DC4842F9E71046F7E7B0
:1030A00092B0FEA103C9CDE91001FEA103C9CDE98B
:1030B0000E01FEA103C9CDE90C01FEA103C9CDE9B2
:1030C0000A01002400200990A820FFF71BFFFFF74A
:1030D00039FAFEF78BFAFEF709FF4FF4A060FFF70D
:1030E00095FA4FF4E13000F0A1FC42F2CF0140F23A
:1030F000E730FFF7DDFCFFF75DF8FEF739FF00F082
:103100001FFC002040F2FF73ECA201210090FEF7AB
:1031100035FF002040F2FF73E9A201210090022058
:10312000FEF7ECFF002040F2FF73E6A201210090C1
:103130000420FEF723FF002040F2FF73E0A20121EC
:1031400000900A20FEF7DAFF002040F2FF73DEA2B3
:1031500002210090FEF712FF002040F2FF73D8A278
:10316000022100900846FEF7C9FF002040F2FF73DD
:10317000D6A2022100900420FEF700FF002040F2BA
:10318000FF73CFA2022100900A20FEF7B7FF0020B4
:1031900040F2FF73CEA204210090FEF7EFFE002064
:1031A00040F2FF73C6A2042100900846FEF7A6FF76
:1031B00000204FF6FF73C8A2042100900320FEF701
:1031C000DDFE8BE36420FFF7BBFEC64890F900707C
:1031D000C54890F90060C54890F900B00821C4487E
:1031E000FEF746FE012813D10221C248FEF740FE39
:1031F00001280DD14021BE48FEF73AFE012807D133
:1032000006F1640006B207F1640007B2032450E03F
:103210000821B748FEF72CFE01280FD10221B5483E
:10322000FEF726FE50B94021B148FEF721FE0128E5
:1032300004D106F1640006B204243AE00821AC4847
:10324000FEF716FE012810D10221AA48FEF710FE53
:1032500001280AD14021A648FEF70AFE28B90BF141
:1032600064000FFA80FB052423E00121A148FEF74A
:10327000FFFD01280BD107F1640000EBD07149106C
:1032800032310FB206F1640006B2012411E00121CF
:103290009748FEF7EDFD012808D107F1640007B259
:1032A000642000EB460006B2022402E06427642694
:1032B00000241CB1012C01D0022C4BD1A7F16400D9
:1032C0000FFA80F8A6F164000FFA80F9B8F1000F48
:1032D0000ADD424688A101A8FDF708F8002286A170
:1032E00003A8FDF703F80AE0C8F1000282A103A8D1
:1032F000FCF7FCFF002280A101A8FCF7F7FFB9F161
:10330000000F0ADD4A467CA107A8FCF7EFFF002268
:1033100079A105A8FCF7EAFF0AE0C9F1000276A14D
:1033200005A8FCF7E3FF002273A107A8FCF7DEFF66
:10333000F8B28DF82B00F0B28DF82C00002506E0D5
:103340000AA9485D6D49FDF7D0F8681CC5B2082D83
:10335000F6DB96E0032C32D1A7F164000FFA80F877
:10336000A6F164000FFA80F9B8F1000F0ADD4246B9
:1033700061A101A8FCF7BAFF00225FA103A8FCF736
:10338000B5FF0AE0C8F100025BA103A8FCF7AEFF9D
:10339000002259A101A8FCF7A9FFF8B28DF843005B
:1033A00064208DF84400002506E010A9485D5349CB
:1033B000FDF79BF8681CC5B2082DF6DB61E0042C14
:1033C0002ED1A6F164000FFA80F9B9F1000F0ADDE1
:1033D0004A4649A107A8FCF789FF002246A105A893
:1033E000FCF784FF0AE0C9F1000243A105A8FCF73D
:1033F0007DFF002240A107A8FCF778FFF0B28DF80E
:103400003B0064208DF83C00002506E00EA9485DD5
:103410003A49FDF76AF8681CC5B2082DF6DB30E0C2
:10342000052C2ED1ABF164000FFA80FABAF1000F2F
:103430000ADD524630A107A8FCF758FF00222EA152
:1034400005A8FCF753FF0AE0CAF100022AA105A86B
:10345000FCF74CFF002228A107A8FCF747FF0BF060
:10346000FF008DF8330064208DF83400002506E05D
:103470000CA9485D2149FDF738F8681CC5B2082D34
:10348000F6DB0998844270D0FEF772FD032C6ED1F2
:10349000002040F2FF730CA2032131E0FFFA020A80
:1034A0000AFE0D0AFFFC020A0AFE0D0AFFF0020ADC
:1034B0000AFE0D0AFFFF020A0AFE0D0AC7B000004D
:1034C0003A000000BAF30000D7F30000D3D20000A6
:1034D000B5B5CEBB00000000CEDEA1A4A1A4A1A47E
:1034E000000000000D0000200E0000200F00002052
:1034F00000000240000802402533640068AE00204E
:103500000090FEF73BFD002040F2FF73AFF2500247
:10351000032100900220FEF7F1FD002040F2FF732E
:10352000AFF25802032100900420FEF727FD00208F
:1035300040F2FF73AFF27802032100900A20FEF7F9
:10354000DDFD002040F2FF73AFF27C020421009009
:10355000FEF714FD002040F2FF73AFF29C0204213D
:1035600000900846FEF7CAFDA6E004E1FFE7042C40
:1035700001D0052C3AD1002040F2FF73AFF2C40213
:1035800002210090FEF7FAFC002040F2FF73AFF238
:10359000D002022100900846FEF7B0FD002040F264
:1035A000FF73AFF2E002022100900420FEF7E6FC78
:1035B000002040F2FF73AFF2F802022100900A20CF
:1035C000FEF79CFD002040F2FF73AFF2FC020421E5
:1035D0000090FEF7D3FC002040F2FF73AFF2201200
:1035E000042100900846FEF789FD65E01CB1012C1E
:1035F00001D0022C60D1002040F2FF73AFF24412E0
:1036000001210090FEF7BAFC002040F2FF73AFF2F8
:103610005012012100900220FEF770FD002040F2C0
:10362000FF73AFF26012012100900420FEF7A6FCA8
:10363000002040F2FF73AFF27812012100900A20BF
:10364000FEF75CFD002040F2FF73AFF2841202210E
:103650000090FEF793FC002040F2FF73AFF2A0123F
:10366000022100900846FEF749FD002040F2FF735A
:10367000AFF2A812022100900420FEF77FFC002088
:1036800040F2FF73AFF2C812022100900A20FEF749
:1036900035FD002040F2FF73AFF2CC120421009000
:1036A000FEF76CFC002040F2FF73AFF2EC12042135
:1036B00000900846FEF722FD54B900204FF6FF7334
:1036C000AFF2EC12042100900320FEF757FC52E009
:1036D000012C09D100204FF6E07381A20421009053
:1036E0000320FEF74BFC46E0022C09D100204FF6E8
:1036F00008437EA2042100900320FEF73FFC3AE03D
:10370000032C11D100204FF478437BA204210090B8
:103710000320FEF733FC00204FF4784379A2012107
:103720000090FEF72BFC26E0042C11D100204FF472
:10373000784371A2042100900320FEF71FFC0020B3
:103740004FF4784374A201210090FEF717FC12E0B9
:10375000052C10D100204FF4784367A2042100907B
:103760000320FEF70BFC00204FF478436FA20121E9
:103770000090FEF703FC032C12D100204FF4784395
:1037800003AA032100900846FEF7B8FC00204FF47E
:10379000784301AA032100900B20FEF7AFFC9CE0C8
:1037A000042C12D100204FF4784307AA0221009084
:1037B0000320FEF7A3FC00204FF4784305AA022162
:1037C00000900B20FEF79AFC87E0052C12D1002018
:1037D0004FF4784307AA022100900320FEF78EFCE5
:1037E00000204FF4784305AA022100900B20FEF739
:1037F00085FC72E024BB00204FF6FF7307AA01216D
:1038000000900320FEF77AFC00204FF6FF7305AA14
:10381000012100900B20FEF771FC00204FF6FF7392
:1038200003AA022100900320FEF768FC00204FF657
:10383000FF7301AA022100900B20FEF75FFC4CE011
:10384000012C24D100204FF6E07307AA012100903B
:103850000320FEF753FC00204FF6E07305AA012178
:1038600000900B20FEF74AFC00204FF6E07303AAFD
:10387000022100900320FEF741FC00204FF6E07388
:1038800001AA022100900B20FEF738FC25E0022C53
:1038900023D100204FF6084307AA012100900320FE
:1038A000FEF72CFC00204FF6084305AA01210090EA
:1038B0000B20FEF723FC00204FF6084303AA022149
:1038C00000900320FEF71AFC00204FF6084301AADF
:1038D000022100900B20FEF711FC099472E4000015
:1038E000A1A4B5CDA1A4A1A400000000A1A4A1A4FD
:1038F000D6D0A1A400000000C2F3C2D6C4A3CABDA2
:1039000000000000A1A4A1A4A1A4C6BDD2C6A1A488
:10391000A1A4A1A400000000A1A4A1A4D7F3D0B148
:10392000B7BDA1A4A1A4A1A400000000A1A4A1A4CA
:10393000A1A4D3D2D0B1B7BDA1A4A1A4000000001E
:1039400008B500204FF478432DA2012100900220F9
:10395000FEF714FB002040F2FF732CA2022100901E
:10396000FEF70CFB00204FF6E0732DA2042100901F
:10397000FEF704FB4FF49670FFF7E2FA00204FF6D3
:10398000E07329A2042100900620FEF7B7FB4FF454
:103990009670FFF7D5FA00204FF6E07322A20421BB
:1039A00000900820FEF7AAFB4FF49670FFF7C8FAC4
:1039B00000204FF6E0731CA2042100900A20FEF7BD
:1039C0009DFBC820FFF7BCFA00204FF6E07316A25B
:1039D000042100900C20FEF791FBC820FFF7B0FAFD
:1039E00000204FF6E07310A2042100900E20FEF795
:1039F00085FBC820FFF7A4FAFEF7BAFA08BD00005D
:103A0000D0A1D4AED0A1D4AE00000000D2BBC2B7CA
:103A1000BBF0BBA8B4F8C9C1B5E7A3A10000000082
:103A2000BFAABBFAD6D000002E2E000010B588B079
:103A3000044601210846FEF7F5FD01211020FEF79E
:103A400011FE072209212248FEF7EFF907220A2179
:103A50001F48FEF7EAF94FF4C060069002208DF887
:103A60001C008DF81D0000208DF81E0001208DF82F
:103A70001F0006A91648FEF790F902940020ADF841
:103A80000C00ADF80E00ADF81000ADF814000C20DD
:103A9000ADF8120002A90F48FFF744F901210D48C3
:103AA000FFF7E4F8012240F225510A48FFF714F924
:103AB00025208DF8040003208DF805008DF8060000
:103AC00001208DF8070001A8FEF764FD08B010BDC5
:103AD000000002400010014010B500290AD008780B
:103AE000002807D005487844FDF7C8F8002801D021
:103AF000002010BD0248784410BD0000A60A000056
:103B00009E0A000021F00042A2F16052B2F5801F2F
:103B100001F0004328BFD2F17F6C0BD95FEA001C93
:103B200043EAC20242EB507018BF704728BF20F032
:103B300001007047B2F5801FBCBF184670474FEABE
:103B4000410C1CF5001F02D2084600F0BDBC70B548
:103B500000F0FAFA00000089FFF7F6BF4FF00040CE
:103B6000A0F580007047000010B591EA030F48BF30
:103B700083F0004300F15083841A71EB030C05D2EB
:103B8000121943EB0C03001B61EB0C01DFF824E17D
:103B90004FEA1154A4EB135C1EEA430F18BF9EEAD0
:103BA000445F73D023EA0E03DCF1200E21EA0451B6
:103BB00043F4801332D322FA0CFE10EB0E0023FAEA
:103BC0000CFE41EB0E01CCF1200E03FA0EFE10EBC1
:103BD0000E0051F10001B1F5801FCCF1200E32D260
:103BE00001EB045112FA0EF2BDE8104058BF7047C5
:103BF000401C38BF5FEA420218BF7047002814BF5C
:103C000020F0010041F100014FEA410313F5001FCC
:103C100038BF7047A1F1C04100F0E4BA012A43EB7C
:103C20000302ACF1200CDCF11F0E32BF4FF0000E8E
:103C300023FA0CF310EB030041EB0451B4EB115FDA
:103C4000D0D0A1EB045101F5801149085FEA3000A2
:103C500001EB04510ED350F1000038BF12FA0EFEF2
:103C600008D1BDE81040C9E7401C38BF5FEA4202F6
:103C7000CAD1C3E7BDE810404FEA410313F5001F66
:103C800038BF7047A1F1C04100F0ACBA9EEA445F72
:103C900008D011EA5E0FBDE8104004BF01F00041FA
:103CA00000207047BDE8104070B500F04DFA00BF2D
:103CB00064FBBE3E0000E0FF2DE9C04130B4DFF8F8
:103CC000A0C23CEA111418BF3CEA131400F0EC80C7
:103CD00081EA03051CEA111444EAD57418BF1CEAF2
:103CE000131500F0C780A4EB05044FF0004545EA2A
:103CF000C12145EAC32341EA505143EA525304F13A
:103D00007F74994204F500344FEAC0204FEAC22282
:103D100008BF904200F09C804FEA13650FF24016F6
:103D2000765D4FEA134506FB05F7C7F1807706FB82
:103D300007F74FEAD737A7FB03687642C8F5803804
:103D4000A7FB06CE38BFA8F1010807FB08E64FF035
:103D5000000EA6FB028CE6FB03CEDCF1000CCEF1DC
:103D6000004E38BFAEF1010EA6FB0C584FF0000715
:103D70004FF00005E6FB0E87A1FB08C6A0FB07CEAF
:103D800016EB0E0645F10005E1FB076515F1E04E67
:103D90007EBFA4F580345FEA46066D4116F18007C8
:103DA00045F100054FEA17274FEA066647EA05671F
:103DB000A6F1DE46B6F1805F4FEA15251FD93846D9
:103DC00024F0010C05EBC471BCF1FE6F01EB0C118A
:103DD00002D8F0BCBDE8008124425CBF01F5801E22
:103DE0009EEAC47F02D4F0BCBDE80081244238D4EE
:103DF000F0BCA1F1C041BDE8004100F0F3B94FEAC9
:103E0000D22242EA43524FEAD323A7FB02864FEA6B
:103E1000D02040EA415007FB03661EEA0E0F4FEA2E
:103E2000D12105FB026658BFA6EB0056B6EB005643
:103E30004FEA520E4EEAC37E18EB0E0E56EB530EAF
:103E4000BDD518EB02085E417F1C55F10005B6E7B1
:103E50004FF480154FF000074FF000064FF00008B8
:103E6000ADE7F0BC4FF0000001F1C04101F00041AE
:103E7000BDE8008111EA0C1F0CEA131500D00CE01C
:103E800013EA0C1F00F025804FF00000F0BC81EA1F
:103E9000030101F00041BDE80081F0BCBDE8004134
:103EA00081EA030100F09EB9F0BCBDE8004170B5A5
:103EB00000F04AF9097EFC3E00F007B881EA0301F0
:103EC0004FF0000001F00041704781EA030100F06B
:103ED00089B9F0BCBDE800414FF0000021497047AE
:103EE000FFFDFBF9F7F5F4F2F0EEEDEBE9E8E6E4BF
:103EF000E3E1E0DEDDDBDAD8D7D5D4D3D1D0CFCD46
:103F0000CCCBCAC8C7C6C5C4C2C1C0BFBEBDBCBB7E
:103F1000BAB9B8B7B6B5B4B3B2B1B0AFAEADACAB79
:103F2000AAA9A8A8A7A6A5A4A3A3A2A1A09F9F9E53
:103F30009D9C9C9B9A999998979796959594939305
:103F4000929191908F8F8E8E8D8C8C8B8B8A89899C
:103F5000888887878685858484838382828181801F
:103F60000000FF070000F87F4FEA41034FEA535378
:103F7000A3F58063D3F11E03C8BFD3F1210C0CDD80
:103F80004FF0004242EAC12242EA505232FA03FCA8
:103F90008CEAE17CACEBE1707047102BC4BF0020D1
:103FA000704703F5787CBCF1FF3F04D06FF000420E
:103FB00082EA2100704770B500F0C6F8499224806B
:103FC00000207047F2E710F0004248BF4042B0FACC
:103FD00080F310FA03F10AD0C3F11D0303F58063E7
:103FE0004FEA415002EB035202EBD12170474FF0F0
:103FF00000007047DFF848C170B51CEA111E1EBFF3
:104000001CEA13159EEA0C0F95EA0C0F00F06F8066
:1040100081EA030423EA4C134EEAD47E21EA4C11D0
:1040200041F4801143F48013AE44A1FB024CA0FB89
:104030000365AEF17F7E361955EB0C05A1FB034CF1
:104040004CF10003A0FB021C16EB0C06654153F17A
:104050000003094218BF46F0010613F4007F0BD19C
:104060004FEA03314FEA0530340341EA155140EA83
:1040700016506FF003020AE04FEAC3214FEAC52051
:10408000F40241EA555140EA56506FF0020202EB49
:104090002E4201EB025585EACE710AD05FEA440C4C
:1040A00018BF24F0004450F1000041F1000120EA63
:1040B000D47040F2FE7C624500D270BDA84214BFAD
:1040C0004FF080444FF04044002E08BF0024BEF162
:1040D000806FA8BFA1F1C041BDE8704080F282802E
:1040E0004FF0000001F1C04101F0004170479EEA2D
:1040F0000C0F0CEA131518BF95EA0C0F06D04FF001
:10410000000081EA030E0EF0004170BD00F01CF8C3
:104110008900013E00F007B800F009B84FEA430CEF
:104120005FEA5C5C08D081EA030100F05BB84FEA0B
:10413000410C5FEA5C5CF6D14FF00000014970472A
:104140000000FF070000F87F0EF1020E2EF0030EB4
:104150005EF8046B364205D4012A43EB030515F5DE
:10416000001F12D8012841EB010C1CF5001F0CD8D0
:104170000ED14FEAD17C15F5001F0CEB4C0C0CF165
:10418000020C08BF4CEBD37C04E04FF0080C01E0BC
:104190004FEAD37C0CEB4C0526FA05F606F0070631
:1041A000B6F1040C06D20EEB860CBDE870404CF064
:1041B000010C6047DFE80CF0090B02024FF00041F0
:1041C0004FF00000A1F5002170BD194610460128EE
:1041D00051EB010418BFD4F5001484BF002001F096
:1041E000004170BD0808A0F500114FEA3101704789
:1041F00091EA030F10B581F000413FF5BDAC83F0AB
:10420000004300F009B8000010B591EA030F48BF61
:1042100083F000433FF5B0AC841A71EB030C07D276
:1042200012198CF0004C43EB0C03001B61EB0C01EA
:10423000DFF8A4E14FEA1154A4EB135C1EEA430F2C
:1042400018BF9EEA445F00F0B08023EA6E0352423A
:1042500021EA0451C3EB6E0338BF5B1EDCF1200E74
:1042600025D322FA0CFE10EB0E0043FA0CFE41EBB4
:104270000E01CCF1200E03FA0EFE10EB0E0051F1F0
:104280000001CCF1200E29D412FA0EF201EB0451F8
:10429000BDE8104058BF7047401C1CBFB2F1004F32
:1042A000704700280CBF491C20F00100704712EB3A
:1042B000020E43EB030218BF4FF0010E4EEA42021A
:1042C000ACF1200CDCF11E0E54D943FA0CFE10EBBD
:1042D0000E0051F1FF31CCF11E0ED5D50EF1010EBD
:1042E00012FA0EFE404141EB010101EB445C5FEA32
:1042F0005C5C10D910EBDE7001EB045138BFBEF1ED
:10430000004FBDE8104018BF704700280CBF491C83
:1043100020F00100704730D24FEAD42C11F5001183
:1043200024F400641BD0B1FA81F20B3AA41AA41E43
:10433000D2F12003914030FA03F31943904001EB8E
:10434000CC71002C01EB0451BDE81040A8BF7047B0
:1043500001F1C0414FF0000001F000417047B0FA98
:1043600080F310FA03F100D110BDE41A173C4805A0
:10437000C90AE4E701EB045110BD491001EB0451F7
:10438000BDE810404FEA300002E04FF000017047F6
:104390004A0008BF0042F8D0B2F5001F28BF70479E
:1043A00001F000414FF0000070479EEA445F07D0E3
:1043B00011EA5E0FBDE8104004BF002100207047E5
:1043C000BDE8104070B5FFF7BFFE00BF40DFF63E0E
:1043D00083F00041104670470000E0FF43004FEAC1
:1043E000D30C4FEA3C0C43401FBF40070CF1605117
:1043F00013F0FE4F70471CF0006F03D100200CF04B
:10440000004170470CF0004343EA507010B540EA99
:10441000CC0000F00EF800BF000000924FEA00014F
:10442000FFF7E0BE4FF000414FF00000A1F5002182
:1044300070470EF1020E2EF0030E5EF8044B24427C
:1044400004D44FEA4102B2F17F4F11D84FEA400342
:10445000B3F17F4F0CD80ED14FEAD07CB2F17F4F31
:104460000CEB4C0C0CF1020C08BF4CEBD17C04E0C3
:104470004FF0080C01E04FEAD17C0CEB4C0324FA1E
:1044800003F404F00704B4F1040C06D20EEB840C20
:10449000BDE810404CF0010C6047DFE80CF0070865
:1044A00002024FF00040A0F5800010BD0846420017
:1044B00018BFD2F1807288BF00F0004010BD4FF0ED
:1044C0004070E1EE100A7047FF2141EAD050C0056C
:1044D0007047FCF740B9000002400000000000A057
:1044E0000000000005400000000000C800000000BF
:1044F0000C4000000000409C00000000194000003B
:104500000020BCBE0000000034400000BFC91B8E6C
:1045100000000004B5400000504BCFD06607E2CF4A
:10452000010000006C4100003E8251AADFEEA7347A
:1045300001000000D9420000DCB5A0E23A301F972C
:10454000FFFFFFFFB4450000FD25A0C8E9A3C14F50
:10455000FFFFFFFFFF3F00000000008000000000A1
:10456000FF3F00000000008000000000A845000898
:104570000000002080AE0000C401000838DE000802
:1045800080AE0020180A0000280200081C0000006D
:1045900043000000F8FFFFFF0C0000000E000000C9
:1045A0000F0000002E000000021000013017331829
:1045B00033383B593B793B7A3B9A43BA43DB43FB65
:1045C00043FB4C1B0210751A4BF943D943B8439770
:1045D0003B56331432D332B1326E324C2A0A29E9B7
:1045E00029C729A62985298531A531C529C531C500
:1045F00031A631A529C629E6320542475AE9524873
:104600005A497B6E734D62EB526A6B2D630D524AB1
:10461000526B4A0941E82925312520A329055A8BE7
:10462000630D6B8E73B0632D632D4A6A39E839C808
:10463000296639A84A2A4A2941E8310A102539A8A9
:10464000420941E941E9316718C420E5188320A4F3
:104650001883186220C428E42083188220C3290408
:1046600010411012C30C1006A2290420C30A1036F0
:104670006128C3312531453104310441862903299C
:10468000235AC87C4A85496D675D6654A54C24430E
:10469000423261196008E010C018C110A0108010EB
:1046A000A018E019000210062119413339FE437A9F
:1046B00043FC43DB4BFC10083B543C545C543B0232
:1046C00024051A4BFA4B0444117743563B143AB174
:1046D0003290326D322C320A310416C60016A5060D
:1046E0001508241B31E6322631E552A862EA5268E9
:1046F000730C7B4D7B8E5ACB62EC62EC5AAC02148D
:104700000541C8398700126608100EA762CC73AF46
:10471000528B4A8B634E5ACC0840066A420939C80C
:10472000F6400B4A4A39C8212531873167141405F0
:10473000294620E50210166320A320E418A320A335
:10474000312528E4104120C331451021F4510C15C6
:10475000021409A3184128E339652900141D39669C
:10476000418528E342066BCA854B7DCA656854A51E
:104770003BC32AC121E011601100001004A018A160
:10478000021406C118C010C0001404411941FA32C5
:1047900079FE36DAF830061C4C3C4C3CFE237C5C3F
:1047A0000224067B5C5B543B0414194BB94B7743E2
:1047B0003642F43AF23AB03A8E3A6D322B3209313F
:1047C000E731E7041420E639E63A063A263A26426B
:1047D000675AC94A276B2B7B6D7B6D62AA62EB5AC5
:1047E000CB526A62CCFC11F6180B314629053146D2
:1047F000630C841114100D2D7BF04A8B52CC52ACFB
:10480000422A4A01201539C831872966294641E8DC
:104810004A4A41E929463167294614191A1646F8C9
:104820001804E520C4062AC402180F3125290418EB
:104830008218823124102110410A18076118823928
:1048400066310619129425A23965314528E3418560
:104850003985294452C874AC85CD654954E63BE49A
:104860002B0122802A2029E0216018021904274107
:10487000210021FE650021FA11FC11FE140D9C5C43
:104880009D5C9C64BC64BC5C9C5404401C541B4BED
:10489000DA4BB84B9743554334431242F03ACE3A81
:1048A0008D3A6B3A493A2731FE1804463A46FC16CF
:1048B00088FE140C4C6AEB5A8A52695A8A5AAB0227
:1048C00018084A41E841E839A7DC18148720E43980
:1048D000C76B4E8C52738F52CC6B4E6B4E528B000B
:1048E00014064A4209422900140A46210518C43117
:1048F000A741E92C16672E164600128718100426C9
:1049000020C41A200683188328E404590419FA1CC9
:10491000050800186252034AC318111E1516142206
:104920004186310429034A0839A63A0763CB750C3E
:104930006D4A550644643BE33BA243813B01326030
:1049400021F6180710C010E01922FC1201025004D1
:10495000214399FE1BFA44F815FE21FE20049C5CBD
:10496000BD02200564BD64DD02165C04190C14262A
:104970005B543A54194BD84B974B754B7443524385
:1049800030430E42ED42AA3A68426842674287527B
:10499000E85B095288FE14068D6B2C62CBFE368ACA
:1049A00002180A8B62CC524941C73165FE1410E8E7
:1049B00042084A4A6B6E6B4D5ACB39C84A6AFC1E94
:1049C0006B1C04162A0224040939A8F6140518C41D
:1049D0002925F62C040531662E031D0A0312660AEA
:1049E000280426108308331862E41DE80319042EF6
:1049F00061F8032C07080010213124140415001855
:104A000008E3312420C23945FE1014C331444A085A
:104A1000420752E8644A752A5D0554A44C8302108B
:104A200018614C2043A13B212A601A0019E12A2376
:104A30002A0321C219611941FA11FC35FC30043BEB
:104A40004C5CFE427CFE525CFE3364FD021ADD0AC1
:104A5000102A9B5C7A5C5A5419541853F74BD54B67
:104A6000B34B924B71534F4B2D4B0B4AEA530A6B8E
:104A70006B528862C96AEA62CA5249FC2008696AB4
:104A8000EB62CB5A8B0215FE1C0AC741C73986421E
:104A90000883CF12041C08AB736E62EC4A29F6033C
:104AA0001AC80011FE19EA2AA8F0180531A7212515
:104AB00004180646316620E40225022246021C073D
:104AC0002104210520E40404240A8220C410412882
:104AD000E43986EE240728E320C31020121D1A04AF
:104AE0001E045A051DFE031F28C304031644086C48
:104AF0002C854A28422663A974C964E454A34CA2B5
:104B000044C14CC04CA04C6044203BC13B8133426B
:104B100033433B243B043284222243FAF40441FC15
:104B200055FE22DD023364DE022004FE6D1E0217F4
:104B30006CFE062428DC64DC5CBB5C9A5C7A54590D
:104B40005437541653F55BD25BD1538F5B6E636D54
:104B50005AEA41E65A895A48526862EBFE1F5229C6
:104B6000FA052C046A4A09B4032016398641A64185
:104B7000E74A07736D94317B8E6B0C83AE62EB4119
:104B8000F2240687422941E9FE250E1DF6032EA8D0
:104B9000E6033D2E04132529F43900150821FE1FD4
:104BA000290504051DEE051F1041E60316E4EE1D60
:104BB0000A062F18620C0335FE1245082AE3061F69
:104BC00049C600041D0403196C1410E86C2964A57F
:104BD000546344613C603C804480027012A04CA14C
:104BE0004C824C6344444424440543E53B85FE49E0
:104BF000FA19FC3354BCFC2004FD64FE0231FC12A3
:104C00003E02123F02161F0874041D64FC06181CA5
:104C10007864375C355C145BF26C1173F04A494A76
:104C2000075A6962685A695AAA41E7FE21FC1DF6D3
:104C3000041320E4FC1404C739A5941C12075AAAD3
:104C40008BEF9C7183AE732C734D6B2D4A29F60448
:104C50003E26FE051EE800031DFC062C0520E53956
:104C6000A7EC0525F825001D34061FA7210E031CFF
:104C7000052104292520041804A318C30819F81DC8
:104C8000EC062E240A051F28E406041DFE062D004E
:104C9000042D0C072D0407141341A6522731243983
:104CA000675A8C298463C96CC65C8400100A40343E
:104CB00020448054E15D4202580E225D245D25555A
:104CC0000554C654C754C8FA10045B4C5BFC380446
:104CD0007D549DFA49F611FE1005651E651FF611FB
:104CE000FC227502125F04125E02181A3D6D1C74DC
:104CF000FC6CDB64BA5CB964B96477641474346BBB
:104D00006E4A085A6A001032285208524852694ABC
:104D100028318629243145418652294A08312431D7
:104D20004441A562A9732B8C0FA4B19C508BCE83F8
:104D30008D732C6AEC5A8B3187E01DF2062DEA0345
:104D400045F61F3166EA0756C40212C4FC4A050242
:104D50002B2925061DF0071D08052DFA044DFC071B
:104D60001C052082080008081E241C061DFC051BCB
:104D700030E36E1C0A245AA952483966628C7203C9
:104D80002C222484CA6CE65D244CE355035D236D1C
:104D9000846DA575C675C66DC665A55D665D6765DE
:104DA000696569F00655FA129DFE5E9DF80342DEC4
:104DB000FE41FC15FC10043E753EFA10085F755F5D
:104DC0007D7F7D7E021C147D7D5D7D5C753B6D3B32
:104DD00064DA6CD874977C74632DF20511021B524F
:104DE00028001C068A39C72945A8041C07243986CF
:104DF000520841A0061C1D39445A2872EA8BCE9CE9
:104E00004FB513C5B5B5339C918BEE7B4D732C6BB1
:104E10000C526AEE031EE5F4032E6720072D2607C9
:104E20001729050019F04C073146396620C40C05D6
:104E30002102210C1D0C061A041E1E25000917A3B1
:104E400039281DF2072C042510200A0729121F39C2
:104E5000450809110A14234A285A8A49E85A6B4A14
:104E60002829617C6885A975E76DE66DE676067E82
:104E7000077E277E287E287607025C088665A76D58
:104E8000C96DCAF4041E9CF4057E9CF4041DF20452
:104E90004804651D65F8225E0235F621F810049E6F
:104EA00085BE0212DE061016BD859D7D7C757C7563
:104EB0003C74F97CD973D2528952685228FE10365C
:104EC0004862AA396520E3292518A2104141864984
:104ED0008638E33903624893ADA470BD54C5D6CE7D
:104EE00017D637CDF6CDB5ACD28BAD7B2C72EB732C
:104EF0000C5A6A3987E81E26F6061626BE190219CC
:104F0000EC11E62D040531EE20046629450C1D0246
:104F10000819181D0C09111A2DFC081DF8072E453B
:104F20000E061D10032F2020F804196C2F31441E8B
:104F300005102941E762EB4A0949E962CA31835BFE
:104F40002495CA86487E687E68866886698E8A86C9
:104F50006A86697E4976286DE76DE8021004C954B7
:104F60007B0221FE1C04BC5CBCDE043004FC6D1D15
:104F700002523D02325DFC565FFA439E7DFE1404F0
:104F8000DE85DD001006BD7D9D757C142C121B8412
:104F9000B95B0F4A484A26522849E75A8939869010
:104FA000061F1861A603142A04416530E349656AA7
:104FB000899BCEBCF2C574D637DE78DE99DE78D612
:104FC00037D616CDB5B4F293EE72A96269628A62E1
:104FD0008A021DEA0911E65625FE1DEE083004205E
:104FE000A328F611062E66380B2D3E0B5500111A1C
:104FF0001DF40928048241A7001C0739861861188E
:105000006164051E6568042286102F41C778061466
:105010000B41C862CA4A054242854900140C887E89
:105020008886A98EAA8EAB8E8B0414088A7E697E30
:105030004876270456C7FA1500600B64DC6CFC6DDB
:105040003C753C755D0251FE69F8229FFE10078D8C
:10505000BD8DDD8DFD04250216BE12150018097CDC
:1050600037528D524849E5002C040841A69A0B1F7F
:10507000080096032011824165498551A57AEAA46A
:105080000EC512D5D5DEFE33B9E6021C10DE57CDB3
:10509000D5C553B4D19C0E6A685A285A30072739AF
:1050A00087F22DE6052DD40B410C1DE20549F82DA4
:1050B000EC031EA3EA0A3DFE0335061DF40A2D0883
:1050C0000621023F3986120C2C0882314549E741FE
:1050D000A60803141349E849E8630D39864A074ACC
:1050E000064203744685E8FC10088986AA8EAA86C3
:1050F0008AFE1A890E3C0A67764676266E056DE5AD
:10510000E8093DEA08136D1DFC1A5CD23A7CD832DE
:105110007D0219F623757F0225FE19FA32DDFE1293
:10512000FC023EFD06031C13BF855D84FA6B7252C0
:105130004B49E649E65A49520828A0061F10209A12
:105140000810142030C351C651A6832AA44FBD12A3
:10515000D5B5E657E698FC1404DAF71A001C129845
:10516000E698DE37CD94C533BCF2A42F72A94985E9
:105170003A031E49EE0311DA240529042904DE65E9
:10518000EC2110471883FC4DEE0921FE1D0C0A1975
:10519000001D04043645F02EA7140B142128E44109
:1051A000C75208398639454A084A096B0D4A2839D9
:1051B000855A4841C4532385888E49866902210255
:1051C0003288FC3004467645022E25D2071007644B
:1051D000FD6CFD6D1CFC30067B7D9B7DBA02129B35
:1051E0000A1E9CE60434047D7D9DE4110215F01036
:1051F00006DD8DFC8E1C021C063C8E1C8DFC0403FF
:105200001C0EBE7D9F853C84B75ACE5A2949C5F8ED
:105210000D24066939651881001DA0091016813911
:10522000036A68830AA42EC511D594DE16E678EECB
:10523000B9EEDA0221062C1AFAE699DE37D5D5D571
:1052400074CD33BCB1AC70830B51A649A652283142
:1052500045E80A15F63E05F20B2DDE0525021DFE7A
:105260000A2D0C072DFC092DF8084D06085D080CC9
:105270001E04F40A16A6761C04E42082FC081C0610
:10528000665A4A49E708031C048649E95C0B18047E
:1052900089398590140AA54A638507964A968A0239
:1052A0001288FE15F8137625021004657E66021832
:1052B000066564FB6D1BF611FC13759AFC3004D96E
:1052C0007DD8023404B87D990616BB001C059D7D6F
:1052D000BD7DEE033385FDFE121B021C063B8E1BBB
:1052E00085FC020419FE1C0C7CFB7434524B5208E2
:1052F00049C55A00051C05104018619005100C00A6
:1053000010002881620782EAAC2FFE100E93DDF6B2
:10531000EE78EE79F6DAF71BEEFA021C1CDAEEBA3A
:10532000E699E657DE16DDB5D595C4F2C4F2AC5069
:1053300093AD5A07498649C7DA053DE20E41FA2581
:10534000E23DD8094225F0290E1D060A4F621802D7
:105350000412E3662EE4F60319F81C08861841309F
:10536000E43946F6051C044949C700031EE95E0BF3
:105370001E689008180E2951E842237466960A9612
:105380008B8E89F619F4140965C465A365C36E0490
:1053900004100A457E456D396D5A755AFC200DB9C9
:1053A0007DD885F77DF685D585D57D02140ED67D11
:1053B000D77DD985DB7DDB85DB85DCEC12DCF22C4F
:1053C0001CFB861B8DFB85FA85FA8DDA85DC759CC6
:1053D000757D7D1C74B9637152075205FE03280662
:1053E0002903106008FC201D00204041447ACA9B1C
:1053F000CDBCD1CD72DDF5E658E679EE9AEEBAF67F
:10540000D9F6D9EE021906280BE678DE17DDD6D5D7
:10541000B5CD53042C0DB470A40E6248392449C78D
:105420003966E80B35081DEE0929D82DE20D1D124D
:10543000082DE60E2662001DFA043E831C043D0A78
:105440000E1DF20B20068649A651E8161DFC0E1E05
:10545000C782071C060849A75209000C142AA95A3A
:105460006951C75A0941C45B8595C98E48864776FC
:10547000255DA2558055605D8065A165C26DE46EB5
:105480000575E575597579EC21FE1418F67DF57DE5
:10549000F47DF175D175B06DB075D27DD47DD685B2
:1054A000F885DA0016FC0216DC081C10DA85D98DA6
:1054B000F985F985D87D987D9A6D5BFC061006DB31
:1054C000641652CE801406E5520641A6FC4E60FCDE
:1054D00003180D28A259E7938DAC50CD33D5B4FCF9
:1054E00025001699003005B9F6B9EE021900240618
:1054F00078E637DDF6021C0ED574C512BCD1B4B106
:105500009C0F6A893932082D08042DD00D231042D2
:10551000F249082DF40C1DF80D2E2108062DEC0E75
:105520002D24044D04062DF40D1C054165626A040A
:10553000042E620C05190218282851E752094A283E
:1055400052895A69418651C8398352C37CE78E0912
:105550007E076DC4554144E04D005D41658365C3E0
:10556000081006C565C57558CC16B8EE1004F57D53
:10557000F3FC1014F06E0D6DEC65AC65AC6DAD75A3
:10558000D07DD285D485D8F412FAFC180ABA85B930
:1055900085B885B785B6181817B77D98757A6D3AAE
:1055A0006CFA645863924A4B418549C551E6309084
:1055B0002F1040FA051411184039246A89A42FBC11
:1055C000D1D574DDD5E637001E780004500499EE7D
:1055D00098023699005657023695021C05B1B490D0
:1055E0009B10072C0541854165281235021DE811E5
:1055F0001F1842F61139121E31EE0B11FA1D200749
:105600003F1062EE0A1D0C07211A2D02032D4005E2
:105610003D3A0C1DFC031D50061C042851E8860A67
:105620001D8A091F41668208101A8449E16BC585ED
:1056300068758665855D434CE24CC254E265436DF6
:105640008465A5101014647575759575B475D3755A
:10565000F175EF75EE6DED65EB02280ECA65AA6572
:10566000AB6DCD75CF75D17DD3081D10042C299855
:105670007D977D967D957DB57DB67D9775586D1925
:1056800064D96CD96C56634F41C8498549A5418599
:1056900020821041082000FA062E81F6061FAC4F2A
:1056A000F606140494DDF6001E57FE051E78040469
:1056B0007678022698001D12071C0416DDF60403F6
:1056C000140474CD5302180AB0AC4FA40E7AEA4900
:1056D00064062F4528FE051DD6102B1842044502EE
:1056E0003C0528C418411E052DEE102D220821204E
:1056F0001D18072D02042F526978081D0E07240774
:105700006551E76269590024370762AA51E83124DC
:1057100051C54981630374A76D4665655D445D4568
:105720005CE45CE465256D866DC765A65D666D719C
:105730006D916DB06DCF6E0E6E0D6E0C6E0B6D00BB
:105740001004EA65C9021012CA6DCC6DCD6DCF6D23
:10575000D06DB26DB3759475740223737D08140E09
:105760007675376CD85C976C766C135AAC641E6592
:1057700074111E4486082641FE1DFA06540CE3628D
:10578000278B6CB4B0CD53D5D5003277FC610411B2
:105790000A191435003502141495CD73D573C5124A
:1057A000B46FAC0E9BCD830A49854145021FE428A6
:1057B000DA131DEE04238220024C04833945FA13C8
:1057C0002DF4092D0A033D100A2004A31042F41FF2
:1057D0004A08720C2E293C071DFA0C140865624910
:1057E0005A295A08082C1289626A3144496451A323
:1057F0005A42742675476545FA0C11FE1014056D62
:105800006675A875E96DE96DC85D4E656E65AD6D2F
:10581000ECFC122B02100C2A6DEA6E0A6DE965E8A9
:1058200065E7041C06E9660A6DEB10031406CE65F5
:10583000AF6591281006716D71755202180C747560
:10584000366CD664746C536B8F642C0865412439B4
:10585000443123F8053B0821FE1C062372899BED89
:10586000F4081C04B4DDF5FE0311FE350091024975
:10587000FE35001A1702140AD5CD74C533CD32C4D3
:10588000F1021C0B0D936B82EA51A6390341CA0742
:1058900019542A21F63DEA031DE2091D100529F2DB
:1058A0004C0466104220071D02132C044220C45EE3
:1058B0000F2D74101F396506111C060431035A2779
:1058C000560A1C06285A066248180418146530C285
:1058D000620549E2638475075D045D44550454E341
:1058E000001006666DC8762A02200E0A552C5D4C03
:1058F00065AB65EB6E0A6E2A0224056DEA7609181F
:10590000100965C765C766086E091810100B65ECAD
:1059100065CD65AE6D8E6D8F6D8F7590021C1172A9
:105920006CF26CB36C9274516B6D5A47416539E0FF
:105930000C1328E2FE2E00FE051411206149848319
:105940000AAC2EC552D5D5D616DE3600400458E630
:1059500058F6750066580021FE11014D04031C1213
:1059600032BCD0B42EA3CD934B724849443903398D
:10597000450E0619561B20A2002EA2E40B2DF20F95
:105980001D0A0A1646F825141D10071A18021F3999
:1059900086F40C1C04085A69680E1E036C0D102A4C
:1059A0002449A662696A68626862286A8A51A730D7
:1059B0008259C5520352C26C655CC35D434D034CB2
:1059C000C24CA2550465866DE8EA1409C94CEB5532
:1059D0004B658B65F611EC110211FC1404EA75EAB3
:1059E0000011021D220C22E9121D10041EAB12052B
:1059F000140A8D6DAD6DAE758D758E021C0F107411
:105A0000D27CD27C506B0A49E5392339E80B1F2040
:105A1000A1880D2E40FE031DFC052806E6938CB4DC
:105A20008FFE15FE2636FC71FA46980425FE1500F9
:105A300026170045021405CDB4CD9300240DF1BC0A
:105A40008FABEDA38C8AEA59A538CC3C0465394567
:105A50004E092DEE112EA2DE112D10032D260C2D38
:105A600002033D260B1AC4021C04C341A702041DF5
:105A7000480B15881C26C3392431235A0762686AEB
:105A8000A8624872AB59E830A3410362654A41639A
:105A9000C35C824CA044C144814481100F300E4548
:105AA00065A665A765874CCA550A5D89EC41021257
:105AB000C8023004C76DA70252C710100CA96D8A26
:105AC000656B656B6D8B6DAB043C188B75AC6D4C69
:105AD0007D2D84EE8C6E5247518330C13943314362
