:020000040800F2
:10000000E007002029020008E9100008A1100008FC
:10001000E5100008990300087515000800000000AD
:10002000000000000000000000000000D1120008E5
:10003000C50F00080000000085110008E913000842
:10004000430200084302000843020008430200087C
:10005000430200084302000843020008430200086C
:10006000430200084302000843020008430200085C
:10007000430200084302000843020008430200084C
:10008000430200084302000843020008430200083C
:100090009D040008430200084302000843020008D0
:1000A000430200084302000843020008430200081C
:1000B000430200084302000843020008430200080C
:1000C00043020008430200084302000843020008FC
:1000D00043020008430200084302000843020008EC
:1000E00043020008430200084302000843020008DC
:1000F00043020008430200084302000843020008CC
:1001000043020008430200084302000843020008BB
:1001100043020008430200084302000843020008AB
:10012000430200084302000843020008430200089B
:10013000430200084302000843020008430200088B
:10014000430200084302000843020008430200087B
:10015000B90C0008430200084302000843020008EB
:10016000430200084302000843020008430200085B
:10017000430200084302000843020008430200084B
:10018000430200084302000800F002F800F03CF8C7
:100190000AA090E8000C82448344AAF10107DA45E2
:1001A00001D100F031F8AFF2090EBAE80F0013F0F8
:1001B000010F18BFFB1A43F0010318479C160000FB
:1001C000BC160000103A24BF78C878C1FAD852078C
:1001D00024BF30C830C144BF04680C6070470000C1
:1001E0000023002400250026103A28BF78C1FBD840
:1001F000520728BF30C148BF0B6070471FB501F0E0
:1002000025FB1FBD10B510BD00F06EF81146FFF7BD
:10021000F5FF01F0DFF900F0A0F803B4FFF7F2FFFB
:1002200003BC01F0A9F900000948804709480047CC
:10023000FEE7FEE7FEE7FEE7FEE7FEE7FEE7FEE796
:10024000FEE7FEE704480549054A064B70470000F3
:10025000ED13000889010008E0010020E0070020FC
:10026000E0030020E0030020704700000FB40449C1
:1002700010B503AA029800F009F810BC5DF814FB51
:10028000180000207047704770477047074B70B5E3
:100290000D467B4400F011F80446284600F020F893
:1002A00010B14FF0FF3070BD204670BD2313000029
:1002B00001694A1C02610878704700B58FB0CDE92A
:1002C00001310021059105497944CDE9031011461A
:1002D000684600F02EF80FB000BD0000E5FFFFFFFC
:1002E000007B00F080007047754600F03DF8AE4698
:1002F00005006946534620F00700854618B020B532
:10030000FFF7A0FFBDE820404FF000064FF00007C8
:100310004FF000084FF0000B21F00701AC46ACE8AD
:10032000C009ACE8C009ACE8C009ACE8C0098D461A
:1003300070472DE9F04106460024D6E90170F568C2
:100340008046304603E04146B847641C3046A84723
:100350000028F8D12046BDE8F0810446AFF30080C4
:100360002046FFF75AFF0000004870478001002038
:1003700008B5A82001F002F900F0B7FE4FF4613093
:1003800001F0CAF90020032306220521009000F0A5
:1003900005F800F087FE08BD00BFFEE72DE9F0413B
:1003A0008AB004460D4616461F46DDF840800121FE
:1003B000084600F0E9FE0121480600F0F5FE4FF482
:1003C000C050089002208DF8240000208DF82600EF
:1003D00003208DF8250001208DF8270008A92D485D
:1003E00000F0F1FD09220B212A4800F034FE092219
:1003F0000C21284800F02FFE00208DF81A008DF8FF
:100400001B008DF81C0001208DF81D0000208DF8C8
:100410001E008DF81F008DF816808DF817408DF89E
:1004200018608DF81950ADF8147005A91A4800F03D
:1004300068F900208DF80E008DF80F0001208DF86E
:1004400010004020ADF804000020ADF80600ADF823
:100450000800ADF80A00ADF80C0001208DF811007D
:1004600001A800F031F8012202210B4800F040F908
:1004700014208DF8000000208DF801008DF8020096
:1004800001208DF80300684600F036FE00200AB017
:10049000BDE8F081000002400064004010B5022178
:1004A000064800F095F838B1054A0021034800F0ED
:1004B000B2F901200349087010BD0000006400403B
:1004C000440000200000002010B50021837A0122A2
:1004D00002FA03F13D4A126842F001023B4B1A60F6
:1004E0003A4A1C3212688A43384B1C331A60027B2A
:1004F000CAB9364A0C3212688A43344B0C331A603C
:100500004288C38842EA0343304A4032847A42F840
:1005100034300288838842EA03432C4A4032847A8A
:1005200002EBC4025360027B012A19D1274A0C3224
:1005300012680A43254B0C331A604288038842EA4A
:100540000343224A4032847A42F83430C288838896
:1005500042EA03431D4A4032847A02EBC4025360EC
:10056000C27A3AB9194A121D12688A43174B1B1DE9
:100570001A6006E0154A121D12680A43134B1B1D30
:100580001A60028932B9114A143212688A430F4B39
:1005900014331A600289012A06D10C4A14321268F7
:1005A0000A430A4B14331A60427B012A06D1074AD8
:1005B0001C3212680A43054B1C331A60034A126846
:1005C00022F00102014B1A6010BD000000660040DD
:1005D00070B504460D46002660692840002871D099
:1005E000B5F5807F5CD010DC082D35D006DC012D00
:1005F00020D0022D24D0042D72D127E0102D31D02F
:10060000202D35D0402D6BD138E0B5F5004F60D0AE
:1006100009DCB5F5007F49D0B5F5806F4CD0B5F554
:10062000006F5DD14FE0B5F5803F2DD0B5F5003FAF
:1006300056D12FE0A0682D4900F034FB064651E06A
:10064000E068032100F02EFB06464BE0E06808213D
:1006500000F028FB064645E0E068102100F022FB90
:1006600006463FE02069032100F01CFB064639E006
:100670002069082100F016FB064633E020691021AE
:1006800000F010FB06462DE06068082100F00AFB30
:10069000064627E06068102100F004FB064621E0D2
:1006A000A069012100F0FEFA06461BE0A0690221C4
:1006B00000F0F8FA064615E0A069042100F0F2FA0D
:1006C00006460FE00FE0A069702100F0EBFA064645
:1006D00008E06068042100F0E5FA064602E0FFE762
:1006E000002600BF00E00026304670BD0101010079
:1006F0001AB143690B43436102E043698B43436191
:10070000704730B5024600200023146824F002042C
:100710001460146844F00104146000E05B1C546829
:1007200004F001041CB94FF6FF74A342F6D15468DB
:1007300004F001040CB900206CE08C79012C04D188
:10074000146844F08004146003E0146824F080040A
:100750001460CC79012C04D1146844F04004146076
:1007600003E0146824F0400414600C7A012C04D1D6
:10077000146844F02004146003E0146824F020049A
:1007800014604C7A012C04D1146844F010041460F5
:1007900003E0146824F0100414608C7A012C04D156
:1007A000146844F00804146003E0146824F008049A
:1007B0001460CC7A012C04D1146844F00404146051
:1007C00003E0146824F0040414608C78A407CD7846
:1007D00044EA05640D7944EA05444D7944EA055438
:1007E0000D886D1E2C43D461146824F0010414603C
:1007F000002300E05B1C546804F001041CB14FF6B8
:10080000FF74A342F6D1546804F001040CB1002037
:1008100000E0012030BD10B500F5D87303EB0113E3
:100820001B6803F004031372137A53B900F5D873ED
:1008300003EB01131B6840F2FF7404EA5353136087
:1008400009E000F5D87303EB01131B686FF06044F7
:1008500004EAD303536000F5D87303EB01131B685C
:1008600003F00203537200F5D87303EB01135B68C6
:1008700003F00F03937200F5D87303EB01135B6869
:100880001B0AD37400F5D87303EB01139B68D37272
:1008900000F5D87303EB01139B681C0A147300F571
:1008A000D87303EB01139B681C0C547300F5D873C9
:1008B00003EB01139B681B0E937300F5D87303EBD6
:1008C0000113DB68D37300F5D87303EB0113DB6806
:1008D0001C0A147400F5D87303EB0113DB681C0CBD
:1008E000547400F5D87303EB0113DB681B0E93748B
:1008F00021B9C36843F02003C36003E0036943F0F8
:100900002003036110BD000010B56A4800F0D3FA5F
:1009100069490978884207D0664800F0CCFA6649F0
:100920000870002065490870C2E0644800780C280F
:1009300005DB0020624908706049087010BD6148FD
:100940000078052847D2DFE800F0032B47689500C0
:100950005948007808B9012000E0002000EB400071
:10096000594901EB8002554801780078401C534BEF
:100970001870505C554908600846007854498872E0
:100980000846807A082803D000204E490870D5E731
:1009900000204F490872487201204A49087000BF80
:1009A0004548007808B9012000E0002000EB400035
:1009B000454901EB8002414801780078401C3F4BDB
:1009C0001870505C41490860084600784149087039
:1009D00002203C4908706AE03748007808B90120D5
:1009E00000E0002000EB4000374901EB8001334874
:1009F00002780078401C314B1870885C33490968D4
:100A000000EB012031490860084600684009304980
:100A1000086003202B49087049E02748007808B98E
:100A2000012000E0002000EB4000274901EB80019D
:100A3000224802780078401C204B18708A5C2648B7
:100A400001780078401C244B187021480B30425428
:100A50002048007810441F4908701D48807A1946C4
:100A60000978884205D100201946087004201549EC
:100A700008701CE00020134908700F48007808B97E
:100A8000012000E0002000EB40000F4901EB800155
:100A90000A4802780078401C084B1870885C0D49A1
:100AA0000978884201D1012048E7002046E700BFCD
:100AB0003BE700008864024015000020160000207B
:100AC0001400002004000020A000002008000020E6
:100AD000300000200D0000200C00002010B5024660
:100AE0000020936803F08063B3F1806F00D110E0C1
:100AF000936803F00063B3F1006F01D1012008E0B7
:100B0000936803F08053B3F1805F01D1022000E0CD
:100B10000420042874D002F5C07303EB00131B6893
:100B200003F0010402F5C07303EB00131C600B7AA1
:100B30007BB94B7A0C8843EA445302F5C07404EB4A
:100B400000142468234302F5C07404EB00142360EE
:100B500010E00B7A4C6843EAC4034C7A234302F555
:100B6000C07404EB00142468234302F5C07404EB42
:100B7000001423608B7A03F00F038B7202F5C073AD
:100B800003EB00135B6823F00F0402F5C07303EB63
:100B900000135C6002F5C07303EB00135B688C7A92
:100BA000234302F5C07404EB001463608B7B1C06C6
:100BB0004B7B44EA03440B7B44EA0323CC7A234374
:100BC00002F5C07404EB0014A3608B7C1C064B7C04
:100BD00044EA03440B7C44EA0323CC7B234302F521
:100BE000C07404EB0014E36002F5C07303EB001360
:100BF0001B6843F0010402F5C07303EB00131C6093
:100C000010BD000010B50246002321B1012907D014
:100C100002290FD109E090681D4C00EA04030BE0A3
:100C200090681C4C00EA040306E090681A4C00EA45
:100C3000040301E0002300BF00BF184C181BA342AF
:100C400016D007DC83B16FF08060184470B10228C1
:100C500018D111E0B0F5007F10D0114C204448B1FC
:100C6000B0F5003F0ED10BE002230DE000230BE0B6
:100C7000002309E0002307E0012305E0012303E04E
:100C8000012301E0002300BF00BFD8B210BD000067
:100C90000300000400030008000003100001000826
:100CA0000001FFF70246002002EA01030BB1012018
:100CB00000E000207047000010B50749074800F029
:100CC00005F9012806D10449044800F00BF8012079
:100CD0000349087010BD00000088002088640240AD
:100CE000140000200246094B9A4201D2084801E054
:100CF0000648103801F000531BB1064B0B40C3608F
:100D000002E0044B0B408360704700001064024017
:100D1000006002407D0F7D0F21B1026842F00102A8
:100D2000026003E0026822F00102026070470000E6
:100D3000016821F0010101600021016041608160D2
:100D4000C1600161212141614A49884204D13D21AC
:100D5000484A103A91608CE046491831884205D1E2
:100D60004FF47461434A103A916082E04149303156
:100D7000884205D14FF474113E4A103A916078E0F0
:100D80003C494831884205D14FF07461394A103AE4
:100D900091606EE037496031884204D13649354A66
:100DA000103AD16065E033497831884204D1334943
:100DB000304A103AD1605CE02E499031884204D12B
:100DC0002F492C4A103AD16053E02A49A831884271
:100DD00005D14FF03D51274A103AD16049E02949E9
:100DE000884204D13D21274A083A116041E0254953
:100DF0001831884205D14FF47461224A083A1160D3
:100E000037E020493031884205D14FF474111D4A32
:100E1000083A11602DE01B494831884205D14FF056
:100E20007461184A083A116023E01649603188421B
:100E300004D11149134A121F11601AE01149783187
:100E4000884204D10D490F4A121F116011E00D496B
:100E50009031884204D10A490A4A121F116008E001
:100E60000849A831884204D14FF03D51054A121F6C
:100E700011607047106002403D000020400F0020CC
:100E800000003D201064024021B1026842F480223B
:100E9000026003E0026822F480220260704722B1FF
:100EA000036843F40023036003E0036823F4002392
:100EB000036001617047014600200A6802F40022C5
:100EC0000AB1012000E000207047000070B5024622
:100ED000002000240025124EB24201D2114B01E045
:100EE0000F4B103B104E0E4036B11E2606EAD124A1
:100EF000166806EA040502E0566906F0800501F06E
:100F000000560EB15C6800E01C68084E344004EAEC
:100F1000010616B10DB1012000E0002070BD0000F7
:100F200010640240006002403C0F3C0F7D0F7D0FBB
:100F300010B501F080034BB122B1436943F0800347
:100F4000436103E0436923F08003436180290BD0B0
:100F50002AB1036801F01E042343036004E0036820
:100F600001F01E04A343036010BD000010B5002271
:100F70000268134B1A40CC680B6823434C69234327
:100F80008C692343CC6923430C6A23434C6A234373
:100F90008C6A23434C6B23438C6B23431A430260BC
:100FA000426922F00702D1E90B3423431A4342611C
:100FB0000B6943604B6883608B68C36010BD0000A1
:100FC0003F801CF07047F0B50A4600210023002442
:100FD00000BF3DE0012505FA01F3156805EA0304A9
:100FE0009C4234D105684F000326BE40B5430560DE
:100FF00015794E00B5400668354305601579012D19
:1010000002D01579022D16D185684F000326BE4007
:10101000B543856055794E00B54086683543856097
:10102000456801268E40B5434560456896798E40F7
:10103000B6B235434560C5684F000326BE40B54390
:10104000C560D5794E00B540C6683543C560491CBA
:101050001029BFD3F0BDF0B5002300244D07ED0EDD
:1010600002FA05F3CE1000F1200555F826504E0780
:10107000F70E0F26BE40B543CF1000F1200646F80C
:101080002750CE1000F1200555F8265045EA0304FC
:10109000CE1000F1200545F82640F0BD01837047D1
:1010A00000BFFEE71CB50121084600F06DF84FF4C3
:1010B0000040009001208DF8040000208DF806000B
:1010C00003208DF8050002208DF8070069460448CA
:1010D000FFF779FF4FF400410148FFF7DFFF1CBD28
:1010E0000000024000BFFEE7704710B54FF4A0605B
:1010F00000F03EF810BD000070B5002100230F2263
:10110000C4781CB3174C246804F4E064C4F5E064AC
:10111000C4F30721C1F10404E3B20A4144789C40BE
:10112000E1B28478144021430C07210E0E4C05785F
:101130006155047804F01F050124AC4005786D1159
:10114000AD0005F1E025C5F8004109E0047804F0A0
:101150001F050124AC40054D0678761145F8264060
:1011600070BD00000CED00E000E400E080E100E074
:1011700002490143024A1160704700000000FA056D
:101180000CED00E07047000029B1064A12680243E6
:10119000044B1A6004E0034A12688243014B1A6050
:1011A000704700003038024029B1064A12680243F5
:1011B000044B1A6004E0034A12688243014B1A6030
:1011C000704700004038024029B1064A12680243C5
:1011D000044B1A6004E0034A12688243014B1A6010
:1011E0007047000044380240F0B50021002200247E
:1011F000022500260223324F3F6807F00C0121B17F
:10120000042905D0082937D105E02E4F076036E0C4
:101210002D4F076033E02A4F3F1F3F68C7F38056CA
:10122000274F3F1F3F6807F03F036EB1264FB7FBC4
:10123000F3F7DFF88CC0ACF1040CDCF800C0CCF3A1
:10124000881C07FB0CF40CE01E4FB7FBF3F7DFF82C
:1012500070C0ACF1040CDCF800C0CCF3881C07FBB8
:101260000CF4174F3F1F3F68C7F301477F1C7D00F9
:10127000B4FBF5F7076002E0124F076000BF00BF44
:101280000F4F3F6807F0F0010909104F7A5C0768BB
:10129000D74047600A4F3F6807F4E051890A0B4F77
:1012A0007A5C4768D7408760054F3F6807F4604124
:1012B000490B064F7A5C4768D740C760F0BD000015
:1012C000083802400024F40000127A001E000020BA
:1012D000704700000CB50020019000903448006871
:1012E00040F480303249086000BF3148006800F4A3
:1012F000003000900198401C0190009818B90198A6
:10130000B0F5A04FF1D12A48006800F4003010B1C8
:101310000120009001E0002000900098012846D1B3
:1013200023484030006840F0805021494031086037
:101330002048006840F440401E4908601C480830BE
:1013400000681B49083108600846006840F4004006
:1013500008600846006840F4A05008601648091F5D
:101360000860081F006840F08070091F086000BF17
:101370000F48006800F000700028F9D040F20570B6
:101380000E4908600A480830006820F00300084948
:10139000083108600846006840F00200086000BF9D
:1013A00003480830006800F00C000828F8D10CBD94
:1013B000003802400070004008544007003C0240E2
:1013C000042808D14FF0E021096941F004014FF0F1
:1013D000E022116107E04FF0E021096921F00401EA
:1013E0004FF0E022116170477047000010B51548BA
:1013F000006840F47000134908601348006840F02A
:1014000001001149086000200F49083108600E48AA
:1014100000680E4908400C4908600D48091D086025
:10142000081F006820F48020091F0860002006497A
:101430000C310860FFF74EFF4FF000600149803922
:10144000086010BD88ED00E000380240FFFFF6FEA6
:101450001030002421B1828942F40052828104E0DC
:1014600082894DF6FF731A40828170471AB1838AD0
:101470000B43838202E0838A8B4383827047024658
:101480000020B1F5007F00D100BF13880B400BB1E5
:10149000012000E0002070472DE9FF4705460E4679
:1014A0000024A14600BFA046B08900B100BF2C8A2D
:1014B00024F44054F08804432C82AC8941F20C603F
:1014C0008443B08831890843718908430443AC815F
:1014D000AC8A24F44074B0890443AC826846FFF7B8
:1014E00083FE2048854202D01F48854202D1DDF8A4
:1014F0000C9001E0DDF80890A88900F4004040B1AC
:1015000009EBC90000EB091031684900B0FBF1F7A5
:1015100007E009EBC90000EB091031688900B0FB56
:10152000F1F76420B7FBF0F004012009642101FB0E
:101530001078A88900F4004040B1322000EBC800C8
:10154000B0FBF1F000F00700044308E0322000EBAC
:1015500008106421B0FBF1F000F00F0004432C816F
:10156000BDE8FF870010014000140140C1F30802EC
:101570008280704700BFFEE700BF704710B5044689
:101580006FF00400FFF71CFFE11704EB5171C1F38A
:10159000C701074A11701046007800EB4001C1EB0B
:1015A000C0104FF6FF7101EAC0000249088010BD6B
:1015B0000E0000201000002000BF054A128802F033
:1015C0004002002AF9D0C2B2014B9A807047000055
:1015D000001001404FF000080026FEF7C9FE3FA0B2
:1015E000FEF744FE79E03F480078012825D1FFF757
:1015F0008BF9012821D100263B493C48FFF76EFAC0
:1016000001E0701C86B241463848FFF7FBFA18B972
:1016100040F6FF708642F4DB40F6FF70864206DB40
:1016200033A0FEF723FE35A0FEF720FE05E034A030
:10163000FEF71CFE31A0FEF719FE344800780028A2
:101640004BDD33480068440108213248FFF78EFF24
:1016500000BF80212F48FFF712FF0028F9D0C4F304
:101660000727C4F30F212B48FFF780FF00BF80211D
:101670002848FFF704FF0028F9D0E1B22548FFF71A
:1016800075FF00BF80212348FFF7F9FE0028F9D03D
:10169000002512E01E480B30405D3844C7B21C489C
:1016A0000B30415D1B48FFF761FF00BF80211948E7
:1016B000FFF7E5FE0028F9D06D1C082DEAD3394666
:1016C0001448FFF753FF00BF80211248FFF7D7FEF1
:1016D0000028F9D000200D49087084E77374617206
:1016E000740A000014000020300000200064004054
:1016F000B7A2CBCDCAA7B0DC000000000D0A0000E5
:10170000B7A2CBCDB3C9B9A60000000000000020ED
:10171000440000200010014010B596B0044601219D
:101720000846FFF731FD01211020FFF74DFD012193
:101730008805FFF729FD44208DF83C0002208DF834
:101740003D0000208DF83E0001208DF83F000FA8DD
:10175000FFF7D2FC3948FFF7EBFA4FF0006000903A
:101760003748019037480290002003900C200490E5
:10177000002005904FF480600690002007900890AC
:101780004FF48070099040020A9000200B900120D5
:101790000C9000200D900E9069462848FFF7E6FB5C
:1017A000002228490C312548FFF779FB0121234805
:1017B000FFF76AFB012210212048FFF7B9FB012146
:1017C0001E48FFF7A9FA072209211F48FFF743FC2B
:1017D00007220A211C48FFF73EFC4FF4C06014901A
:1017E00002208DF854008DF8550000208DF8560029
:1017F00001208DF8570014A91348FFF7E4FB10945B
:101800000020ADF84400ADF84600ADF84800ADF852
:101810004C000C20ADF84A0010A90948001FFFF742
:101820003BFE01210648001FFFF714FE0122402164
:101830000348001FFFF71AFE16B010BD886402406F
:1018400004100140A0000020000002404FF0407052
:10185000E1EE100A70470000781800080000002030
:1018600030000000C4010008A81800083000002063
:10187000B0070000E00100080000000000000000C8
:101880000000000000000000000000000000000058
:10189000000000000000000000000102030401023B
:0818A00003040607080900001B
:040000050800018965
:00000001FF
