:020000040800F2
:10000000B807002029020008CD0C0008830C000866
:10001000C90C0008990300086F12000800000000D6
:10002000000000000000000000000000D90E0008E1
:10003000A70B000800000000690D0008F10F000880
:10004000430200084302000843020008430200087C
:10005000430200084302000843020008430200086C
:10006000430200084302000843020008430200085C
:10007000430200084302000843020008430200084C
:10008000430200084302000843020008430200083C
:10009000A1040008430200084302000843020008CC
:1000A000430200084302000843020008430200081C
:1000B000430200084302000843020008430200080C
:1000C00043020008430200084302000843020008FC
:1000D000430200088510000843020008430200089C
:1000E00043020008430200084302000843020008DC
:1000F00043020008430200084302000843020008CC
:1001000043020008430200084302000843020008BB
:1001100043020008430200084302000843020008AB
:10012000430200084302000843020008430200089B
:10013000430200084302000843020008430200088B
:10014000430200084302000843020008430200087B
:10015000430200084302000843020008430200086B
:10016000430200084302000843020008430200085B
:10017000430200084302000843020008430200084B
:10018000430200084302000800F002F800F03CF8C7
:100190000AA090E8000C82448344AAF10107DA45E2
:1001A00001D100F031F8AFF2090EBAE80F0013F0F8
:1001B000010F18BFFB1A43F001031847EC120000AF
:1001C0000C130000103A24BF78C878C1FAD852073F
:1001D00024BF30C830C144BF04680C6070470000C1
:1001E0000023002400250026103A28BF78C1FBD840
:1001F000520728BF30C148BF0B6070471FB501F0E0
:100200004DF91FBD10B510BD00F06EF81146FFF797
:10021000F5FF01F05DF800F0A0F803B4FFF7F2FF7E
:1002200003BC01F026F80000094880470948004750
:10023000FEE7FEE7FEE7FEE7FEE7FEE7FEE7FEE796
:10024000FEE7FEE704480549054A064B70470000F3
:10025000F50F000889010008B8010020B807002048
:10026000B8030020B8030020704700000FB4044911
:1002700010B503AA029800F009F810BC5DF814FB51
:10028000080000207047704770477047074B70B5F3
:100290000D467B4400F011F80446284600F020F893
:1002A00010B14FF0FF3070BD204670BD1F10000030
:1002B00001694A1C02610878704700B58FB0CDE92A
:1002C00001310021059105497944CDE9031011461A
:1002D000684600F02EF80FB000BD0000E5FFFFFFFC
:1002E000007B00F080007047754600F03DF8AE4698
:1002F00005006946534620F00700854618B020B532
:10030000FFF7A0FFBDE820404FF000064FF00007C8
:100310004FF000084FF0000B21F00701AC46ACE8AD
:10032000C009ACE8C009ACE8C009ACE8C0098D461A
:1003300070472DE9F04106460024D6E90170F568C2
:100340008046304603E04146B847641C3046A84723
:100350000028F8D12046BDE8F0810446AFF30080C4
:100360002046FFF75AFF0000004870475801002060
:1003700008B5A82000F080FF00F0A9FC4FF4613020
:1003800001F036F80020032306220521009000F03A
:1003900005F800F079FC08BD00BFFEE72DE9F0414B
:1003A0008AB004460D4616461F46DDF840800121FE
:1003B000084600F0EDFC0121480600F0F9FC4FF47E
:1003C000C050089002208DF8240000208DF82600EF
:1003D00003208DF8250001208DF8270008A92E485C
:1003E00000F0E2FB09220B212B4800F025FC09223A
:1003F0000C21294800F020FC00208DF81A008DF80F
:100400001B008DF81C0001208DF81D0000208DF8C8
:100410001E008DF81F008DF816808DF817408DF89E
:1004200018608DF81950ADF8147005A91B4800F03C
:100430006AF900208DF80E008DF80F0001208DF86C
:1004400010004020ADF804000020ADF80600ADF823
:100450000800ADF80A00ADF80C0001208DF811007D
:1004600001A800F033F8012202210C4800F042F903
:1004700014208DF8000001208DF8010000208DF877
:10048000020001208DF80300684600F027FC0020E0
:100490000AB0BDE8F08100000000024000640040A6
:1004A00010B50221064800F095F838B1054A002140
:1004B000034800F0B2F901200349087010BD0000A4
:1004C00000640040340000200000002010B500212E
:1004D000837A012202FA03F13D4A126842F00102D6
:1004E0003B4B1A603A4A1C3212688A43384B1C3321
:1004F0001A60027BCAB9364A0C3212688A43344BFE
:100500000C331A604288C38842EA0343304A4032BF
:10051000847A42F834300288838842EA03432C4AC2
:100520004032847A02EBC4025360027B012A19D163
:10053000274A0C3212680A43254B0C331A60428852
:10054000038842EA0343224A4032847A42F8343034
:10055000C288838842EA03431D4A4032847A02EB10
:10056000C4025360C27A3AB9194A121D12688A430A
:10057000174B1B1D1A6006E0154A121D12680A432C
:10058000134B1B1D1A60028932B9114A14321268CA
:100590008A430F4B14331A600289012A06D10C4A90
:1005A000143212680A430A4B14331A60427B012A40
:1005B00006D1074A1C3212680A43054B1C331A60E5
:1005C000034A126822F00102014B1A6010BD0000BC
:1005D0000066004070B504460D460026606928405C
:1005E000002871D0B5F5807F5CD010DC082D35D0A7
:1005F00006DC012D20D0022D24D0042D72D127E05D
:10060000102D31D0202D35D0402D6BD138E0B5F5EF
:10061000004F60D009DCB5F5007F49D0B5F5806F9B
:100620004CD0B5F5006F5DD14FE0B5F5803F2DD0D2
:10063000B5F5003F56D12FE0A0682D4900F0AAFA89
:10064000064651E0E068032100F0A4FA06464BE0BC
:10065000E068082100F09EFA064645E0E0681021B7
:1006600000F098FA06463FE02069032100F092FA74
:10067000064639E02069082100F08CFA064633E08E
:100680002069102100F086FA06462DE060680821F6
:1006900000F080FA064627E06068102100F07AFA40
:1006A000064621E0A069012100F074FA06461BE02D
:1006B000A069022100F06EFA064615E0A069042147
:1006C00000F068FA06460FE00FE0A069702100F024
:1006D00061FA064608E06068042100F05BFA06460D
:1006E00002E0FFE7002600BF00E00026304670BDB4
:1006F000010101001AB143690B43436102E0436900
:100700008B434361704730B50246002000231468D4
:1007100024F002041460146844F00104146000E042
:100720005B1C546804F001041CB94FF6FF74A3422B
:10073000F6D1546804F001040CB900206CE08C7907
:10074000012C04D1146844F08004146003E01468A0
:1007500024F080041460CC79012C04D1146844F096
:100760004004146003E0146824F0400414600C7A20
:10077000012C04D1146844F02004146003E01468D0
:1007800024F0200414604C7A012C04D1146844F045
:100790001004146003E0146824F0100414608C7AD0
:1007A000012C04D1146844F00804146003E01468B8
:1007B00024F008041460CC7A012C04D1146844F0AD
:1007C0000404146003E0146824F0040414608C78BA
:1007D000A407CD7844EA05640D7944EA05444D79CF
:1007E00044EA05540D886D1E2C43D461146824F02E
:1007F00001041460002300E05B1C546804F0010451
:100800001CB14FF6FF74A342F6D1546804F0010402
:100810000CB1002000E0012030BD10B500F5D87308
:1008200003EB01131B6803F004031372137A53B92B
:1008300000F5D87303EB01131B6840F2FF7404EA60
:100840005353136009E000F5D87303EB01131B68E1
:100850006FF0604404EAD303536000F5D87303EBF0
:1008600001131B6803F00203537200F5D87303EB06
:1008700001135B6803F00F03937200F5D87303EB69
:1008800001135B681B0AD37400F5D87303EB0113E3
:100890009B68D37200F5D87303EB01139B681C0AA5
:1008A000147300F5D87303EB01139B681C0C54738D
:1008B00000F5D87303EB01139B681B0E937300F5CF
:1008C000D87303EB0113DB68D37300F5D87303EB24
:1008D0000113DB681C0A147400F5D87303EB0113D1
:1008E000DB681C0C547400F5D87303EB0113DB6850
:1008F0001B0E937421B9C36843F02003C36003E067
:10090000036943F02003036110BD000070B556E099
:100910002B4890F8230008B9002070BD29480078C2
:1009200010B103284AD120E0254800F097FB044687
:1009300004F00F00244988720846807A082803DDF5
:10094000002020490870E8E704F0F00038B90020E2
:100950001D490872487203201A49087003E00020FC
:100960001849087000BF00BF28E0154800F076FB6A
:100970000446134800F072FB00EB0424600912499E
:1009800008600846807A0E4991F82310884203DDFA
:1009900000200C490870C0E7002506E0084800F078
:1009A0005DFB09490B3148556D1C0748807AA84208
:1009B000F4D80020034908700120AEE700BFA7E784
:1009C00048000020010000202000002010B5024651
:1009D0000020936803F08063B3F1806F00D110E0D2
:1009E000936803F00063B3F1006F01D1012008E0C8
:1009F000936803F08053B3F1805F01D1022000E0DF
:100A00000420042874D002F5C07303EB00131B68A4
:100A100003F0010402F5C07303EB00131C600B7AB2
:100A20007BB94B7A0C8843EA445302F5C07404EB5B
:100A300000142468234302F5C07404EB00142360FF
:100A400010E00B7A4C6843EAC4034C7A234302F566
:100A5000C07404EB00142468234302F5C07404EB53
:100A6000001423608B7A03F00F038B7202F5C073BE
:100A700003EB00135B6823F00F0402F5C07303EB74
:100A800000135C6002F5C07303EB00135B688C7AA3
:100A9000234302F5C07404EB001463608B7B1C06D7
:100AA0004B7B44EA03440B7B44EA0323CC7A234385
:100AB00002F5C07404EB0014A3608B7C1C064B7C15
:100AC00044EA03440B7C44EA0323CC7B234302F532
:100AD000C07404EB0014E36002F5C07303EB001371
:100AE0001B6843F0010402F5C07303EB00131C60A4
:100AF00010BD000010B50246002321B1012907D026
:100B000002290FD109E090681D4C00EA04030BE0B4
:100B100090681C4C00EA040306E090681A4C00EA56
:100B2000040301E0002300BF00BF184C181BA342C0
:100B300016D007DC83B16FF08060184470B10228D2
:100B400018D111E0B0F5007F10D0114C204448B10D
:100B5000B0F5003F0ED10BE002230DE000230BE0C7
:100B6000002309E0002307E0012305E0012303E05F
:100B7000012301E0002300BF00BFD8B210BD000078
:100B80000300000400030008000003100001000837
:100B90000001FFF70246002002EA01030BB1012029
:100BA00000E0002070477047F0B50A46002100239E
:100BB000002400BF3DE0012505FA01F3156805EAB0
:100BC00003049C4234D105684F000326BE40B54360
:100BD000056015794E00B540066835430560157906
:100BE000012D02D01579022D16D185684F000326FC
:100BF000BE40B543856055794E00B54086683543A3
:100C00008560456801268E40B54345604568967904
:100C10008E40B6B235434560C5684F000326BE40DE
:100C2000B543C560D5794E00B540C6683543C5604B
:100C3000491C1029BFD3F0BDF0B5002300244D0797
:100C4000ED0E02FA05F3CE1000F1200555F82650FE
:100C50004E07F70E0F26BE40B543CF1000F1200619
:100C600046F82750CE1000F1200555F8265045EAE9
:100C70000304CE1000F1200545F82640F0BD0183A5
:100C8000704700BFFEE700001CB50121084600F0D8
:100C90007FF84FF40040009001208DF80400002000
:100CA0008DF8060003208DF8050002208DF807005E
:100CB00069460448FFF778FF4FF400410148FFF709
:100CC000DEFF1CBD0000024000BFFEE7704710B50C
:100CD0004FF4A06000F03EF810BD000070B5002198
:100CE00000230F22C4781CB3174C246804F4E0647A
:100CF000C4F5E064C4F30721C1F10404E3B20A417E
:100D000044789C40E1B28478144021430C07210EC2
:100D10000E4C05786155047804F01F050124AC40A1
:100D200005786D11AD0005F1E025C5F8004109E039
:100D3000047804F01F050124AC40054D06787611B7
:100D400045F8264070BD00000CED00E000E400E036
:100D500080E100E002490143024A1160704700004F
:100D60000000FA050CED00E0704710B590F8222065
:100D7000815410F8222F521C212392FBF3F403FB21
:100D8000142202704278521C4270223810BD0000BA
:100D900029B1064A12680243044B1A6004E0034A70
:100DA00012688243014B1A607047000030380240DD
:100DB00029B1064A12680243044B1A6004E0034A50
:100DC00012688243014B1A607047000040380240AD
:100DD00029B1064A12680243044B1A6004E0034A30
:100DE00012688243014B1A60704700004438024089
:100DF000F0B5002100220024022500260223324FF4
:100E00003F6807F00C0121B1042905D0082937D12A
:100E100005E02E4F076036E02D4F076033E02A4F84
:100E20003F1F3F68C7F38056274F3F1F3F6807F0BB
:100E30003F036EB1264FB7FBF3F7DFF88CC0ACF180
:100E4000040CDCF800C0CCF3881C07FB0CF40CE0AD
:100E50001E4FB7FBF3F7DFF870C0ACF1040CDCF801
:100E600000C0CCF3881C07FB0CF4174F3F1F3F68F2
:100E7000C7F301477F1C7D00B4FBF5F7076002E074
:100E8000124F076000BF00BF0F4F3F6807F0F0012F
:100E90000909104F7A5C0768D74047600A4F3F68DE
:100EA00007F4E051890A0B4F7A5C4768D7408760A6
:100EB000054F3F6807F46041490B064F7A5C47686D
:100EC000D740C760F0BD0000083802400024F4009D
:100ED00000127A000E000020704700000CB50020C0
:100EE000019000903448006840F480303249086036
:100EF00000BF3148006800F4003000900198401CA9
:100F00000190009818B90198B0F5A04FF1D12A4886
:100F1000006800F4003010B10120009001E00020D2
:100F200000900098012846D123484030006840F0E6
:100F300080502149403108602048006840F440401A
:100F40001E4908601C48083000681B4908310860C9
:100F50000846006840F4004008600846006840F415
:100F6000A05008601648091F0860081F006840F07C
:100F70008070091F086000BF0F48006800F0007013
:100F80000028F9D040F205700E4908600A48083080
:100F9000006820F00300084908310860084600682E
:100FA00040F00200086000BF03480830006800F00D
:100FB0000C000828F8D10CBD003802400070004039
:100FC00008544007003C0240042808D14FF0E021BB
:100FD000096941F004014FF0E022116107E04FF090
:100FE000E021096921F004014FF0E022116170470E
:100FF0007047000010B51548006840F470001349B0
:1010000008601348006840F00100114908600020A2
:101010000F49083108600E4800680E4908400C4925
:1010200008600D48091D0860081F006820F4802032
:10103000091F0860002006490C310860FFF74EFFC9
:101040004FF0006001498039086010BD88ED00E074
:1010500000380240FFFFF6FE1030002410B50146B4
:1010600091F82120885C11F8212F521C212392FB3A
:10107000F3F403FB14220A708A78521E8A70213915
:1010800010BD000010B540F22551094800F02DF8C0
:1010900060B1074800F0E2F8C4B2064890F82300B7
:1010A000212803D021460348FFF75FFE10BD000052
:1010B000001001404800002021B1828942F4005212
:1010C000828104E082894DF6FF731A408281704765
:1010D00002460020B1F5007F00D100BF13880B400D
:1010E0000BB1012000E00020704770B502460024DB
:1010F00000230025002040F66A16B14200D100BF4F
:10110000C1F3421501F01F03012606FA03F3012D76
:1011100002D19689334006E0022D02D1168A33406F
:1011200001E0968A33400C12012606FA04F4168870
:10113000344013B10CB1012000E0002070BDF0B5C7
:101140000346002400260025002040F66A17B94215
:1011500000D100BF1846C1F3421401F01F06012759
:1011600007FA06F5012C01D10C3004E0022C01D164
:10117000103000E014301AB107682F43076002E016
:101180000768AF430760F0BD2DE9FF4705460E46EF
:101190000024A14600BFA046B08900B100BF2C8A40
:1011A00024F44054F08804432C82AC8941F20C6052
:1011B0008443B08831890843718908430443AC8172
:1011C000AC8A24F44074B0890443AC826846FFF7CB
:1011D0000FFE2048854202D01F48854202D1DDF82B
:1011E0000C9001E0DDF80890A88900F4004040B1BF
:1011F00009EBC90000EB091031684900B0FBF1F7B9
:1012000007E009EBC90000EB091031688900B0FB69
:10121000F1F76420B7FBF0F004012009642101FB21
:101220001078A88900F4004040B1322000EBC800DB
:10123000B0FBF1F000F00700044308E0322000EBBF
:1012400008106421B0FBF1F000F00F0004432C8182
:10125000BDE8FF8700100140001401400146888866
:10126000C0F308007047C1F308028280704700BFD6
:10127000FEE700BF7047000010B504466FF00400A1
:10128000FFF7A2FEE11704EB5171C1F3C701074A52
:1012900011701046007800EB4001C1EBC0104FF612
:1012A000FF7101EAC0000249088010BD0200002061
:1012B0000400002000BF054A128802F04002002A04
:1012C000F9D0C2B2014B9A80704700000010014073
:1012D00000270024FFF74CF836A0FEF7C7FF68E0B0
:1012E000364890F823000B2825DBFFF70FFB012879
:1012F00021D1002432493348FFF768FB01E0601C2C
:1013000084B239462F48FFF7F5FB18B940F6FF7055
:101310008442F4DB40F6FF70844206DB2AA0FEF72D
:10132000A5FF2CA0FEF7A2FF05E02BA0FEF79EFF75
:1013300028A0FEF79BFF2B480078002839DD2A48BB
:101340000068450108212948FFF78DFF00BF802173
:101350002648FFF7BDFE0028F9D0C5F30F2123482A
:10136000FFF781FF00BF80212048FFF7B1FE002872
:10137000F9D0E9B21D48FFF776FF00BF80211B4876
:10138000FFF7A6FE0028F9D000260DE016480B3026
:10139000815D1648FFF767FF00BF80211348FFF704
:1013A00097FE0028F9D0761C082EEFD300200D49B7
:1013B000087095E773746172740A00004800002099
:1013C0002000002000640040B7A2CBCDCAA7B0DC4B
:1013D000000000000D0A0000B7A2CBCDB3C9B9A62A
:1013E0000000000000000020340000200010014038
:1013F00010B588B0044601210846FFF7C9FC012159
:101400001020FFF7E5FC072209212248FFF714FC12
:1014100007220A211F48FFF70FFC4FF4C060069017
:1014200002208DF81C008DF81D0000208DF81E0094
:1014300001208DF81F0006A91648FFF7B5FB02949E
:101440000020ADF80C00ADF80E00ADF81000ADF8BE
:1014500014000C20ADF8120002A90F48FFF794FE0B
:1014600001210D48FFF728FE012240F225510A48CC
:10147000FFF765FE25208DF8040003208DF8050098
:101480008DF8060001208DF8070001A8FFF726FC63
:1014900008B010BD00000240001001404FF0407045
:1014A000E1EE100A70470000C81400080000002098
:1014B00020000000C4010008E814000820000020FB
:1014C00098070000E0010008000000000000000094
:1014D00000000000000000000000010203040102FF
:0814E0000304060708090000DF
:040000050800018965
:00000001FF
