:020000040800F2
:10000000D01F01206D020008611D00089113000837
:100010005D1D000853040008372D00080000000093
:100020000000000000000000000000004D24000857
:10003000910A000800000000B51E00087D25000898
:10004000870200088702000887020008870200086C
:100050008702000887020008AD0A0008870200082E
:10006000870200088702000887020008870200084C
:10007000870200088702000887020008870200083C
:10008000870200088702000887020008870200082C
:10009000870200088702000887020008870200081C
:1000A000870200088702000887020008870200080C
:1000B000312600081527000887020008870200087B
:1000C00087020008870200088702000887020008EC
:1000D00087020008D12A0008392B0008870200088F
:1000E00087020008870200088702000887020008CC
:1000F00087020008870200088702000887020008BC
:1001000087020008870200088702000887020008AB
:10011000870200088702000887020008870200089B
:10012000870200088702000887020008870200088B
:10013000870200088702000887020008870200087B
:10014000870200088702000887020008870200086B
:10015000870200088702000887020008870200085B
:10016000870200088702000887020008870200084B
:10017000870200088702000887020008870200083B
:10018000870200088702000800F002F800F05EF81D
:100190000AA090E8000C82448344AAF10107DA45E2
:1001A00001D100F053F8AFF2090EBAE80F0013F0D6
:1001B000010F18BFFB1A43F00103184730E100009C
:1001C00050E100000A444FF0000C10F8013B13F01E
:1001D000070408BF10F8014B1D1108BF10F8015BA0
:1001E000641E05D010F8016B641E01F8016BF9D193
:1001F00013F0080F1EBF10F8014BAD1C0C1B09D1EA
:100200006D1E58BF01F801CBFAD505E014F8016B5B
:1002100001F8016B6D1EF9D59142D6D370470000ED
:100220000023002400250026103A28BF78C1FBD8FF
:10023000520728BF30C148BF0B6070471FB50DF093
:1002400002FF00F069F81FBD10B510BD00F0B6F850
:100250001146FFF7F3FF0CF047FE00F0D4F803B4AB
:10026000FFF7F2FF03BC00F09FF800000948804749
:1002700009480047FEE7FEE7FEE7FEE7FEE7FEE788
:10028000FEE7FEE7FEE7FEE704480549054A064BA0
:10029000704700008125000889010008D00F002068
:1002A000D01F0120D01F0020D01F002010B5203A01
:1002B000C0F00B80B1E81850203AA0E81850B1E81F
:1002C0001850A0E81850BFF4F5AF5FEA027C24BFD5
:1002D000B1E81850A0E8185044BF18C918C0BDE8CC
:1002E00010405FEA827C24BF51F8043B40F8043B95
:1002F00008BF7047D20728BF31F8023B48BF11F84A
:10030000012B28BF20F8023B48BF00F8012B7047A3
:10031000704770477047000070B5064C7C44064D2E
:100320007D4403E0206820448047241DAC42F9D17D
:1003300070BD0000ECDF0000F4DF000010B500F03D
:1003400011F8006810BD10B5044600F00BF8046009
:1003500010BD10B500F010F8BDE8104000F006B870
:100360007047000000487047700F0020002801D03F
:1003700000F01AB87047000010B5002102A000F08C
:1003800048F8012010BD00005349475056464E3AE8
:100390002050757265207669727475616C20666E86
:1003A0002063616C6C65640001491820ABBEFEE7F8
:1003B0002600020000487047700F00207546FFF7C6
:1003C000F9FFAE4605006946534620F00700854612
:1003D00018B020B5FFF758FFBDE820404FF00006E9
:1003E0004FF000074FF000084FF0000B21F007011D
:1003F000AC46ACE8C009ACE8C009ACE8C009ACE860
:10040000C0098D4670470446AFF300802046FFF7D1
:1004100026FF70B505460C460A2000E06D1C00F072
:1004200011F835B128780028F8D102E0641C00F0FA
:1004300009F814B120780028F8D1BDE870400A20EE
:10044000AFF3008008B569468DF800000320ABBE0D
:1004500008BD00BFFEE721B1026842F00102026060
:1004600003E0026822F0010202607047016821F097
:10047000010101600021016041608160C160016192
:10048000212141614A49884204D13D21484A103A1C
:1004900091608CE046491831884205D14FF474616F
:1004A000434A103A916082E041493031884205D197
:1004B0004FF474113E4A103A916078E03C4948315B
:1004C000884205D14FF07461394A103A91606EE06C
:1004D00037496031884204D13649354A103AD160F3
:1004E00065E033497831884204D13349304A103AC3
:1004F000D1605CE02E499031884204D12F492C4ACA
:10050000103AD16053E02A49A831884205D14FF012
:100510003D51274A103AD16049E02949884204D127
:100520003D21274A083A116041E0254918318842A7
:1005300005D14FF47461224A083A116037E020492E
:100540003031884205D14FF474111D4A083A1160C8
:100550002DE01B494831884205D14FF07461184A9B
:10056000083A116023E016496031884204D11149EC
:10057000134A121F11601AE011497831884204D1E0
:100580000D490F4A121F116011E00D499031884248
:1005900004D10A490A4A121F116008E00849A8312B
:1005A000884204D14FF03D51054A121F1160704737
:1005B000106002403D000020400F002000003D2060
:1005C0001064024010B500220268134B1A40CC6838
:1005D0000B6823434C6923438C692343CC69234331
:1005E0000C6A23434C6A23438C6A23434C6B23439A
:1005F0008C6B23431A430260426922F00702D1E95F
:100600000B3423431A4342610B6943604B68836098
:100610008B68C36010BD00003F801CF010B52DED4D
:10062000088BFE4800680DF0AFF841EC1B0B9FED06
:10063000FC0B53EC102B0CF09FFE41EC1A0B0CF052
:10064000B5FDF9494860F94890ED081BB0EE410A44
:10065000F0EE610A51EC100B0CF0A8FDF249886035
:10066000F24890ED0A1BB0EE410AF0EE610A51EC3F
:10067000100B0CF09BFDEC49C860EC4890ED0C1B96
:10068000B0EE410AF0EE610A51EC100B0CF08EFD59
:10069000E5490861E54890ED001BB0EE410AF0EE37
:1006A000610A9FEDE31B53EC112B51EC100B0DF085
:1006B000BBF841EC1A0B0CF079FDDB494861DB48D3
:1006C00090ED021BB0EE410AF0EE610A9FEDD81BDF
:1006D00053EC112B51EC100B0DF0A6F841EC1A0B5A
:1006E0000CF064FDD0498861D04890ED041BB0EE59
:1006F000410AF0EE610A9FEDCE1B53EC112B51EC39
:10070000100B0DF091F841EC1A0B0CF04FFDC6499F
:10071000C861C64890ED0E1BB0EE410AF0EE610ACA
:1007200051EC100B0CF042FDBF490862BF4890ED40
:10073000101BB0EE410AF0EE610A51EC100B0CF008
:1007400035FDB9494862B94890ED121BB0EE410A37
:10075000F0EE610A51EC100B0CF028FDB2498862F2
:10076000B24890ED141BB0EE410AF0EE610A51EC74
:10077000100B0CF01BFDAC49C862AF4890ED021B9A
:10078000B0EE410AF0EE610A51EC100B0CF00EFDD8
:10079000A549C865A84890ED041BB0EE410AF0EEEB
:1007A000610A51EC100B0CF001FD9F490866A2484C
:1007B00090ED061BB0EE410AF0EE610A51EC100B11
:1007C0000CF0F4FC984948669B4890ED0A1BB0EE8B
:1007D000410AF0EE610A9FED991B53EC112B51EC8D
:1007E000100B0CF0C9FD41EC180B51EC180B0CF080
:1007F00087FF044620460CF0C7FF41EC1B0B53EC6F
:10080000182B0DF0EDF941EC1A0B0CF0CFFC09EEB2
:10081000100A00EE104AB8EE400A834880ED1A0A2A
:1008200080ED1B9A844890ED081BB0EE410AF0EE73
:10083000610A9FED821B53EC112B51EC100B0CF055
:100840009BFD41EC180B51EC180B0CF059FF0446C2
:1008500020460CF099FF41EC1B0B53EC182B0DF0CC
:10086000BFF941EC1A0B0CF0A1FC09EE100A00EEE6
:10087000104AB8EE400A6C4880ED1C0A80ED1D9AC3
:100880006D4890ED0C1BB0EE410AF0EE610A51ECA0
:10089000100B0CF08BFC64498867674890ED110AD7
:1008A000DFED680AB4EEE00AF1EE10FA03DD9FED29
:1008B000650A80ED110A604890ED110A90F8420037
:1008C00000EE900AF8EE600A9FED5F1A00EE810AD2
:1008D000554880ED1F0A5D4890ED000AB8EE400AC9
:1008E000DFED590A80EE201A4F4880ED201A4F485C
:1008F00090ED061BB0EE410AF0EE610A51EC100BD0
:100900000CF054FC4849C1F884004FF0FF305049C6
:100910000860454890ED0C0A084680ED010A4248FF
:1009200090ED0D0A084680ED020A3F4890ED0E0A50
:10093000084680ED030A3C4890ED020A084680ED27
:10094000040A394890ED030A084680ED050A364846
:1009500090ED040A084680ED060A334890ED050A3A
:10096000084680ED070A304890ED060A084680EDFB
:10097000080A2D4890ED070A084680ED090A354817
:100980000078002879D1284890ED120A084680EDB9
:10099000120A254890ED130A084680ED130A2248F2
:1009A00090ED140A084680ED140A1F4890ED150AD0
:1009B000084680ED150A1C4890ED160A084680EDA1
:1009C000160A194890ED170A084680ED170A1648CE
:1009D00090ED180A084680ED180A134890ED190AA0
:1009E000084680ED190A104890ED1A0A084680ED75
:1009F0001A0A0D4890ED1B0A084680ED1B0A0A48AA
:100A000090ED1C0A084680ED1C0A074890ED1D0A6F
:100A1000084680ED1D0A04481EE02EE05800002024
:100A20000000000000408F40D0040020B8030020E8
:100A30009A9999999999234018040020399D52A2B6
:100A400046DF913F0000C64200007A445C0000206F
:100A5000E80100204D00002090ED1E0A084680EDC0
:100A60001E0A094890ED1F0A084680ED1F0A064835
:100A700090ED200A084680ED200A102003490870F6
:100A8000BDEC088B10BD0000D00400204C000020FD
:100A9000704701B581B00198009002E00098401EB7
:100AA000009000980028F9D10CBD000010B5142466
:100AB000012000F031F898B1012000F015F8094844
:100AC0000078022804DA07480078401C05490870BD
:100AD00004480078022803D12146400701F054FF62
:100AE00010BD00005200002001490860704700005E
:100AF000143C0140002006490860091D0860091DDA
:100B00000860091D086003480149143108607047F6
:100B1000003C0140FFFF7F00014600200022074B00
:100B20001B6803EA0102054B14331B680B4013B129
:100B30000AB1012000E0002070470000003C0140A5
:100B4000002123498279002A3AD00A4612680368B4
:100B50009A430B461A600A1D126803689A430B1DDC
:100B60001A60027911440A6803681A430A60184A35
:100B70000832126803689A43154B08331A601A1D2D
:100B8000126803689A43124B0C331A604279102A98
:100B90000ED11A1F126803681A430D4B08331A60EE
:100BA0001A1D126803681A43094B0C331A600DE0D2
:100BB0000749427911440A6803681A430A6005E04C
:100BC000027911440A6803689A430A60704700007A
:100BD000003C01401CB5072209218B4800F060F958
:100BE00002208DF8040003208DF8050000208DF808
:100BF000060001208DF807004002009069468248F7
:100C000000F006F907220A217F4800F049F94FF465
:100C10008060009069467C4800F0FAF807220221C3
:100C2000794800F03DF902208DF8040003208DF88A
:100C3000050000208DF8060001208DF80700042033
:100C400000906946704800F0E3F8072203216E48DF
:100C500000F026F90820009069466B4800F0D8F8AB
:100C60001020009001208DF8040000208DF806006F
:100C700001208DF8070003208DF8050069466348C0
:100C800000F0C6F81021614800F038F9052211463D
:100C90005D4800F005F9052207215B4800F000F9E6
:100CA00005220621584800F0FBF8A0200090032000
:100CB0008DF8050000208DF8060002208DF8070051
:100CC0008DF804006946504800F0A2F840200090DA
:100CD00003208DF8050001208DF806008DF807002F
:100CE00002208DF804006946474800F091F8012081
:100CF000009003208DF8050001208DF806000220E9
:100D00008DF8070000208DF8040069463E4800F089
:100D10007FF81020009001208DF8040000208DF84D
:100D2000060001208DF8070003208DF805006946B4
:100D3000354800F06DF81021334800F0DFF84FF42B
:100D40008070009001208DF8040000208DF80600CE
:100D500001208DF8070003208DF8050069462A4818
:100D600000F056F84FF48071274800F0C7F84FF4B0
:100D70000070009001208DF8040000208DF806001E
:100D800001208DF8070003208DF8050069461F48F3
:100D900000F03EF84FF400711C4800F0AFF802205C
:100DA000009001208DF8040000208DF8060001203D
:100DB0008DF8070003208DF805006946124800F001
:100DC00027F80221104800F099F802210E4800F09F
:100DD00093F80820009001208DF8040000208DF881
:100DE000060001208DF8070003208DF805006946F4
:100DF000064800F00DF80821044800F07FF80821AB
:100E0000024800F079F81CBD0000024000080240D2
:100E1000F0B50A4600210023002400BF3DE0012573
:100E200005FA01F3156805EA03049C4234D105680C
:100E30004F000326BE40B543056015794E00B5400E
:100E40000668354305601579012D02D01579022D0C
:100E500016D185684F000326BE40B543856055799D
:100E60004E00B540866835438560456801268E4052
:100E7000B5434560456896798E40B6B235434560C6
:100E8000C5684F000326BE40B543C560D5794E0006
:100E9000B540C6683543C560491C1029BFD3F0BDB5
:100EA000F0B5002300244D07ED0E02FA05F3CE1035
:100EB00000F1200555F826504E07F70E0F26BE40CC
:100EC000B543CF1000F1200646F82750CE1000F1B0
:100ED000200555F8265045EA0304CE1000F1200500
:100EE00045F82640F0BD0246002013690B400BB1C7
:100EF000012000E000207047418370470183704764
:100F000010B52DED068BFE48407A0006FC49097AA3
:100F100000EB0140FA49C97900EB0120F8498979D1
:100F20000844F8490860F64890F83D000006F44986
:100F300091F83C1000EB0140F14991F83B1000EBB7
:100F40000120EF4991F83A10441820460CF005FCB6
:100F500041EC190B9FEDEC0B53EC102B0CF00CFA41
:100F6000E84AC2E90201E64890F839000006E4497F
:100F700091F8381000EB0140E14991F8371000EB8F
:100F80000120DF4991F83610441820460CF0E5FBAB
:100F900041EC190B9FEDDC0B53EC102B0CF0ECF932
:100FA000D84AC2E90401D64890F841000006D44965
:100FB00091F8401000EB0140D14991F83F1000EB4F
:100FC0000120CF4991F83E10441820460CF0C5FB93
:100FD00041EC190B9FEDCE0B53EC102B0CF0CCF920
:100FE000C84AC2E90601C64890F821000006C44973
:100FF00091F8201000EB0140C149C97F00EB0120AE
:10100000BF49897F441820460CF0A7FB41EC1A0B1E
:101010009FEDC10B53EC102B0CF006FC41EC190BAF
:101020009FEDBF0B53EC102B0CF0A6F9B54AC2E9AB
:101030000A01B34890F825000006B14991F8241040
:1010400000EB0140AE4991F8231000EB0120AC49C0
:1010500091F82210441820460CF07FFB41EC1A0B4B
:101060009FEDAD0B53EC102B0CF0DEFB41EC190B9C
:101070009FEDAB0B53EC102B0CF07EF9A14AC2E9AB
:1010800008019F4890F82D0000069D4991F82C100A
:1010900000EB01409A4991F82B1000EB0120984990
:1010A00091F82A10441820460CF057FB41EC190B1C
:1010B0009FED950B53EC102B0CF05EF9914AC2E9B1
:1010C0000C018F4890F8490000068D4991F84810AE
:1010D00000EB01408A4991F8471000EB0120884954
:1010E00091F84610441820460CF037FB41EC190BE0
:1010F0009FED8D0B53EC102B0CF03EF941EC180BCF
:101100009FED8B0B53EC102B51EC180B0CF032FDB8
:1011100009D29FED890B53EC102B51EC180B0CF0FE
:1011200037FE41EC180B9FED7C0B53EC102B51EC70
:10113000180B0CF079FB734AC2E90E017048807EEF
:1011400000F00700114681F840006D48C07E00F0B5
:10115000010081F841006A49487F0CF015FB41EC21
:10116000180B9FED770B53EC102B51EC180B0CF078
:1011700001FD05D29FED720BB0EE408AF0EE608A61
:1011800051EC180B0CF0BCFA5E4981F842005C4847
:1011900090F8530000065A4991F8521000EB0140B4
:1011A000041420460CF0D9FA41EC1A0B9FED660BA3
:1011B00053EC102B0CF0E0F841EC190B0BF0F6FFA0
:1011C000504948644E4890F8310000064C4991F867
:1011D000301000EB01404A4991F82F1000EB01203C
:1011E000474991F82E10441820460CF0B6FA41EC0D
:1011F000190B9FED450B53EC102B0CF0BDF8414A39
:10120000C2E912013E4890F8350000063C4991F8C9
:10121000341000EB01403A4991F8331000EB012003
:10122000374991F83210441820460CF096FA41ECF8
:10123000190B9FED350B53EC102B0CF09DF8314A38
:10124000C2E914012E4890F8510000062C4991F88B
:10125000501000EB01402A4991F84F1000EB01209B
:10126000274991F84E10441820460CF076FA41ECCC
:10127000190B9FED2D0B53EC102B0CF07DF8214A30
:10128000C2E916011E4890F84D0000061C4991F86D
:101290004C1000EB01401A4991F84B1000EB012073
:1012A000174991F84A10441820460CF056FA41ECC0
:1012B000190B9FED150B53EC102B0CF05DF8114A38
:1012C000C2E918010E4890F8450000060C4991F853
:1012D000441000EB01400A4991F8431000EB012053
:1012E000074991F84210441820460CF036FA41ECB8
:1012F000190B9FED050B53EC102B0CF03DF827E07C
:10130000B0020020180400200000000000408F40C0
:101310000000000000408FC0399D52A246DF913F7F
:1013200000000000D012634100000000006AF84095
:101330000000000000806640000000000080764051
:101340000000000000002E40000000000000594096
:10135000024AC2E91A01BDEC068B10BD1804002038
:1013600009480078022804D1084800880A30074953
:10137000088006480088B0F57A7F04D10020034930
:101380000880014908707047520000205400002076
:1013900000BFFEE710B54FF400710848FFF7ACFD41
:1013A0004FF480710648FFF7A9FD052000F00AF808
:1013B0004FF480710248FFF79FFD10BD0008024006
:1013C0000000024008B50021009102E00099491C8C
:1013D000009100998142F9D308BD000010B54FF487
:1013E00000710848FFF78AFD4FF480710648FFF747
:1013F00085FD0520FFF7E6FF4FF480710248FFF7F7
:101400007BFD10BD000802400000024038B50020FE
:10141000009000F04DF8002426E04FF4807116484B
:10142000FFF76CFD0520FFF7CDFF9DF8000040069B
:10143000000E00901148006800F4007028B19DF87B
:10144000000040F00100009004E09DF8000000F072
:10145000FE0000904FF480710748FFF74DFD052016
:10146000FFF7B0FF601CC4B2082CD6DB00F008F810
:101470009DF8000038BD0000000002401008024046
:101480001CB54FF40070009001208DF8040000207E
:101490008DF8060001208DF8070002208DF8050068
:1014A00069460248FFF7B4FC1CBD0000000802407A
:1014B0001CB54FF40070009000208DF807008DF8E7
:1014C000040069460148FFF7A3FC1CBD0008024068
:1014D00070B504464FF480711448FFF70DFD0025E8
:1014E00021E004F08000802804D181001048FFF73B
:1014F00005FD04E04FF400710D48FFF7FDFC0520E9
:10150000FFF760FF4FF480710848FFF7F7FC6006B3
:10151000040E0520FFF756FF4FF480710348FFF7D4
:10152000EBFC681CC5B2082DDBDB70BD000002407F
:101530000008024010B54FF400710A48FFF7DEFCC6
:101540004FF480710848FFF7D9FC0520FFF73AFFF8
:101550004FF400710348FFF7CFFC0520FFF732FF7F
:1015600010BD0000000802400000024010B54FF41A
:1015700000710848FFF7C0FC4FF480710648FFF780
:10158000BDFC0520FFF71EFF4FF400710148FFF777
:10159000B5FC10BD00080240000002401CB5002050
:1015A00001904FF400711648FFF7A8FCFFF780FF89
:1015B0004FF480711348FFF7A1FC0020009010E069
:1015C0000F481030006800F4007010B9012001903D
:1015D0000BE00520FFF7F6FE9DF80000401CC0B2AE
:1015E00000909DF800000A28EADB00BF4FF48071EC
:1015F0000448FFF781FCFFF743FF9DF804001CBD82
:10160000000802400000024010B5752000F07EF88E
:101610003849087000200BF02FFC364948708021B3
:101620006B2000F093F83448FFF733FA01216B2068
:1016300000F08CF86B2000F069F82E490870022148
:10164000372000F083F80121382000F07FF84D2189
:10165000242000F07BF820216A2000F077F8012197
:10166000672000F073F88121272000F06FF8002038
:101670000BF002FC1F49087001210B200BF01CFC31
:101680001D48FFF706FA16210A200BF015FC102062
:101690000BF0F2FB1949087011200BF0EDFB184913
:1016A000087012200BF0E8FB1649087002200BF0BE
:1016B000E3FB154908700021192000F047F8432189
:1016C0001A2000F043F81A2000F020F80949487069
:1016D00008211B2000F03AF808211C2000F036F801
:1016E00048211D2000F032F8F821232000F02EF8C8
:1016F00010BD00005001002020A1070001000020C3
:1017000002000020030000200400002070B5044601
:1017100010210D48FFF7F0FB6420FFF7BAF944F001
:10172000800001F00BFBFF2000F0E0FD0546642087
:10173000FFF7AFF910210448FFF7E0FB6420FFF743
:10174000A8F9284670BD00000008024070B50546A3
:101750000C4610210B48FFF7CFFB6420FFF799F9E7
:10176000284601F0EBFA204601F0E8FA6420FFF782
:1017700090F910210348FFF7C1FB6420FFF789F9B6
:1017800070BD00000008024070B5002437E0FFF78C
:10179000D1FEEE20FFF79CFEFFF700FF08B9002006
:1017A00070BDA02101EB4401C8B2FFF791FEFFF725
:1017B000F5FE08B90020F3E7FFF7D8FEFFF7BAFE01
:1017C000EF20FFF785FEFFF7E9FE08B90020E7E705
:1017D000FFF71CFE0546FFF7DDFDFFF717FE064687
:1017E000FFF7FCFDFFF7C2FE06EB0520064921F8D6
:1017F00014004FF47A70FFF74CF9601CC4B2072C48
:10180000C5DB0120CCE70000D801002010B5FFF7B0
:1018100091FEEE20FFF75CFEFFF7C0FE08B9002046
:1018200010BD1E20FFF754FEFFF7B8FE08B90020D8
:10183000F6E7FFF79BFE0120F2E7000070B52DED03
:101840000A8BFFF777FEEE20FFF742FEFFF7A6FEBA
:1018500018B90020BDEC0A8B70BD0020FFF738FEE0
:10186000FFF79CFE08B90020F4E7FFF77FFEFFF7C3
:1018700061FEEF20FFF72CFEFFF790FE08B9002075
:10188000E8E7FFF7C3FD0446FFF784FDFFF7BEFD61
:101890000546FFF77FFDFFF7B9FD0646FFF79EFD02
:1018A000FFF764FE200400EB05203044C0490860C7
:1018B000C04800680BF051FF41EC1B0BBE49088982
:1018C0000BF062FF41EC1C0B53EC1B2B0BF0ACFF3D
:1018D00041EC1A0B9FEDB90B53EC102B0BF04CFDA8
:1018E00041EC180BB44988880BF04EFF41EC1A0B01
:1018F0009FEDB40B53EC102B0BF096FF41EC190B42
:1019000053EC182B0BF084FCB04A03C2A9480068C2
:101910000BF023FF41EC1B0BA749C8880BF034FFE9
:1019200041EC1C0B53EC1B2B0BF07EFF41EC1A0B14
:101930009FEDA70B53EC102B0BF01EFD41EC180B89
:101940009D4948880BF020FF41EC1A0B9FEDA20B3C
:1019500053EC102B0BF068FF41EC190B53EC182BD8
:101960000BF056FC9E4A03C29E4890ED000ADFED44
:101970009E0AB4EEE00AF1EE10FA0FDB9FED9B0A2F
:101980009B4880ED000A9FED9B0B9C4880ED000B6F
:101990009FED980B9A4880ED000B94E08548006815
:1019A000404300EE100AB8EEC00ADFED960A80EE62
:1019B000201A8F4880ED001A8A4890ED000ADFED6A
:1019C0008A0A30EE600AF0EE040A20EE200AD0ED1A
:1019D000000A9FED851A70EEC10A20EE200A10EE73
:1019E000101A08460CF0BEFA844A03C27D4890EDF6
:1019F000000ADFED7D0A30EE600AF7EE040A20EE01
:101A0000200AD0ED000A9FED781A70EEC10A20EE90
:101A1000200A10EE101A08460CF0A4FA784A03C205
:101A2000704890ED000ADFED780AB4EEE00AF1EEBE
:101A300010FA48D290ED000ADFED740A30EE200A69
:101A4000F1EE0C0A20EE200AD0ED000A9FED6F1A8D
:101A500070EE810A20EE200A10EE101A08460CF0F3
:101A600081FA41EC180B654890ED000B53EC102BFC
:101A700051EC180B0BF0CCFB604A03C2594890EDB7
:101A8000000ADFED620A30EE200AF1EE060A20EECF
:101A9000200AD0ED000A9FED5D1A70EE810A20EE5B
:101AA000200A10EE101A08460CF05CFA41EC180BF4
:101AB000534890ED000B53EC102B51EC180B0BF02E
:101AC000A7FB4F4A03C2474890ED000A4848D0EDB3
:101AD000000A30EE600A434880ED000A474890ED66
:101AE000000B53EC102B394890ED000B51EC100B10
:101AF0000CF04EF9354A03C2414890ED000B53EC0F
:101B0000102B374890ED000B51EC100B0CF040F906
:101B1000334A03C2264800680BF036FE41EC1C0B2A
:101B20002F4890ED000B53EC102B51EC1C0B0BF0DD
:101B30007BFE41EC1B0B9FED360B53EC102B0BF097
:101B40001BFC41EC1A0B214890ED000B53EC102BC1
:101B500051EC1A0B0CF01CF941EC190B9FED2E0BFC
:101B600053EC102B0BF008FC41EC180B0BF01EFB98
:101B70002B490860084690ED000ADFED2A0A30EE96
:101B8000C00AF2EE020A20EE200A274880ED000A81
:101B9000084600680CF0E6F9244AC2E9140122481C
:101BA00000680CF0DFF9214AC2E91601012051E674
:101BB0000800002010000020D801002000000000D4
:101BC00000006040000000000000F0402000002005
:101BD0000000000000007040000000000000E04035
:101BE00028000020140000200000FA44000000003B
:101BF000180000200000000000000000300000205D
:101C0000380000200000004F0080BBC40080BB44AF
:101C100000000000000040410000000000004941B9
:101C20004000002000507D4444000020B803002004
:101C300070B5FFF77FFCEE20FFF74AFCFFF7AEFC24
:101C400008B9002070BD0020FFF742FCFFF7A6FC9A
:101C500008B90020F6E7FFF789FCFFF76BFCEF20DF
:101C6000FFF736FCFFF79AFC08B90020EAE7FFF718
:101C7000CDFB0646FFF78EFBFFF7C8FB0446FFF7D8
:101C800089FBFFF7C3FB0546FFF7A8FBFFF76EFCD8
:101C9000300400EB042028441349086013484089AD
:101CA0000968A1EB0020124908601048808900EE05
:101CB000100AF8EE400A084690ED000AB8EEC00A95
:101CC00060EE800A9FED0B1A80EE810ADFED0A0AB2
:101CD00030EE200ABDEEC00AB8EEC00A074880ED1B
:101CE000000A0120AEE700000C000020D80100200F
:101CF000100000200000004B0000FA4414000020F7
:101D000010B5FFF717FCEE20FFF7E2FBFFF746FCEC
:101D100008B9002010BD4820FFF7DAFBFFF73EFCB2
:101D200008B90020F6E7FFF721FC0120F2E710B523
:101D3000FFF700FCEE20FFF7CBFBFFF72FFC08B905
:101D4000002010BD5820FFF7C3FBFFF727FC08B9A0
:101D50000020F6E7FFF70AFC0120F2E700BFFEE7EC
:101D600070470EB54FF4A06000F09AF8FEF7C2FE7F
:101D70000021084600F06CFB0120009000208DF847
:101D800004000C208DF8050001208DF8060068463F
:101D9000FEF7D6FE06208DF8080001208DF8090018
:101DA00000208DF80A0001208DF80B0002A800F039
:101DB0003BF81C208DF8080001208DF80900002058
:101DC0008DF80A0001208DF80B0002A800F02CF815
:101DD0001D208DF8080002208DF8090000208DF8E4
:101DE0000A0001208DF80B0002A800F01DF8262043
:101DF0008DF8080000208DF8090001208DF80A00F8
:101E00008DF80B0002A800F00FF825208DF80800CF
:101E100000208DF809008DF80A0001208DF80B00D4
:101E200002A800F001F80EBD70B5002100230F22BA
:101E3000C4781CB3174C246804F4E064C4F5E0646F
:101E4000C4F30721C1F10404E3B20A4144789C4081
:101E5000E1B28478144021430C07210E0E4C057822
:101E60006155047804F01F050124AC4005786D111C
:101E7000AD0005F1E025C5F8004109E0047804F063
:101E80001F050124AC40054D0678761145F8264023
:101E900070BD00000CED00E000E400E080E100E037
:101EA00002490143024A1160704700000000FA0530
:101EB0000CED00E07047000029B1064A12680243A9
:101EC000044B1A6004E0034A12688243014B1A6013
:101ED000704700003038024029B1064A12680243B8
:101EE000044B1A6004E0034A12688243014B1A60F3
:101EF000704700004038024029B1064A1268024388
:101F0000044B1A6004E0034A12688243014B1A60D2
:101F1000704700002038024029B1064A1268024387
:101F2000044B1A6004E0034A12688243014B1A60B2
:101F3000704700004438024029B1064A1268024343
:101F4000044B1A6004E0034A12688243014B1A6092
:101F500070470000243802401FB5684600F02EF894
:101F600001210846FFF7A8FF01210220FFF7A4FF87
:101F700001210420FFF7A0FF01210803FFF7CCFF98
:101F800001214804FFF7A8FF01211020FFF7C4FF3B
:101F900001210846FFF7A0FF01210220FFF79CFF67
:101FA00001218805FFF788FF01214805FFF784FF1D
:101FB00001218803FFF7B0FF1FBD0000F0B500212D
:101FC00000220024022500260223324F3F6807F03A
:101FD0000C0121B1042905D0082937D105E02E4F85
:101FE000076036E02D4F076033E02A4F3F1F3F6800
:101FF000C7F38056274F3F1F3F6807F03F036EB17E
:10200000264FB7FBF3F7DFF88CC0ACF1040CDCF81B
:1020100000C0CCF3881C07FB0CF40CE01E4FB7FB90
:10202000F3F7DFF870C0ACF1040CDCF800C0CCF3BF
:10203000881C07FB0CF4174F3F1F3F68C7F301478D
:102040007F1C7D00B4FBF5F7076002E0124F0760CC
:1020500000BF00BF0F4F3F6807F0F0010909104FA4
:102060007A5C0768D74047600A4F3F6807F4E05141
:10207000890A0B4F7A5C4768D7408760054F3F68F5
:1020800007F46041490B064F7A5C4768D740C76048
:10209000F0BD0000083802400024F40000127A006D
:1020A0009800002010B52DED048B00BF4FF40041C7
:1020B0008148FEF718FF0028F8D03C20FFF726FBE8
:1020C0007E4908703B20FFF721FB7C494870084699
:1020D0000078497840EA012000B279490880B1F9D6
:1020E00000000BF03AFB41EC180B9FED760B53EC24
:1020F000102B0BF041F9754A03C23E20FFF706FB97
:102100006E4988703D20FFF701FB6C49C870084696
:102110008078C97840EA012000B269494880B1F965
:1021200002000BF01AFB41EC180B9FED660B53EC11
:10213000102B0BF021F9654AC2E902014020FFF79C
:10214000E5FA5E4908713F20FFF7E0FA5B49487104
:1021500008460079497940EA012000B25849888050
:10216000B1F904000BF0F9FA41EC180B9FED550B97
:1021700053EC102B0BF000F9544AC2E90401544807
:102180000078401C5249087008460078052801D1A3
:10219000002008704220FFF7B9FA48490870412032
:1021A000FFF7B4FA4549487008460078497840EA94
:1021B000012000B24249C880B1F906000BF0CDFA07
:1021C00041EC190B9FED430B53EC102B0BF0D4F8A3
:1021D00041EC180B9FED410B53EC102B0BF018F852
:1021E0003A4AC2E906014420FFF790FA33490870E1
:1021F0004320FFF78BFA3149487008460078497848
:1022000040EA012000B22E490881B1F908000BF024
:10221000A4FA41EC180B9FED330B53EC102B0BF091
:10222000ABF82A4AC2E908014620FFF76FFA2349B2
:1022300088704520FFF76AFA2049C8700846807800
:10224000C97840EA012001B21D4841810146B1F937
:102250000A000BF082FA41EC180B9FED220B53ECB5
:10226000102B0BF089F8194AC2E90A014820FFF740
:102270004DFA124908714720FFF748FA0F49487193
:1022800008460079497940EA012001B20C48818171
:102290000146B1F90C000BF060FA41EC180B9FED10
:1022A000110B53EC102B0BF067F8084AC2E90C0134
:1022B000BDEC048B10BD0000000002405001002066
:1022C000A0030020000000000000C040B803002070
:1022D0000000002052B81E85EBDD744000000000B5
:1022E00000003540000000000060504070B504461A
:1022F000002500BF02210B4800F07CF80028F9D02F
:102300002146084800F082F800BF0121054800F08E
:1023100071F80028F9D0034800F075F8C5B22846D6
:1023200070BD00000030014000B585B0144800F0D9
:1023300035F80020ADF800004FF48270ADF80200CF
:102340000020ADF804000220ADF806000120ADF831
:1023500008004002ADF80A003020ADF80C00002063
:10236000ADF80E000720ADF810006946044800F0F3
:102370004FF80121024800F005F805B000BD00004B
:102380000030014021B1028842F04002028004E0A6
:1023900002884FF6BF731A400280704710B504469A
:1023A0001148844208D101218014FFF7C5FD0021A6
:1023B000A014FFF7C1FD16E00C48844208D10121AA
:1023C0000014FFF799FD00212014FFF795FD0AE0A6
:1023D0000748844207D10121C013FFF78DFD00217A
:1023E000E013FFF789FD10BD0030014000380040C8
:1023F000003C00400246002013890B400BB1012035
:1024000000E000207047014688897047818170474D
:1024100010B50022028802F441520B884C882343F5
:102420008C882343CC8823430C8923434C89234342
:102430008C892343CC8923431A430280838B4FF238
:10244000FF74234083830B8A038210BD7047000012
:1024500030B500228B071C0F0F2303FA04F20B4B3D
:102460008C1053F824309343084C8D1044F82530D9
:1024700023468C1053F824308C07240F00FA04F400
:102480002343024C8D1044F8253030BD08380140FC
:102490000CB50020019000903448006840F4803072
:1024A0003249086000BF3148006800F400300090F5
:1024B0000198401C0190009818B90198B0F5A06FE0
:1024C000F1D12A48006800F4003010B101200090DA
:1024D00001E0002000900098012846D123484030B8
:1024E000006840F080502149403108602048006871
:1024F00040F480401E4908601C48083000681B49B1
:10250000083108600846006840F40040086008464A
:10251000006840F4A05008601648091F0860081FB2
:10252000006840F08070091F086000BF0F48006815
:1025300000F000700028F9D040F205600E490860F4
:102540000A480830006820F0030008490831086094
:102550000846006840F00200086000BF03480830E9
:10256000006800F00C000828F8D10CBD00380240CB
:102570000070004008544007003C024070470000D3
:1025800010B51548006840F47000134908601348FE
:10259000006840F001001149086000200F4908312F
:1025A00008600E4800680E4908400C4908600D4854
:1025B000091D0860081F006820F48020091F0860BA
:1025C000002006490C310860FFF762FF4FF0006001
:1025D00001498039086010BD88ED00E000380240F4
:1025E000FFFFF6FE103000240EB54FF0804000F0E3
:1025F000E9F86320019042F2CF00ADF8000000201E
:10260000ADF80800ADF8020069464FF0804000F0D8
:10261000BDF90121880700F0B9F8012211469007A1
:1026200000F0A9F90121880700F0BFF80EBD0000F5
:1026300010B50121880700F08DF9002835D001215F
:10264000880700F0AFF808211848FEF757FCFFF79D
:1026500029FD012016490870164800680A301549FE
:1026600008601548007828B9144800680A301349F2
:10267000086002E000201149086011480078012834
:1026800009D1FEF73DFC01200E4908700E49087083
:1026900000200B490870FEF763FEFDF7BFFF00F056
:1026A000D9F908210148FEF727FC10BD00080240B7
:1026B0006000002058000020520000205C00002034
:1026C0004E00002061000020530000200EB510488D
:1026D00000F078F8C720019042F2D000ADF8000079
:1026E0000020ADF80800ADF802006946084800F087
:1026F0004DF90121064800F049F80122114604482D
:1027000000F039F90121024800F04FF80EBD000039
:102710000004004010B50121194800F01BF970B306
:1027200018480078401C17490870084600780128AE
:1027300001D1FFF7FCFA13480078022801D1FFF716
:1027400077FA10480078032801D1FFF7D9FA0D482D
:102750000078042801D1FFF771F80A4800780528AD
:1027600005D10120084908700020064908700121A0
:10277000034800F017F80021014800F005F910BDEA
:1027800000040040480000206200002021B10288BF
:1027900042F08002028004E002884FF67F731A4004
:1027A00002807047CA430282704721B1028842F01A
:1027B0000102028004E002884FF6FE731A40028094
:1027C0007047000010B504465548844208D10121E5
:1027D0000846FFF7B1FB00210120FFF7ADFB9DE0AC
:1027E000B4F1804F08D101210846FFF785FB002195
:1027F0000120FFF781FB91E04A48844208D1012182
:102800000220FFF779FB00210220FFF775FB85E02E
:102810004548844208D101210420FFF76DFB0021C7
:102820000420FFF769FB79E04048844208D1012188
:102830000820FFF761FB00210820FFF75DFB6DE03A
:102840003B48844208D101211020FFF755FB0021AD
:102850001020FFF751FB61E03648844208D1012186
:102860002020FFF749FB00212020FFF745FB55E022
:102870003148844208D101210220FFF75DFB00218D
:102880000220FFF759FB49E02C48844209D101217D
:102890000804FFF751FB00214FF48030FFF74CFB99
:1028A0003CE02748844209D101214804FFF744FB5A
:1028B00000214FF40030FFF73FFB2FE02148844216
:1028C00009D101218804FFF737FB00214FF4802054
:1028D000FFF732FB22E01C48844208D1012140204E
:1028E000FFF70AFB00214020FFF706FB16E0174820
:1028F000844208D101218020FFF7FEFA00218020C8
:10290000FFF7FAFA0AE01248844207D10121801544
:10291000FFF7F2FA0021A015FFF7EEFA10BD000054
:10292000000001400004004000080040000C00408E
:10293000001000400014004000040140004001402D
:10294000004401400048014000180040001C0040C5
:102950000020004030B50246002000230024158AE4
:1029600005EA0103958905EA010413B10CB10120C0
:1029700000E0002030BD1AB183890B43838102E05F
:1029800083898B43838170474162704700220288AC
:10299000184B98420ED0184B98420BD0B0F1804F94
:1029A00008D0164B984205D0154B984202D0154BD3
:1029B000984204D14FF68F731A404B881A43124B3A
:1029C000984207D0114B984204D04FF6FF431A406B
:1029D0000B891A4302804B68C3620B880385054B41
:1029E000984202D0044B984201D18B7A038601238E
:1029F0008382704700000140000401400004004051
:102A000000080040000C004000100040001400408E
:102A10001FB54FF4E12000900020ADF80400ADF8A0
:102A20000600ADF80800ADF80C000C20ADF80A0067
:102A30006946074800F010F90121054800F0A8F8A0
:102A4000012240F22551024800F0E1F81FBD0000CC
:102A50000010014000B58FB01948FDF707FD4FF099
:102A600000600090174801901748029040200390A2
:102A7000164800780490002005904FF4806006907E
:102A800000200790089009904FF400300A90002031
:102A90000D900E9069460A48FDF794FD01228021B1
:102AA0000848001F00F080F840210648001F00F091
:102AB00057F801210248FDF7CEFC0FB000BD000021
:102AC000B864024004100140E80100204C000020DE
:102AD00010B540F22551064800F06FF838B10448AF
:102AE00000F024F940F22551014800F042F810BDF1
:102AF000001001401FB54FF4E13000900020ADF808
:102B00000400ADF80600ADF80800ADF80C000C208C
:102B1000ADF80A006946074800F09EF80121054813
:102B200000F036F8012240F22551024800F06FF81B
:102B30001FBD00000044004010B540F22551074879
:102B400000F03BF840B1054800F0F0F8C4B240F2A4
:102B50002551024800F00DF810BD0000004400406F
:102B600001F40072B2F5007F00D100BFCA430280B9
:102B7000704710B50022002340F66A14A14200D12C
:102B800000BF0A1201249440A3B2DC43048010BDAC
:102B900021B1828942F40052828104E082894DF69B
:102BA000FF731A40828170471AB1838A0B43838274
:102BB00002E0838A8B438382704770B5024600240B
:102BC00000230025002040F66A16B14200D100BF64
:102BD000C1F3421501F01F03012606FA03F3012D8C
:102BE00002D19689334006E0022D02D1168A334085
:102BF00001E0968A33400C12012606FA04F4168886
:102C0000344013B10CB1012000E0002070BDF0B5DC
:102C10000346002400260025002040F66A17B9422A
:102C200000D100BF1846C1F3421401F01F0601276E
:102C300007FA06F5012C01D10C3004E0022C01D179
:102C4000103000E014301AB107682F43076002E02B
:102C50000768AF430760F0BD2DE9FF4705460E4604
:102C60000024A14600BFA046B08900B100BF2C8A55
:102C700024F44054F08804432C82AC8941F20C6067
:102C80008443B08831890843718908430443AC8187
:102C9000AC8A24F44074B0890443AC826846FFF7E0
:102CA0008DF92048854202D01F48854202D1DDF8C7
:102CB0000C9001E0DDF80890A88900F4004040B1D4
:102CC00009EBC90000EB091031684900B0FBF1F7CE
:102CD00007E009EBC90000EB091031688900B0FB7F
:102CE000F1F76420B7FBF0F004012009642101FB37
:102CF0001078A88900F4004040B1322000EBC800F1
:102D0000B0FBF1F000F00700044308E0322000EBD4
:102D100008106421B0FBF1F000F00F0004432C8197
:102D2000BDE8FF870010014000140140014688887B
:102D3000C0F30800704700BFFEE7000070B504460E
:102D40000025254600BF02210948FFF753FB002854
:102D5000F9D029460648FFF759FB00BF0121044876
:102D6000FFF748FB0028F9D00148FFF74CFB70BD86
:102D70000030014070B52DED068B044604F5D4708B
:102D800000F000FEC14880ED000B80ED021B80EDDD
:102D9000042BBF4890ED102BB0EE420AF0EE620A11
:102DA000BA4890ED002BB0EE421AF0EE621A53ECE6
:102DB000102B51EC110B0AF0DFFA41EC180B0AF062
:102DC000F5F9B4490863B24890ED102BB0EE420A11
:102DD000F0EE620AAD4890ED022BB0EE421AF0EE32
:102DE000621A53EC102B51EC110B0AF0C5FA41ECAE
:102DF000180B0AF0DBF9A7494863A44890ED041BBF
:102E0000B0EE410AF0EE610A9FEDA31B53EC112BCB
:102E100051EC100B0AF0AEFE0FD29C4890ED041B53
:102E2000B0EE410AF0EE610A53EC102B9FED9C1BB3
:102E300051EC110B0AF0ACFF0AE0944890ED041B32
:102E4000B0EE410AF0EE610A51EC100B0AF0A1F964
:102E500041EC190B8E4890ED101BB0EE410AF0EEDC
:102E6000610A53EC102B51EC190B0AF085FA41EC76
:102E7000180B0AF09BF98749886394EDF61BB0EEB6
:102E8000410AF0EE610A51EC100B0AF08FF981490A
:102E9000C86394EDF81BB0EE410AF0EE610A51EC04
:102EA000100B0AF083F97B49086494EDFA1BB0EE2D
:102EB000410AF0EE610A51EC100B0AF077F97549FE
:102EC0004864734890ED102BB0EE420AF0EE620AAF
:102ED00004F5816090ED022BB0EE421AF0EE621A1A
:102EE00053EC102B51EC110B0AF046FA41EC180B85
:102EF0000AF0D6FB054600EE105AB8EEC00A654847
:102F000080ED120A28460AF028FC41EC190B6048B3
:102F100090ED102BB0EE420AF0EE620A04F58160EB
:102F200090ED022BB0EE421AF0EE621A53EC102B29
:102F300051EC110B0AF020FA41EC1A0B53EC192B4F
:102F40000AF026FF41EC180B0AF030F95149C86429
:102F50004F4890ED102BB0EE420AF0EE620A04F5F5
:102F6000806090ED022BB0EE421AF0EE621A53EC44
:102F7000102B51EC110B0AF0FFF941EC180B0AF081
:102F80008FFB054600EE105AB8EEC00A414880EDAE
:102F9000140A28460AF0E1FB41EC190B3C4890ED7D
:102FA000102BB0EE420AF0EE620A04F5806090ED5C
:102FB000022BB0EE421AF0EE621A53EC102B51ECD9
:102FC000110B0AF0D9F941EC1A0B53EC192B0AF04A
:102FD000DFFE41EC180B0AF0E9F82E49486504F5CC
:102FE000816090ED041BB0EE410AF0EE610A51ECF5
:102FF000100B0AF0DBF8274988654FF08040406AE3
:10300000294908600968294A1268881A0AF0A5FB4C
:1030100041EC180B9FED260B53EC102B0AF004FC2F
:10302000254A03C2244890ED000B53EC102B234893
:1030300090ED000B51EC100B0AF0BAFB05D21E48C4
:1030400090ED000B1D4880ED000B94ED021BB0EEDF
:10305000410AF0EE610A9FED1A1B09F0F9F8B0EE93
:10306000408AF0EE608A184890ED000B53EC102B6C
:1030700051EC180B0AF09CFB04D29FED070B0F4894
:1030800080ED000BBDEC068B70BD000088050020B4
:1030900060070020D00400200000000000000000B5
:1030A00000000060FB2119406C0000206800002037
:1030B0009A9999999999B93F880000209000002029
:1030C00000000000000014407800002070B586B0B9
:1030D00004460D46182221466846FDF7E7F801260A
:1030E0003CE094ED002BB0EE420AF0EE620A9DED5A
:1030F000002BB0EE421AF0EE621A53EC102B51EC9A
:10310000110B0AF091FBCDE9000194ED022BB0EE1A
:10311000420AF0EE620A9DED022BB0EE421AF0EE8A
:10312000621A53EC102B51EC110B0AF07DFBCDE928
:10313000020194ED042BB0EE420AF0EE620A9DED1E
:10314000042BB0EE421AF0EE621A53EC102B51EC45
:10315000110B0AF069FBCDE90401761CAE42C0DB1D
:103160009DED000B9DED021B9DED042B06B070BD87
:103170000CB5024691ED040B8DED000B91ED021B99
:10318000B0EE414AF0EE614A91ED001BB0EE410A0B
:10319000F0EE610A9FED077B9FED066B9FED055BEF
:1031A0009FED043B9FED032B9FED021B104601F0AA
:1031B000ADFC0CBD000000000000000010B52DEDBE
:1031C0000A8B044694ED042BB0EE420AF0EE620A3C
:1031D00094ED042BB0EE421AF0EE621A53EC102B71
:1031E00051EC110B0AF020FB41EC190B94ED022B72
:1031F000B0EE420AF0EE620A94ED022BB0EE421AF3
:10320000F0EE621A53EC102B51EC110B0AF00CFB90
:1032100041EC1B0B94ED002BB0EE420AF0EE620A7B
:1032200094ED002BB0EE421AF0EE621A53EC102B24
:1032300051EC110B0AF0F8FA41EC1C0B53EC1B2B70
:1032400009F0E6FF41EC1A0B53EC192B09F0E0FFF3
:1032500041EC180BB0EE480AF0EE680A09F0E0F80D
:10326000BDEC0A8B10BD000010B52DED0E8B88B0A3
:10327000044694ED042BB0EE420AF0EE620A94ED9F
:10328000042BB0EE421AF0EE621A53EC102B51EC04
:10329000110B0AF0C9FA41EC1A0B94ED022BB0EEB7
:1032A000420AF0EE620A94ED022BB0EE421AF0EE02
:1032B000621A53EC102B51EC110B0AF0B5FA41ECE9
:1032C0001D0B94ED002BB0EE420AF0EE620A94ED75
:1032D000002BB0EE421AF0EE621A53EC102B51ECB8
:1032E000110B0AF0A1FA41EC1E0B53EC1D2B09F057
:1032F0008FFF41EC1C0B53EC1A2B09F089FF41ECBA
:10330000180B9FED6C0B53EC102B51EC180B0AF0C3
:103310004FFA4CD253EC182B51EC180B0AF084FAEC
:1033200041EC1A0B9FED650B53EC102B51EC1A0B73
:103330000AF07AFA41EC1C0B9FED620B53EC102B58
:1033400051EC180B0AF070FA41EC1E0B9FED5F0B6D
:1033500053EC102B0AF044FC41EC1D0B53EC1C2BDE
:1033600009F056FF41EC1B0B9FED5A0B53EC102B51
:1033700051EC1A0B0AF058FA41EC1C0B9FED570B5D
:1033800053EC102B51EC180B0AF04EFA41EC1E0BCB
:103390009FED540B53EC102B0AF022FC41EC1D0B5B
:1033A00053EC1C2B09F034FF41EC190B38E0B0EE64
:1033B000480AF0EE680A09F033F8B0EE40CAF0EEC1
:1033C00060CA9FED4A0B53EC102B51EC1C0B09F01B
:1033D000D3FF41EC1A0BB0EE4A0AF0EE6A0A08F08D
:1033E000D3FEB0EE40BAF0EE60BAB0EE4A0AF0EEAC
:1033F0006A0A08F0B1FFB0EE40DAF0EE60DA53ECA2
:103400001A2B51EC1D0B09F0B7FF41EC1C0B9FED83
:10341000350B53EC102B0AF007FA41EC190B00BFE7
:1034200094ED041BB0EE410AF0EE610A53EC102B50
:1034300051EC190B0AF0F8F941EC1C0B94ED021B4E
:10344000B0EE410AF0EE610A53EC102B51EC190B6F
:103450000AF0EAF941EC1D0B94ED001BB0EE410AB5
:10346000F0EE610A53EC102B51EC190B0AF0DCF969
:1034700041EC1A0BB0EE4C3AF0EE6C3AB0EE4D2A3D
:10348000F0EE6D2AB0EE4A1AF0EE6A1AB0EE4B0A70
:10349000F0EE6B0A684601F053FB90ED000B90EDE7
:1034A000021B90ED042B90ED063B08B0BDEC0E8B9B
:1034B00010BD0000721CB8EDA1F6333F55555555AF
:1034C0005555653F000000000000C03F00000000AF
:1034D0000000F03F111111111111613F5555555563
:1034E0005555953F000000000000E03F000000003F
:1034F0000000004010B52DED068BB0EE408AF0EED6
:10350000608AB0EE419AF0EE619A51EC190B09F025
:1035100040FE41EC1A0B53EC182B0AF02BFB02D2A5
:103520004FF0FF3409E053EC192B51EC180B0AF063
:1035300021FB01D2012400E000242046BDEC068BD3
:1035400010BD10B588B0044694ED043BB0EE432A9C
:10355000F0EE632A94ED023BB0EE431AF0EE631AEC
:1035600094ED003BB0EE430AF0EE630A00F012F86F
:103570008DED000B8DED021B8DED042B8DED063BCB
:103580009DED000B9DED021B9DED042B9DED063B7B
:1035900008B010BD10B52DED060B2DED108B8EB0C3
:1035A000B0EE41EAF0EE61EAB0EE42FAF0EE62FA15
:1035B0009FED930B53EC102B9DED1E0B51EC100B5C
:1035C00009F0DAFECDE91E019FED8D0B53EC102BB7
:1035D00051EC1E0B09F0D0FE41EC1E0B9FED880B49
:1035E00053EC102B51EC1F0B09F0C6FE41EC1F0BE6
:1035F0009DED1E0B08F0B0FEB0EE408AF0EE608A42
:10360000B0EE4E0AF0EE6E0A08F0A6FEB0EE409A5A
:10361000F0EE609AB0EE4F0AF0EE6F0A08F09CFEF2
:10362000B0EE40AAF0EE60AA9DED1E0B08F0ACFDD6
:10363000B0EE40BAF0EE60BAB0EE4E0AF0EE6E0AAE
:1036400008F0A2FDB0EE40CAF0EE60CAB0EE4F0A3C
:10365000F0EE6F0A08F098FDB0EE40DAF0EE60DAB6
:1036600006A801F076FA53EC192B51EC180B0AF06E
:10367000DBF853EC1A2BCDE900019DED000B51EC6A
:10368000100B0AF0D1F853EC1C2BCDE9040151ECDE
:103690001B0B0AF0C9F853EC1D2BCDE900019DED81
:1036A000000B51EC100B0AF0BFF8CDE902019DEDC3
:1036B000040B53EC102B9DED020B51EC100B0AF098
:1036C00067FBCDE9060153EC192B51EC1B0B0AF0FB
:1036D000ABF853EC1A2BCDE900019DED000B51EC3A
:1036E000100B0AF0A1F853EC1C2BCDE9040151ECAE
:1036F000180B0AF099F853EC1D2BCDE900019DED54
:10370000000B51EC100B0AF08FF8CDE902019DED92
:10371000040B53EC102B9DED020B51EC100B0AF037
:1037200037FBCDE9080153EC1C2B51EC180B0AF0C8
:103730007BF853EC1A2BCDE900019DED000B51EC09
:10374000100B0AF071F853EC192BCDE9040151EC80
:103750001B0B0AF069F853EC1D2BCDE900019DED20
:10376000000B51EC100B0AF05FF8CDE902019DED62
:10377000040B53EC102B9DED020B51EC100B09F0D8
:1037800047FDCDE90A0153EC192B51EC180B0AF057
:103790004BF853EC1D2BCDE900019DED000B51ECD6
:1037A000100B0AF041F853EC1C2BCDE9040151EC4D
:1037B0001B0B0AF039F853EC1A2BCDE900019DEDF3
:1037C000000B51EC100B0AF02FF8CDE902019DED32
:1037D000040B53EC102B9DED020B51EC100B09F078
:1037E00017FDCDE90C019DED060B9DED081B9DED30
:1037F0000A2B9DED0C3B0EB0BDEC108B06B010BD3E
:10380000000000000000004030B52DED068B83B0B5
:1038100005460C4694ED021BB0EE410AF0EE610A3B
:1038200051EC100B09F0B5FC41EC180B94ED001BAA
:10383000B0EE410AF0EE610A51EC100B09F0A9FC60
:1038400041EC190B94ED041BB0EE410AF0EE610A55
:1038500051EC100B09F09DFC41EC1A0B9FED160B7F
:103860008DED000B94ED000BB0EE407AF0EE607A37
:1038700094ED040BB0EE403AF0EE603A94ED020B9A
:10388000B0EE402AF0EE602AB0EE486AF0EE686AC8
:10389000B0EE495AF0EE695A9FED074BB0EE4A1A66
:1038A000F0EE6A1A9FED040B284601F02FF903B0E1
:1038B000BDEC068B30BD00000000000000000000E1
:1038C00010B52DED028B86B00446684602F0D5FE99
:1038D00094ED0E1BB0EE410AF0EE610A9FED252B30
:1038E0009FED261B00F078FBB0EE408AF0EE608A78
:1038F00008F036F88DED000B94ED0C1BB0EE410A8C
:10390000F0EE610A51EC100B09F043FC41EC180B8E
:1039100094ED100BB0EE401AF0EE601AB0EE480ACB
:10392000F0EE680A00F052FC8DED020B94ED021BE4
:10393000B0EE410AF0EE610A51EC100B09F029FCDF
:1039400041EC180B94ED080BB0EE401AF0EE601A43
:10395000B0EE480AF0EE680A00F038FC8DED040B7A
:103960009DED000B9DED021B9DED042B06B0BDEC03
:10397000028B10BD000000000000F03F00000000BE
:103980000000F0BF10B52DED108B92B0044694ED01
:10399000002BB0EE420AF0EE620A94ED002BB0EE7E
:1039A000421AF0EE621A53EC102B51EC110B09F095
:1039B0003BFF41EC180B94ED022BB0EE420AF0EE07
:1039C000620A94ED002BB0EE421AF0EE621A53EC4C
:1039D000102B51EC110B09F027FFCDE9100194EDEC
:1039E000042BB0EE420AF0EE620A94ED002BB0EE2A
:1039F000421AF0EE621A53EC102B51EC110B09F045
:103A000013FFCDE90E0194ED062BB0EE420AF0EE65
:103A1000620A94ED002BB0EE421AF0EE621A53ECFB
:103A2000102B51EC110B09F0FFFECDE90C0194EDC8
:103A3000022BB0EE420AF0EE620A94ED022BB0EED9
:103A4000421AF0EE621A53EC102B51EC110B09F0F4
:103A5000EBFE41EC190B94ED042BB0EE420AF0EEB4
:103A6000620A94ED022BB0EE421AF0EE621A53ECA9
:103A7000102B51EC110B09F0D7FECDE90A0194EDA2
:103A8000062BB0EE420AF0EE620A94ED022BB0EE85
:103A9000421AF0EE621A53EC102B51EC110B09F0A4
:103AA000C3FECDE9080194ED042BB0EE420AF0EE1E
:103AB000620A94ED042BB0EE421AF0EE621A53EC57
:103AC000102B51EC110B09F0AFFE41EC1A0B94EDE9
:103AD000062BB0EE420AF0EE620A94ED042BB0EE33
:103AE000421AF0EE621A53EC102B51EC110B09F054
:103AF0009BFECDE9060194ED062BB0EE420AF0EEF6
:103B0000620A94ED062BB0EE421AF0EE621A53EC04
:103B1000102B51EC110B09F087FE41EC1B0B684692
:103B200002F0ABFD9DED100B53EC102B9DED060B41
:103B300051EC100B09F06CFB41EC1E0B9FED450B9B
:103B400053EC102B09F070FE41EC1D0B9FED432B45
:103B50009FED441BB0EE4D0AF0EE6D0A00F03CFA0A
:103B6000B0EE40CAF0EE60CA07F0FAFE8DED000B31
:103B700053EC192B51EC180B0AF00AF941EC1F0B0E
:103B800053EC1A2B0AF004F941EC1E0B53EC1B2BDF
:103B900009F03EFB41EC1C0B9DED0E0B53EC102B82
:103BA0009DED080B51EC100B0AF0F2F841EC1E0BE6
:103BB0009FED2E0B53EC102B09F036FE41EC1D0B44
:103BC000B0EE4C1AF0EE6C1AB0EE4D0AF0EE6D0A43
:103BD00000F0FCFA8DED020B53EC192B51EC180B95
:103BE0000AF0D6F841EC1F0B53EC1A2B09F010FB2E
:103BF00041EC1E0B53EC1B2B0AF0CAF841EC1C0BDA
:103C00009DED0C0B53EC102B9DED0A0B51EC100BA2
:103C10000AF0BEF841EC1E0B9FED140B53EC102B79
:103C200009F002FE41EC1D0BB0EE4C1AF0EE6C1ADE
:103C3000B0EE4D0AF0EE6D0A00F0C8FA8DED040BFF
:103C40009DED000B9DED021B9DED042B12B0BDEC14
:103C5000108B10BD000000000000004000000000BC
:103C60000000F03F000000000000F0BF0000000076
:103C7000000000C030B52DED108B9BB005460C4602
:103C800094ED002BB0EE420AF0EE620A94ED002BA8
:103C9000B0EE421AF0EE621A53EC102B51EC110BFD
:103CA00009F0C2FD41EC180B94ED022BB0EE420A74
:103CB000F0EE620A94ED002BB0EE421AF0EE621ABA
:103CC00053EC102B51EC110B09F0AEFD41EC1C0B29
:103CD00094ED042BB0EE420AF0EE620A94ED002B54
:103CE000B0EE421AF0EE621A53EC102B51EC110BAD
:103CF00009F09AFD41EC1D0B94ED062BB0EE420A43
:103D0000F0EE620A94ED002BB0EE421AF0EE621A69
:103D100053EC102B51EC110B09F086FD41EC1E0BFE
:103D200094ED022BB0EE420AF0EE620A94ED022B03
:103D3000B0EE421AF0EE621A53EC102B51EC110B5C
:103D400009F072FD41EC190B94ED042BB0EE420A20
:103D5000F0EE620A94ED022BB0EE421AF0EE621A17
:103D600053EC102B51EC110B09F05EFD41EC1F0BD5
:103D700094ED062BB0EE420AF0EE620A94ED022BAF
:103D8000B0EE421AF0EE621A53EC102B51EC110B0C
:103D900009F04AFDCDE9180194ED042BB0EE421A6A
:103DA000F0EE621A94ED042BB0EE420AF0EE620AD5
:103DB00053EC112B51EC100B09F036FD41EC1A0BB2
:103DC00094ED062BB0EE420AF0EE620A94ED042B5D
:103DD000B0EE421AF0EE621A53EC102B51EC110BBC
:103DE00009F022FDCDE9160194ED062BB0EE420A52
:103DF000F0EE620A94ED062BB0EE421AF0EE621A73
:103E000053EC102B51EC110B09F00EFD41EC1B0B88
:103E100004A800F094FE53EC192B51EC180B09F098
:103E2000F7F953EC1A2BCDE900019DED000B51EC95
:103E3000100B09F0ADFF53EC1B2BCDE902019DEDFA
:103E4000020B51EC100B09F0A3FFCDE9040153EC78
:103E50001E2B51EC1F0B09F09BFF9FED5D0B53ECEC
:103E6000102BCDE902019DED020B51EC100B09F076
:103E7000DBFCCDE9060153EC1D2B9DED180B51EC3D
:103E8000100B09F0C5F99FED520B53EC102BCDE947
:103E900002019DED020B51EC100B09F0C5FCCDE9C0
:103EA000080153EC1E2B51EC1F0B09F0B1F99FEDEB
:103EB000480B53EC102BCDE902019DED020B51ECA8
:103EC000100B09F0B1FCCDE90A0153EC192B51ECB0
:103ED000180B09F05DFF53EC1A2BCDE900019DEDA5
:103EE000000B51EC100B09F093F953EC1B2BCDE9AF
:103EF00002019DED020B51EC100B09F049FFCDE9D9
:103F00000C0153EC1C2B9DED160B51EC100B09F022
:103F10003FFF9FED2F0B53EC102BCDE902019DEDE0
:103F2000020B51EC100B09F07FFCCDE90E0153ECB4
:103F30001D2B9DED180B51EC100B09F029FF9FED87
:103F4000240B53EC102BCDE902019DED020B51EC3B
:103F5000100B09F069FCCDE9100153EC1C2B9DED11
:103F6000160B51EC100B09F053F99FED190B53ECA4
:103F7000102BCDE902019DED020B51EC100B09F065
:103F800053FCCDE9120153EC192B51EC180B09F03D
:103F9000FFFE53EC1A2BCDE900019DED000B51EC17
:103FA000100B09F0F5FE53EC1B2BCDE902019DED42
:103FB000020B51EC100B09F02BF9CDE9140148224A
:103FC00004A92846FCF772F91BB0BDEC108B30BD7C
:103FD000000000000000004010B52DED088BB0EE91
:103FE000408AF0EE608AB0EE419AF0EE619AB0EE4F
:103FF00042AAF0EE62AA53EC192B51EC180B09F00F
:10400000D7FB04D2B0EE49BAF0EE69BA0FE053EC38
:104010001A2B51EC180B09F0ADFD04D2B0EE4ABAE0
:10402000F0EE6ABA03E0B0EE48BAF0EE68BAB0EE6D
:104030004B0AF0EE6B0ABDEC088B10BD2DE9FF4F6B
:104040002DED048B83B00C461646616832689142B0
:1040500001D1012100E00021084600F053F860681A
:104060000A9900FB01F70798103000EBC70560685C
:1040700005EBC000029004F1100000EBC708606877
:1040800008EBC000019006F1100B2FE09FED1B0B19
:10409000B0EE408AF0EE608AC146DA460BF1080BBA
:1040A0001EE09AED002BB0EE420AF0EE620A99EDA6
:1040B000002BB0EE421AF0EE621A53EC102B51ECCA
:1040C000110B09F0B1FB41EC190B53EC182B09F063
:1040D0009FF841EC180B09F1080970680AEBC00A57
:1040E00001988145DDD385ED008B08350298854226
:1040F000CCD303B0BDEC048BBDE8FF8F0000000003
:1041000000000000014609B1012000E000207047D6
:104110002DE9FF4F2DED048B81B00C4616466168EA
:104120007268914201D1012100E000210846FFF7A9
:10413000E9FF6068089900FB01F70598103000EB73
:10414000C705606805EBC000009004F1100000EBAB
:10415000C70A60680AEBC00B06F110082AE09FED61
:10416000190BB0EE408AF0EE608AD1461DE098ED62
:10417000002BB0EE420AF0EE620A99ED002BB0EE91
:10418000421AF0EE621A53EC102B51EC110B09F0AD
:104190004BFB41EC190B53EC182B09F039F841ECAF
:1041A000180B09F1080908F10808D945DFD385ED96
:1041B000008B083500988542D1D301B0BDEC048B4B
:1041C000BDE8FF8F000000000000000010B52DEDDD
:1041D000068BB0EE40AAF0EE60AAB0EE418AF0EE97
:1041E000618A9FED151BB0EE4A0AF0EE6A0AFFF7EE
:1041F00081F958B99FED101BB0EE480AF0EE680A3D
:10420000FFF778F910B99FED0E9B0DE0B0EE481A5C
:10421000F0EE681AB0EE4A0AF0EE6A0A07F0BCFE49
:10422000B0EE409AF0EE609AB0EE490AF0EE690AFC
:10423000BDEC068B10BD0000000000000000B03C8B
:1042400000000000000000002DE9F0412DED028B80
:104250000446D4E90012914201D1012100E000217D
:104260000846FFF74FFF00253DE0606805FB005062
:10427000401C04F1100101EBC006606805FB000161
:1042800004F1100000EBC108606805FB0050616894
:10429000014404F1100000EBC10721E097ED002B71
:1042A000B0EE420AF0EE620A96ED002BB0EE421A32
:1042B000F0EE621A53EC102B51EC110B08F0A8FF32
:1042C00041EC180B9FED0B0B53EC102B09F0ACFAE3
:1042D000C7E90001C6E900010836606807EBC007BE
:1042E0004645DBD36D1C6068A842BEDCBDEC028B8A
:1042F000BDE8F081000000000000E03F10B52DEDAA
:104300000E8B0446B0EE40AAF0EE60AAB0EE418AF1
:10431000F0EE618AB0EE42BAF0EE62BAB0EE439AC5
:10432000F0EE639A283404ED0AAB04ED088B04ED3B
:1043300004BB04ED069B53EC182B51EC180B09F051
:1043400073FA41EC1D0B53EC182B9FEDAE0B51ECA7
:10435000100B09F069FA41EC1E0B53EC1D2B09F010
:1043600017FD41EC1C0BB0EE4C0AF0EE6C0A08F0A5
:1043700057F804ED020B14ED022BB0EE420AF0EEFA
:10438000620A14ED022BB0EE421AF0EE621A53EC00
:10439000102B51EC110B09F047FAC4E900019FED15
:1043A0009B0B53EC102B51EC190B08F0E5FFC4E903
:1043B000020194ED021BB0EE410AF0EE610A9FED9E
:1043C000931B53EC112B51EC100B08F0D5FFC4E9F3
:1043D00004019FED900B84ED060B94ED061BB0EEEF
:1043E000410AF0EE610A9FED8D1B53EC112B51EC4D
:1043F000100B08F0C1FFC4E9080194ED081BB0EEF2
:10440000410AF0EE610A9FED851B53EC112B51EC34
:10441000100B08F0B1FFC4E90A019FED820B84ED97
:104420000E0B9FED820B84ED0C0B94ED061BB0EE92
:10443000410AF0EE610A9FED7F1B53EC112B51EC0A
:10444000100B08F099FFC4E9120194ED0C2BB0EEAB
:10445000420AF0EE620A94ED062BB0EE421AF0EE3C
:10446000621A53EC102B51EC110B08F085FFC4E9D4
:10447000140194ED0C1BB0EE410AF0EE610A07F056
:10448000CFFFB0EE40CAF0EE60CA94ED061BB0EE6E
:10449000410AF0EE610A53EC1C2B51EC100B08F0B2
:1044A0006BFFC4E9160194ED0C1BB0EE410AF0EE6F
:1044B000610A07F0B5FFB0EE40CAF0EE60CA94EDB5
:1044C000141BB0EE410AF0EE610A53EC1C2B51ECC8
:1044D000100B08F051FFC4E918019FED560B07F0CF
:1044E0009FFFB0EE40CAF0EE60CA94ED041BB0EE40
:1044F000410AF0EE610A53EC1C2B51EC100B08F052
:104500003BFFC4E91C0194ED0C1BB0EE410AF0EE38
:10451000610A07F085FFB0EE40CAF0EE60CA94ED84
:10452000041BB0EE410AF0EE610A53EC1C2B51EC77
:10453000100B08F021FFC4E91A0194ED0C1BB0EE3A
:10454000410AF0EE610A07F06BFFB0EE40CAF0EEF0
:1045500060CA53EC1C2B9FED370B51EC100B08F08D
:104560000BFFC4E91E0194ED0C1BB0EE410AF0EE06
:10457000610A07F055FFB0EE40CAF0EE60CA53EC96
:104580001C2B9FED2C0B51EC100B08F0F5FEC4E931
:10459000200194ED0C1BB0EE410AF0EE610A07F029
:1045A0003FFFB0EE40CAF0EE60CA94ED0E1BB0EED5
:1045B000410AF0EE610A53EC1C2B51EC100B08F091
:1045C000DBFEC4E9100194ED0C1BB0EE410AF0EEE5
:1045D000610A07F025FFB0EE40CAF0EE60CA94ED24
:1045E0000A1BB0EE410AF0EE610A53EC1C2B51ECB1
:1045F000100B08F0C1FEC4E92201283C2046BDECA6
:104600000E8B10BD00000000000000400000000004
:1046100000408F40ABAAAAAA46DF913F00000000ED
:1046200000004E408DEDB5A0F7C6B03E0000000082
:104630000020AC40000000000000F03F2DE9F043F6
:10464000CFB005460E4617469846A8F1020090499D
:1046500001EB40199FED8F2B9FED8E1B9FED8D0B76
:104660001EA802F003F89FED8B2B9FED8A1B9FED98
:10467000890B18A801F0FAFF9FED862B9FED851B93
:104680009FED840B12A801F0F1FF9FED822B9FEDAF
:10469000811B9FED800B0CA801F0E8FFC5F800809E
:1046A000B8F1010F34D1686801280DD118223146C4
:1046B00005F13800FBF7FAFD1822394605F15000E4
:1046C000FBF7F4FD0020686005F138009FED730BE7
:1046D00007F002F88DED1E0B8DED201B8DED222BCA
:1046E0001822314605F13800FBF7E0FD05F15000D6
:1046F0009FED6A0B06F0F0FF8DED180B8DED1A1B88
:104700008DED1C2B1822394605F15000FBF7CEFD2C
:10471000B8F1010F01DD0120686000243EE004EBE8
:10472000440106EBC10009EBC40191ED001BB0EEA2
:10473000410AF0EE610A06F0CFFF8DED060B8DED1C
:10474000081B8DED0A2B06A91EA801F0D8FF04EB6B
:10475000440107EBC10009EBC40191ED001BB0EE71
:10476000410AF0EE610A06F0B7FF8DED000B8DED0A
:10477000021B8DED042B694618A801F0C0FF04EB65
:10478000440006EBC00112A801F0B9FF04EB44009D
:1047900007EBC0010CA801F0B2FF641CA8F10100F6
:1047A000A042BCDC04EB440006EBC00112A801F0FF
:1047B000A6FF04EB440007EBC0010CA801F09FFF2B
:1047C00004EB440006EBC0011EA806F0E1FD8DEDF0
:1047D000480B8DED4A1B8DED4C2B48A912A806F015
:1047E000CCFE85ED020B85ED041B85ED062B04EB5D
:1047F000440006EBC00118A806F0CAFD8DED240B9D
:104800008DED261B8DED282B04EB440007EBC0013A
:104810001EA806F0BDFD8DED2A0B8DED2C1B8DED38
:104820002E2B24A92AA806F0A8FE8DED300B8DEDC5
:10483000321B8DED342B12A89FED1A0B06F04CFFA6
:104840008DED360B8DED381B8DED3A2B0CA936A86E
:1048500006F09EFD8DED3C0B8DED3E1B8DED402B4E
:104860003CA90CA806F089FE8DED420B8DED441B92
:104870008DED462B30A942A806F07FFE85ED080B92
:1048800085ED0A1B85ED0C2B4FB0BDE8F0830000D1
:10489000A8000020000000000000000055555555FC
:1048A0005555B53F000000000000E03F00B501464F
:1048B00001F1080001F0E1FEA0F1080101F1200082
:1048C00001F0DBFEA0F1200101F1380001F0D5FE7E
:1048D000A0F1380101F1500001F0CFFEA0F150012C
:1048E00001204860084600BD2DE9F04104460F460E
:1048F00090461D46606807FB008104F1100000EB44
:10490000C106182229463046FBF7D0FC606806EB4A
:10491000C006182205F118013046FBF7C7FC606895
:1049200006EBC006182205F130013046FBF7BEFC4D
:10493000BDE8F0810FB4F8B504460AA8009004F170
:1049400010052846A16800EBC1062068471C17E047
:104950009DED080B53EC102B9DED080B51EC100B4B
:1049600008F062FFC5E900010098C01D20F00700B3
:104970000090B0EC020B00908DED080B05EBC70525
:10498000B542E5D300200090F8BC5DF814FB10B5EB
:1049900001604260D0E900346343836010BD70B5AC
:1049A0000B4603604260D0E900146143816000F16E
:1049B00010010D46866805EBC60402E081ED000B90
:1049C0000831A142FAD370BD704710B5034658684C
:1049D00001FB002403F1100000EBC40010BD2DE921
:1049E000F04104460E4621683268914205D1616863
:1049F0007268914201D1012100E000210846FFF7D1
:104A000081FB04F110052846A16800EBC10806F1FE
:104A1000100714E0B7EC022BB0EE420AF0EE620A87
:104A200095ED002BB0EE421AF0EE621A53EC102B0B
:104A300051EC110B09F0ACF9C5E900010835454509
:104A4000E8D32046BDE8F0812DE9F04704460E4644
:104A500021683268914203D061687268914201D145
:104A6000012100E000210846FFF74CFB2068471CAD
:104A700004F110052846A16800EBC10806F10809F9
:104A800017E099ED002BB0EE420AF0EE620A95EDC8
:104A9000002BB0EE421AF0EE621A53EC102B51ECE0
:104AA000110B08F0B5FBC5E9000105EBC70509F1DD
:104AB00008094545E5D32046BDE8F0872DE9F041DA
:104AC00004462068461C04F110052846A16800EB46
:104AD000C10711E095ED001BB0EE410AF0EE610A4E
:104AE0009FED081B53EC112B51EC100B08F090FBC1
:104AF000C5E9000105EBC605BD42EBD32046BDE884
:104B0000F0810000000000000000F03F2DED028B5E
:104B10009DED028B80ED000B80ED021B80ED042BE0
:104B200080ED063B80ED084B80ED0A5B80ED0C6B61
:104B300080ED0E7B80ED108BBDEC028B70477047D3
:104B400080ED000B80ED021B80ED042B80ED063B19
:104B50007047704730B589B004460D462846FEF7C9
:104B600083FB8DED000B8DED021B8DED042B8DED88
:104B7000063B2146684606F0A5F884ED000B84ED5F
:104B8000021B84ED042B84ED063B204609B030BDAA
:104B900030B52DED108BADF54B7D044694ED180B23
:104BA000B0EE40BAF0EE60BA94ED161BB0EE410ADA
:104BB000F0EE610A53EC102B9FEDFE1B51EC110B34
:104BC00008F0DAFB41EC1C0B53EC1C2B51EC1C0BDA
:104BD00008F02AFE7591749094ED340B8DED720BF4
:104BE00094ED360B8DED700B94EDF60BB0EE408A24
:104BF000F0EE608A94EDF80BB0EE40EAF0EE60EA79
:104C000094ED200BB0EE40AAF0EE60AA94ED220BDA
:104C1000B0EE409AF0EE609A94ED240BB0EE40FABC
:104C2000F0EE60FA53EC1A2B51EC1A0B08F0FCFD75
:104C30006F916E9053EC192B51EC190B08F0F4FDA9
:104C400041EC1D0B04F576715CA8FEF7DDFD9DEDD2
:104C5000700B51EC100B08F09CFA9FEDD80BCDE9CE
:104C600034018DED000B9FEDD57B9DED726B9FEDBB
:104C7000D35B9FEDD24B9DED343B9FEDD02B9FED51
:104C8000CF1B9FEDCE0B4AA8FFF740FF51EC180B4E
:104C900008F07FFA53EC1B2BCDE92A019DED2A0B7E
:104CA00051EC100B08F0C0FD53EC1D2BCDE92C018D
:104CB0009DED2C0B51EC100B08F0B6FDCDE9340145
:104CC0009DED740B53EC102B51EC180B08F0ACFD60
:104CD00053EC192BCDE92C019DED2C0B51EC100B55
:104CE00008F0A2FDCDE9320151EC180B08F051FAA1
:104CF00053EC1D2BCDE92C019DED2C0B51EC100B31
:104D000008F092FDCDE930019DED6E0B53EC102BB8
:104D100051EC1E0B08F088FDCDE92E019DED340B02
:104D20008DED000B9FEDA57B9DED326B9DED305B16
:104D30009FEDA24B9FEDA13B9DED2E2B9FED9F1B69
:104D40009FED9E0B38A8FFF7E1FE04F1F80006F096
:104D5000A8FD8DEDC40B8DEDC61B8DEDC82BC4A930
:104D600024A8FEF751FD482224A904F59060FBF722
:104D70009DFA53EC192B51EC1B0B08F055FDCDE9B6
:104D8000340151EC1A0B08F004FA9FED8C0BCDE9BD
:104D900032018DED000B9FED897B9DED346B9FED16
:104DA000875B9FED864BB0EE493AF0EE693A9FED96
:104DB000832B9DED321B9FED810BB2A8FFF7A6FE62
:104DC00005464822294604F59960FBF76FFA38AA90
:104DD0004AA924A805F047FC482224A904F5A260AA
:104DE000FBF764FA04F5587124A8FEF70DFD48227C
:104DF00024A904F5AB60FBF759FA04F1F80104F1BA
:104E0000C80006F0BAFB8DED880B8DED8A1B8DED89
:104E10008C2B88A924A8FEF7F7FC482224A98EA889
:104E2000FBF744FA04F599625CA912A805F080F931
:104E3000482212A9A0A8FBF739FA8EAAA0A96846B1
:104E400004F0BCFF4822694604F5B460FBF72EFA73
:104E500004F5A2624AA924A805F005FC482224A969
:104E600076A8FBF723FA76AA5CA912A805F060F9E8
:104E7000482212A904F5BD60FBF718FA94ED162B31
:104E8000B0EE420AF0EE620A94ED102BB0EE421A38
:104E9000F0EE621A53EC102B51EC110B08F0C4FC2D
:104EA000CDE9360194ED121BB0EE410AF0EE610A35
:104EB00053EC102B9FED431B51EC110B08F0B4FC8D
:104EC000CDE92C019DED360B53EC102B9DED2C0BF9
:104ED00051EC100B08F0A8FCCDE930019DED360B2C
:104EE00053EC102B9FED390B51EC100B08F09CFC90
:104EF000CDE92E019DED300B53EC102B9DED2E0BCB
:104F000051EC100B08F084F9CDE93201314890EDF5
:104F1000041BB0EE410AF0EE610A53EC102B9DED3C
:104F2000321B51EC110B08F07FFCCDE9340104F584
:104F3000BD6090ED0C1BB0EE410AF0EE610A53EC3F
:104F4000102B9DED341B51EC110B08F049FE04F5BC
:104F5000BD62C2E90C01104690ED101BB0EE410A93
:104F6000F0EE610A9FED1C1B53EC112B51EC100B62
:104F700008F04EF904F5BD62C2E910019FED0D0B7A
:104F80008DED000B9FED0D7B9FED0C6B9FED0B5B93
:104F90009FED0A4BB0EE4F3AF0EE6F3A9FED072BC4
:104FA000B0EE4A1AF0EE6A1A9FED040BB2A8FFF7B2
:104FB000ADFD15E0000000000000F03F0000000023
:104FC000000000009F3D30EBF966183F3EF4B42E20
:104FD000FB96853F60070020D785107122E3C93E0C
:104FE00005464822294604F5C660FBF75FF951ECF7
:104FF000180B08F0CEF853EC1C2BCDE92C019DEDDD
:105000002C0B51EC100B08F00FFC53EC1D2BCDE9D1
:105010002E019DED2E0B51EC100B08F005FC53EC0E
:105020001B2BCDE9340151EC180B08F0FDFB53ECC0
:105030001F2BCDE92E019DED2E0B51EC100B08F02E
:10504000F3FBCDE9320151EC1E0B08F0A2F8CDE9DB
:105050002E019DED6E0B53EC102B9DED2E0B51ECA4
:10506000100B08F0E1FB1FED2B0BCDE930018DEDAE
:10507000000B1FED2E7B1FED2F6B9DED345B1FEDA5
:10508000314B9DED323B9DED302B1FED341B1FED61
:10509000350BB2A8FFF73AFD05464822294604F52C
:1050A000CF60FBF703F90DF54B7DBDEC108B30BDE8
:1050B00070B5E6B004460D469FED3C0B8DED000B40
:1050C00094ED240BB0EE403AF0EE603A94ED200BF4
:1050D000B0EE401AF0EE601A9FED367B9FED356B17
:1050E0009FED345B9FED334B9FED322B9FED310BEA
:1050F00054A8FFF70BFD06464822314604F5C6606A
:10510000FBF7D4F804F5647112A8FEF77DFB482282
:1051100012A942A8FBF7CAF842AA04F5E47168464E
:1051200005F006F84822694604F5DE60FBF7BEF894
:1051300004F5E47204F5C66124A804F0F9FF4822DE
:1051400024A904F5E760FBF7B1F8294604F5DE6011
:1051500004F0F7FE8DED3C0B8DED3E1B8DED402BED
:105160003CA904F5767006F008FA04F5D06080EDED
:10517000100B80ED121B80ED142B2946B83004F083
:10518000E0FE8DED360B8DED381B8DED3A2B36A9FB
:1051900004F5816006F0F1F904F5D06080ED160B9E
:1051A00080ED181B80ED1A2B66B070BD000000006A
:1051B0000000F03F0000000000000000F0B52DED01
:1051C000068BADF53B7D04460E4617461D46B0EEF8
:1051D000408AF0EE608A284608F0BFFA41EC1A0BCC
:1051E00053EC182B08F020FBC4E9000194ED002BD0
:1051F000B0EE420AF0EE620A94ED022BB0EE421AD3
:10520000F0EE621A53EC102B51EC110B08F000F881
:10521000C4E9020194ED001BB0EE410AF0EE610A10
:105220009FEDFE1B53EC112B51EC100B08F0A4F872
:1052300041EC190B2B463A46314604F5A070FFF7B6
:10524000FDF994ED001BB0EE410AF0EE610A04F5A1
:10525000846006F046F98DEDAE0B8DEDB01B8DED43
:10526000B22B04F5A47104F5287004F06AFE8DEDEC
:10527000B40B8DEDB61B8DEDB82BAEA9B4A806F01E
:105280002CF884ED520B84ED541B84ED562B94EDD9
:10529000001BB0EE410AF0EE610A04F5876006F0EB
:1052A00020F98DEDA20B8DEDA41B8DEDA62B04F541
:1052B000B07104F53A7004F044FE8DEDA80B8DED4D
:1052C000AA1B8DEDAC2BA2A9A8A806F006F884EDC8
:1052D000580B84ED5A1B84ED5C2BB0EE490AF0EEBE
:1052E000690A04F55E7006F0FCF88DED9C0B8DEDFF
:1052F0009E1B8DEDA02B9CA904F5767006F03DF960
:105300008DED1E0B8DED201B8DED222BB0EE490A8D
:10531000F0EE690A1EA904F1100005F038FF8DEDCA
:10532000960B8DED981B8DED9A2B96A904F5816057
:1053300006F023F98DED180B8DED1A1B8DED1C2B4E
:105340001EAA18A904F1100000F06EFC94ED001BD9
:10535000B0EE410AF0EE610A04F5A47005F071FFA9
:1053600084EDCC0B84EDCE1B84EDD02B94ED001B93
:10537000B0EE410AF0EE610A04F5B07005F061FF8D
:1053800084EDD20B84EDD41B84EDD62B04F1C8013F
:1053900004F5167004F0D5FD8DED900B8DED921B8C
:1053A0008DED942B90A904F54C7005F096FF84EDDB
:1053B000E40B84EDE61B84EDE82B9FED980B04F5E0
:1053C000A47005F03EFF8DED740B8DED761B8DED19
:1053D000782B74A8FDF748FF8DED7A0B8DED7C1BC3
:1053E0008DED7E2B8DED803B7AA904F5D47005F010
:1053F00069FC8DED820B8DED841B8DED862B8DED83
:10540000883B04F1F80182A805F0F0F98DED8A0BD4
:105410008DED8C1B8DED8E2B8AA904F54C7005F05B
:105420005CFF84EDEA0B84EDEC1B84EDEE2B04F5C0
:10543000527104F5D47005F0D9F984EDD80B84EDE0
:10544000DA1B84EDDC2B04F1F80006F02AFA8DED6E
:105450005A0B8DED5C1B8DED5E2BB0EE490AF0EE24
:10546000690A5AA806F03DF88DED600B8DED621BC0
:105470008DED642B60A8FDF7F7FE8DED660B8DEDCD
:10548000681B8DED6A2B8DED6C3B04F5587166A899
:1054900005F0ACF98DED6E0B8DED701B8DED722B63
:1054A00004F594716EA806F068F884EDDE0B84EDC7
:1054B000E01B84EDE22B94ED001BB0EE410AF0EE10
:1054C000610A04F55E7006F00CF88DED540B8DED5D
:1054D000561B8DED582B54A904F5767006F04DF847
:1054E0008DED120B8DED141B8DED162B12A904F50D
:1054F000767006F042F88DED480B8DED4A1B8DED70
:105500004C2BB0EE490AF0EE690A48A904F11000EC
:1055100005F03DFE8DED4E0B8DED501B8DED522BAC
:105520004EA904F5816006F028F804F5806080ED4E
:10553000020B80ED041B80ED062B182212A92838DF
:10554000FAF7B4FE482204F5E47104F50470FAF7A2
:10555000ADFE04F5A470FDF787FE8DED240B8DEDF7
:10556000261B8DED282B8DED2A3B04F1F80006F06B
:1055700098F98DED2C0B8DED2E1B8DED302B94EDD0
:10558000001BB0EE410AF0EE610A2CA805F0A9FF5D
:105590008DED320B8DED341B8DED362B32A8FDF7E2
:1055A00063FE8DED380B8DED3A1B8DED3C2B8DEDB3
:1055B0003E3B04F5D47138A805F084FB8DED400B1B
:1055C0008DED421B8DED442B8DED463B24A940A86B
:1055D00005F078FB84ED6A0B84ED6C1B84ED6E2B7B
:1055E00084ED703B04F5D4716846FEF743FB482216
:1055F000694604F5E470FAF759FE04F5E470FEF725
:105600005FF984EDF00B84EDF21B84EDF42B04F5CF
:10561000E471684606F00CF8482203E00000000040
:1056200000000040694604F51670FAF73FFE04F5E5
:10563000767104F5167004F084FC04F5607084ED56
:10564000FC0B84EDFE1B80ED202B202204F5D47191
:1056500004F5F060FAF72AFE182204F5767104F5D5
:10566000F460FAF723FE182204F5816104F5F7606F
:10567000FAF71CFE0DF53B7DBDEC068BF0BD00007E
:105680002DE9FF5F2DED020B2DED028B92B004464C
:1056900015461E46B0EE408AF0EE608AF44890ED62
:1056A000043BB0EE432AF0EE632A90ED023BB0EEED
:1056B000431AF0EE631A90ED003BB0EE430AF0EEB1
:1056C000630A04F1100000F0EDFCA0F1100404F5F1
:1056D000A070FFF7EBF8A0F5A07404F5D470FFF705
:1056E00038FAA0F5D47404F5E470FFF728FAA0F5B1
:1056F000E47404F50470FFF722FAA0F5047404F5CD
:105700001670FFF71CFAA0F5167404F52870FFF761
:1057100016FAA0F5287404F53A70FFF710FAA0F510
:105720003A7404F54C7000F0A8FFA0F54C7404F531
:10573000527000F0A2FFA0F5527404F5587000F00A
:105740009CFFA0F5587404F55E7000F096FFA0F57C
:105750005E7404F5647000F090FFA0F5647404F5C5
:105760006A7000F08AFFA0F56A7404F5707000F0AA
:1057700084FFA0F5707404F5767000F07EFFA0F54C
:10578000767404F57C7000F078FFA0F57C7404F565
:10579000816000F072FFA0F5816404F5846000F080
:1057A0006CFFA0F5846404F5876000F066FFA0F547
:1057B000876404F58A6000F060FFA0F58A6404F550
:1057C0008D6000F05AFFA0F58D6404F59060FFF73E
:1057D000B6F9A0F5906404F59960FFF7B0F9A0F56B
:1057E000996404F5A260FFF7AAF9A0F5A26404F594
:1057F000AB60FFF7A4F9A0F5AB6404F5B460FFF764
:105800009EF9A0F5B46404F5BD60FFF798F9A0F522
:10581000BD6404F5C660FFF792F9A0F5C66404F50F
:10582000CF60FFF78CF9A0F5CF6404F5D86000F0E5
:1058300024FFA0F5D86404F5DB6000F01EFFA0F59E
:10584000DB6404F5DE60FFF77AF9A0F5DE6404F5A9
:10585000E760FFF774F9A0F5E76404F5F060FFF77F
:1058600078F9A0F5F06404F5F46000F006FFA0F507
:10587000F46404F5F76000F000FFA0F5F76484ED30
:10588000028B9FED7C0B84ED000B202204F5D4707D
:105890001799FAF70BFD1822294604F57670FAF7E6
:1058A00005FD1822314604F58160FAF7FFFC20223D
:1058B00004F5D47104F5F060FAF7F8FC182204F549
:1058C000767104F5F460FAF7F1FC182204F58161B1
:1058D00004F5F760FAF7EAFC2A46314604F11000B5
:1058E00000F0A2F904F5D4716846FEF7C3F9482226
:1058F000694604F5E470FAF7D9FC04F5E470FDF7A5
:10590000DFFF84EDF00B84EDF21B84EDF42B4822D5
:1059100004F5E47104F50470FAF7C8FC04F5E471C9
:10592000684605F085FE4822694604F51670FAF7C8
:10593000BDFC04F5767104F5167004F002FB04F565
:10594000607084EDFC0B84EDFE1B80ED202B482263
:105950004A49E038FAF7AAFC4822484904F53A7067
:10596000FAF7A4FC04F5876804F58A67182244490D
:105970003846FAF79BFC1822414904F58D60FAF786
:1059800095FC182239464046FAF790FC1822414609
:1059900004F58460FAF78AFC04F5527A04F5587924
:1059A00004F55E78A83F182235493846FAF77EFCA0
:1059B0001822334904F56470FAF778FC1822394646
:1059C0004046FAF773FC182241464846FAF76EFC47
:1059D000182249465046FAF769FC1822514604F548
:1059E0004C70FAF763FC04F5996B04F5A26A04F5B0
:1059F000AB6904F5B46804F5BD6704F5C6604822D8
:105A000020491190FAF752FC48221E4904F5CF6054
:105A1000FAF74CFC482238461199FAF747FC48221D
:105A200039464046FAF742FC482241464846FAF7D2
:105A30003DFC482249465046FAF738FC4822514678
:105A40005846FAF733FC4822594604F59060FAF7B5
:105A50002DFC2046FFF79CF809492046FFF728FB5C
:105A6000204612B0BDEC028B06B0BDE8F09F0000EE
:105A70006007002000000000000000005006002029
:105A800018060020980600200FB418B504462168B7
:105A90000F2904DC61680F2901DC012100E00021ED
:105AA0000846FEF72FFB07A800900020D4E900234A
:105AB0009A4201DD226800E06268114612E09DED25
:105AC000050B04F1080202EBC00282ED000B009A04
:105AD000D21D22F007020092B2EC020B00928DED73
