:020000040800F2
:10000000B0080020411500085104000853040008FE
:10001000570400085B0400085F04000800000000AB
:100020000000000000000000000000006304000861
:100030006504000800000000670400086904000867
:100040005B1500085B1500085B1500085B150008D0
:100050005B1500085B1500085B1500085B150008C0
:100060005B1500085B1500085B1500085B150008B0
:100070005B1500085B1500085B1500085B150008A0
:100080005B1500085B1500085B1500085B15000890
:10009000EB0A00085B1500085B1500085B150008FB
:1000A0005B1500085B1500085B1500085B15000870
:1000B0005B1500086D1000085B1500085B15000853
:1000C0005B1500085B1500085B1500085B15000850
:1000D0005B150008B71400085F12000863070008EA
:1000E0005B1500085B1500085B1500085B15000830
:1000F0005B1500085B1500085B1500085B15000820
:100100005B1500085B1500085B1500085B1500080F
:100110005B1500085B1500085B1500085B150008FF
:100120005B1500085B1500085B1500085B150008EF
:100130005B1500085B1500085B1500085B150008DF
:100140005B1500085B1500085B1500085B150008CF
:100150005B1500085B1500085B1500085B150008BF
:100160005B1500085B1500085B1500085B150008AF
:100170005B1500085B1500085B1500085B1500089F
:100180005B1500085B15000800F002F800F03CF871
:100190000AA090E8000C82448344AAF10107DA45E2
:1001A00001D100F031F8AFF2090EBAE80F0013F0F8
:1001B000010F18BFFB1A43F0010318475C3F000012
:1001C0007C3F0000103A24BF78C878C1FAD85207A3
:1001D00024BF30C830C144BF04680C6070470000C1
:1001E0000023002400250026103A28BF78C1FBD840
:1001F000520728BF30C148BF0B6070471FB503F0DE
:100200007AFF1FBD10B510BD03F0EFFD1146FFF7DB
:10021000F5FF00F04EF803F00DFE03B4FFF7F2FF18
:1002200003BC01F0E9F8000070B52DED028B84B03D
:10023000B0EE408A0546002688208DF804008DF82F
:10024000055004208DF806008DED038A9DF80F00FF
:100250008DF807009DF80E008DF808009DF80D0040
:100260008DF809009DF80C008DF80A00002405E0C7
:1002700001A8005D304486B2601CC4B2072CF7DBD5
:10028000F0B28DF80B0000240DE001A8015D644878
:1002900001F04AFC00BF4021614801F0F5FC012853
:1002A000F9D1601CC4B2082CEFDB04B0BDEC028BAA
:1002B00070BD1FB54FF4A06001F062F90020032368
:1002C00006220521009000F033FBA82001F012F86F
:1002D0004FF4E13001F09DF800F0D0F900F056FC49
:1002E00042F2CF0140F2F31000F094FE0A2001F038
:1002F00063F800F096FA4FF47A7001F05DF800F0C0
:10030000E6FF00F013FF00204649086086E04548FC
:1003100000680128FAD1002042490860002406E064
:100320004149201D085C01A90855601CC4B20C2C71
:10033000F6DB00240BE001A800EB840090ED000A3E
:100340003A4800EB840080ED000A601CC4B2032C24
:10035000F1DB00F056FC3648006801283AD13348FA
:10036000D0ED010AB0EE001A70EE810AB0EE600A1C
:10037000304800F023FD2D48D0ED000AB0EE600AB1
:100380002D4800F01BFD00F06AFC00240DE02B4816
:10039000015D2B4801F0C8FB00BF4021284801F057
:1003A00073FC0128F9D1601CC4B20B2CEFDB0024D4
:1003B0000DE02448015D224801F0B6FB00BF40215A
:1003C0001F4801F061FC0128F9D1601CC4B20B2C5C
:1003D00024DAEEE700240DE01B48015D184801F027
:1003E000A3FB00BF4021164801F04EFC0128F9D1C3
:1003F000601CC4B20B2CEFDB00240DE01348015D40
:100400000F4801F091FB00BF40210D4801F03CFC7A
:100410000128F9D1601CC4B20B2CEFDB77E7000098
:100420000010014040000020B000002064000020C7
:100430002C00002070000020900000200000002010
:10044000004800400B000020004100080B4100085C
:10045000704700BFFEE700BFFEE700BFFEE700BF3A
:10046000FEE7704770477047704700000CB50020EA
:10047000019000907648006840F48030744908602C
:1004800000BF7348006800F4003000900198401CE1
:100490000190009818B90198B0F5A04FF1D16C48BF
:1004A000006800F4003010B10120009001E000204D
:1004B00000900098012846D165484030006840F01F
:1004C00080506349403108606248006840F4404011
:1004D000604908605E48083000685D49083108607E
:1004E0000846006840F4004008600846006840F490
:1004F000A05008605848091F0860081F006840F0B5
:100500008070091F086000BF5148006800F000704B
:100510000028F9D040F20570504908604C48083076
:10052000006820F003004A49083108600846006866
:1005300040F00200086000BF45480830006800F045
:100540000C000828F8D10CBD10B54548006840F4EF
:100550007000434908603E48006840F001003C4993
:10056000086000203A4908310860394800683D4970
:100570000840374908603C48091D0860081F0068AA
:1005800020F48020091F0860002031490C310860E8
:10059000FFF76CFF4FF0006031498039086010BDF3
:1005A00070B500200022022300240221284D0835C6
:1005B0002D6805F00C0020B1042806D0082834D19D
:1005C00007E02A4D2A4E356033E02A4D284E35602B
:1005D0002FE01F4D2D1D2D68C5F380541C4D2D1D82
:1005E0002D6805F03F0154B1224DB5FBF1F5184ED1
:1005F000361D3668C6F3881605FB06F209E01B4D6A
:10060000B5FBF1F5124E361D3668C6F3881605FBAC
:1006100006F20F4D2D1D2D68C5F301456D1C6B00B5
:10062000B2FBF3F5124E356003E0104D104E35600D
:1006300000BF00BF064D08352D68C5F303150E4EEB
:10064000705D0B4D2D68C540094E356070BD0000D2
:10065000003802400070004008544007003C02404F
:1006600088ED00E0FFFFF6FE103000240024F400C7
:100670001800002000127A001C0000201CB5012187
:10068000042002F08DFB4FF40050009001208DF803
:10069000040000208DF8060003208DF805000120DD
:1006A0008DF807006946044801F060F84FF40051E6
:1006B000014801F0D7F81CBD0008024010B588B011
:1006C00004460121042002F06BFB0121880402F0A2
:1006D000B0FB07220A218A4801F0D3F807220B2138
:1006E000874801F0CEF84FF44060069002208DF864
:1006F0001C008DF81D0000208DF81E0001208DF8D3
:100700001F0006A97E4801F031F802940020ADF8E0
:100710000C00ADF80E00ADF81000ADF814000C2080
:10072000ADF8120002A9774801F04BF90121754894
:1007300001F0CFF9012240F22551724801F07FFA11
:1007400027208DF8040003208DF8050002208DF885
:10075000060001208DF8070001A800F016FF08B080
:1007600010BD10B540F22551664801F0A3FA10B350
:10077000644801F0DDF9C4B26348008800F4004029
:10078000C8B96148008800F4804060B10A2C03D0E9
:1007900000205D49088020E05B48008840F400406C
:1007A0005949088019E00D2C06D15748008840F4BB
:1007B00080405549088010E053480088C0F30D0080
:1007C00052490C5450480088401C4F490880084644
:1007D0000088C72801DD0020088010BD1CB501215C
:1007E000022002F0DDFA4FF44050009001208DF815
:1007F000040000208DF8060003208DF8050001207C
:100800008DF807006946424800F0B0FF4FF4805170
:100810003F4801F027F84FF400513D4801F024F81B
:100820001CBD10B5FFF7DAFF01203A49086000202F
:100830003949C1F8B4023948FFF740FF4FF4FA7064
:1008400000F0BAFD00240DE03548015D2D4801F0AF
:100850006BF900BF40212B4801F016FA0128F9D1AD
:10086000601CC4B20B2CEFDB4FF4FA7000F0A4FD57
:1008700000240DE02B48015D224801F055F900BF2E
:100880004021204801F000FA0128F9D1601CC4B2CF
:100890000B2CEFDB10BD2DE9FC4105460E4622A1D5
:1008A00003C9CDE9000100278DF8025003208DF81F
:1008B00005008DF80660022405E01DF804003844A8
:1008C000C7B2601CC4B2072CF7DB8DF80770002498
:1008D0000DE01DF804100B4801F026F900BF40217F
:1008E000084801F0D1F90128F9D1601CC4B2082CE4
:1008F000EFDB4FF4FA7000F05FFD0020BDE8FC81F3
:10090000000802400048004050000020C0000020C5
:1009100000040240B08240420080404240420F004A
:10092000004100080B410008FFFF00040300000025
:100930002DE9F0418AB004460D4616461F46DDF803
:1009400040800121084602F02BFA0121480602F0FE
:1009500070FA4FF4C050089002208DF82400002057
:100960008DF8260003208DF8250001208DF8270042
:1009700008A9804800F0FAFE09220B217D4800F00A
:1009800080FF09220C217B4800F07BFF00208DF8BE
:100990001A008DF81B008DF81C0001208DF81D0039
:1009A00000208DF81E008DF81F008DF816808DF840
:1009B00017408DF818608DF81950ADF8147005A91E
:1009C0006D4802F05AFB00208DF80E0001208DF8D2
:1009D0000F008DF810004FF42E60ADF804000020D9
:1009E000ADF80600ADF80800ADF80A00ADF80C004F
:1009F00001208DF8110001A802F0C9FB012202219B
:100A00005D4802F0C3FE14208DF8000000208DF830
:100A1000010001208DF802008DF80300684600F007
:100A2000B4FD00200AB0BDE8F0812DE9F04186B0A8
:100A300007460D4690460024CDF804800020029021
:100A40008DF80C008DF80D0008208DF80E0000BF09
:100A500005E0395D0DF10F000155601C84B2AC4218
:100A6000F7DB2C4605E000210DF10F000155601C5D
:100A700084B2082CF7DB01A93F4802F077FC064658
:100A8000002401E0601C84B231463B4802F006FDC0
:100A900018B940F6FF708442F4DB40F6FF708442E0
:100AA00003DB012006B0BDE8F0810020FAE730B595
:100AB00085B005460021304802F0D0FD10B9002075
:100AC00005B030BD6A4600212B4802F044FD0024E9
:100AD00004E00DF10B00005D2855641C9DF80A0030
:100AE000A042F6D89DF80A00EAE700B52DED048B88
:100AF00087B002AA0021204802F02DFD0298572855
:100B000032D1DDF8170001909DED010AF7EE000AE1
:100B100030EE600A10EE101A084603F07BFA41EC42
:100B2000190BB0EE490AF0EE690A03F096F9B0EE3F
:100B3000408AF0EE608A9FED110B53EC102B51ECC4
:100B4000180B03F0A1F907D201210E4801F032FA87
:100B500000200D49086006E000210A4801F02AFA49
:100B600001200949086000BF00BF07B0BDEC048B3D
:100B700000BD00000000024000640040FCA9F1D26A
:100B80004D62503F000400402C0000209FEDFC0A05
:100B9000FC4880ED000A9FEDFA0A80ED010A9FED06
:100BA000F80A80ED020A9FEDF60A80ED070A9FED34
:100BB000F60A80ED030A9FEDF20A80ED050A9FED2B
:100BC000F30A80ED040A9FEDEE0AF14880ED000A79
:100BD0009FEDEB0A80ED010A9FEDE90A80ED020A24
:100BE0009FEDE70A80ED070A9FEDE70A80ED030A13
:100BF0009FEDE30A80ED050A9FEDE40A80ED040A0B
:100C0000704710B5E34890ED010A10EE101A08463F
:100C100003F01AF930B1DF4890ED010ADE4880EDAB
:100C2000000A05E0DC4890ED000ADA4880ED010A90
:100C3000D84890ED000A10EE101A084603F004F9A7
:100C400030B1D44890ED000AD44880ED000A05E0A8
:100C5000D24890ED000ACF4880ED000A10BD70B573
:100C60002DED048B00240025C64890ED070A10EEF8
:100C7000101A084603F0CEF941EC190BB0EE490A00
:100C8000F0EE690A03F0E9F8B0EE408AF0EE608A0F
:100C90009FEDC30B53EC102B51EC180B03F084F9B0
:100CA00011D2B84890ED070AB5EEC00AF1EE10FA7D
:100CB00004DD9FEDBD0A80ED070A04E09FEDBB0A4D
:100CC000B04880ED070AAF4890ED070AB1EE400A40
:100CD000DFEDB70A30EE200ADFEDB60A80EE201A0B
:100CE0009FEDB50A21EE000AB44880ED000A0146E6
:100CF00091ED000ABDEEC00A10EE100AC11700EB1C
:100D000011610912A0EB0121AD4A9171AB4991ED3E
:100D1000000ABDEEC00A10EE100AC11700EB116107
:100D2000090AD1710025022405E0A548005D284488
:100D300085B2601CC4B2092CF7DDE843A049887273
:100D4000934890ED070ADFED9A0A70EE200A9FEDB6
:100D5000991A80EE810ADFED980A20EE200A994860
:100D600080ED000A014691ED000ABDEEC00A10EECA
:100D7000100AC11700EB11610912A0EB0121924A80
:100D80009171904991ED000ABDEEC00A10EE100A73
:100D9000C11700EB1161090AD1710025022405E099
:100DA0008948005D284485B2601CC4B2092CF7DD77
:100DB000E84385498872BDEC048B70BD10B52DEDFC
:100DC000088BB0EE408A0446B7EE000AF0EE408A87
:100DD000B7EE000AB0EE409A94ED010A84ED020AE3
:100DE00094ED000A84ED010A94ED000A38EE400A01
:100DF00010EE101A084603F00DF941EC1B0BB0EE93
:100E00004B0AF0EE6B0A03F028F8B0EE40AAF0EEC1
:100E100060AA9FED6E0B53EC102B51EC1A0B03F0F4
:100E2000C3F804D294ED010A84ED000A01E084EDD8
:100E3000008A94ED000ADFED670AB4EEE00AF1EEF5
:100E400010FA07DD94ED000ADFED630A30EE600A68
:100E500084ED000A94ED000ADFED600AB4EEE00ACA
:100E6000F1EE10FA07D294ED000ADFED5B0A30EEE6
:100E7000200A84ED000A94ED000A10EE101A0846CC
:100E800003F0C8F841EC1B0BB0EE4B0AF0EE6B0A16
:100E900002F0E3FFB0EE40AAF0EE60AA9FED500B27
:100EA00053EC102B51EC1A0B03F07EF807D2B7EE7F
:100EB000000AF0EE408A9FED4C0AB0EE409A94EDA5
:100EC000000A10EE101A084603F0A4F841EC1B0BC0
:100ED000B0EE4B0AF0EE6B0A02F0BFFFB0EE40AA94
:100EE000F0EE60AA9FED410B53EC102B51EC1A0B66
:100EF00002F0CAFF03D29FED220A84ED000A94EDAE
:100F0000070AD4ED030A60EEA80A94ED001A00EE79
:100F1000810AD4ED000A94ED011A70EEC10A94ED35
:100F2000041A21EE091A01EE200A84ED070A94ED55
:100F3000070A10EE101A084603F06CF841EC1B0B80
:100F4000B0EE4B0AF0EE6B0A02F087FFB0EE40AA5B
:100F5000F0EE60AA9FED270B53EC102B51EC1A0B0F
:100F600003F022F850D294ED070AB5EEC00AF1EE74
:100F700010FA45DD9FED210A84ED070A44E00000E8
:100F800000000000700000208FC2753D6F12033B0F
:100F90009000002064000020380000203C00002069
:100FA000000000000080414000000C4200000CC224
:100FB00000001643000096430000804430000020EB
:100FC00000000020340000200B0000200000000082
:100FD00000002440000034430000B443000034C348
:100FE00000000000000000406666A63F9A999999AB
:100FF0009999C93F00000000004055400000AA42F6
:101000009FED030A84ED070ABDEC088B10BD0000BC
:101010000000AAC27FB505460C460121022001F05E
:1010200008FF0295ADF804400020ADF80C00ADF8C3
:10103000060001A9384800F034FF01221146364865
:1010400001F0D0FB1D208DF8000000208DF801007C
:1010500003208DF8020001208DF80300684600F09F
:1010600094FA00212C4800F0A5FF7FBD3EB5012178
:10107000294801F0CEFB00284DD02848006808B967
:10108000012000E00020254908600121224801F0EC
:10109000D1FB234890ED010AF0EE000A30EE200A61
:1010A000B1EE400A8DED000A9DED000A9FED1D1A7C
:1010B000C0EE010A9FED1C0A20EE800A8DED000AA9
:1010C000002405E01DF8040001A90855601CC4B205
:1010D000042CF7DB124890ED000A8DED000A9DED1F
:1010E000000ADFED100A80EE201A9FED0F0A21EEB4
:1010F000000A8DED000A002406E01DF8041001AA84
:10110000201D1154601CC4B2042CF6DB57220821A8
:1011100001A8FFF78AFC3EBD00040040B402414232
:101120006400002000003443DB0F494000B58FB05D
:101130000121480501F034FE1A4802F07DFC00BF91
:10114000184802F0A2FD0028FAD14FF0006000908C
:10115000154801901548029000200390102004903B
:10116000002005904FF480600690002007900890C2
:101170004FF4807009904FF440300A9000200B909B
:1011800003200C9000200D900E906946054802F057
:10119000F5FC012240210448001F00F047FD0FB07C
:1011A00000BD00008860024004440040B000002000
:1011B00010B588B004460121084601F0F1FD012177
:1011C000480401F036FE07220221454800F059FB91
:1011D00007220321424800F054FB0C200690022015
:1011E0008DF81C008DF81D0000208DF81E000120D8
:1011F0008DF81F0006A93A4800F0B8FA02940020C2
:10120000ADF80C00ADF80E00ADF81000ADF814000C
:101210000C20ADF8120002A9324800F0D2FB0122E6
:101220004021304800F002FD01212E4800F051FC21
:10123000012240F224412B4800F001FD26208DF8C8
:10124000040001208DF8050002208DF80600012021
:101250008DF8070001A800F098F908B010BD10B58E
:1012600040F224411F4800F025FDC8B100211E486E
:1012700002F0BEFC1B48001D00881C49086019488C
:1012800000880860184802F0D6FCC0F11400174925
:1012900008600121144802F0ABFC012014490860E9
:1012A00010BD70B505460E4600240DE036F814104A
:1012B0000C4800F039FC00BF40210A4800F0E4FC73
:1012C0000128F9D1601CC4B2AC42EFDB70BD10B58F
:1012D0004FF4E120FFF76CFF0A2000F06DF810BD1D
:1012E00000000240004400408860024044000020AA
:1012F0004000002010B504466FF0040000F092F9A1
:10130000E11704EB5171C1F3C701394A117010465E
:10131000007800EB4001C1EBC0104FF6FF7101EA0D
:10132000C0003449088010BD0146314A12784A4352
:101330004FF0E0235A6100229A611A46126942F086
:1013400001021A6100BF4FF0E022106900F00102B3
:101350001AB100F48032002AF5D04FF0E022126971
:1013600022F001024FF0E0231A6100229A617047D7
:101370000146204A12884A434FF0E0235A61002276
:101380009A611A46126942F001021A6100BF4FF0D9
:10139000E022106900F001021AB100F48032002A44
:1013A000F5D04FF0E022126922F001024FF0E02365
:1013B0001A6100229A61704770B504464FF40770B5
:1013C00094FBF0F0C6B24FF4077094FBF0F100FB11
:1013D000114085B205E04FF40770FFF7C9FF701E9A
:1013E000C6B2002EF7D115B12846FFF7C1FF70BD78
:1013F000480000204A00002000BF704700BF4C4A50
:10140000128802F04002002AF9D0C2B2484B9A80FA
:10141000704710B588B004460121084601F0C0FCB1
:101420000121102001F016FD07220921414800F09A
:1014300028FA07220A213F4800F023FA4FF4C0603F
:10144000069002208DF81C008DF81D0000208DF8FC
:101450001E0001208DF81F0006A9364800F086F90D
:1014600002940020ADF80C00ADF80E00ADF81000AD
:10147000ADF814000C20ADF8120002A92C4800F0C1
:10148000A0FA01212A4800F024FB012240F2255154
:10149000274800F0D4FB25208DF8040003208DF8A8
:1014A00005008DF8060001208DF8070001A800F066
:1014B0006CF808B010BD10B540F225511C4800F082
:1014C000F9FB10B31A4800F033FBC4B21A48008885
:1014D00000F40040C8B91848008800F4804060B1AA
:1014E0000A2C03D000201449088020E0124800880C
:1014F00040F400401049088019E00D2C06D10E4838
:10150000008840F480400C49088010E00A480088B8
:10151000C0F30D0009490C5407480088401C0649D7
:10152000088008460088C72801DD0020088010BD1B
:1015300000100140000002405000002088010020FF
:101540000948804709480047FEE7FEE7FEE7FEE757
:10155000FEE7FEE7FEE7FEE7FEE7FEE70448054993
:10156000054A064B7047000049050008890100083C
:10157000B0020020B0080020B0040020B004002019
:1015800032490143324A1160704770B5002100238F
:101590000F22C4781CB32E4C246804F4E064C4F514
:1015A000E064C4F30721C1F10404E3B20A414478C2
:1015B0009C40E1B28478144021430C07210E254C55
:1015C00005786155047804F01F050124AC400578C6
:1015D0006D11AD0005F1E025C5F8004109E0047882
:1015E00004F01F050124AC401B4D0678761145F828
:1015F000264070BD194A0A400243154B1B1F1A6052
:10160000704739B1124A121D12680243104B1B1D5C
:101610001A6006E00E4A121D126882430C4B1B1D15
:101620001A607047042808D14FF0E021096941F0A1
:1016300004014FF0E022116107E04FF0E021096959
:1016400021F004014FF0E022116170470000FA051B
:101650000CED00E000E400E080E100E080FFFF1F0F
:1016600010B504469848844208D10121084601F08B
:1016700002FC0021012001F0FEFB76E09348844249
:1016800008D10121022001F0F6FB0021022001F027
:10169000F2FB6AE08E48844208D10121042001F067
:1016A000EAFB0021042001F0E6FB5EE08948844269
:1016B00008D10121082001F0DEFB0021082001F003
:1016C000DAFB52E08448844208D10121102001F065
:1016D000D2FB0021102001F0CEFB46E07F4884427F
:1016E00008D10121202001F0C6FB0021202001F0BB
:1016F000C2FB3AE07A48844208D10121402001F03F
:10170000BAFB0021402001F0B6FB2EE07548844270
:1017100008D10121802001F0AEFB0021802001F0E2
:10172000AAFB22E07048844208D10121801501F013
:10173000A2FB0021A01501F09EFB16E06B4884423D
:1017400008D10121401501F096FB0021601501F040
:1017500092FB0AE06648844207D10121001501F09E
:101760008AFB0021201501F086FB10BDF0B50A466A
:1017700000210023002400BF3DE0012505FA01F30C
:10178000156805EA03049C4234D105684F0003261E
:10179000BE40B543056015794E00B5400668354337
:1017A00005601579012D02D01579022D16D18568B5
:1017B0004F000326BE40B543856055794E00B540C5
:1017C000866835438560456801268E40B54345608F
:1017D000456896798E40B6B235434560C5684F007E
:1017E0000326BE40B543C560D5794E00B540C668F6
:1017F0003543C560491C1029BFD3F0BD4FF6FF71BA
:1018000001600021017141718171C171704708B59A
:101810004FF480320092009A0A430092009AC2610B
:10182000C161009AC261C2690092C269009208BD9A
:101830000246002013690B400BB1012000E000209C
:1018400070470146086980B270470246002053691C
:101850000B400BB1012000E00020704701464869B1
:1018600080B2704701837047418370470AB101839A
:1018700000E0418370474161704742694A404261DC
:101880007047F0B5002300244D07ED0E02FA05F372
:10189000CE1000F1200555F826504E07F70E0F2602
:1018A000BE40B543CF1000F1200646F82750CE10B9
:1018B00000F1200555F8265045EA0304CE1000F14A
:1018C000200545F82640F0BD00000240000402401B
:1018D00000080240000C02400010024000140240C8
:1018E00000180240001C0240002002400024024078
:1018F0000028024010B50446FA48844208D101216C
:10190000102001F0FCFA0021102001F0F8FA57E055
:10191000F548844209D10121480401F0DFFA002191
:101920004FF4003001F0DAFA4AE0F048844209D17D
:101930000121880401F0D2FA00214FF4802001F047
:10194000CDFA3DE0EA48844209D10121C80401F002
:10195000C5FA00214FF4002001F0C0FA30E0E5485C
:10196000844209D10121080501F0B8FA00214FF4A1
:10197000801001F0B3FA23E0DF48844208D101214E
:10198000202001F0BCFA0021202001F0B8FA17E075
:10199000DA48844209D10121880701F09FFA002129
:1019A0004FF0804001F09AFA0AE0D548844207D10E
:1019B0000121400501F092FA0021600501F08EFA44
:1019C00010BD2DE9FF4705460E460024A14600BF85
:1019D000A046B08900B100BF2C8A24F44054F0889E
:1019E00004432C82AC8941F20C608443B088318975
:1019F0000843718908430443AC81AC8A24F44074E1
:101A0000B0890443AC82684601F0F9F8B5488542D4
:101A100002D0B948854202D1DDF80C9001E0DDF832
:101A20000890A88900F4004040B109EBC90000EB20
:101A3000091031684900B0FBF1F707E009EBC90074
:101A400000EB091031688900B0FBF1F76420B7FBA7
:101A5000F0F004012009642101FB1078A88900F44A
:101A6000004040B1322000EBC800B0FBF1F000F0C4
:101A70000700044308E0322000EB08106421B0FBAB
:101A8000F1F000F00F0004432C81BDE8FF874FF414
:101A90001651016000218180C18001810C214181AA
:101AA00000218181704710B502460020108A20F481
:101AB00070600B884C8823438C882343CC88234355
:101AC0001843108210BD0021018041808180C180B7
:101AD000704721B1828942F40052828104E08289F8
:101AE0004DF6FF731A4082817047028B02F47F42E9
:101AF0000283028B0A430283704721B1828942F438
:101B00000042828103E08289C2F30E028281704723
:101B100021B1828A42F40062828204E0828A4FF21A
:101B2000FF731A4082827047C1F3080282807047B7
:101B300001468888C0F308007047028A4FF6F073A8
:101B40001A400282028A0A430282704721B18289C6
:101B500042F00202828104E082894FF6FD731A404E
:101B60008281704782894FF2FF731A408281828995
:101B70000A4382817047028A4FF6DF731A4002825D
:101B8000028A0A430282704721B1028A42F48042EB
:101B9000028204E0028A4BF6FF731A400282704709
:101BA000818941F001018181704721B1828A42F02F
:101BB0000802828204E0828A4FF6F7731A4082821A
:101BC0007047028BD2B20283028B42EA0122028367
:101BD000704721B1828A42F02002828204E0828A28
:101BE0004FF6DF731A408282704721B1828A42F039
:101BF0001002828204E0828A4FF6EF731A408282DA
:101C00007047828A4FF6FB731A408282828A0A43A7
:101C10008282704721B1828A42F00202828204E00D
:101C2000828A4FF6FD731A40828270471AB1838A06
:101C30000B43838202E0838A8B4383827047F0B533
:101C40000346002400260025002040F66A17B9420A
:101C500000D100BF1846C1F3421401F01F0601274E
:101C600007FA06F5012C01D10C3004E0022C01D159
:101C7000103000E014301AB107682F43076002E00B
:101C80000768AF430760F0BD02460020B1F5007F52
:101C900000D100BF13880B400BB1012000E00020F1
:101CA000704701F40072B2F5007F00D100BFCA4353
:101CB0000280704770B502460024002300250020F2
:101CC00040F66A16B14200D100BFC1F3421501F0DF
:101CD0001F03012606FA03F3012D13D19689334021
:101CE00017E00000001001400044004000480040A0
:101CF000004C0040005000400014014000780040BB
:101D0000007C0040022D02D1168A334001E0968A01
:101D100033400C12012606FA04F41688344013B13D
:101D20000CB1012000E0002070BD10B5002200239E
:101D300040F66A14A14200D100BF0A120124944067
:101D4000A3B2DC43048010BD10B50446FE488442B3
:101D500008D10121084601F0D2F80021012001F04C
:101D6000CEF89DE0B4F1804F08D10121084601F082
:101D7000B5F80021012001F0B1F891E0F348844268
:101D800008D10121022001F0A9F80021022001F070
:101D9000A5F885E0EE48844208D10121042001F035
:101DA0009DF80021042001F099F879E0E948844287
:101DB00008D10121082001F091F80021082001F04C
:101DC0008DF86DE0E448844208D10121102001F033
:101DD00085F80021102001F081F861E0DF4884429D
:101DE00008D10121202001F079F80021202001F004
:101DF00075F855E0DA48844208D10121022001F04B
:101E00007EF80021022001F07AF849E0D5488442AA
:101E100009D10121080401F072F800214FF480304B
:101E200001F06DF83CE0D048844209D1012148041A
:101E300001F065F800214FF4003001F060F82FE068
:101E4000CA48844209D10121880401F058F80021D0
:101E50004FF4802001F053F822E0C548844208D1B5
:101E60000121402001F03AF80021402001F036F82D
:101E700016E0C048844208D10121802001F02EF8EC
:101E80000021802001F02AF80AE0BB48844207D1F3
:101E90000121801501F022F80021A01501F01EF8A3
:101EA00010BD00220288A84B98420ED0AC4B98423D
:101EB0000BD0B0F1804F08D0A44B984205D0A44B72
:101EC000984202D0A34B984204D14FF68F731A4028
:101ED0004B881A43A04B984207D0A04B984204D09D
:101EE0004FF6FF431A400B891A4302804B68C362C6
:101EF0000B880385944B984202D0994B984201D1AC
:101F00008B7A03860123838270474FF0FF31416053
:101F100000210180018141808172704701858282A8
:101F200070470A46002101884FF68F73194011430C
:101F30000180704741627047C16270470146486A3C
:101F400070470146088D704721B1028842F00202B5
:101F5000028004E002884FF6FD731A400280704749
:101F600021B1028842F00402028004E002884FF6A8
:101F7000FB731A400280704721B1028842F0800250
:101F8000028004E002884FF67F731A400280704797
:101F900002884FF6F7731A40028002880A430280D3
:101FA000704702884FF6FF431A40028002880A43B6
:101FB0000280704721B1028842F00102028004E0F1
:101FC00002884FF6FE731A400280704770B50024F5
:101FD00000220023058C4FF6FE7635400584028CE6
:101FE0008388048B4FF68F752C40B51E2C400D88CE
:101FF0002C43751E2A408D892A434D882A43524D11
:10200000A84202D0564DA84213D14FF6F7752A4088
:10201000CD892A434FF6FB752A408D882A434FF617
:10202000FF652B404FF6FF552B400D8A2B434D8A01
:102030002B43838004838D684563028470BD70B533
:10204000002400220023058C4FF6EF7635400584EE
:10205000028C8388048B48F6FF752C404FF6FF45B1
:102060002C400D884FF6FF7606EA05252C434FF6E7
:10207000DF752A408D8906EA05152A434D8806EA50
:1020800005152A43304DA84202D0354DA8421DD136
:102090004FF67F752A40CD894FF6FF7606EA051583
:1020A0002A434FF6BF752A408D8806EA05152A4354
:1020B0004FF6FF352B404FF2FF752B400D8A06EA95
:1020C00085052B434D8A06EA85052B4383800483CF
:1020D0008D688563028470BD70B5002400220023E2
:1020E000058C4FF6FF6635400584028C8388848B0F
:1020F0004FF68F752C404FF6FC752C400D882C4305
:102100004FF6FF552A408D894FF6FF7606EA0525E2
:102110002A434D8806EA05252A430B4DA84202D0E2
:102120000F4DA84238D14FF2FF752A40CD894FF6A6
:10213000FF7606EA05252A434FF6FF352A408D88AB
:1021400006EA05252A4319E000000140000400408A
:1021500000080040000C0040001000400014004047
:10216000000401400040014000440140004801409B
:1021700000180040001C0040002000404EF6FF7593
:102180002B404DF6FF752B400D8A06EA05152B43B3
:102190004D8A06EA05152B43838084838D68C563C9
:1021A000028470BD70B5002200230024058C4EF619
:1021B000FF7635400584038C8488828B48F6FF7552
:1021C0002A404FF6FF452A400D884FF6FF7606EA73
:1021D00005252A434DF6FF752B408D8906EA053506
:1021E0002B434D8806EA05352B43FE4DA84202D00D
:1021F000FD4DA84208D14BF6FF752C400D8A4FF6D5
:10220000FF7606EA85152C43848082838D680564F9
:10221000038470BD002101804180818081608181C3
:10222000C18101824182704770B5034600200024BD
:102230001846183001258D40ACB21D8CA5431D8475
:1022400009B108290AD100EB610005684FF68F76C5
:10225000354005600568154305600FE00D1FC5F3A7
:102260004E052844056848F6FF7635400560056848
:102270004FF6FF7606EA02263543056070BD4163DE
:10228000704781637047C1637047016470470A46B5
:102290000021018B4FF68F73194011430183704762
:1022A0000A460021018B48F6FF7319404FF6FF7371
:1022B00003EA02231943018370470A460021818BF8
:1022C0004FF68F7319401143818370470A460021EE
:1022D000818B48F6FF7319404FF6FF7303EA022320
:1022E0001943818370470A460021018B4FF6F7732B
:1022F00019401143018370470A460021018B4FF2B8
:10230000FF7319404FF6FF7303EA02231943018359
:1023100070470A460021818B4FF6F773194011432D
:10232000818370470A460021818B4FF2FF73194069
:102330004FF6FF7303EA02231943818370470A466D
:102340000021018B4FF6FB73194011430183704745
:102350000A460021018B4FF6FF3319404FF6FF73F9
:1023600003EA02231943018370470A460021818B47
:102370004FF6FB7319401143818370470A460021D1
:10238000818B4FF6FF3319404FF6FF7303EA0223A8
:102390001943818370470A460021018B4FF67F73F2
:1023A00019401143018370470A460021018BC1F394
:1023B0000E014FF6FF7303EA0223194301837047AE
:1023C0000A460021818B4FF67F73194011438183A8
:1023D00070470A460021818BC1F30E014FF6FF734F
:1023E00003EA02231943818370470A460021018CC6
:1023F0004FF6FD7319401143018470470A460021CE
:10240000018C4FF6F77319401143018470470A4657
:102410000021018C4FF6DF7319404FF6FF7303EA7A
:1024200002131943018470470A460021018C4FF6BC
:102430007F7319404FF6FF7303EA021319430184B7
:1024400070470A460021018C4FF6FF5319404FF6A2
:10245000FF7303EA02231943018470470A460021EF
:10246000018C4FF2FF7319404FF6FF7303EA02230A
:102470001943018470470A460021018C4DF6FF7311
:1024800019404FF6FF7303EA023319430184704782
:1024900030B5002301248C40A3B2048C9C430484F7
:1024A000048C02FA01F5ADB22C43048430BD30B582
:1024B000002304248C40A3B2048C9C430484048C29
:1024C00002FA01F5ADB22C43048430BD828B4FF289
:1024D000FF331A408283828B4FF6FF7303EA012396
:1024E0001A4382837047F0B50C461546002100223E
:1024F0000026078C4EF6FF7C07EA0C070784818BC9
:10250000028C4FF6FF7707EA043640F6FF47394062
:102510004FF6FF7707EA052739434FF6FF7707EABB
:102520000337394345F6FF773A4046F480573A433C
:1025300081830284F0BD828B4FF6F3731A4082834D
:10254000828B0A4382837047F0B50C461546002102
:1025500000220026078C4FF6FF6C07EA0C07078461
:10256000818B028C4FF6FF7707EA04264FF60C7733
:1025700039404FF6FF7707EA03172F4339434FF2ED
:10258000FF573A4046F480773A4381830284F0BD96
:10259000028B4FF2FF331A400283028B4FF6FF7318
:1025A00003EA01231A4302837047F0B50C4615462F
:1025B000002100220026078C4FF6EF7C07EA0C076B
:1025C0000784018B028C4FF6FF7707EA041640F66A
:1025D000FF4739404FF6FF7707EA033739434FF695
:1025E000FF7703E0000001400004014007EA0527EF
:1025F00039434FF65F773A4046F010073A4301837C
:102600000284F0BD028B4FF6F3731A400283028BF3
:102610000A4302837047F0B50C461546002100229C
:10262000068C4FF6FE773E400684018B028C4FF6F7
:102630000C7631407E1C06EA03162E4331434FF6DA
:10264000F576324044F00106324301830284F0BD46
:1026500070B505460C46208850B92389A288618848
:102660002846FFF7D8FFE1882846FFF7CBFF25E093
:10267000208804280AD12389A28861882846FFF788
:1026800094FFE1882846FFF783FF17E02088082899
:102690000AD12389A28861882846FFF755FFE1887F
:1026A0002846FFF748FF09E02389A2886188284669
:1026B000FFF719FFE1882846FFF708FF70BD0021EA
:1026C00001804180012181800021C180018170470A
:1026D0002DE9F04105460C4600260127608808B91F
:1026E000022600E00026A088012801D1022700E090
:1026F00001272088A0B92389A28861882846FFF78E
:102700008AFFE1882846FFF77DFF23893A46314654
:102710002846FFF74AFFE1882846FFF739FF13E014
:102720002389A28861882846FFF73FFFE188284671
:10273000FFF72EFF23893A4631462846FFF76BFF05
:10274000E1882846FFF75EFFBDE8F0810146486B4F
:1027500070470146886B70470146C86B7047014659
:10276000086C70470A884B881A438B881A43CB88B9
:102770001A430B891A434B891A438B891A43A0F8D1
:10278000442070470021018041808180C180018107
:1027900041818181704731B1B0F8442042F4004258
:1027A000A0F8442005E0B0F84420C2F30E02A0F8DF
:1027B0004420704721B1828842F00402828004E004
:1027C00082884FF6FB731A408280704721B182885D
:1027D00042F00102828004E082884FF6FE731A40C4
:1027E000828070471AB183890B43838102E0838919
:1027F0008B43838170478182704702460020138A91
:102800000B400BB1012000E000207047CA43028258
:10281000704730B50246002000230024158A05EADF
:102820000103958905EA010413B10CB1012000E010
:10283000002030BDCA430282704741EA0203A0F87B
:10284000483070471AB183890B43838102E0838942
:102850008B438381704721B1828842F008028280D5
:1028600004E082884FF6F7731A408280704701892E
:102870004FF6F8721140018170470A460021018924
:102880004FF68F73194011430181704730B50446EC
:102890000D4629462046FFF7F0FF208940F007004B
:1028A000208130BD2DE9F04104460D4616461F46F5
:1028B000602D06D13B46012231462046FFF775FECA
:1028C00005E03B46012231462046FFF7A4FE29469B
:1028D0002046FFF7D2FF208940F007002081BDE8A5
:1028E000F08130B50C4600210189C9B24FF6FF7561
:1028F00005EA0325154325432943018130BD2DE910
:10290000F04105460E4617469846002443463A468F
:1029100031462846FFF7E5FF2C894FF6F870044052
:1029200044F007044FF68F70044044F070042C818B
:10293000BDE8F081F0B504460D4616461F463B46FD
:10294000324629462046FFF7CCFF208940F48040DC
:102950002081F0BD82884FF68F731A408280828872
:102960000A438280704702894FF6F8731A40028149
:1029700002890A430281704702894FF67F731A4029
:10298000028102890A4302817047F0B50C46154660
:102990001E460021002200230189028B038C4FF682
:1029A000F877394021434FF6FC473A4040F201178F
:1029B0003A434FF6DD773B404FF6FF7707EA0617BD
:1029C0002F433B43018102830384F0BD21B1828800
:1029D00042F08002828004E082884FF67F731A40C2
:1029E00082807047A0F8501070470000F9480068D6
:1029F00040F00100F74908600020F64908310860FE
:102A0000F4480068F4490840F2490860F348091D99
:102A10000860F348EF4984310860F0481038091D18
:102A20000860EC48006820F48020EA490860002033
:102A3000E8490C310860E7498C3108607047002193
:102A4000E44A921C117011460870704710B5014697
:102A50000022002300204A11012A02D1DD4C236804
:102A600008E0022A03D1DB4C7034236802E0D94C21
:102A70007434236801F01F02012494401C400CB1FF
:102A8000012000E0002010BD38B500200090002497
:102A9000002500BF3120FFF7D9FF05460098401CF4
:102AA00000900098B0F5A04F01D0002DF2D0312059
:102AB000FFF7CCFF08B1012400E00024204638BD18
:102AC00001460020C34A106820F0F80040EAC10027
:102AD00010607047C349086070470021BD4A7032DA
:102AE00011701170012802D004280AD104E00121DC
:102AF000B84A7032117005E00521B64A7032117083
:102B000000E000BF00BF7047B7490860704770B56C
:102B1000049C41EA82150126C6EB530645EA0645A8
:102B2000054345EA0465AB4E361D356070BDAD49C1
:102B300008667047820142EA0172A64B84331A602C
:102B40007047A8498866704710B5830143EA01635E
:102B500043EA02739F4C8834236010BDA149086783
:102B60007047A049C864704702460020994B08335B
:102B7000186820F0EC6042EA01031843954B0833D3
:102B80001860704702460020924B0833186820F006
:102B9000784042EA010318438E4B083318607047AF
:102BA000014600208B4A0832106820F003000843D9
:102BB0001060704787480830006800F00C007047CC
:102BC00001460020834A0832106820F0F0000843D4
:102BD00010607047014600207E4A0832106820F4D9
:102BE000E05008431060704701460020794A0832DF
:102BF000106820F4604040EAC10010607047F0B5F2
:102C0000002100220024022500260223714F0837EC
:102C10003F6807F00C0121B1042905D0082937D1FC
:102C200005E0724F076036E0714F076033E0694F8F
:102C30003F1D3F68C7F38056664F3F1D3F6807F052
:102C40003F036EB16A4FB7FBF3F7DFF888C10CF1B1
:102C5000040CDCF800C0CCF3881C07FB0CF40CE07F
:102C6000624FB7FBF3F7DFF86CC10CF1040CDCF832
:102C700000C0CCF3881C07FB0CF4564F3F1D3F6887
:102C8000C7F301477F1C7D00B4FBF5F7076002E046
:102C9000564F076000BF00BF4E4F08373F6807F030
:102CA000F0010909534F7A5C0768D7404760494FE4
:102CB00008373F6807F4E051890A4E4F7A5C47684D
:102CC000D7408760434F08373F6807F46041490B9E
:102CD000484F7A5C4768D740C760F0BD002100F4D8
:102CE0004072B2F5407F0AD13A4A0832116821F4A5
:102CF000F811414A02401143364A08321160354A00
:102D000070321268C0F30B031A43324B70331A60EF
:102D10007047354944390860704733494039086085
:102D2000704736490860704701460020294A8C32B6
:102D3000106820F01F004A1E1043264A8C32106093
:102D4000704701460020234A8C32106820F4F85066
:102D50004A1E40EA02201F4A8C321060704701462A
:102D600000201C4A8C32106820F440100843106088
:102D7000704701460020174A8C32106820F440004A
:102D800008431060704701460020124A8C321068D8
:102D900020F44030084310607047194908607047BC
:102DA00039B10C4A3032126802430A4B30331A6090
:102DB00006E0084A303212688243064B30331A600C
:102DC0007047F9B1034A343212680243014B34337D
:102DD0001A601CE000380240FFFFF6EA10300024C1
:102DE0000030002000004742800E47420024F400DB
:102DF00000127A0052000020FFFCFF0F5C014742E6
:102E0000E01147428F4A126882438E4B1A60704726
:102E100039B18C4A121D126802438A4B1B1D1A607D
:102E200006E0884A121D12688243864B1B1D1A60F9
:102E3000704739B1834A0C3212680243814B0C331C
:102E40001A6006E07F4A0C32126882437D4B0C33D5
:102E50001A60704739B17B4A103212680243794BCD
:102E600010331A6006E0774A103212688243754BBD
:102E700010331A60704739B1724A243A126802431B
:102E8000704B243B1A6006E06E4A243A1268824373
:102E90006C4B243B1A60704739B16A4A203A126879
:102EA0000243684B203B1A6006E0664A203A1268EB
:102EB0008243644B203B1A60704739B1614A1C3A27
:102EC000126802435F4B1C3B1A6006E05D4A1C3AE5
:102ED000126882435B4B1C3B1A60704739B1594AF8
:102EE000143A12680243574B143B1A6006E0554AE5
:102EF000143A12688243534B143B1A60704739B13D
:102F0000504A103A126802434E4B103B1A6006E0DA
:102F10004C4A103A126882434A4B103B1A60704781
:102F200039B1484A1C3212680243464B1C331A60BE
:102F300006E0444A1C3212688243424B1C331A603A
:102F4000704739B13F4A2032126802433D4B20336B
:102F50001A6006E03B4A203212688243394B203324
:102F60001A60704739B1374A243212680243354B30
:102F700024331A6006E0334A243212688243314B0C
:102F800024331A60704739B12E4A2C32126802433A
:102F90002C4B2C331A6006E02A4A2C3212688243EA
:102FA000284B2C331A60704739B1264A30321268E8
:102FB0000243244B30331A6006E0224A3032126852
:102FC0008243204B30331A607047012808D11D49D5
:102FD0003C31096841F008011A4A3C32116007E0AF
:102FE00018493C31096821F00801164A3C32116049
:102FF000704739B1134A273A12780243114B273BE5
:103000001A7006E00F4A273A127882430D4B273B8D
:103010001A7070470B484030006840F080700949D2
:1030200040310860704701460020064A283A12687D
:103030000A400AB1012000E000207047014926390A
:10304000087070473438024010B50446FE48844288
:1030500009D101214806FFF741FF00214FF0007020
:10306000FFF73CFF08E001218806FFF737FF00214A
:103070004FF08060FFF732FF10BD30B502460020F0
:103080000023146824F002041460146844F001045E
:10309000146000E05B1C546804F001041CB94FF696
:1030A000FF74A342F6D1546804F001040CB9002067
:1030B0006CE08C79012C04D1146844F08004146015
:1030C00003E0146824F080041460CC79012C04D14E
:1030D000146844F04004146003E0146824F04004D1
:1030E00014600C7A012C04D1146844F0200414609C
:1030F00003E0146824F0200414604C7A012C04D1FD
:10310000146844F01004146003E0146824F0100400
:1031100014608C7A012C04D1146844F00804146003
:1031200003E0146824F008041460CC7A012C04D164
:10313000146844F00404146003E0146824F00404E8
:1031400014608C78A407CD7844EA05640D7944EACC
:1031500005444D7944EA05540D886D1E2C43D46115
:10316000146824F001041460002300E05B1C546820
:1031700004F001041CB14FF6FF74A342F6D1546869
:1031800004F001040CB1002000E0012030BD10B5B6
:103190000021837A012202FA03F1AC4A126842F05C
:1031A0000102AA4B1A60A94A1C3212688A43A74B33
:1031B0001C331A60027BCAB9A44A0C3212688A43D3
:1031C000A24B0C331A604288C38842EA03439F4AE9
:1031D0004032847A42F834300288838842EA0343DA
:1031E0009A4A4032847A02EBC4025360027B012A7D
:1031F00019D1964A0C3212680A43944B0C331A6068
:103200004288038842EA0343904A4032847A42F873
:103210003430C288838842EA03438C4A4032847A3D
:1032200002EBC4025360C27A3AB9884A121D12688E
:103230008A43864B1B1D1A6006E0844A121D1268E1
:103240000A43824B1B1D1A60028932B97F4A14322D
:1032500012688A437D4B14331A600289012A06D111
:103260007A4A143212680A43784B14331A60427B4C
:10327000012A06D1754A1C3212680A43734B1C336B
:103280001A60724A126822F00102704B1A6010BD77
:1032900000218171C171017241728172C1728170AC
:1032A000C170032101710221417101210180704728
:1032B0006649096841F00101644A116011460968D4
:1032C00043F60E729143614A11601146096841EA62
:1032D000002111601146096821F001011160704759
:1032E00021B1026842F48032026003E0026822F4F5
:1032F000803202607047E1B1026842F080020260F1
:103300004FF4C272125842F480734FF4C2721350D9
:103310004FF4CA72125842F480734FF4CA721350B9
:103320004FF4D272125842F480734FF4D272135099
:103330001BE0026822F0800202604FF4C272125851
:1033400022F480734FF4C27213504FF4CA721258B1
:1033500022F480734FF4CA7213504FF4D272125891
:1033600022F480734FF4D2721350704710B50246A6
:103370000020936803F08063B3F1806F00D110E008
:10338000936803F00063B3F1006F01D1012008E0FE
:10339000936803F08053B3F1805F01D1022000E015
:1033A0000420042879D002F5C07303EB00131B68D6
:1033B00003F0010402F5C07303EB00131C600B7AE9
:1033C0007BB94B7A0C8843EA445302F5C07404EB92
:1033D00000142468234302F5C07404EB0014236036
:1033E00010E00B7A4C6843EAC4034C7A234302F59D
:1033F000C07404EB00142468234302F5C07404EB8A
:10340000001423608B7A03F00F038B7202F5C073F4
:1034100003EB00135B6823F00F0402F5C07303EBAA
:1034200000135C6002F5C07303EB00135B688C7AD9
:10343000234302F5C07404EB001463608B7B1C060D
:103440004B7B44EA034403E0006400400066004014
:103450000B7B44EA0323CC7A234302F5C07404EBCC
:103460000014A3608B7C1C064B7C44EA03440B7C59
:1034700044EA0323CC7B234302F5C07404EB00141D
:10348000E36002F5C07303EB00131B6843F0010413
:1034900002F5C07303EB00131C6010BD10B50246AB
:1034A000002321B1012907D002290FD109E090683A
:1034B000F94C00EA04030BE09068F84C00EA0403BE
:1034C00006E09068F64C00EA040301E0002300BF28
:1034D00000BFF44C181BA34216D007DC83B16FF079
:1034E0008060184470B1022818D111E0B0F5007F57
:1034F00010D0ED4C204448B1B0F5003F0ED10BE0A8
:1035000002230DE000230BE0002309E0002307E085
:10351000012305E0012303E0012301E0002300BFB4
:1035200000BFD8B210BD21B1012907D002290FD1A7
:1035300009E0826842F0800282600AE0826842F418
:103540000042826005E0826842F40002826000E08E
:1035500000BF00BF704710B500F5D87303EB01132F
:103560001B6803F004031372137A53B900F5D87380
:1035700003EB01131B6840F2FF7404EA535313601A
:1035800009E000F5D87303EB01131B686FF060448A
:1035900004EAD303536000F5D87303EB01131B68EF
:1035A00003F00203537200F5D87303EB01135B6859
:1035B00003F00F03937200F5D87303EB01135B68FC
:1035C0001B0AD37400F5D87303EB01139B68D37205
:1035D00000F5D87303EB01139B681C0A147300F504
:1035E000D87303EB01139B681C0C547300F5D8735C
:1035F00003EB01139B681B0E937300F5D87303EB69
:103600000113DB68D37300F5D87303EB0113DB6898
:103610001C0A147400F5D87303EB0113DB681C0C4F
:10362000547400F5D87303EB0113DB681B0E93741D
:1036300021B9C36843F02003C36003E0036943F08A
:103640002003036110BD21B9C26842F02002C260AC
:1036500003E0026942F02002026170470246002046
:1036600019B9D36803F0030006E0012903D11369F7
:1036700003F0030000E00020704710B502460B463F
:1036800000204FF6FF71BBB9146824F0020444F027
:103690000104146000E0491E546804F00304012C86
:1036A00001D00029F7D1546804F00304012C01D0A3
:1036B000002032E0012030E0012B13D1146824F007
:1036C0000304146000E0491E546804F003040CB1C4
:1036D0000029F8D1546804F003040CB100201CE068
:1036E00001201AE0022B17D1146824F0010444F0E1
:1036F0000204146000E0491E546804F00304022C24
:1037000001D00029F7D1546804F00304022C01D041
:10371000002002E0012000E0002010BD0146002052
:103720000A6822F0010242F002020A604A6802F0CE
:103730000302022A00D10120704701464FF6FF72B2
:1037400000200B6823F002030B6000E0521E4B6860
:1037500003F00203022B01D1002AF7D14B6803F0DA
:103760000203022B00D001207047014600208A6925
:1037700002F070007047014600208A69100E704701
:10378000014600208A69C2F3074070471AB14369B5
:103790000B43436102E043698B434361704710B5BB
:1037A0000246002001F4700343B19369C1F313048E
:1037B00023400BB101202DE000202BE001F08073AD
:1037C00043B15368C1F3130423400BB1012021E03E
:1037D00000201FE001F0006343B19368C1F31304BC
:1037E00023400BB1012015E0002013E001F000732D
:1037F00043B1D368C1F3130423400BB1012009E0A6
:10380000002007E01369C1F3130423400BB101202A
:1038100000E0002010BD0022244B994202D1002379
:10382000836111E0C1F3130201F000730BB1C260B8
:103830000AE001F080630BB1026105E001F0006372
:103840000BB1826000E0426070470246002002EA4D
:1038500001030BB1012000E00020704770B5044661
:103860000D46002660692840002872D0B5F5807F9B
:1038700069D01DDC082D42D006DC012D2DD0022D93
:1038800031D0042D7FD134E0102D3ED0202D42D0F8
:10389000402D78D145E0000003000004000300083B
:1038A00000000310000100080001FFF77000F03075
:1038B000B5F5004F61D009DCB5F5007F4AD0B5F50C
:1038C000806F4DD0B5F5006F5DD150E0B5F5803F0C
:1038D0002DD0B5F5003F56D12FE0A0685549FFF730
:1038E000B4FF064651E0E0680321FFF7AEFF06464D
:1038F0004BE0E0680821FFF7A8FF064645E0E068D6
:103900001021FFF7A2FF06463FE020690321FFF7E1
:103910009CFF064639E020690821FFF796FF06461E
:1039200033E020691021FFF790FF06462DE0606824
:103930000821FFF78AFF064627E060681021FFF79D
:1039400084FF064621E0A0690121FFF77EFF0646BD
:103950001BE01BE0A0690221FFF777FF064614E099
:10396000A0690421FFF771FF06460EE00BE0A06995
:103970007021FFF76AFF064607E060680421FFF741
:1039800064FF064601E0002600BF00E00026304646
:1039900070BDB1F5007F3AD00FDC202928D006DCBD
:1039A00001291CD004291DD0082940D11DE040293F
:1039B00021D0B1F5807F3AD126E0B1F5004F31D06A
:1039C00006DCB1F5806F25D0B1F5006F2FD124E072
:1039D000B1F5803F12D0B1F5003F28D111E0154A72
:1039E000826025E00822C26022E01022C2601FE04F
:1039F000082202611CE01022026119E008224260E4
:103A000016E01022426013E00422426010E004221B
:103A100042600DE0042242600AE00022826104223A
:103A2000426005E0002282610422426000E000BFA3
:103A300000BF704701010100016821F00101016030
:103A40000021016041608160C1600161212141610B
:103A5000DB49884204D13D21D94A103A91608CE07B
:103A6000D7491831884205D14FF47461D44A103ACD
:103A7000916082E0D2493031884205D14FF474110F
:103A8000CF4A103A916078E0CD494831884205D15B
:103A90004FF07461CA4A103A91606EE0C8496031D3
:103AA000884204D1C749C64A103AD16065E0C4498A
:103AB0007831884204D1C449C14A103AD1605CE0EF
:103AC000BF499031884204D1C049BD4A103AD16003
:103AD00053E0BB49A831884205D14FF03D51B84A67
:103AE000103AD16049E0BA49884204D13D21B84A30
:103AF000083A116041E0B6491831884205D14FF4C7
:103B00007461B34A083A116037E0B14930318842F4
:103B100005D14FF47411AE4A083A11602DE0AC495A
:103B20004831884205D14FF07461A94A083A1160C2
:103B300023E0A7496031884204D1A249A44A121F58
:103B400011601AE0A2497831884204D19E49A04A06
:103B5000121F116011E09E499031884204D19B49A7
:103B60009B4A121F116008E09949A831884204D18C
:103B70004FF03D51964A121F1160704710B5002258
:103B80000268944B1A40CC680B6823434C6923436A
:103B90008C692343CC6923430C6A23434C6A234337
:103BA0008C6A23434C6B23438C6B23431A43026080
:103BB000426922F00702D1E90B3423431A434261E0
:103BC0000B6943604B6883608B68C36010BD002144
:103BD000016041608160C160016141618161C161D9
:103BE000016241628162C162016341638163704726
:103BF00021B1026842F00102026003E0026822F093
:103C000001020260704721B1026842F40042026082
:103C100003E0026822F400420260704721B10268AA
:103C200042F02002026003E0026822F020020260FB
:103C30007047416070470146486880B2704722B1C2
:103C4000036843F40023036003E0036823F40023C4
:103C500003600161704721B1026842F48022026072
:103C600003E0026822F48022026070470AB1016119
:103C700000E0C1607047014600200A6802F400229B
:103C80000AB1012000E000207047014600200A68C8
:103C900002F001020AB1012000E000207047014655
:103CA00000204A6902F03800704730B503460A46E2
:103CB00000200024464DAB4202D24149103901E0B8
:103CC0004349103902F000550DB14C6800E00C6812
:103CD000414D2C4004EA02050DB1012000E0002016
:103CE00030BD02463A4B9A4202D23548103801E0C4
:103CF0003748103801F000531BB1374B0B40C360FD
:103D000002E0354B0B408360704710B501F0800333
:103D10004BB122B1436943F08003436103E043693F
:103D200023F08003436180290BD02AB1036801F09E
:103D30001E042343036004E0036801F01E04A34350
:103D4000036010BD70B50246002000240025204EFF
:103D5000B24202D21A4B103B01E01D4B103B1F4EEA
:103D60000E4036B11E2606EAD124166806EA04057E
:103D700002E0566906F0800501F000560EB15C685D
:103D800000E01C68144E344004EA010616B10DB17F
:103D9000012000E0002070BD02460D4B9A4202D285
:103DA0000748103801E00A48103801F000531BB1F1
:103DB000094B0B40C36002E0074B0B408360704728
:103DC000106002403D000020400F002000003D2018
:103DD000106402403F801CF07D0F7D0F3C0F3C0FB4
:103DE00070477047704770477047754600F028F875
:103DF000AE4605006946534620F00700854618B0D8
:103E000020B5FDF7ABFBBDE820404FF000064FF0BA
:103E100000074FF000084FF0000B21F00701AC46FF
:103E2000ACE8C009ACE8C009ACE8C009ACE8C0091E
:103E30008D4670470446AFF300802046FCF7EDF94D
:103E400000487047500200200146C1F3C750FF28C8
:103E500001D0012070470020FCE72DED020B0198F6
:103E600020F0004001909DED000B02B0704749101A
:103E700058BFC1F140415B1058BFC3F140438B4272
:103E8000EFF300807047000051EA030C17D41CF5D3
:103E9000801F58BFBCF5801F00F10680994218BFF3
:103EA000704708BF9042704707D711F5801F58BF71
:103EB00013F5801F19D499427047894270471CF549
:103EC000801F08D5BCF5801FF7D58B4218BF7047FF
:103ED00008BF824270474FF4001C1CEB410F38BFF3
:103EE0001CEB430F01D28B42704770B500F008F80D
:103EF000922449004FF000514FF08053FFF7B7BFB5
:103F00000EF1020E2EF0030E5EF8046B364205D45D
:103F1000012A43EB030515F5001F12D8012841EBD8
:103F2000010C1CF5001F0CD80ED14FEAD17C15F501
:103F3000001F0CEB4C0C0CF1020C08BF4CEBD37CBB
:103F400004E04FF0080C01E04FEAD37C0CEB4C0589
:103F500026FA05F606F00706B6F1040C06D20EEBBB
:103F6000860CBDE870404CF0010C6047DFE80CF0B7
:103F7000090B02024FF000414FF00000A1F50021B3
:103F800070BD19461046012851EB010418BFD4F545
:103F9000001484BF002001F0004170BD0808A0F5A6
:103FA00000114FEA3101704753EA010C17D41CF598
:103FB000801F58BFBCF5801F00F106808B4218BFE0
:103FC000704708BF8242704707D713F5801F58BF5C
:103FD00011F5801F19D48B4270479B4270471CF526
:103FE000801F08D5BCF5801FF7D5994218BF7047D0
:103FF00008BF904270474FF4001C1CEB430F38BFC2
:104000001CEB410F01D2994270470FB40CBC03BCAA
:10401000FFF76BBF43004FEAD30C4FEA3C0C434021
:104020001FBF40070CF1605113F0FE4F70471CF0AA
:10403000006F03D100200CF0004170470CF00043EA
:1040400043EA507010B540EACC0000F00EF800BF13
:10405000000000924FEA0001FFF7A0BF4FF00041BF
:104060004FF00000A1F5002170470EF1020E2EF076
:10407000030E5EF8044B244204D44FEA4102B2F12D
:104080007F4F11D84FEA4003B3F17F4F0CD80ED1C8
:104090004FEAD07CB2F17F4F0CEB4C0C0CF1020CD0
:1040A00008BF4CEBD17C04E04FF0080C01E04FEA74
:1040B000D17C0CEB4C0324FA03F404F00704B4F1B4
:1040C000040C06D20EEB840CBDE810404CF0010C41
:1040D0006047DFE80CF0070802024FF00040A0F54F
:1040E000800010BD0846420018BFD2F1807288BF20
:1040F00000F0004010BD4FF04070E1EE100A704734
:10410000FFFF0107031E0000FF00D7FFFF020703A8
:104110001EFF01FF00D6000038410008000000200B
:1041200064000000C40100089C41000864000020F5
:104130004C080000E0010008FFFF0107031E00001B
:10414000FF0300FFFF0207031E0000FF0300000043
:10415000007A030A000000000000000001020304CE
:104160000607080901000000000000000000000030
:10417000000000000000000000000000000000003F
:10418000000000000000000000000000000001022C
:0C419000030401020304060708090000F4
:040000050800018965
:00000001FF
